{
  "_format": "hh-sol-artifact-1",
  "contractName": "Strategy",
  "sourceName": "contracts/Strategy.sol",
  "abi": [
    {
      "inputs": [],
      "stateMutability": "nonpayable",
      "type": "constructor"
    },
    {
      "anonymous": false,
      "inputs": [
        {
          "indexed": false,
          "internalType": "address",
          "name": "stakedPoolAddr",
          "type": "address"
        }
      ],
      "name": "DoHardWork",
      "type": "event"
    },
    {
      "anonymous": false,
      "inputs": [
        {
          "indexed": true,
          "internalType": "address",
          "name": "previousOwner",
          "type": "address"
        },
        {
          "indexed": true,
          "internalType": "address",
          "name": "newOwner",
          "type": "address"
        }
      ],
      "name": "OwnershipTransferred",
      "type": "event"
    },
    {
      "inputs": [
        {
          "components": [
            {
              "internalType": "bool",
              "name": "withdraw",
              "type": "bool"
            },
            {
              "internalType": "bool",
              "name": "swap",
              "type": "bool"
            },
            {
              "internalType": "bool",
              "name": "deposit",
              "type": "bool"
            },
            {
              "internalType": "address",
              "name": "stakedPoolAddr",
              "type": "address"
            },
            {
              "internalType": "address",
              "name": "newPoolAddr",
              "type": "address"
            },
            {
              "internalType": "uint256",
              "name": "amount",
              "type": "uint256"
            },
            {
              "internalType": "uint16",
              "name": "startIndex",
              "type": "uint16"
            },
            {
              "internalType": "uint16",
              "name": "endIndex",
              "type": "uint16"
            }
          ],
          "internalType": "struct IStrategy.DoHardWorkParams",
          "name": "params",
          "type": "tuple"
        }
      ],
      "name": "doHardWork",
      "outputs": [],
      "stateMutability": "nonpayable",
      "type": "function"
    },
    {
      "inputs": [],
      "name": "owner",
      "outputs": [
        {
          "internalType": "address",
          "name": "",
          "type": "address"
        }
      ],
      "stateMutability": "view",
      "type": "function"
    },
    {
      "inputs": [],
      "name": "renounceOwnership",
      "outputs": [],
      "stateMutability": "nonpayable",
      "type": "function"
    },
    {
      "inputs": [
        {
          "internalType": "address",
          "name": "newOwner",
          "type": "address"
        }
      ],
      "name": "transferOwnership",
      "outputs": [],
      "stateMutability": "nonpayable",
      "type": "function"
    }
  ],
  "bytecode": "0x608060405234801561001057600080fd5b5061002d61002261003260201b60201c565b61003a60201b60201c565b6100fe565b600033905090565b60008060009054906101000a900473ffffffffffffffffffffffffffffffffffffffff169050816000806101000a81548173ffffffffffffffffffffffffffffffffffffffff021916908373ffffffffffffffffffffffffffffffffffffffff1602179055508173ffffffffffffffffffffffffffffffffffffffff168173ffffffffffffffffffffffffffffffffffffffff167f8be0079c531659141344cd1fd0a4f28419497f9722a3daafe3b4186f6b6457e060405160405180910390a35050565b610ba68061010d6000396000f3fe608060405234801561001057600080fd5b506004361061004c5760003560e01c8063715018a61461005157806377a5d91c1461005b5780638da5cb5b14610077578063f2fde38b14610095575b600080fd5b6100596100b1565b005b61007560048036038101906100709190610796565b610139565b005b61007f610193565b60405161008c9190610880565b60405180910390f35b6100af60048036038101906100aa919061076d565b6101bc565b005b6100b96102b4565b73ffffffffffffffffffffffffffffffffffffffff166100d7610193565b73ffffffffffffffffffffffffffffffffffffffff161461012d576040517f08c379a0000000000000000000000000000000000000000000000000000000008152600401610124906108dd565b60405180910390fd5b61013760006102bc565b565b8060000151156101565761015581606001518260a00151610380565b5b8060200151156101735761017281606001518260a00151610432565b5b8060400151156101905761018f81606001518260a001516104df565b5b50565b60008060009054906101000a900473ffffffffffffffffffffffffffffffffffffffff16905090565b6101c46102b4565b73ffffffffffffffffffffffffffffffffffffffff166101e2610193565b73ffffffffffffffffffffffffffffffffffffffff1614610238576040517f08c379a000000000000000000000000000000000000000000000000000000000815260040161022f906108dd565b60405180910390fd5b600073ffffffffffffffffffffffffffffffffffffffff168173ffffffffffffffffffffffffffffffffffffffff1614156102a8576040517f08c379a000000000000000000000000000000000000000000000000000000000815260040161029f906108bd565b60405180910390fd5b6102b1816102bc565b50565b600033905090565b60008060009054906101000a900473ffffffffffffffffffffffffffffffffffffffff169050816000806101000a81548173ffffffffffffffffffffffffffffffffffffffff021916908373ffffffffffffffffffffffffffffffffffffffff1602179055508173ffffffffffffffffffffffffffffffffffffffff168173ffffffffffffffffffffffffffffffffffffffff167f8be0079c531659141344cd1fd0a4f28419497f9722a3daafe3b4186f6b6457e060405160405180910390a35050565b600081116103c3576040517f08c379a00000000000000000000000000000000000000000000000000000000081526004016103ba906108fd565b60405180910390fd5b8173ffffffffffffffffffffffffffffffffffffffff16632e1a7d4d826040518263ffffffff1660e01b81526004016103fc919061091d565b600060405180830381600087803b15801561041657600080fd5b505af115801561042a573d6000803e3d6000fd5b505050505050565b8173ffffffffffffffffffffffffffffffffffffffff166394b918de826040518263ffffffff1660e01b815260040161046b919061091d565b600060405180830381600087803b15801561048557600080fd5b505af1158015610499573d6000803e3d6000fd5b505050506104db6040518060400160405280600481526020017f7377617000000000000000000000000000000000000000000000000000000000815250610591565b5050565b60008111610522576040517f08c379a0000000000000000000000000000000000000000000000000000000008152600401610519906108fd565b60405180910390fd5b8173ffffffffffffffffffffffffffffffffffffffff1663b6b55f25826040518263ffffffff1660e01b815260040161055b919061091d565b600060405180830381600087803b15801561057557600080fd5b505af1158015610589573d6000803e3d6000fd5b505050505050565b610627816040516024016105a5919061089b565b6040516020818303038152906040527f41304fac000000000000000000000000000000000000000000000000000000007bffffffffffffffffffffffffffffffffffffffffffffffffffffffff19166020820180517bffffffffffffffffffffffffffffffffffffffffffffffffffffffff838183161783525050505061062a565b50565b60008151905060006a636f6e736f6c652e6c6f679050602083016000808483855afa5050505050565b60008135905061066281610b14565b92915050565b60008135905061067781610b2b565b92915050565b6000610100828403121561069057600080fd5b61069b610100610938565b905060006106ab84828501610668565b60008301525060206106bf84828501610668565b60208301525060406106d384828501610668565b60408301525060606106e784828501610653565b60608301525060806106fb84828501610653565b60808301525060a061070f84828501610758565b60a08301525060c061072384828501610743565b60c08301525060e061073784828501610743565b60e08301525092915050565b60008135905061075281610b42565b92915050565b60008135905061076781610b59565b92915050565b60006020828403121561077f57600080fd5b600061078d84828501610653565b91505092915050565b600061010082840312156107a957600080fd5b60006107b78482850161067d565b91505092915050565b6107c981610979565b82525050565b60006107da8261095d565b6107e48185610968565b93506107f48185602086016109cf565b6107fd81610a62565b840191505092915050565b6000610815602683610968565b915061082082610a73565b604082019050919050565b6000610838602083610968565b915061084382610ac2565b602082019050919050565b600061085b601383610968565b915061086682610aeb565b602082019050919050565b61087a816109c5565b82525050565b600060208201905061089560008301846107c0565b92915050565b600060208201905081810360008301526108b581846107cf565b905092915050565b600060208201905081810360008301526108d681610808565b9050919050565b600060208201905081810360008301526108f68161082b565b9050919050565b600060208201905081810360008301526109168161084e565b9050919050565b60006020820190506109326000830184610871565b92915050565b6000610942610953565b905061094e8282610a02565b919050565b6000604051905090565b600081519050919050565b600082825260208201905092915050565b6000610984826109a5565b9050919050565b60008115159050919050565b600061ffff82169050919050565b600073ffffffffffffffffffffffffffffffffffffffff82169050919050565b6000819050919050565b60005b838110156109ed5780820151818401526020810190506109d2565b838111156109fc576000848401525b50505050565b610a0b82610a62565b810181811067ffffffffffffffff82111715610a2a57610a29610a33565b5b80604052505050565b7f4e487b7100000000000000000000000000000000000000000000000000000000600052604160045260246000fd5b6000601f19601f8301169050919050565b7f4f776e61626c653a206e6577206f776e657220697320746865207a65726f206160008201527f6464726573730000000000000000000000000000000000000000000000000000602082015250565b7f4f776e61626c653a2063616c6c6572206973206e6f7420746865206f776e6572600082015250565b7f7a65726f206465706f73697420616d6f756e7400000000000000000000000000600082015250565b610b1d81610979565b8114610b2857600080fd5b50565b610b348161098b565b8114610b3f57600080fd5b50565b610b4b81610997565b8114610b5657600080fd5b50565b610b62816109c5565b8114610b6d57600080fd5b5056fea2646970667358221220e024c572a895a10e22991573620251886385c088889bebd8484d0c278fe8409d64736f6c63430008040033",
  "linkReferences": {},
  "deployedLinkReferences": {}
}