{
  "_format": "hh-sol-artifact-1",
  "contractName": "Manager",
  "sourceName": "contracts/Manager.sol",
  "abi": [
    {
      "inputs": [
        {
          "internalType": "address",
          "name": "_owner",
          "type": "address"
        },
        {
          "internalType": "address",
          "name": "_admin",
          "type": "address"
        }
      ],
      "stateMutability": "nonpayable",
      "type": "constructor"
    },
    {
      "anonymous": false,
      "inputs": [
        {
          "indexed": false,
          "internalType": "uint16",
          "name": "startIndex",
          "type": "uint16"
        },
        {
          "indexed": false,
          "internalType": "uint16",
          "name": "endIndex",
          "type": "uint16"
        },
        {
          "indexed": true,
          "internalType": "address",
          "name": "stakedPoolAddr",
          "type": "address"
        },
        {
          "indexed": true,
          "internalType": "address",
          "name": "newPoolAddr",
          "type": "address"
        },
        {
          "indexed": true,
          "internalType": "uint256",
          "name": "blockNum",
          "type": "uint256"
        }
      ],
      "name": "DoHardWork",
      "type": "event"
    },
    {
      "anonymous": false,
      "inputs": [
        {
          "indexed": false,
          "internalType": "address",
          "name": "newAdmin",
          "type": "address"
        }
      ],
      "name": "SetAdmin",
      "type": "event"
    },
    {
      "anonymous": false,
      "inputs": [
        {
          "indexed": true,
          "internalType": "uint16",
          "name": "startIndex",
          "type": "uint16"
        },
        {
          "indexed": true,
          "internalType": "uint16",
          "name": "endIndex",
          "type": "uint16"
        },
        {
          "indexed": true,
          "internalType": "address",
          "name": "stakedToken",
          "type": "address"
        }
      ],
      "name": "TransferToManager",
      "type": "event"
    },
    {
      "anonymous": false,
      "inputs": [
        {
          "indexed": false,
          "internalType": "uint256",
          "name": "amount",
          "type": "uint256"
        }
      ],
      "name": "TransferToOwner",
      "type": "event"
    },
    {
      "anonymous": false,
      "inputs": [
        {
          "indexed": false,
          "internalType": "uint16",
          "name": "startIndex",
          "type": "uint16"
        },
        {
          "indexed": false,
          "internalType": "uint16",
          "name": "endIndex",
          "type": "uint16"
        },
        {
          "indexed": true,
          "internalType": "uint256",
          "name": "amount",
          "type": "uint256"
        },
        {
          "indexed": true,
          "internalType": "address",
          "name": "stakedToken",
          "type": "address"
        }
      ],
      "name": "TransferToWorkers",
      "type": "event"
    },
    {
      "anonymous": false,
      "inputs": [
        {
          "indexed": false,
          "internalType": "uint256",
          "name": "nWorkers",
          "type": "uint256"
        }
      ],
      "name": "WorkersAdded",
      "type": "event"
    },
    {
      "inputs": [
        {
          "internalType": "uint16",
          "name": "numWorkersToAdd",
          "type": "uint16"
        }
      ],
      "name": "addWorkers",
      "outputs": [],
      "stateMutability": "nonpayable",
      "type": "function"
    },
    {
      "inputs": [],
      "name": "admin",
      "outputs": [
        {
          "internalType": "address",
          "name": "",
          "type": "address"
        }
      ],
      "stateMutability": "view",
      "type": "function"
    },
    {
      "inputs": [
        {
          "components": [
            {
              "internalType": "bool",
              "name": "withdraw",
              "type": "bool"
            },
            {
              "internalType": "bool",
              "name": "swap",
              "type": "bool"
            },
            {
              "internalType": "bool",
              "name": "deposit",
              "type": "bool"
            },
            {
              "internalType": "address",
              "name": "stakedPoolAddr",
              "type": "address"
            },
            {
              "internalType": "address",
              "name": "newPoolAddr",
              "type": "address"
            },
            {
              "internalType": "uint256",
              "name": "amount",
              "type": "uint256"
            },
            {
              "internalType": "uint256",
              "name": "pid",
              "type": "uint256"
            },
            {
              "internalType": "uint16",
              "name": "startIndex",
              "type": "uint16"
            },
            {
              "internalType": "uint16",
              "name": "endIndex",
              "type": "uint16"
            },
            {
              "internalType": "uint256",
              "name": "blockNum",
              "type": "uint256"
            },
            {
              "components": [
                {
                  "internalType": "address",
                  "name": "swapRouter",
                  "type": "address"
                },
                {
                  "internalType": "uint256",
                  "name": "multiplier",
                  "type": "uint256"
                },
                {
                  "internalType": "address[]",
                  "name": "path",
                  "type": "address[]"
                },
                {
                  "internalType": "uint256",
                  "name": "deadline",
                  "type": "uint256"
                }
              ],
              "internalType": "struct IWorker.SwapParams",
              "name": "swapParams",
              "type": "tuple"
            }
          ],
          "internalType": "struct IWorker.DoHardWorkParams",
          "name": "params",
          "type": "tuple"
        }
      ],
      "name": "doHardWork",
      "outputs": [],
      "stateMutability": "nonpayable",
      "type": "function"
    },
    {
      "inputs": [
        {
          "internalType": "address",
          "name": "target",
          "type": "address"
        },
        {
          "internalType": "bytes",
          "name": "data",
          "type": "bytes"
        }
      ],
      "name": "emergencyFunctionCall",
      "outputs": [],
      "stateMutability": "nonpayable",
      "type": "function"
    },
    {
      "inputs": [
        {
          "internalType": "address",
          "name": "target",
          "type": "address"
        },
        {
          "internalType": "bytes",
          "name": "data",
          "type": "bytes"
        }
      ],
      "name": "emergencyFunctionDelegateCall",
      "outputs": [],
      "stateMutability": "nonpayable",
      "type": "function"
    },
    {
      "inputs": [],
      "name": "getNWorkers",
      "outputs": [
        {
          "internalType": "uint256",
          "name": "",
          "type": "uint256"
        }
      ],
      "stateMutability": "view",
      "type": "function"
    },
    {
      "inputs": [],
      "name": "getWorkers",
      "outputs": [
        {
          "internalType": "address[]",
          "name": "",
          "type": "address[]"
        }
      ],
      "stateMutability": "view",
      "type": "function"
    },
    {
      "inputs": [],
      "name": "owner",
      "outputs": [
        {
          "internalType": "address",
          "name": "",
          "type": "address"
        }
      ],
      "stateMutability": "view",
      "type": "function"
    },
    {
      "inputs": [
        {
          "internalType": "address",
          "name": "newAdmin",
          "type": "address"
        }
      ],
      "name": "setAdmin",
      "outputs": [],
      "stateMutability": "nonpayable",
      "type": "function"
    },
    {
      "inputs": [
        {
          "components": [
            {
              "internalType": "address",
              "name": "stakedToken",
              "type": "address"
            },
            {
              "internalType": "uint16",
              "name": "startIndex",
              "type": "uint16"
            },
            {
              "internalType": "uint16",
              "name": "endIndex",
              "type": "uint16"
            }
          ],
          "internalType": "struct IWorker.TransferMngParams",
          "name": "params",
          "type": "tuple"
        }
      ],
      "name": "transferToManager",
      "outputs": [],
      "stateMutability": "nonpayable",
      "type": "function"
    },
    {
      "inputs": [
        {
          "internalType": "address",
          "name": "stakedToken",
          "type": "address"
        }
      ],
      "name": "transferToOwner",
      "outputs": [],
      "stateMutability": "nonpayable",
      "type": "function"
    },
    {
      "inputs": [
        {
          "components": [
            {
              "internalType": "address",
              "name": "stakedToken",
              "type": "address"
            },
            {
              "internalType": "uint256",
              "name": "amount",
              "type": "uint256"
            },
            {
              "internalType": "uint16",
              "name": "startIndex",
              "type": "uint16"
            },
            {
              "internalType": "uint16",
              "name": "endIndex",
              "type": "uint16"
            }
          ],
          "internalType": "struct IWorker.TransferWorkersParams",
          "name": "params",
          "type": "tuple"
        }
      ],
      "name": "transferToWorkers",
      "outputs": [],
      "stateMutability": "nonpayable",
      "type": "function"
    },
    {
      "inputs": [
        {
          "internalType": "uint256",
          "name": "",
          "type": "uint256"
        }
      ],
      "name": "workers",
      "outputs": [
        {
          "internalType": "address",
          "name": "",
          "type": "address"
        }
      ],
      "stateMutability": "view",
      "type": "function"
    }
  ],
  "bytecode": "0x60a06040523480156200001157600080fd5b5060405162004a0c38038062004a0c8339818101604052810190620000379190620000d6565b60016000819055508173ffffffffffffffffffffffffffffffffffffffff1660808173ffffffffffffffffffffffffffffffffffffffff1660601b8152505080600160006101000a81548173ffffffffffffffffffffffffffffffffffffffff021916908373ffffffffffffffffffffffffffffffffffffffff160217905550505062000165565b600081519050620000d0816200014b565b92915050565b60008060408385031215620000ea57600080fd5b6000620000fa85828601620000bf565b92505060206200010d85828601620000bf565b9150509250929050565b600062000124826200012b565b9050919050565b600073ffffffffffffffffffffffffffffffffffffffff82169050919050565b620001568162000117565b81146200016257600080fd5b50565b60805160601c61483b620001d1600039600081816102a701528181610594015281816106380152818161072d015281816109e501528181610beb01528181610cf901528181610e7a01528181610f0001528181610f260152818161109e0152611693015261483b6000f3fe60806040523480156200001157600080fd5b5060043610620000e25760003560e01c8063812d504d1162000099578063d168c57e116200006f578063d168c57e146200020d578063e78d73ad146200022d578063f1a22dc2146200024d578063f851a440146200028357620000e2565b8063812d504d14620001a95780638da5cb5b14620001c9578063c1499f7114620001eb57620000e2565b8063289178fe14620000e75780632ab0aabb14620001075780634257ecb214620001275780634c413b0314620001495780635e3792f71462000169578063704b6c021462000189575b600080fd5b620001056004803603810190620000ff919062002069565b620002a5565b005b6200012560048036038101906200011f919062001fe3565b62000592565b005b6200013162000634565b6040516200014091906200298b565b60405180910390f35b620001676004803603810190620001619190620020ae565b6200072b565b005b62000187600480360381019062000181919062002106565b620009e3565b005b620001a76004803603810190620001a1919062001fb7565b62000be9565b005b620001c76004803603810190620001c1919062001fb7565b62000cf7565b005b620001d362000efe565b604051620001e2919062002798565b60405180910390f35b620001f562000f22565b604051620002049190620027e2565b60405180910390f35b6200022b6004803603810190620002259190620020da565b6200109c565b005b6200024b600480360381019062000245919062001fe3565b62001691565b005b6200026b600480360381019062000265919062002132565b62001733565b6040516200027a919062002798565b60405180910390f35b6200028d62001773565b6040516200029c919062002798565b60405180910390f35b7f000000000000000000000000000000000000000000000000000000000000000073ffffffffffffffffffffffffffffffffffffffff163373ffffffffffffffffffffffffffffffffffffffff1614806200034d5750600160009054906101000a900473ffffffffffffffffffffffffffffffffffffffff1673ffffffffffffffffffffffffffffffffffffffff163373ffffffffffffffffffffffffffffffffffffffff16145b6200038f576040517f08c379a000000000000000000000000000000000000000000000000000000000815260040162000386906200286e565b60405180910390fd5b60028054905081610100015161ffff1611158015620003be575080610100015161ffff168160e0015161ffff16105b62000400576040517f08c379a0000000000000000000000000000000000000000000000000000000008152600401620003f7906200284c565b60405180910390fd5b60008160e0015190505b81610100015161ffff168161ffff1610156200050e5760028161ffff16815481106200045f577f4e487b7100000000000000000000000000000000000000000000000000000000600052603260045260246000fd5b9060005260206000200160009054906101000a900473ffffffffffffffffffffffffffffffffffffffff1673ffffffffffffffffffffffffffffffffffffffff1663289178fe836040518263ffffffff1660e01b8152600401620004c491906200293a565b600060405180830381600087803b158015620004df57600080fd5b505af1158015620004f4573d6000803e3d6000fd5b505050508080620005059062002c8b565b9150506200040a565b50806101200151816080015173ffffffffffffffffffffffffffffffffffffffff16826060015173ffffffffffffffffffffffffffffffffffffffff167fed3cf09518427018d68a0a250858db86573b6b3b3a5b737f0267cb0920c451798460e00151856101000151604051620005879291906200295e565b60405180910390a450565b7f000000000000000000000000000000000000000000000000000000000000000073ffffffffffffffffffffffffffffffffffffffff163373ffffffffffffffffffffffffffffffffffffffff161462000623576040517f08c379a00000000000000000000000000000000000000000000000000000000081526004016200061a90620028f6565b60405180910390fd5b6200062f828262001799565b505050565b60007f000000000000000000000000000000000000000000000000000000000000000073ffffffffffffffffffffffffffffffffffffffff163373ffffffffffffffffffffffffffffffffffffffff161480620006de5750600160009054906101000a900473ffffffffffffffffffffffffffffffffffffffff1673ffffffffffffffffffffffffffffffffffffffff163373ffffffffffffffffffffffffffffffffffffffff16145b62000720576040517f08c379a000000000000000000000000000000000000000000000000000000000815260040162000717906200286e565b60405180910390fd5b600280549050905090565b7f000000000000000000000000000000000000000000000000000000000000000073ffffffffffffffffffffffffffffffffffffffff163373ffffffffffffffffffffffffffffffffffffffff161480620007d35750600160009054906101000a900473ffffffffffffffffffffffffffffffffffffffff1673ffffffffffffffffffffffffffffffffffffffff163373ffffffffffffffffffffffffffffffffffffffff16145b62000815576040517f08c379a00000000000000000000000000000000000000000000000000000000081526004016200080c906200286e565b60405180910390fd5b60008160200160208101906200082c919062002106565b90505b81604001602081019062000844919062002106565b61ffff168161ffff161015620009565760028161ffff168154811062000893577f4e487b7100000000000000000000000000000000000000000000000000000000600052603260045260246000fd5b9060005260206000200160009054906101000a900473ffffffffffffffffffffffffffffffffffffffff1673ffffffffffffffffffffffffffffffffffffffff1663c90d048e836000016020810190620008ee919062001fb7565b6040518263ffffffff1660e01b81526004016200090c919062002798565b600060405180830381600087803b1580156200092757600080fd5b505af11580156200093c573d6000803e3d6000fd5b5050505080806200094d9062002c8b565b9150506200082f565b508060000160208101906200096c919062001fb7565b73ffffffffffffffffffffffffffffffffffffffff1681604001602081019062000997919062002106565b61ffff16826020016020810190620009b0919062002106565b61ffff167f2e52f7960fcea0183dbb2c49529001dfec948638381267363c47e2180cfc664360405160405180910390a450565b7f000000000000000000000000000000000000000000000000000000000000000073ffffffffffffffffffffffffffffffffffffffff163373ffffffffffffffffffffffffffffffffffffffff16148062000a8b5750600160009054906101000a900473ffffffffffffffffffffffffffffffffffffffff1673ffffffffffffffffffffffffffffffffffffffff163373ffffffffffffffffffffffffffffffffffffffff16145b62000acd576040517f08c379a000000000000000000000000000000000000000000000000000000000815260040162000ac4906200286e565b60405180910390fd5b60008161ffff1660028054905062000ae6919062002aba565b9050600060028054905090505b8181101562000ba657600060405162000b0c9062001c01565b604051809103906000f08015801562000b29573d6000803e3d6000fd5b5090506002819080600181540180825580915050600190039060005260206000200160009091909190916101000a81548173ffffffffffffffffffffffffffffffffffffffff021916908373ffffffffffffffffffffffffffffffffffffffff16021790555050808062000b9d9062002cbb565b91505062000af3565b507f3ea8142895fe7d4af1f88d8b1d563937502baceb3254aa0e2bed1a348bd5228f60028054905060405162000bdd91906200298b565b60405180910390a15050565b7f000000000000000000000000000000000000000000000000000000000000000073ffffffffffffffffffffffffffffffffffffffff163373ffffffffffffffffffffffffffffffffffffffff161462000c7a576040517f08c379a000000000000000000000000000000000000000000000000000000000815260040162000c7190620028f6565b60405180910390fd5b80600160006101000a81548173ffffffffffffffffffffffffffffffffffffffff021916908373ffffffffffffffffffffffffffffffffffffffff1602179055507f5a272403b402d892977df56625f4164ccaf70ca3863991c43ecfe76a6905b0a18160405162000cec919062002798565b60405180910390a150565b7f000000000000000000000000000000000000000000000000000000000000000073ffffffffffffffffffffffffffffffffffffffff163373ffffffffffffffffffffffffffffffffffffffff16148062000d9f5750600160009054906101000a900473ffffffffffffffffffffffffffffffffffffffff1673ffffffffffffffffffffffffffffffffffffffff163373ffffffffffffffffffffffffffffffffffffffff16145b62000de1576040517f08c379a000000000000000000000000000000000000000000000000000000000815260040162000dd8906200286e565b60405180910390fd5b60008173ffffffffffffffffffffffffffffffffffffffff166370a08231306040518263ffffffff1660e01b815260040162000e1e919062002798565b60206040518083038186803b15801562000e3757600080fd5b505afa15801562000e4c573d6000803e3d6000fd5b505050506040513d601f19601f8201168201806040525081019062000e7291906200215e565b905062000ec17f0000000000000000000000000000000000000000000000000000000000000000828473ffffffffffffffffffffffffffffffffffffffff16620017c99092919063ffffffff16565b7fb91557f3050411a13a7e7631fe8461fcd94ec09d9a2b122e22e0b294998053c68160405162000ef291906200298b565b60405180910390a15050565b7f000000000000000000000000000000000000000000000000000000000000000081565b60607f000000000000000000000000000000000000000000000000000000000000000073ffffffffffffffffffffffffffffffffffffffff163373ffffffffffffffffffffffffffffffffffffffff16148062000fcc5750600160009054906101000a900473ffffffffffffffffffffffffffffffffffffffff1673ffffffffffffffffffffffffffffffffffffffff163373ffffffffffffffffffffffffffffffffffffffff16145b6200100e576040517f08c379a000000000000000000000000000000000000000000000000000000000815260040162001005906200286e565b60405180910390fd5b60028054806020026020016040519081016040528092919081815260200182805480156200109257602002820191906000526020600020905b8160009054906101000a900473ffffffffffffffffffffffffffffffffffffffff1673ffffffffffffffffffffffffffffffffffffffff168152602001906001019080831162001047575b5050505050905090565b7f000000000000000000000000000000000000000000000000000000000000000073ffffffffffffffffffffffffffffffffffffffff163373ffffffffffffffffffffffffffffffffffffffff161480620011445750600160009054906101000a900473ffffffffffffffffffffffffffffffffffffffff1673ffffffffffffffffffffffffffffffffffffffff163373ffffffffffffffffffffffffffffffffffffffff16145b62001186576040517f08c379a00000000000000000000000000000000000000000000000000000000081526004016200117d906200286e565b60405180910390fd5b6000808260000160208101906200119e919062001fb7565b73ffffffffffffffffffffffffffffffffffffffff166370a08231306040518263ffffffff1660e01b8152600401620011d8919062002798565b60206040518083038186803b158015620011f157600080fd5b505afa15801562001206573d6000803e3d6000fd5b505050506040513d601f19601f820116820180604052508101906200122c91906200215e565b90508083604001602081019062001244919062002106565b84606001602081019062001259919062002106565b62001265919062002b78565b61ffff1684602001356200127a919062002b17565b1115620012be576040517f08c379a0000000000000000000000000000000000000000000000000000000008152600401620012b59062002918565b60405180910390fd5b6000836040016020810190620012d5919062002106565b90505b836060016020810190620012ed919062002106565b61ffff168161ffff161015620015f85783600001602081019062001312919062001fb7565b73ffffffffffffffffffffffffffffffffffffffff166370a0823160028361ffff16815481106200136c577f4e487b7100000000000000000000000000000000000000000000000000000000600052603260045260246000fd5b9060005260206000200160009054906101000a900473ffffffffffffffffffffffffffffffffffffffff166040518263ffffffff1660e01b8152600401620013b5919062002798565b60206040518083038186803b158015620013ce57600080fd5b505afa158015620013e3573d6000803e3d6000fd5b505050506040513d601f19601f820116820180604052508101906200140991906200215e565b8460200135116200141957600080fd5b8360000160208101906200142e919062001fb7565b73ffffffffffffffffffffffffffffffffffffffff166370a0823160028361ffff168154811062001488577f4e487b7100000000000000000000000000000000000000000000000000000000600052603260045260246000fd5b9060005260206000200160009054906101000a900473ffffffffffffffffffffffffffffffffffffffff166040518263ffffffff1660e01b8152600401620014d1919062002798565b60206040518083038186803b158015620014ea57600080fd5b505afa158015620014ff573d6000803e3d6000fd5b505050506040513d601f19601f820116820180604052508101906200152591906200215e565b846020013562001536919062002bb3565b9250620015e260028261ffff16815481106200157b577f4e487b7100000000000000000000000000000000000000000000000000000000600052603260045260246000fd5b9060005260206000200160009054906101000a900473ffffffffffffffffffffffffffffffffffffffff1684866000016020810190620015bc919062001fb7565b73ffffffffffffffffffffffffffffffffffffffff16620017c99092919063ffffffff16565b8080620015ef9062002c8b565b915050620012d8565b508260000160208101906200160e919062001fb7565b73ffffffffffffffffffffffffffffffffffffffff1683602001357f253d71e585f0bb6d674a7179fcbde0322cdb3e983a10839748f4b63e64f4ee848560400160208101906200165f919062002106565b86606001602081019062001674919062002106565b604051620016849291906200295e565b60405180910390a3505050565b7f000000000000000000000000000000000000000000000000000000000000000073ffffffffffffffffffffffffffffffffffffffff163373ffffffffffffffffffffffffffffffffffffffff161462001722576040517f08c379a00000000000000000000000000000000000000000000000000000000081526004016200171990620028f6565b60405180910390fd5b6200172e828262001853565b505050565b600281815481106200174457600080fd5b906000526020600020016000915054906101000a900473ffffffffffffffffffffffffffffffffffffffff1681565b600160009054906101000a900473ffffffffffffffffffffffffffffffffffffffff1681565b6060620017c18383604051806060016040528060278152602001620047df602791396200189f565b905092915050565b6200184e8363a9059cbb60e01b8484604051602401620017eb929190620027b5565b604051602081830303815290604052907bffffffffffffffffffffffffffffffffffffffffffffffffffffffff19166020820180517bffffffffffffffffffffffffffffffffffffffffffffffffffffffff838183161783525050505062001977565b505050565b60606200189783836040518060400160405280601e81526020017f416464726573733a206c6f772d6c6576656c2063616c6c206661696c6564000081525062001a46565b905092915050565b6060620018ac8462001a60565b620018ee576040517f08c379a0000000000000000000000000000000000000000000000000000000008152600401620018e59062002890565b60405180910390fd5b6000808573ffffffffffffffffffffffffffffffffffffffff16856040516200191891906200277f565b600060405180830381855af49150503d806000811462001955576040519150601f19603f3d011682016040523d82523d6000602084013e6200195a565b606091505b50915091506200196c82828662001a73565b925050509392505050565b6000620019db826040518060400160405280602081526020017f5361666545524332303a206c6f772d6c6576656c2063616c6c206661696c65648152508573ffffffffffffffffffffffffffffffffffffffff1662001a469092919063ffffffff16565b905060008151111562001a415780806020019051810190620019fe91906200203d565b62001a40576040517f08c379a000000000000000000000000000000000000000000000000000000000815260040162001a3790620028d4565b60405180910390fd5b5b505050565b606062001a57848460008562001adf565b90509392505050565b600080823b905060008111915050919050565b6060831562001a855782905062001ad8565b60008351111562001a995782518084602001fd5b816040517f08c379a000000000000000000000000000000000000000000000000000000000815260040162001acf919062002806565b60405180910390fd5b9392505050565b60608247101562001b27576040517f08c379a000000000000000000000000000000000000000000000000000000000815260040162001b1e906200282a565b60405180910390fd5b62001b328562001a60565b62001b74576040517f08c379a000000000000000000000000000000000000000000000000000000000815260040162001b6b90620028b2565b60405180910390fd5b6000808673ffffffffffffffffffffffffffffffffffffffff16858760405162001b9f91906200277f565b60006040518083038185875af1925050503d806000811462001bde576040519150601f19603f3d011682016040523d82523d6000602084013e62001be3565b606091505b509150915062001bf582828662001a73565b92505050949350505050565b6119fe8062002de183390190565b600062001c2662001c2084620029dc565b620029a8565b9050808382526020820190508285602086028201111562001c4657600080fd5b60005b8581101562001c7a578162001c5f888262001cc9565b84526020840193506020830192505060018101905062001c49565b5050509392505050565b600062001c9b62001c958462002a0b565b620029a8565b90508281526020810184848401111562001cb457600080fd5b62001cc184828562002c46565b509392505050565b60008135905062001cda8162002d78565b92915050565b600082601f83011262001cf257600080fd5b813562001d0484826020860162001c0f565b91505092915050565b60008135905062001d1e8162002d92565b92915050565b60008151905062001d358162002d92565b92915050565b600082601f83011262001d4d57600080fd5b813562001d5f84826020860162001c84565b91505092915050565b6000610160828403121562001d7c57600080fd5b62001d89610160620029a8565b9050600062001d9b8482850162001d0d565b600083015250602062001db18482850162001d0d565b602083015250604062001dc78482850162001d0d565b604083015250606062001ddd8482850162001cc9565b606083015250608062001df38482850162001cc9565b60808301525060a062001e098482850162001f89565b60a08301525060c062001e1f8482850162001f89565b60c08301525060e062001e358482850162001f72565b60e08301525061010062001e4c8482850162001f72565b6101008301525061012062001e648482850162001f89565b6101208301525061014082013567ffffffffffffffff81111562001e8757600080fd5b62001e958482850162001ea2565b6101408301525092915050565b60006080828403121562001eb557600080fd5b62001ec16080620029a8565b9050600062001ed38482850162001cc9565b600083015250602062001ee98482850162001f89565b602083015250604082013567ffffffffffffffff81111562001f0a57600080fd5b62001f188482850162001ce0565b604083015250606062001f2e8482850162001f89565b60608301525092915050565b60006060828403121562001f4d57600080fd5b81905092915050565b60006080828403121562001f6957600080fd5b81905092915050565b60008135905062001f838162002dac565b92915050565b60008135905062001f9a8162002dc6565b92915050565b60008151905062001fb18162002dc6565b92915050565b60006020828403121562001fca57600080fd5b600062001fda8482850162001cc9565b91505092915050565b6000806040838503121562001ff757600080fd5b6000620020078582860162001cc9565b925050602083013567ffffffffffffffff8111156200202557600080fd5b620020338582860162001d3b565b9150509250929050565b6000602082840312156200205057600080fd5b6000620020608482850162001d24565b91505092915050565b6000602082840312156200207c57600080fd5b600082013567ffffffffffffffff8111156200209757600080fd5b620020a58482850162001d68565b91505092915050565b600060608284031215620020c157600080fd5b6000620020d18482850162001f3a565b91505092915050565b600060808284031215620020ed57600080fd5b6000620020fd8482850162001f56565b91505092915050565b6000602082840312156200211957600080fd5b6000620021298482850162001f72565b91505092915050565b6000602082840312156200214557600080fd5b6000620021558482850162001f89565b91505092915050565b6000602082840312156200217157600080fd5b6000620021818482850162001fa0565b91505092915050565b6000620021988383620021a4565b60208301905092915050565b620021af8162002bee565b82525050565b620021c08162002bee565b82525050565b6000620021d38262002a4e565b620021df818562002a7c565b9350620021ec8362002a3e565b8060005b83811015620022235781516200220788826200218a565b9750620022148362002a6f565b925050600181019050620021f0565b5085935050505092915050565b60006200223d8262002a4e565b62002249818562002a8d565b9350620022568362002a3e565b8060005b838110156200228d5781516200227188826200218a565b97506200227e8362002a6f565b9250506001810190506200225a565b5085935050505092915050565b620022a58162002c02565b82525050565b6000620022b88262002a59565b620022c4818562002a9e565b9350620022d681856020860162002c55565b80840191505092915050565b6000620022ef8262002a64565b620022fb818562002aa9565b93506200230d81856020860162002c55565b620023188162002d67565b840191505092915050565b60006200233260268362002aa9565b91507f416464726573733a20696e73756666696369656e742062616c616e636520666f60008301527f722063616c6c00000000000000000000000000000000000000000000000000006020830152604082019050919050565b60006200239a601a8362002aa9565b91507f496e76616c6964207374617274206f7220656e6420696e6465780000000000006000830152602082019050919050565b6000620023dc600a8362002aa9565b91507f72657374726963746564000000000000000000000000000000000000000000006000830152602082019050919050565b60006200241e60268362002aa9565b91507f416464726573733a2064656c65676174652063616c6c20746f206e6f6e2d636f60008301527f6e747261637400000000000000000000000000000000000000000000000000006020830152604082019050919050565b600062002486601d8362002aa9565b91507f416464726573733a2063616c6c20746f206e6f6e2d636f6e74726163740000006000830152602082019050919050565b6000620024c8602a8362002aa9565b91507f5361666545524332303a204552433230206f7065726174696f6e20646964206e60008301527f6f742073756363656564000000000000000000000000000000000000000000006020830152604082019050919050565b60006200253060098362002aa9565b91507f6f6e6c794f776e657200000000000000000000000000000000000000000000006000830152602082019050919050565b60006200257260228362002aa9565b91507f496e73756666696369656e742066756e647320666f7220616c6c20776f726b6560008301527f72730000000000000000000000000000000000000000000000000000000000006020830152604082019050919050565b600061016083016000830151620025e660008601826200229a565b506020830151620025fb60208601826200229a565b5060408301516200261060408601826200229a565b506060830151620026256060860182620021a4565b5060808301516200263a6080860182620021a4565b5060a08301516200264f60a08601826200275d565b5060c08301516200266460c08601826200275d565b5060e08301516200267960e08601826200273b565b50610100830151620026906101008601826200273b565b50610120830151620026a76101208601826200275d565b50610140830151848203610140860152620026c38282620026d0565b9150508091505092915050565b6000608083016000830151620026ea6000860182620021a4565b506020830151620026ff60208601826200275d565b5060408301518482036040860152620027198282620021c6565b91505060608301516200273060608601826200275d565b508091505092915050565b620027468162002c0e565b82525050565b620027578162002c0e565b82525050565b620027688162002c3c565b82525050565b620027798162002c3c565b82525050565b60006200278d8284620022ab565b915081905092915050565b6000602082019050620027af6000830184620021b5565b92915050565b6000604082019050620027cc6000830185620021b5565b620027db60208301846200276e565b9392505050565b60006020820190508181036000830152620027fe818462002230565b905092915050565b60006020820190508181036000830152620028228184620022e2565b905092915050565b60006020820190508181036000830152620028458162002323565b9050919050565b6000602082019050818103600083015262002867816200238b565b9050919050565b600060208201905081810360008301526200288981620023cd565b9050919050565b60006020820190508181036000830152620028ab816200240f565b9050919050565b60006020820190508181036000830152620028cd8162002477565b9050919050565b60006020820190508181036000830152620028ef81620024b9565b9050919050565b60006020820190508181036000830152620029118162002521565b9050919050565b60006020820190508181036000830152620029338162002563565b9050919050565b60006020820190508181036000830152620029568184620025cb565b905092915050565b60006040820190506200297560008301856200274c565b6200298460208301846200274c565b9392505050565b6000602082019050620029a260008301846200276e565b92915050565b6000604051905081810181811067ffffffffffffffff82111715620029d257620029d162002d38565b5b8060405250919050565b600067ffffffffffffffff821115620029fa57620029f962002d38565b5b602082029050602081019050919050565b600067ffffffffffffffff82111562002a295762002a2862002d38565b5b601f19601f8301169050602081019050919050565b6000819050602082019050919050565b600081519050919050565b600081519050919050565b600081519050919050565b6000602082019050919050565b600082825260208201905092915050565b600082825260208201905092915050565b600081905092915050565b600082825260208201905092915050565b600062002ac78262002c3c565b915062002ad48362002c3c565b9250827fffffffffffffffffffffffffffffffffffffffffffffffffffffffffffffffff0382111562002b0c5762002b0b62002d09565b5b828201905092915050565b600062002b248262002c3c565b915062002b318362002c3c565b9250817fffffffffffffffffffffffffffffffffffffffffffffffffffffffffffffffff048311821515161562002b6d5762002b6c62002d09565b5b828202905092915050565b600062002b858262002c0e565b915062002b928362002c0e565b92508282101562002ba85762002ba762002d09565b5b828203905092915050565b600062002bc08262002c3c565b915062002bcd8362002c3c565b92508282101562002be35762002be262002d09565b5b828203905092915050565b600062002bfb8262002c1c565b9050919050565b60008115159050919050565b600061ffff82169050919050565b600073ffffffffffffffffffffffffffffffffffffffff82169050919050565b6000819050919050565b82818337600083830152505050565b60005b8381101562002c7557808201518184015260208101905062002c58565b8381111562002c85576000848401525b50505050565b600062002c988262002c0e565b915061ffff82141562002cb05762002caf62002d09565b5b600182019050919050565b600062002cc88262002c3c565b91507fffffffffffffffffffffffffffffffffffffffffffffffffffffffffffffffff82141562002cfe5762002cfd62002d09565b5b600182019050919050565b7f4e487b7100000000000000000000000000000000000000000000000000000000600052601160045260246000fd5b7f4e487b7100000000000000000000000000000000000000000000000000000000600052604160045260246000fd5b6000601f19601f8301169050919050565b62002d838162002bee565b811462002d8f57600080fd5b50565b62002d9d8162002c02565b811462002da957600080fd5b50565b62002db78162002c0e565b811462002dc357600080fd5b50565b62002dd18162002c3c565b811462002ddd57600080fd5b5056fe60a0604052730e09fabb73bd3ade0a17ecc321fd13a19e81ce82600160006101000a81548173ffffffffffffffffffffffffffffffffffffffff021916908373ffffffffffffffffffffffffffffffffffffffff16021790555034801561006557600080fd5b5060016000819055503373ffffffffffffffffffffffffffffffffffffffff1660808173ffffffffffffffffffffffffffffffffffffffff1660601b8152505060805160601c6119276100d760003960008181609e015281816102390152818161025d01526103d801526119276000f3fe608060405234801561001057600080fd5b50600436106100415760003560e01c8063289178fe146100465780638da5cb5b14610062578063c90d048e14610080575b600080fd5b610060600480360381019061005b9190611100565b61009c565b005b61006a610237565b6040516100779190611482565b60405180910390f35b61009a6004803603810190610095919061101b565b61025b565b005b7f000000000000000000000000000000000000000000000000000000000000000073ffffffffffffffffffffffffffffffffffffffff163373ffffffffffffffffffffffffffffffffffffffff161461012a576040517f08c379a000000000000000000000000000000000000000000000000000000000815260040161012190611588565b60405180910390fd5b80600001602081019061013d91906110ae565b1561016857610167816060016020810190610158919061101b565b8260a001358360c0013561042b565b5b80602001602081019061017b91906110ae565b156101ad576101ac816060016020810190610196919061101b565b828061014001906101a79190611676565b6105b9565b5b8060400160208101906101c091906110ae565b156101eb576101ea8160800160208101906101db919061101b565b8260a001358360c001356108bd565b5b7f81188f5f74429a8d5dd69e402d2ec601e9510929aeb809d15acde392c83de43381606001602081019061021f919061101b565b60405161022c9190611482565b60405180910390a150565b7f000000000000000000000000000000000000000000000000000000000000000081565b7f000000000000000000000000000000000000000000000000000000000000000073ffffffffffffffffffffffffffffffffffffffff163373ffffffffffffffffffffffffffffffffffffffff16146102e9576040517f08c379a00000000000000000000000000000000000000000000000000000000081526004016102e090611588565b60405180910390fd5b6002600054141561032f576040517f08c379a000000000000000000000000000000000000000000000000000000000815260040161032690611568565b60405180910390fd5b600260008190555060008173ffffffffffffffffffffffffffffffffffffffff166370a08231306040518263ffffffff1660e01b81526004016103729190611482565b60206040518083038186803b15801561038a57600080fd5b505afa15801561039e573d6000803e3d6000fd5b505050506040513d601f19601f820116820180604052508101906103c2919061116a565b905060008114156103d35750610420565b61041e7f0000000000000000000000000000000000000000000000000000000000000000828473ffffffffffffffffffffffffffffffffffffffff16610ba79092919063ffffffff16565b505b600160008190555050565b60008214156104cf5761043c610e9a565b8373ffffffffffffffffffffffffffffffffffffffff16631959a002306040518263ffffffff1660e01b81526004016104759190611482565b604080518083038186803b15801561048c57600080fd5b505afa1580156104a0573d6000803e3d6000fd5b505050506040513d601f19601f820116820180604052508101906104c49190611141565b905080600001519250505b6000811415610548578273ffffffffffffffffffffffffffffffffffffffff16631058d281836040518263ffffffff1660e01b815260040161051191906115a8565b600060405180830381600087803b15801561052b57600080fd5b505af115801561053f573d6000803e3d6000fd5b505050506105b4565b8273ffffffffffffffffffffffffffffffffffffffff16632e1a7d4d836040518263ffffffff1660e01b815260040161058191906115a8565b600060405180830381600087803b15801561059b57600080fd5b505af11580156105af573d6000803e3d6000fd5b505050505b505050565b60008273ffffffffffffffffffffffffffffffffffffffff1663f7c618c16040518163ffffffff1660e01b8152600401602060405180830381600087803b15801561060357600080fd5b505af1158015610617573d6000803e3d6000fd5b505050506040513d601f19601f8201168201806040525081019061063b9190611044565b73ffffffffffffffffffffffffffffffffffffffff166370a08231306040518263ffffffff1660e01b81526004016106739190611482565b60206040518083038186803b15801561068b57600080fd5b505afa15801561069f573d6000803e3d6000fd5b505050506040513d601f19601f820116820180604052508101906106c3919061116a565b905060008260200135826106d79190611768565b90508373ffffffffffffffffffffffffffffffffffffffff1663f7c618c16040518163ffffffff1660e01b8152600401602060405180830381600087803b15801561072157600080fd5b505af1158015610735573d6000803e3d6000fd5b505050506040513d601f19601f820116820180604052508101906107599190611044565b73ffffffffffffffffffffffffffffffffffffffff1663095ea7b3846000016020810190610787919061101b565b846040518363ffffffff1660e01b81526004016107a592919061149d565b602060405180830381600087803b1580156107bf57600080fd5b505af11580156107d3573d6000803e3d6000fd5b505050506040513d601f19601f820116820180604052508101906107f791906110d7565b5082600001602081019061080b919061101b565b73ffffffffffffffffffffffffffffffffffffffff166338ed17398383868060400190610838919061161f565b3089606001356040518763ffffffff1660e01b815260040161085f969594939291906115c3565b600060405180830381600087803b15801561087957600080fd5b505af115801561088d573d6000803e3d6000fd5b505050506040513d6000823e3d601f19601f820116820180604052508101906108b6919061106d565b5050505050565b60008211610900576040517f08c379a00000000000000000000000000000000000000000000000000000000081526004016108f790611508565b60405180910390fd5b6000811415610a2957600160009054906101000a900473ffffffffffffffffffffffffffffffffffffffff1673ffffffffffffffffffffffffffffffffffffffff1663095ea7b384846040518363ffffffff1660e01b815260040161096692919061149d565b602060405180830381600087803b15801561098057600080fd5b505af1158015610994573d6000803e3d6000fd5b505050506040513d601f19601f820116820180604052508101906109b891906110d7565b508273ffffffffffffffffffffffffffffffffffffffff166341441d3b836040518263ffffffff1660e01b81526004016109f291906115a8565b600060405180830381600087803b158015610a0c57600080fd5b505af1158015610a20573d6000803e3d6000fd5b50505050610ba2565b8273ffffffffffffffffffffffffffffffffffffffff1663cc7a262e6040518163ffffffff1660e01b8152600401602060405180830381600087803b158015610a7157600080fd5b505af1158015610a85573d6000803e3d6000fd5b505050506040513d601f19601f82011682018060405250810190610aa99190611044565b73ffffffffffffffffffffffffffffffffffffffff1663095ea7b384846040518363ffffffff1660e01b8152600401610ae392919061149d565b602060405180830381600087803b158015610afd57600080fd5b505af1158015610b11573d6000803e3d6000fd5b505050506040513d601f19601f82011682018060405250810190610b3591906110d7565b508273ffffffffffffffffffffffffffffffffffffffff1663b6b55f25836040518263ffffffff1660e01b8152600401610b6f91906115a8565b600060405180830381600087803b158015610b8957600080fd5b505af1158015610b9d573d6000803e3d6000fd5b505050505b505050565b610c288363a9059cbb60e01b8484604051602401610bc692919061149d565b604051602081830303815290604052907bffffffffffffffffffffffffffffffffffffffffffffffffffffffff19166020820180517bffffffffffffffffffffffffffffffffffffffffffffffffffffffff8381831617835250505050610c2d565b505050565b6000610c8f826040518060400160405280602081526020017f5361666545524332303a206c6f772d6c6576656c2063616c6c206661696c65648152508573ffffffffffffffffffffffffffffffffffffffff16610cf49092919063ffffffff16565b9050600081511115610cef5780806020019051810190610caf91906110d7565b610cee576040517f08c379a0000000000000000000000000000000000000000000000000000000008152600401610ce590611548565b60405180910390fd5b5b505050565b6060610d038484600085610d0c565b90509392505050565b606082471015610d51576040517f08c379a0000000000000000000000000000000000000000000000000000000008152600401610d48906114e8565b60405180910390fd5b610d5a85610e20565b610d99576040517f08c379a0000000000000000000000000000000000000000000000000000000008152600401610d9090611528565b60405180910390fd5b6000808673ffffffffffffffffffffffffffffffffffffffff168587604051610dc2919061146b565b60006040518083038185875af1925050503d8060008114610dff576040519150601f19603f3d011682016040523d82523d6000602084013e610e04565b606091505b5091509150610e14828286610e33565b92505050949350505050565b600080823b905060008111915050919050565b60608315610e4357829050610e93565b600083511115610e565782518084602001fd5b816040517f08c379a0000000000000000000000000000000000000000000000000000000008152600401610e8a91906114c6565b60405180910390fd5b9392505050565b604051806040016040528060008152602001600081525090565b6000610ec7610ec2846116cb565b61169a565b90508083825260208201905082856020860282011115610ee657600080fd5b60005b85811015610f165781610efc8882611006565b845260208401935060208301925050600181019050610ee9565b5050509392505050565b600081359050610f2f816118ac565b92915050565b600081519050610f44816118ac565b92915050565b600082601f830112610f5b57600080fd5b8151610f6b848260208601610eb4565b91505092915050565b600081359050610f83816118c3565b92915050565b600081519050610f98816118c3565b92915050565b60006101608284031215610fb157600080fd5b81905092915050565b600060408284031215610fcc57600080fd5b610fd6604061169a565b90506000610fe684828501611006565b6000830152506020610ffa84828501611006565b60208301525092915050565b600081519050611015816118da565b92915050565b60006020828403121561102d57600080fd5b600061103b84828501610f20565b91505092915050565b60006020828403121561105657600080fd5b600061106484828501610f35565b91505092915050565b60006020828403121561107f57600080fd5b600082015167ffffffffffffffff81111561109957600080fd5b6110a584828501610f4a565b91505092915050565b6000602082840312156110c057600080fd5b60006110ce84828501610f74565b91505092915050565b6000602082840312156110e957600080fd5b60006110f784828501610f89565b91505092915050565b60006020828403121561111257600080fd5b600082013567ffffffffffffffff81111561112c57600080fd5b61113884828501610f9e565b91505092915050565b60006040828403121561115357600080fd5b600061116184828501610fba565b91505092915050565b60006020828403121561117c57600080fd5b600061118a84828501611006565b91505092915050565b600061119f83836111ab565b60208301905092915050565b6111b4816117c2565b82525050565b6111c3816117c2565b82525050565b60006111d58385611724565b93506111e0826116f7565b8060005b85811015611219576111f68284611751565b6112008882611193565b975061120b83611717565b9250506001810190506111e4565b5085925050509392505050565b600061123182611701565b61123b8185611735565b935061124b81856020860161180a565b80840191505092915050565b60006112628261170c565b61126c8185611740565b935061127c81856020860161180a565b6112858161189b565b840191505092915050565b600061129d602683611740565b91507f416464726573733a20696e73756666696369656e742062616c616e636520666f60008301527f722063616c6c00000000000000000000000000000000000000000000000000006020830152604082019050919050565b6000611303601383611740565b91507f7a65726f206465706f73697420616d6f756e74000000000000000000000000006000830152602082019050919050565b6000611343601d83611740565b91507f416464726573733a2063616c6c20746f206e6f6e2d636f6e74726163740000006000830152602082019050919050565b6000611383602a83611740565b91507f5361666545524332303a204552433230206f7065726174696f6e20646964206e60008301527f6f742073756363656564000000000000000000000000000000000000000000006020830152604082019050919050565b60006113e9601f83611740565b91507f5265656e7472616e637947756172643a207265656e7472616e742063616c6c006000830152602082019050919050565b6000611429600983611740565b91507f6f6e6c794f776e657200000000000000000000000000000000000000000000006000830152602082019050919050565b61146581611800565b82525050565b60006114778284611226565b915081905092915050565b600060208201905061149760008301846111ba565b92915050565b60006040820190506114b260008301856111ba565b6114bf602083018461145c565b9392505050565b600060208201905081810360008301526114e08184611257565b905092915050565b6000602082019050818103600083015261150181611290565b9050919050565b60006020820190508181036000830152611521816112f6565b9050919050565b6000602082019050818103600083015261154181611336565b9050919050565b6000602082019050818103600083015261156181611376565b9050919050565b60006020820190508181036000830152611581816113dc565b9050919050565b600060208201905081810360008301526115a18161141c565b9050919050565b60006020820190506115bd600083018461145c565b92915050565b600060a0820190506115d8600083018961145c565b6115e5602083018861145c565b81810360408301526115f88186886111c9565b905061160760608301856111ba565b611614608083018461145c565b979650505050505050565b6000808335600160200384360303811261163857600080fd5b80840192508235915067ffffffffffffffff82111561165657600080fd5b60208301925060208202360383131561166e57600080fd5b509250929050565b60008235600160800383360303811261168e57600080fd5b80830191505092915050565b6000604051905081810181811067ffffffffffffffff821117156116c1576116c061186c565b5b8060405250919050565b600067ffffffffffffffff8211156116e6576116e561186c565b5b602082029050602081019050919050565b6000819050919050565b600081519050919050565b600081519050919050565b6000602082019050919050565b600082825260208201905092915050565b600081905092915050565b600082825260208201905092915050565b60006117606020840184610f20565b905092915050565b600061177382611800565b915061177e83611800565b9250817fffffffffffffffffffffffffffffffffffffffffffffffffffffffffffffffff04831182151516156117b7576117b661183d565b5b828202905092915050565b60006117cd826117e0565b9050919050565b60008115159050919050565b600073ffffffffffffffffffffffffffffffffffffffff82169050919050565b6000819050919050565b60005b8381101561182857808201518184015260208101905061180d565b83811115611837576000848401525b50505050565b7f4e487b7100000000000000000000000000000000000000000000000000000000600052601160045260246000fd5b7f4e487b7100000000000000000000000000000000000000000000000000000000600052604160045260246000fd5b6000601f19601f8301169050919050565b6118b5816117c2565b81146118c057600080fd5b50565b6118cc816117d4565b81146118d757600080fd5b50565b6118e381611800565b81146118ee57600080fd5b5056fea264697066735822122025a2aaefdc938b1d52123350f5a64ad84f5d73cf0e40a90f8d61635de6b2745e64736f6c63430008000033416464726573733a206c6f772d6c6576656c2064656c65676174652063616c6c206661696c6564a2646970667358221220f3aa88f433f5e4e8d2439fcc55c6079079248cd3e29468ea80a567ccb744175a64736f6c63430008000033",
  "linkReferences": {},
  "deployedLinkReferences": {}
}