{
  "_format": "hh-sol-artifact-1",
  "contractName": "Manager",
  "sourceName": "contracts/Manager.sol",
  "abi": [
    {
      "inputs": [
        {
          "internalType": "address",
          "name": "_owner",
          "type": "address"
        },
        {
          "internalType": "address",
          "name": "_admin",
          "type": "address"
        }
      ],
      "stateMutability": "nonpayable",
      "type": "constructor"
    },
    {
      "anonymous": false,
      "inputs": [
        {
          "indexed": false,
          "internalType": "uint16",
          "name": "startIndex",
          "type": "uint16"
        },
        {
          "indexed": false,
          "internalType": "uint16",
          "name": "endIndex",
          "type": "uint16"
        },
        {
          "indexed": true,
          "internalType": "address",
          "name": "stakedPoolAddr",
          "type": "address"
        },
        {
          "indexed": true,
          "internalType": "address",
          "name": "newPoolAddr",
          "type": "address"
        },
        {
          "indexed": true,
          "internalType": "uint256",
          "name": "blockNum",
          "type": "uint256"
        }
      ],
      "name": "DoHardWork",
      "type": "event"
    },
    {
      "anonymous": false,
      "inputs": [
        {
          "indexed": false,
          "internalType": "address",
          "name": "newAdmin",
          "type": "address"
        }
      ],
      "name": "SetAdmin",
      "type": "event"
    },
    {
      "anonymous": false,
      "inputs": [
        {
          "indexed": true,
          "internalType": "uint16",
          "name": "startIndex",
          "type": "uint16"
        },
        {
          "indexed": true,
          "internalType": "uint16",
          "name": "endIndex",
          "type": "uint16"
        },
        {
          "indexed": true,
          "internalType": "address",
          "name": "stakedToken",
          "type": "address"
        }
      ],
      "name": "TransferToManager",
      "type": "event"
    },
    {
      "anonymous": false,
      "inputs": [
        {
          "indexed": false,
          "internalType": "uint256",
          "name": "amount",
          "type": "uint256"
        }
      ],
      "name": "TransferToOwner",
      "type": "event"
    },
    {
      "anonymous": false,
      "inputs": [
        {
          "indexed": false,
          "internalType": "uint16",
          "name": "startIndex",
          "type": "uint16"
        },
        {
          "indexed": false,
          "internalType": "uint16",
          "name": "endIndex",
          "type": "uint16"
        },
        {
          "indexed": true,
          "internalType": "uint256",
          "name": "amount",
          "type": "uint256"
        },
        {
          "indexed": true,
          "internalType": "address",
          "name": "stakedToken",
          "type": "address"
        }
      ],
      "name": "TransferToWorkers",
      "type": "event"
    },
    {
      "anonymous": false,
      "inputs": [
        {
          "indexed": false,
          "internalType": "uint256",
          "name": "nWorkers",
          "type": "uint256"
        }
      ],
      "name": "WorkersAdded",
      "type": "event"
    },
    {
      "inputs": [
        {
          "internalType": "uint16",
          "name": "numWorkersToAdd",
          "type": "uint16"
        }
      ],
      "name": "addWorkers",
      "outputs": [],
      "stateMutability": "nonpayable",
      "type": "function"
    },
    {
      "inputs": [],
      "name": "admin",
      "outputs": [
        {
          "internalType": "address",
          "name": "",
          "type": "address"
        }
      ],
      "stateMutability": "view",
      "type": "function"
    },
    {
      "inputs": [
        {
          "components": [
            {
              "internalType": "bool",
              "name": "withdraw",
              "type": "bool"
            },
            {
              "internalType": "bool",
              "name": "swap",
              "type": "bool"
            },
            {
              "internalType": "bool",
              "name": "deposit",
              "type": "bool"
            },
            {
              "internalType": "bool",
              "name": "transfer",
              "type": "bool"
            },
            {
              "internalType": "address",
              "name": "stakedPoolAddr",
              "type": "address"
            },
            {
              "internalType": "address",
              "name": "newPoolAddr",
              "type": "address"
            },
            {
              "internalType": "uint256",
              "name": "amount",
              "type": "uint256"
            },
            {
              "internalType": "uint256",
              "name": "pid",
              "type": "uint256"
            },
            {
              "internalType": "uint16",
              "name": "startIndex",
              "type": "uint16"
            },
            {
              "internalType": "uint16",
              "name": "endIndex",
              "type": "uint16"
            },
            {
              "internalType": "uint256",
              "name": "blockNum",
              "type": "uint256"
            },
            {
              "components": [
                {
                  "internalType": "address",
                  "name": "swapRouter",
                  "type": "address"
                },
                {
                  "internalType": "uint256",
                  "name": "multiplier",
                  "type": "uint256"
                },
                {
                  "internalType": "address[]",
                  "name": "path",
                  "type": "address[]"
                },
                {
                  "internalType": "uint256",
                  "name": "deadline",
                  "type": "uint256"
                }
              ],
              "internalType": "struct IWorker.SwapParams",
              "name": "swapParams",
              "type": "tuple"
            }
          ],
          "internalType": "struct IWorker.DoHardWorkParams",
          "name": "params",
          "type": "tuple"
        }
      ],
      "name": "doHardWork",
      "outputs": [],
      "stateMutability": "nonpayable",
      "type": "function"
    },
    {
      "inputs": [
        {
          "internalType": "address",
          "name": "target",
          "type": "address"
        },
        {
          "internalType": "bytes",
          "name": "data",
          "type": "bytes"
        }
      ],
      "name": "emergencyFunctionCall",
      "outputs": [],
      "stateMutability": "nonpayable",
      "type": "function"
    },
    {
      "inputs": [
        {
          "internalType": "address",
          "name": "target",
          "type": "address"
        },
        {
          "internalType": "bytes",
          "name": "data",
          "type": "bytes"
        }
      ],
      "name": "emergencyFunctionDelegateCall",
      "outputs": [],
      "stateMutability": "nonpayable",
      "type": "function"
    },
    {
      "inputs": [],
      "name": "getNWorkers",
      "outputs": [
        {
          "internalType": "uint256",
          "name": "",
          "type": "uint256"
        }
      ],
      "stateMutability": "view",
      "type": "function"
    },
    {
      "inputs": [],
      "name": "getWorkers",
      "outputs": [
        {
          "internalType": "address[]",
          "name": "",
          "type": "address[]"
        }
      ],
      "stateMutability": "view",
      "type": "function"
    },
    {
      "inputs": [],
      "name": "owner",
      "outputs": [
        {
          "internalType": "address",
          "name": "",
          "type": "address"
        }
      ],
      "stateMutability": "view",
      "type": "function"
    },
    {
      "inputs": [
        {
          "internalType": "address",
          "name": "newAdmin",
          "type": "address"
        }
      ],
      "name": "setAdmin",
      "outputs": [],
      "stateMutability": "nonpayable",
      "type": "function"
    },
    {
      "inputs": [
        {
          "components": [
            {
              "internalType": "address",
              "name": "token",
              "type": "address"
            },
            {
              "internalType": "uint16",
              "name": "startIndex",
              "type": "uint16"
            },
            {
              "internalType": "uint16",
              "name": "endIndex",
              "type": "uint16"
            }
          ],
          "internalType": "struct IWorker.TransferMngParams",
          "name": "params",
          "type": "tuple"
        }
      ],
      "name": "transferToManager",
      "outputs": [],
      "stateMutability": "nonpayable",
      "type": "function"
    },
    {
      "inputs": [
        {
          "internalType": "address",
          "name": "stakedToken",
          "type": "address"
        }
      ],
      "name": "transferToOwner",
      "outputs": [],
      "stateMutability": "nonpayable",
      "type": "function"
    },
    {
      "inputs": [
        {
          "components": [
            {
              "internalType": "address",
              "name": "stakedToken",
              "type": "address"
            },
            {
              "internalType": "uint256",
              "name": "amount",
              "type": "uint256"
            },
            {
              "internalType": "uint16",
              "name": "startIndex",
              "type": "uint16"
            },
            {
              "internalType": "uint16",
              "name": "endIndex",
              "type": "uint16"
            }
          ],
          "internalType": "struct IWorker.TransferWorkersParams",
          "name": "params",
          "type": "tuple"
        }
      ],
      "name": "transferToWorkers",
      "outputs": [],
      "stateMutability": "nonpayable",
      "type": "function"
    },
    {
      "inputs": [
        {
          "internalType": "uint256",
          "name": "",
          "type": "uint256"
        }
      ],
      "name": "workers",
      "outputs": [
        {
          "internalType": "address",
          "name": "",
          "type": "address"
        }
      ],
      "stateMutability": "view",
      "type": "function"
    }
  ],
  "bytecode": "0x60a06040523480156200001157600080fd5b50604051620049e0380380620049e08339818101604052810190620000379190620000d6565b60016000819055508173ffffffffffffffffffffffffffffffffffffffff1660808173ffffffffffffffffffffffffffffffffffffffff1660601b8152505080600160006101000a81548173ffffffffffffffffffffffffffffffffffffffff021916908373ffffffffffffffffffffffffffffffffffffffff160217905550505062000165565b600081519050620000d0816200014b565b92915050565b60008060408385031215620000ea57600080fd5b6000620000fa85828601620000bf565b92505060206200010d85828601620000bf565b9150509250929050565b600062000124826200012b565b9050919050565b600073ffffffffffffffffffffffffffffffffffffffff82169050919050565b620001568162000117565b81146200016257600080fd5b50565b60805160601c61480f620001d1600039600081816102a70152818161034b01528181610440015281816106f8015281816108fe01528181610bee01528181610cfc01528181610e7d01528181610f0301528181610f29015281816110a10152611696015261480f6000f3fe60806040523480156200001157600080fd5b5060043610620000e25760003560e01c8063812d504d1162000099578063d168c57e116200006f578063d168c57e146200020d578063e78d73ad146200022d578063f1a22dc2146200024d578063f851a440146200028357620000e2565b8063812d504d14620001a95780638da5cb5b14620001c9578063c1499f7114620001eb57620000e2565b80632ab0aabb14620000e75780634257ecb214620001075780634c413b0314620001295780635e3792f714620001495780635f879db01462000169578063704b6c021462000189575b600080fd5b620001056004803603810190620000ff919062001ffe565b620002a5565b005b6200011162000347565b604051620001209190620029bd565b60405180910390f35b620001476004803603810190620001419190620020c9565b6200043e565b005b62000167600480360381019062000161919062002121565b620006f6565b005b62000187600480360381019062000181919062002084565b620008fc565b005b620001a76004803603810190620001a1919062001fd2565b62000bec565b005b620001c76004803603810190620001c1919062001fd2565b62000cfa565b005b620001d362000f01565b604051620001e29190620027ca565b60405180910390f35b620001f562000f25565b60405162000204919062002814565b60405180910390f35b6200022b6004803603810190620002259190620020f5565b6200109f565b005b6200024b600480360381019062000245919062001ffe565b62001694565b005b6200026b60048036038101906200026591906200214d565b62001736565b6040516200027a9190620027ca565b60405180910390f35b6200028d62001776565b6040516200029c9190620027ca565b60405180910390f35b7f000000000000000000000000000000000000000000000000000000000000000073ffffffffffffffffffffffffffffffffffffffff163373ffffffffffffffffffffffffffffffffffffffff161462000336576040517f08c379a00000000000000000000000000000000000000000000000000000000081526004016200032d9062002928565b60405180910390fd5b6200034282826200179c565b505050565b60007f000000000000000000000000000000000000000000000000000000000000000073ffffffffffffffffffffffffffffffffffffffff163373ffffffffffffffffffffffffffffffffffffffff161480620003f15750600160009054906101000a900473ffffffffffffffffffffffffffffffffffffffff1673ffffffffffffffffffffffffffffffffffffffff163373ffffffffffffffffffffffffffffffffffffffff16145b62000433576040517f08c379a00000000000000000000000000000000000000000000000000000000081526004016200042a90620028a0565b60405180910390fd5b600280549050905090565b7f000000000000000000000000000000000000000000000000000000000000000073ffffffffffffffffffffffffffffffffffffffff163373ffffffffffffffffffffffffffffffffffffffff161480620004e65750600160009054906101000a900473ffffffffffffffffffffffffffffffffffffffff1673ffffffffffffffffffffffffffffffffffffffff163373ffffffffffffffffffffffffffffffffffffffff16145b62000528576040517f08c379a00000000000000000000000000000000000000000000000000000000081526004016200051f90620028a0565b60405180910390fd5b60008160200160208101906200053f919062002121565b90505b81604001602081019062000557919062002121565b61ffff168161ffff161015620006695760028161ffff1681548110620005a6577f4e487b7100000000000000000000000000000000000000000000000000000000600052603260045260246000fd5b9060005260206000200160009054906101000a900473ffffffffffffffffffffffffffffffffffffffff1673ffffffffffffffffffffffffffffffffffffffff1663c90d048e83600001602081019062000601919062001fd2565b6040518263ffffffff1660e01b81526004016200061f9190620027ca565b600060405180830381600087803b1580156200063a57600080fd5b505af11580156200064f573d6000803e3d6000fd5b505050508080620006609062002cbd565b91505062000542565b508060000160208101906200067f919062001fd2565b73ffffffffffffffffffffffffffffffffffffffff16816040016020810190620006aa919062002121565b61ffff16826020016020810190620006c3919062002121565b61ffff167f2e52f7960fcea0183dbb2c49529001dfec948638381267363c47e2180cfc664360405160405180910390a450565b7f000000000000000000000000000000000000000000000000000000000000000073ffffffffffffffffffffffffffffffffffffffff163373ffffffffffffffffffffffffffffffffffffffff1614806200079e5750600160009054906101000a900473ffffffffffffffffffffffffffffffffffffffff1673ffffffffffffffffffffffffffffffffffffffff163373ffffffffffffffffffffffffffffffffffffffff16145b620007e0576040517f08c379a0000000000000000000000000000000000000000000000000000000008152600401620007d790620028a0565b60405180910390fd5b60008161ffff16600280549050620007f9919062002aec565b9050600060028054905090505b81811015620008b95760006040516200081f9062001c04565b604051809103906000f0801580156200083c573d6000803e3d6000fd5b5090506002819080600181540180825580915050600190039060005260206000200160009091909190916101000a81548173ffffffffffffffffffffffffffffffffffffffff021916908373ffffffffffffffffffffffffffffffffffffffff160217905550508080620008b09062002ced565b91505062000806565b507f3ea8142895fe7d4af1f88d8b1d563937502baceb3254aa0e2bed1a348bd5228f600280549050604051620008f09190620029bd565b60405180910390a15050565b7f000000000000000000000000000000000000000000000000000000000000000073ffffffffffffffffffffffffffffffffffffffff163373ffffffffffffffffffffffffffffffffffffffff161480620009a45750600160009054906101000a900473ffffffffffffffffffffffffffffffffffffffff1673ffffffffffffffffffffffffffffffffffffffff163373ffffffffffffffffffffffffffffffffffffffff16145b620009e6576040517f08c379a0000000000000000000000000000000000000000000000000000000008152600401620009dd90620028a0565b60405180910390fd5b60028054905081610120015161ffff161115801562000a16575080610120015161ffff1681610100015161ffff16105b62000a58576040517f08c379a000000000000000000000000000000000000000000000000000000000815260040162000a4f906200287e565b60405180910390fd5b600081610100015190505b81610120015161ffff168161ffff16101562000b675760028161ffff168154811062000ab8577f4e487b7100000000000000000000000000000000000000000000000000000000600052603260045260246000fd5b9060005260206000200160009054906101000a900473ffffffffffffffffffffffffffffffffffffffff1673ffffffffffffffffffffffffffffffffffffffff16635f879db0836040518263ffffffff1660e01b815260040162000b1d91906200296c565b600060405180830381600087803b15801562000b3857600080fd5b505af115801562000b4d573d6000803e3d6000fd5b50505050808062000b5e9062002cbd565b91505062000a63565b508061014001518160a0015173ffffffffffffffffffffffffffffffffffffffff16826080015173ffffffffffffffffffffffffffffffffffffffff167fed3cf09518427018d68a0a250858db86573b6b3b3a5b737f0267cb0920c4517984610100015185610120015160405162000be192919062002990565b60405180910390a450565b7f000000000000000000000000000000000000000000000000000000000000000073ffffffffffffffffffffffffffffffffffffffff163373ffffffffffffffffffffffffffffffffffffffff161462000c7d576040517f08c379a000000000000000000000000000000000000000000000000000000000815260040162000c749062002928565b60405180910390fd5b80600160006101000a81548173ffffffffffffffffffffffffffffffffffffffff021916908373ffffffffffffffffffffffffffffffffffffffff1602179055507f5a272403b402d892977df56625f4164ccaf70ca3863991c43ecfe76a6905b0a18160405162000cef9190620027ca565b60405180910390a150565b7f000000000000000000000000000000000000000000000000000000000000000073ffffffffffffffffffffffffffffffffffffffff163373ffffffffffffffffffffffffffffffffffffffff16148062000da25750600160009054906101000a900473ffffffffffffffffffffffffffffffffffffffff1673ffffffffffffffffffffffffffffffffffffffff163373ffffffffffffffffffffffffffffffffffffffff16145b62000de4576040517f08c379a000000000000000000000000000000000000000000000000000000000815260040162000ddb90620028a0565b60405180910390fd5b60008173ffffffffffffffffffffffffffffffffffffffff166370a08231306040518263ffffffff1660e01b815260040162000e219190620027ca565b60206040518083038186803b15801562000e3a57600080fd5b505afa15801562000e4f573d6000803e3d6000fd5b505050506040513d601f19601f8201168201806040525081019062000e75919062002179565b905062000ec47f0000000000000000000000000000000000000000000000000000000000000000828473ffffffffffffffffffffffffffffffffffffffff16620017cc9092919063ffffffff16565b7fb91557f3050411a13a7e7631fe8461fcd94ec09d9a2b122e22e0b294998053c68160405162000ef59190620029bd565b60405180910390a15050565b7f000000000000000000000000000000000000000000000000000000000000000081565b60607f000000000000000000000000000000000000000000000000000000000000000073ffffffffffffffffffffffffffffffffffffffff163373ffffffffffffffffffffffffffffffffffffffff16148062000fcf5750600160009054906101000a900473ffffffffffffffffffffffffffffffffffffffff1673ffffffffffffffffffffffffffffffffffffffff163373ffffffffffffffffffffffffffffffffffffffff16145b62001011576040517f08c379a00000000000000000000000000000000000000000000000000000000081526004016200100890620028a0565b60405180910390fd5b60028054806020026020016040519081016040528092919081815260200182805480156200109557602002820191906000526020600020905b8160009054906101000a900473ffffffffffffffffffffffffffffffffffffffff1673ffffffffffffffffffffffffffffffffffffffff16815260200190600101908083116200104a575b5050505050905090565b7f000000000000000000000000000000000000000000000000000000000000000073ffffffffffffffffffffffffffffffffffffffff163373ffffffffffffffffffffffffffffffffffffffff161480620011475750600160009054906101000a900473ffffffffffffffffffffffffffffffffffffffff1673ffffffffffffffffffffffffffffffffffffffff163373ffffffffffffffffffffffffffffffffffffffff16145b62001189576040517f08c379a00000000000000000000000000000000000000000000000000000000081526004016200118090620028a0565b60405180910390fd5b600080826000016020810190620011a1919062001fd2565b73ffffffffffffffffffffffffffffffffffffffff166370a08231306040518263ffffffff1660e01b8152600401620011db9190620027ca565b60206040518083038186803b158015620011f457600080fd5b505afa15801562001209573d6000803e3d6000fd5b505050506040513d601f19601f820116820180604052508101906200122f919062002179565b90508083604001602081019062001247919062002121565b8460600160208101906200125c919062002121565b62001268919062002baa565b61ffff1684602001356200127d919062002b49565b1115620012c1576040517f08c379a0000000000000000000000000000000000000000000000000000000008152600401620012b8906200294a565b60405180910390fd5b6000836040016020810190620012d8919062002121565b90505b836060016020810190620012f0919062002121565b61ffff168161ffff161015620015fb5783600001602081019062001315919062001fd2565b73ffffffffffffffffffffffffffffffffffffffff166370a0823160028361ffff16815481106200136f577f4e487b7100000000000000000000000000000000000000000000000000000000600052603260045260246000fd5b9060005260206000200160009054906101000a900473ffffffffffffffffffffffffffffffffffffffff166040518263ffffffff1660e01b8152600401620013b89190620027ca565b60206040518083038186803b158015620013d157600080fd5b505afa158015620013e6573d6000803e3d6000fd5b505050506040513d601f19601f820116820180604052508101906200140c919062002179565b8460200135116200141c57600080fd5b83600001602081019062001431919062001fd2565b73ffffffffffffffffffffffffffffffffffffffff166370a0823160028361ffff16815481106200148b577f4e487b7100000000000000000000000000000000000000000000000000000000600052603260045260246000fd5b9060005260206000200160009054906101000a900473ffffffffffffffffffffffffffffffffffffffff166040518263ffffffff1660e01b8152600401620014d49190620027ca565b60206040518083038186803b158015620014ed57600080fd5b505afa15801562001502573d6000803e3d6000fd5b505050506040513d601f19601f8201168201806040525081019062001528919062002179565b846020013562001539919062002be5565b9250620015e560028261ffff16815481106200157e577f4e487b7100000000000000000000000000000000000000000000000000000000600052603260045260246000fd5b9060005260206000200160009054906101000a900473ffffffffffffffffffffffffffffffffffffffff1684866000016020810190620015bf919062001fd2565b73ffffffffffffffffffffffffffffffffffffffff16620017cc9092919063ffffffff16565b8080620015f29062002cbd565b915050620012db565b5082600001602081019062001611919062001fd2565b73ffffffffffffffffffffffffffffffffffffffff1683602001357f253d71e585f0bb6d674a7179fcbde0322cdb3e983a10839748f4b63e64f4ee8485604001602081019062001662919062002121565b86606001602081019062001677919062002121565b6040516200168792919062002990565b60405180910390a3505050565b7f000000000000000000000000000000000000000000000000000000000000000073ffffffffffffffffffffffffffffffffffffffff163373ffffffffffffffffffffffffffffffffffffffff161462001725576040517f08c379a00000000000000000000000000000000000000000000000000000000081526004016200171c9062002928565b60405180910390fd5b62001731828262001856565b505050565b600281815481106200174757600080fd5b906000526020600020016000915054906101000a900473ffffffffffffffffffffffffffffffffffffffff1681565b600160009054906101000a900473ffffffffffffffffffffffffffffffffffffffff1681565b6060620017c48383604051806060016040528060278152602001620047b360279139620018a2565b905092915050565b620018518363a9059cbb60e01b8484604051602401620017ee929190620027e7565b604051602081830303815290604052907bffffffffffffffffffffffffffffffffffffffffffffffffffffffff19166020820180517bffffffffffffffffffffffffffffffffffffffffffffffffffffffff83818316178352505050506200197a565b505050565b60606200189a83836040518060400160405280601e81526020017f416464726573733a206c6f772d6c6576656c2063616c6c206661696c6564000081525062001a49565b905092915050565b6060620018af8462001a63565b620018f1576040517f08c379a0000000000000000000000000000000000000000000000000000000008152600401620018e890620028c2565b60405180910390fd5b6000808573ffffffffffffffffffffffffffffffffffffffff16856040516200191b9190620027b1565b600060405180830381855af49150503d806000811462001958576040519150601f19603f3d011682016040523d82523d6000602084013e6200195d565b606091505b50915091506200196f82828662001a76565b925050509392505050565b6000620019de826040518060400160405280602081526020017f5361666545524332303a206c6f772d6c6576656c2063616c6c206661696c65648152508573ffffffffffffffffffffffffffffffffffffffff1662001a499092919063ffffffff16565b905060008151111562001a44578080602001905181019062001a01919062002058565b62001a43576040517f08c379a000000000000000000000000000000000000000000000000000000000815260040162001a3a9062002906565b60405180910390fd5b5b505050565b606062001a5a848460008562001ae2565b90509392505050565b600080823b905060008111915050919050565b6060831562001a885782905062001adb565b60008351111562001a9c5782518084602001fd5b816040517f08c379a000000000000000000000000000000000000000000000000000000000815260040162001ad2919062002838565b60405180910390fd5b9392505050565b60608247101562001b2a576040517f08c379a000000000000000000000000000000000000000000000000000000000815260040162001b21906200285c565b60405180910390fd5b62001b358562001a63565b62001b77576040517f08c379a000000000000000000000000000000000000000000000000000000000815260040162001b6e90620028e4565b60405180910390fd5b6000808673ffffffffffffffffffffffffffffffffffffffff16858760405162001ba29190620027b1565b60006040518083038185875af1925050503d806000811462001be1576040519150601f19603f3d011682016040523d82523d6000602084013e62001be6565b606091505b509150915062001bf882828662001a76565b92505050949350505050565b6119a08062002e1383390190565b600062001c2962001c238462002a0e565b620029da565b9050808382526020820190508285602086028201111562001c4957600080fd5b60005b8581101562001c7d578162001c62888262001ccc565b84526020840193506020830192505060018101905062001c4c565b5050509392505050565b600062001c9e62001c988462002a3d565b620029da565b90508281526020810184848401111562001cb757600080fd5b62001cc484828562002c78565b509392505050565b60008135905062001cdd8162002daa565b92915050565b600082601f83011262001cf557600080fd5b813562001d0784826020860162001c12565b91505092915050565b60008135905062001d218162002dc4565b92915050565b60008151905062001d388162002dc4565b92915050565b600082601f83011262001d5057600080fd5b813562001d6284826020860162001c87565b91505092915050565b6000610180828403121562001d7f57600080fd5b62001d8c610180620029da565b9050600062001d9e8482850162001d10565b600083015250602062001db48482850162001d10565b602083015250604062001dca8482850162001d10565b604083015250606062001de08482850162001d10565b606083015250608062001df68482850162001ccc565b60808301525060a062001e0c8482850162001ccc565b60a08301525060c062001e228482850162001fa4565b60c08301525060e062001e388482850162001fa4565b60e08301525061010062001e4f8482850162001f8d565b6101008301525061012062001e678482850162001f8d565b6101208301525061014062001e7f8482850162001fa4565b6101408301525061016082013567ffffffffffffffff81111562001ea257600080fd5b62001eb08482850162001ebd565b6101608301525092915050565b60006080828403121562001ed057600080fd5b62001edc6080620029da565b9050600062001eee8482850162001ccc565b600083015250602062001f048482850162001fa4565b602083015250604082013567ffffffffffffffff81111562001f2557600080fd5b62001f338482850162001ce3565b604083015250606062001f498482850162001fa4565b60608301525092915050565b60006060828403121562001f6857600080fd5b81905092915050565b60006080828403121562001f8457600080fd5b81905092915050565b60008135905062001f9e8162002dde565b92915050565b60008135905062001fb58162002df8565b92915050565b60008151905062001fcc8162002df8565b92915050565b60006020828403121562001fe557600080fd5b600062001ff58482850162001ccc565b91505092915050565b600080604083850312156200201257600080fd5b6000620020228582860162001ccc565b925050602083013567ffffffffffffffff8111156200204057600080fd5b6200204e8582860162001d3e565b9150509250929050565b6000602082840312156200206b57600080fd5b60006200207b8482850162001d27565b91505092915050565b6000602082840312156200209757600080fd5b600082013567ffffffffffffffff811115620020b257600080fd5b620020c08482850162001d6b565b91505092915050565b600060608284031215620020dc57600080fd5b6000620020ec8482850162001f55565b91505092915050565b6000608082840312156200210857600080fd5b6000620021188482850162001f71565b91505092915050565b6000602082840312156200213457600080fd5b6000620021448482850162001f8d565b91505092915050565b6000602082840312156200216057600080fd5b6000620021708482850162001fa4565b91505092915050565b6000602082840312156200218c57600080fd5b60006200219c8482850162001fbb565b91505092915050565b6000620021b38383620021bf565b60208301905092915050565b620021ca8162002c20565b82525050565b620021db8162002c20565b82525050565b6000620021ee8262002a80565b620021fa818562002aae565b9350620022078362002a70565b8060005b838110156200223e578151620022228882620021a5565b97506200222f8362002aa1565b9250506001810190506200220b565b5085935050505092915050565b6000620022588262002a80565b62002264818562002abf565b9350620022718362002a70565b8060005b83811015620022a85781516200228c8882620021a5565b9750620022998362002aa1565b92505060018101905062002275565b5085935050505092915050565b620022c08162002c34565b82525050565b6000620022d38262002a8b565b620022df818562002ad0565b9350620022f181856020860162002c87565b80840191505092915050565b60006200230a8262002a96565b62002316818562002adb565b93506200232881856020860162002c87565b620023338162002d99565b840191505092915050565b60006200234d60268362002adb565b91507f416464726573733a20696e73756666696369656e742062616c616e636520666f60008301527f722063616c6c00000000000000000000000000000000000000000000000000006020830152604082019050919050565b6000620023b5601a8362002adb565b91507f496e76616c6964207374617274206f7220656e6420696e6465780000000000006000830152602082019050919050565b6000620023f7600a8362002adb565b91507f72657374726963746564000000000000000000000000000000000000000000006000830152602082019050919050565b60006200243960268362002adb565b91507f416464726573733a2064656c65676174652063616c6c20746f206e6f6e2d636f60008301527f6e747261637400000000000000000000000000000000000000000000000000006020830152604082019050919050565b6000620024a1601d8362002adb565b91507f416464726573733a2063616c6c20746f206e6f6e2d636f6e74726163740000006000830152602082019050919050565b6000620024e3602a8362002adb565b91507f5361666545524332303a204552433230206f7065726174696f6e20646964206e60008301527f6f742073756363656564000000000000000000000000000000000000000000006020830152604082019050919050565b60006200254b60098362002adb565b91507f6f6e6c794f776e657200000000000000000000000000000000000000000000006000830152602082019050919050565b60006200258d60228362002adb565b91507f496e73756666696369656e742066756e647320666f7220616c6c20776f726b6560008301527f72730000000000000000000000000000000000000000000000000000000000006020830152604082019050919050565b600061018083016000830151620026016000860182620022b5565b506020830151620026166020860182620022b5565b5060408301516200262b6040860182620022b5565b506060830151620026406060860182620022b5565b506080830151620026556080860182620021bf565b5060a08301516200266a60a0860182620021bf565b5060c08301516200267f60c08601826200278f565b5060e08301516200269460e08601826200278f565b50610100830151620026ab6101008601826200276d565b50610120830151620026c26101208601826200276d565b50610140830151620026d96101408601826200278f565b50610160830151848203610160860152620026f5828262002702565b9150508091505092915050565b60006080830160008301516200271c6000860182620021bf565b5060208301516200273160208601826200278f565b50604083015184820360408601526200274b8282620021e1565b91505060608301516200276260608601826200278f565b508091505092915050565b620027788162002c40565b82525050565b620027898162002c40565b82525050565b6200279a8162002c6e565b82525050565b620027ab8162002c6e565b82525050565b6000620027bf8284620022c6565b915081905092915050565b6000602082019050620027e16000830184620021d0565b92915050565b6000604082019050620027fe6000830185620021d0565b6200280d6020830184620027a0565b9392505050565b600060208201905081810360008301526200283081846200224b565b905092915050565b60006020820190508181036000830152620028548184620022fd565b905092915050565b6000602082019050818103600083015262002877816200233e565b9050919050565b600060208201905081810360008301526200289981620023a6565b9050919050565b60006020820190508181036000830152620028bb81620023e8565b9050919050565b60006020820190508181036000830152620028dd816200242a565b9050919050565b60006020820190508181036000830152620028ff8162002492565b9050919050565b600060208201905081810360008301526200292181620024d4565b9050919050565b6000602082019050818103600083015262002943816200253c565b9050919050565b6000602082019050818103600083015262002965816200257e565b9050919050565b60006020820190508181036000830152620029888184620025e6565b905092915050565b6000604082019050620029a760008301856200277e565b620029b660208301846200277e565b9392505050565b6000602082019050620029d46000830184620027a0565b92915050565b6000604051905081810181811067ffffffffffffffff8211171562002a045762002a0362002d6a565b5b8060405250919050565b600067ffffffffffffffff82111562002a2c5762002a2b62002d6a565b5b602082029050602081019050919050565b600067ffffffffffffffff82111562002a5b5762002a5a62002d6a565b5b601f19601f8301169050602081019050919050565b6000819050602082019050919050565b600081519050919050565b600081519050919050565b600081519050919050565b6000602082019050919050565b600082825260208201905092915050565b600082825260208201905092915050565b600081905092915050565b600082825260208201905092915050565b600062002af98262002c6e565b915062002b068362002c6e565b9250827fffffffffffffffffffffffffffffffffffffffffffffffffffffffffffffffff0382111562002b3e5762002b3d62002d3b565b5b828201905092915050565b600062002b568262002c6e565b915062002b638362002c6e565b9250817fffffffffffffffffffffffffffffffffffffffffffffffffffffffffffffffff048311821515161562002b9f5762002b9e62002d3b565b5b828202905092915050565b600062002bb78262002c40565b915062002bc48362002c40565b92508282101562002bda5762002bd962002d3b565b5b828203905092915050565b600062002bf28262002c6e565b915062002bff8362002c6e565b92508282101562002c155762002c1462002d3b565b5b828203905092915050565b600062002c2d8262002c4e565b9050919050565b60008115159050919050565b600061ffff82169050919050565b600073ffffffffffffffffffffffffffffffffffffffff82169050919050565b6000819050919050565b82818337600083830152505050565b60005b8381101562002ca757808201518184015260208101905062002c8a565b8381111562002cb7576000848401525b50505050565b600062002cca8262002c40565b915061ffff82141562002ce25762002ce162002d3b565b5b600182019050919050565b600062002cfa8262002c6e565b91507fffffffffffffffffffffffffffffffffffffffffffffffffffffffffffffffff82141562002d305762002d2f62002d3b565b5b600182019050919050565b7f4e487b7100000000000000000000000000000000000000000000000000000000600052601160045260246000fd5b7f4e487b7100000000000000000000000000000000000000000000000000000000600052604160045260246000fd5b6000601f19601f8301169050919050565b62002db58162002c20565b811462002dc157600080fd5b50565b62002dcf8162002c34565b811462002ddb57600080fd5b50565b62002de98162002c40565b811462002df557600080fd5b50565b62002e038162002c6e565b811462002e0f57600080fd5b5056fe60a0604052730e09fabb73bd3ade0a17ecc321fd13a19e81ce826000806101000a81548173ffffffffffffffffffffffffffffffffffffffff021916908373ffffffffffffffffffffffffffffffffffffffff16021790555034801561006457600080fd5b503373ffffffffffffffffffffffffffffffffffffffff1660808173ffffffffffffffffffffffffffffffffffffffff1660601b8152505060805160601c6118d26100ce60003960008181609e0152818161034e01528181610372015261049f01526118d26000f3fe608060405234801561001057600080fd5b50600436106100415760003560e01c80635f879db0146100465780638da5cb5b14610062578063c90d048e14610080575b600080fd5b610060600480360381019061005b9190611194565b61009c565b005b61006a61034c565b604051610077919061146d565b60405180910390f35b61009a600480360381019061009591906110af565b610370565b005b7f000000000000000000000000000000000000000000000000000000000000000073ffffffffffffffffffffffffffffffffffffffff163373ffffffffffffffffffffffffffffffffffffffff161461012a576040517f08c379a000000000000000000000000000000000000000000000000000000000815260040161012190611533565b60405180910390fd5b80600001602081019061013d9190611142565b156101685761016781608001602081019061015891906110af565b8260c001358360e001356104ea565b5b80602001602081019061017b9190611142565b156101ad576101ac81608001602081019061019691906110af565b828061016001906101a79190611621565b6105d4565b5b8060400160208101906101c09190611142565b156101eb576101ea8160a00160208101906101db91906110af565b8260c001358360e001356108e8565b5b8060600160208101906101fe9190611142565b15610300573073ffffffffffffffffffffffffffffffffffffffff1663c90d048e82608001602081019061023291906110af565b73ffffffffffffffffffffffffffffffffffffffff1663cc7a262e6040518163ffffffff1660e01b8152600401602060405180830381600087803b15801561027957600080fd5b505af115801561028d573d6000803e3d6000fd5b505050506040513d601f19601f820116820180604052508101906102b191906110d8565b6040518263ffffffff1660e01b81526004016102cd919061146d565b600060405180830381600087803b1580156102e757600080fd5b505af11580156102fb573d6000803e3d6000fd5b505050505b7f81188f5f74429a8d5dd69e402d2ec601e9510929aeb809d15acde392c83de43381608001602081019061033491906110af565b604051610341919061146d565b60405180910390a150565b7f000000000000000000000000000000000000000000000000000000000000000081565b7f000000000000000000000000000000000000000000000000000000000000000073ffffffffffffffffffffffffffffffffffffffff163373ffffffffffffffffffffffffffffffffffffffff16146103fe576040517f08c379a00000000000000000000000000000000000000000000000000000000081526004016103f590611533565b60405180910390fd5b60008173ffffffffffffffffffffffffffffffffffffffff166370a08231306040518263ffffffff1660e01b8152600401610439919061146d565b60206040518083038186803b15801561045157600080fd5b505afa158015610465573d6000803e3d6000fd5b505050506040513d601f19601f8201168201806040525081019061048991906111d5565b9050600081141561049a57506104e7565b6104e57f0000000000000000000000000000000000000000000000000000000000000000828473ffffffffffffffffffffffffffffffffffffffff16610ca19092919063ffffffff16565b505b50565b6000811415610563578273ffffffffffffffffffffffffffffffffffffffff16631058d281836040518263ffffffff1660e01b815260040161052c9190611553565b600060405180830381600087803b15801561054657600080fd5b505af115801561055a573d6000803e3d6000fd5b505050506105cf565b8273ffffffffffffffffffffffffffffffffffffffff16632e1a7d4d836040518263ffffffff1660e01b815260040161059c9190611553565b600060405180830381600087803b1580156105b657600080fd5b505af11580156105ca573d6000803e3d6000fd5b505050505b505050565b60008273ffffffffffffffffffffffffffffffffffffffff1663f7c618c16040518163ffffffff1660e01b8152600401602060405180830381600087803b15801561061e57600080fd5b505af1158015610632573d6000803e3d6000fd5b505050506040513d601f19601f8201168201806040525081019061065691906110d8565b73ffffffffffffffffffffffffffffffffffffffff166370a08231306040518263ffffffff1660e01b815260040161068e919061146d565b60206040518083038186803b1580156106a657600080fd5b505afa1580156106ba573d6000803e3d6000fd5b505050506040513d601f19601f820116820180604052508101906106de91906111d5565b905060008114156106ef57506108e4565b60008260200135826107019190611713565b90508373ffffffffffffffffffffffffffffffffffffffff1663f7c618c16040518163ffffffff1660e01b8152600401602060405180830381600087803b15801561074b57600080fd5b505af115801561075f573d6000803e3d6000fd5b505050506040513d601f19601f8201168201806040525081019061078391906110d8565b73ffffffffffffffffffffffffffffffffffffffff1663095ea7b38460000160208101906107b191906110af565b846040518363ffffffff1660e01b81526004016107cf929190611488565b602060405180830381600087803b1580156107e957600080fd5b505af11580156107fd573d6000803e3d6000fd5b505050506040513d601f19601f82011682018060405250810190610821919061116b565b5082600001602081019061083591906110af565b73ffffffffffffffffffffffffffffffffffffffff166338ed1739838386806040019061086291906115ca565b3089606001356040518763ffffffff1660e01b81526004016108899695949392919061156e565b600060405180830381600087803b1580156108a357600080fd5b505af11580156108b7573d6000803e3d6000fd5b505050506040513d6000823e3d601f19601f820116820180604052508101906108e09190611101565b5050505b5050565b60008214156109fc578273ffffffffffffffffffffffffffffffffffffffff1663cc7a262e6040518163ffffffff1660e01b8152600401602060405180830381600087803b15801561093957600080fd5b505af115801561094d573d6000803e3d6000fd5b505050506040513d601f19601f8201168201806040525081019061097191906110d8565b73ffffffffffffffffffffffffffffffffffffffff166370a08231306040518263ffffffff1660e01b81526004016109a9919061146d565b60206040518083038186803b1580156109c157600080fd5b505afa1580156109d5573d6000803e3d6000fd5b505050506040513d601f19601f820116820180604052508101906109f991906111d5565b91505b6000811415610b235760008054906101000a900473ffffffffffffffffffffffffffffffffffffffff1673ffffffffffffffffffffffffffffffffffffffff1663095ea7b384846040518363ffffffff1660e01b8152600401610a60929190611488565b602060405180830381600087803b158015610a7a57600080fd5b505af1158015610a8e573d6000803e3d6000fd5b505050506040513d601f19601f82011682018060405250810190610ab2919061116b565b508273ffffffffffffffffffffffffffffffffffffffff166341441d3b836040518263ffffffff1660e01b8152600401610aec9190611553565b600060405180830381600087803b158015610b0657600080fd5b505af1158015610b1a573d6000803e3d6000fd5b50505050610c9c565b8273ffffffffffffffffffffffffffffffffffffffff1663cc7a262e6040518163ffffffff1660e01b8152600401602060405180830381600087803b158015610b6b57600080fd5b505af1158015610b7f573d6000803e3d6000fd5b505050506040513d601f19601f82011682018060405250810190610ba391906110d8565b73ffffffffffffffffffffffffffffffffffffffff1663095ea7b384846040518363ffffffff1660e01b8152600401610bdd929190611488565b602060405180830381600087803b158015610bf757600080fd5b505af1158015610c0b573d6000803e3d6000fd5b505050506040513d601f19601f82011682018060405250810190610c2f919061116b565b508273ffffffffffffffffffffffffffffffffffffffff1663b6b55f25836040518263ffffffff1660e01b8152600401610c699190611553565b600060405180830381600087803b158015610c8357600080fd5b505af1158015610c97573d6000803e3d6000fd5b505050505b505050565b610d228363a9059cbb60e01b8484604051602401610cc0929190611488565b604051602081830303815290604052907bffffffffffffffffffffffffffffffffffffffffffffffffffffffff19166020820180517bffffffffffffffffffffffffffffffffffffffffffffffffffffffff8381831617835250505050610d27565b505050565b6000610d89826040518060400160405280602081526020017f5361666545524332303a206c6f772d6c6576656c2063616c6c206661696c65648152508573ffffffffffffffffffffffffffffffffffffffff16610dee9092919063ffffffff16565b9050600081511115610de95780806020019051810190610da9919061116b565b610de8576040517f08c379a0000000000000000000000000000000000000000000000000000000008152600401610ddf90611513565b60405180910390fd5b5b505050565b6060610dfd8484600085610e06565b90509392505050565b606082471015610e4b576040517f08c379a0000000000000000000000000000000000000000000000000000000008152600401610e42906114d3565b60405180910390fd5b610e5485610f1a565b610e93576040517f08c379a0000000000000000000000000000000000000000000000000000000008152600401610e8a906114f3565b60405180910390fd5b6000808673ffffffffffffffffffffffffffffffffffffffff168587604051610ebc9190611456565b60006040518083038185875af1925050503d8060008114610ef9576040519150601f19603f3d011682016040523d82523d6000602084013e610efe565b606091505b5091509150610f0e828286610f2d565b92505050949350505050565b600080823b905060008111915050919050565b60608315610f3d57829050610f8d565b600083511115610f505782518084602001fd5b816040517f08c379a0000000000000000000000000000000000000000000000000000000008152600401610f8491906114b1565b60405180910390fd5b9392505050565b6000610fa7610fa284611676565b611645565b90508083825260208201905082856020860282011115610fc657600080fd5b60005b85811015610ff65781610fdc888261109a565b845260208401935060208301925050600181019050610fc9565b5050509392505050565b60008135905061100f81611857565b92915050565b60008151905061102481611857565b92915050565b600082601f83011261103b57600080fd5b815161104b848260208601610f94565b91505092915050565b6000813590506110638161186e565b92915050565b6000815190506110788161186e565b92915050565b6000610180828403121561109157600080fd5b81905092915050565b6000815190506110a981611885565b92915050565b6000602082840312156110c157600080fd5b60006110cf84828501611000565b91505092915050565b6000602082840312156110ea57600080fd5b60006110f884828501611015565b91505092915050565b60006020828403121561111357600080fd5b600082015167ffffffffffffffff81111561112d57600080fd5b6111398482850161102a565b91505092915050565b60006020828403121561115457600080fd5b600061116284828501611054565b91505092915050565b60006020828403121561117d57600080fd5b600061118b84828501611069565b91505092915050565b6000602082840312156111a657600080fd5b600082013567ffffffffffffffff8111156111c057600080fd5b6111cc8482850161107e565b91505092915050565b6000602082840312156111e757600080fd5b60006111f58482850161109a565b91505092915050565b600061120a8383611216565b60208301905092915050565b61121f8161176d565b82525050565b61122e8161176d565b82525050565b600061124083856116cf565b935061124b826116a2565b8060005b858110156112845761126182846116fc565b61126b88826111fe565b9750611276836116c2565b92505060018101905061124f565b5085925050509392505050565b600061129c826116ac565b6112a681856116e0565b93506112b68185602086016117b5565b80840191505092915050565b60006112cd826116b7565b6112d781856116eb565b93506112e78185602086016117b5565b6112f081611846565b840191505092915050565b60006113086026836116eb565b91507f416464726573733a20696e73756666696369656e742062616c616e636520666f60008301527f722063616c6c00000000000000000000000000000000000000000000000000006020830152604082019050919050565b600061136e601d836116eb565b91507f416464726573733a2063616c6c20746f206e6f6e2d636f6e74726163740000006000830152602082019050919050565b60006113ae602a836116eb565b91507f5361666545524332303a204552433230206f7065726174696f6e20646964206e60008301527f6f742073756363656564000000000000000000000000000000000000000000006020830152604082019050919050565b60006114146009836116eb565b91507f6f6e6c794f776e657200000000000000000000000000000000000000000000006000830152602082019050919050565b611450816117ab565b82525050565b60006114628284611291565b915081905092915050565b60006020820190506114826000830184611225565b92915050565b600060408201905061149d6000830185611225565b6114aa6020830184611447565b9392505050565b600060208201905081810360008301526114cb81846112c2565b905092915050565b600060208201905081810360008301526114ec816112fb565b9050919050565b6000602082019050818103600083015261150c81611361565b9050919050565b6000602082019050818103600083015261152c816113a1565b9050919050565b6000602082019050818103600083015261154c81611407565b9050919050565b60006020820190506115686000830184611447565b92915050565b600060a0820190506115836000830189611447565b6115906020830188611447565b81810360408301526115a3818688611234565b90506115b26060830185611225565b6115bf6080830184611447565b979650505050505050565b600080833560016020038436030381126115e357600080fd5b80840192508235915067ffffffffffffffff82111561160157600080fd5b60208301925060208202360383131561161957600080fd5b509250929050565b60008235600160800383360303811261163957600080fd5b80830191505092915050565b6000604051905081810181811067ffffffffffffffff8211171561166c5761166b611817565b5b8060405250919050565b600067ffffffffffffffff82111561169157611690611817565b5b602082029050602081019050919050565b6000819050919050565b600081519050919050565b600081519050919050565b6000602082019050919050565b600082825260208201905092915050565b600081905092915050565b600082825260208201905092915050565b600061170b6020840184611000565b905092915050565b600061171e826117ab565b9150611729836117ab565b9250817fffffffffffffffffffffffffffffffffffffffffffffffffffffffffffffffff0483118215151615611762576117616117e8565b5b828202905092915050565b60006117788261178b565b9050919050565b60008115159050919050565b600073ffffffffffffffffffffffffffffffffffffffff82169050919050565b6000819050919050565b60005b838110156117d35780820151818401526020810190506117b8565b838111156117e2576000848401525b50505050565b7f4e487b7100000000000000000000000000000000000000000000000000000000600052601160045260246000fd5b7f4e487b7100000000000000000000000000000000000000000000000000000000600052604160045260246000fd5b6000601f19601f8301169050919050565b6118608161176d565b811461186b57600080fd5b50565b6118778161177f565b811461188257600080fd5b50565b61188e816117ab565b811461189957600080fd5b5056fea2646970667358221220b4fd4a6c3149ca5462a6f91f19aa63f472e537ffd9b84cc035ea79c2375aa73764736f6c63430008000033416464726573733a206c6f772d6c6576656c2064656c65676174652063616c6c206661696c6564a2646970667358221220f26e1fb2588dd1418ac06e27bc620e4308bc0cb9f0b25342fa916f1d7e068a7064736f6c63430008000033",
  "linkReferences": {},
  "deployedLinkReferences": {}
}