{
  "_format": "hh-sol-artifact-1",
  "contractName": "Manager",
  "sourceName": "contracts/Manager.sol",
  "abi": [
    {
      "inputs": [
        {
          "internalType": "address",
          "name": "_owner",
          "type": "address"
        },
        {
          "internalType": "address",
          "name": "_admin",
          "type": "address"
        }
      ],
      "stateMutability": "nonpayable",
      "type": "constructor"
    },
    {
      "anonymous": false,
      "inputs": [
        {
          "indexed": false,
          "internalType": "uint16",
          "name": "startIndex",
          "type": "uint16"
        },
        {
          "indexed": false,
          "internalType": "uint16",
          "name": "endIndex",
          "type": "uint16"
        },
        {
          "indexed": true,
          "internalType": "address",
          "name": "stakedPoolAddr",
          "type": "address"
        },
        {
          "indexed": true,
          "internalType": "address",
          "name": "newPoolAddr",
          "type": "address"
        }
      ],
      "name": "DoHardWork",
      "type": "event"
    },
    {
      "anonymous": false,
      "inputs": [
        {
          "indexed": false,
          "internalType": "address",
          "name": "newAdmin",
          "type": "address"
        }
      ],
      "name": "SetAdmin",
      "type": "event"
    },
    {
      "anonymous": false,
      "inputs": [
        {
          "indexed": true,
          "internalType": "uint16",
          "name": "startIndex",
          "type": "uint16"
        },
        {
          "indexed": true,
          "internalType": "uint16",
          "name": "endIndex",
          "type": "uint16"
        },
        {
          "indexed": true,
          "internalType": "address",
          "name": "token",
          "type": "address"
        }
      ],
      "name": "TransferToManager",
      "type": "event"
    },
    {
      "anonymous": false,
      "inputs": [
        {
          "indexed": false,
          "internalType": "uint256",
          "name": "amount",
          "type": "uint256"
        }
      ],
      "name": "TransferToOwner",
      "type": "event"
    },
    {
      "anonymous": false,
      "inputs": [
        {
          "indexed": false,
          "internalType": "uint16",
          "name": "startIndex",
          "type": "uint16"
        },
        {
          "indexed": false,
          "internalType": "uint16",
          "name": "endIndex",
          "type": "uint16"
        },
        {
          "indexed": true,
          "internalType": "uint256",
          "name": "amount",
          "type": "uint256"
        },
        {
          "indexed": true,
          "internalType": "address",
          "name": "stakedToken",
          "type": "address"
        }
      ],
      "name": "TransferToWorkers",
      "type": "event"
    },
    {
      "anonymous": false,
      "inputs": [
        {
          "indexed": false,
          "internalType": "uint256",
          "name": "nWorkers",
          "type": "uint256"
        }
      ],
      "name": "WorkersAdded",
      "type": "event"
    },
    {
      "inputs": [
        {
          "internalType": "uint16",
          "name": "numWorkersToAdd",
          "type": "uint16"
        }
      ],
      "name": "addWorkers",
      "outputs": [],
      "stateMutability": "nonpayable",
      "type": "function"
    },
    {
      "inputs": [],
      "name": "admin",
      "outputs": [
        {
          "internalType": "address",
          "name": "",
          "type": "address"
        }
      ],
      "stateMutability": "view",
      "type": "function"
    },
    {
      "inputs": [
        {
          "components": [
            {
              "internalType": "bool",
              "name": "withdraw",
              "type": "bool"
            },
            {
              "internalType": "bool",
              "name": "swap",
              "type": "bool"
            },
            {
              "internalType": "bool",
              "name": "deposit",
              "type": "bool"
            },
            {
              "internalType": "address",
              "name": "stakedPoolAddr",
              "type": "address"
            },
            {
              "internalType": "address",
              "name": "newPoolAddr",
              "type": "address"
            },
            {
              "internalType": "uint256",
              "name": "amount",
              "type": "uint256"
            },
            {
              "internalType": "uint16",
              "name": "startIndex",
              "type": "uint16"
            },
            {
              "internalType": "uint16",
              "name": "endIndex",
              "type": "uint16"
            },
            {
              "components": [
                {
                  "internalType": "address",
                  "name": "swapRouter",
                  "type": "address"
                },
                {
                  "internalType": "uint256",
                  "name": "multiplier",
                  "type": "uint256"
                },
                {
                  "internalType": "address[]",
                  "name": "path",
                  "type": "address[]"
                },
                {
                  "internalType": "uint256",
                  "name": "deadline",
                  "type": "uint256"
                }
              ],
              "internalType": "struct IWorker.SwapParams",
              "name": "swapParams",
              "type": "tuple"
            }
          ],
          "internalType": "struct IWorker.DoHardWorkParams",
          "name": "params",
          "type": "tuple"
        }
      ],
      "name": "doHardWork",
      "outputs": [],
      "stateMutability": "nonpayable",
      "type": "function"
    },
    {
      "inputs": [
        {
          "internalType": "address",
          "name": "target",
          "type": "address"
        },
        {
          "internalType": "bytes",
          "name": "data",
          "type": "bytes"
        }
      ],
      "name": "emergencyFunctionCall",
      "outputs": [],
      "stateMutability": "nonpayable",
      "type": "function"
    },
    {
      "inputs": [
        {
          "internalType": "address",
          "name": "target",
          "type": "address"
        },
        {
          "internalType": "bytes",
          "name": "data",
          "type": "bytes"
        }
      ],
      "name": "emergencyFunctionDelegateCall",
      "outputs": [],
      "stateMutability": "nonpayable",
      "type": "function"
    },
    {
      "inputs": [],
      "name": "getNWorkers",
      "outputs": [
        {
          "internalType": "uint256",
          "name": "",
          "type": "uint256"
        }
      ],
      "stateMutability": "view",
      "type": "function"
    },
    {
      "inputs": [
        {
          "internalType": "uint16",
          "name": "startIndex",
          "type": "uint16"
        },
        {
          "internalType": "uint16",
          "name": "endIndex",
          "type": "uint16"
        }
      ],
      "name": "getWorkers",
      "outputs": [
        {
          "internalType": "address[]",
          "name": "",
          "type": "address[]"
        }
      ],
      "stateMutability": "view",
      "type": "function"
    },
    {
      "inputs": [],
      "name": "owner",
      "outputs": [
        {
          "internalType": "address",
          "name": "",
          "type": "address"
        }
      ],
      "stateMutability": "view",
      "type": "function"
    },
    {
      "inputs": [
        {
          "internalType": "address",
          "name": "newAdmin",
          "type": "address"
        }
      ],
      "name": "setAdmin",
      "outputs": [],
      "stateMutability": "nonpayable",
      "type": "function"
    },
    {
      "inputs": [
        {
          "components": [
            {
              "internalType": "address",
              "name": "token",
              "type": "address"
            },
            {
              "internalType": "uint256",
              "name": "amount",
              "type": "uint256"
            },
            {
              "internalType": "uint16",
              "name": "startIndex",
              "type": "uint16"
            },
            {
              "internalType": "uint16",
              "name": "endIndex",
              "type": "uint16"
            }
          ],
          "internalType": "struct IWorker.TransferMngParams",
          "name": "params",
          "type": "tuple"
        }
      ],
      "name": "transferToManager",
      "outputs": [],
      "stateMutability": "nonpayable",
      "type": "function"
    },
    {
      "inputs": [
        {
          "internalType": "address",
          "name": "stakedToken",
          "type": "address"
        }
      ],
      "name": "transferToOwner",
      "outputs": [],
      "stateMutability": "nonpayable",
      "type": "function"
    },
    {
      "inputs": [
        {
          "components": [
            {
              "internalType": "address",
              "name": "stakedToken",
              "type": "address"
            },
            {
              "internalType": "uint256",
              "name": "amount",
              "type": "uint256"
            },
            {
              "internalType": "uint16",
              "name": "startIndex",
              "type": "uint16"
            },
            {
              "internalType": "uint16",
              "name": "endIndex",
              "type": "uint16"
            }
          ],
          "internalType": "struct IWorker.TransferWorkersParams",
          "name": "params",
          "type": "tuple"
        }
      ],
      "name": "transferToWorkers",
      "outputs": [],
      "stateMutability": "nonpayable",
      "type": "function"
    },
    {
      "inputs": [
        {
          "internalType": "uint256",
          "name": "",
          "type": "uint256"
        }
      ],
      "name": "workers",
      "outputs": [
        {
          "internalType": "address",
          "name": "",
          "type": "address"
        }
      ],
      "stateMutability": "view",
      "type": "function"
    }
  ],
  "bytecode": "0x60a06040523480156200001157600080fd5b5060405162004cd038038062004cd08339818101604052810190620000379190620000d6565b60016000819055508173ffffffffffffffffffffffffffffffffffffffff1660808173ffffffffffffffffffffffffffffffffffffffff1660601b8152505080600160006101000a81548173ffffffffffffffffffffffffffffffffffffffff021916908373ffffffffffffffffffffffffffffffffffffffff160217905550505062000165565b600081519050620000d0816200014b565b92915050565b60008060408385031215620000ea57600080fd5b6000620000fa85828601620000bf565b92505060206200010d85828601620000bf565b9150509250929050565b600062000124826200012b565b9050919050565b600073ffffffffffffffffffffffffffffffffffffffff82169050919050565b620001568162000117565b81146200016257600080fd5b50565b60805160601c614aff620001d1600039600081816102bb0152818161035f015281816104540152818161065a01528181610768015281816108e90152818161096f0152818161099301528181610c7801528181610f19015281816111d701526118880152614aff6000f3fe60806040523480156200001157600080fd5b5060043610620000e25760003560e01c8063a2fa1c971162000099578063d168c57e116200006f578063d168c57e1462000221578063e78d73ad1462000241578063f1a22dc21462000261578063f851a440146200029757620000e2565b8063a2fa1c9714620001ab578063b91f8b3614620001cb578063cfc3c2c3146200020157620000e2565b80632ab0aabb14620000e75780634257ecb214620001075780635e3792f71462000129578063704b6c021462000149578063812d504d14620001695780638da5cb5b1462000189575b600080fd5b620001056004803603810190620000ff9190620021a8565b620002b9565b005b620001116200035b565b60405162000120919062002c2b565b60405180910390f35b620001476004803603810190620001419190620022cb565b62000452565b005b6200016760048036038101906200016191906200217c565b62000658565b005b6200018760048036038101906200018191906200217c565b62000766565b005b620001936200096d565b604051620001a29190620029f4565b60405180910390f35b620001c96004803603810190620001c391906200222e565b62000991565b005b620001e96004803603810190620001e39190620022f7565b62000c74565b604051620001f8919062002a3e565b60405180910390f35b6200021f600480360381019062000219919062002273565b62000f17565b005b6200023f60048036038101906200023991906200229f565b620011d5565b005b6200025f6004803603810190620002599190620021a8565b62001886565b005b6200027f600480360381019062000279919062002338565b62001928565b6040516200028e9190620029f4565b60405180910390f35b620002a162001968565b604051620002b09190620029f4565b60405180910390f35b7f000000000000000000000000000000000000000000000000000000000000000073ffffffffffffffffffffffffffffffffffffffff163373ffffffffffffffffffffffffffffffffffffffff16146200034a576040517f08c379a0000000000000000000000000000000000000000000000000000000008152600401620003419062002b74565b60405180910390fd5b6200035682826200198e565b505050565b60007f000000000000000000000000000000000000000000000000000000000000000073ffffffffffffffffffffffffffffffffffffffff163373ffffffffffffffffffffffffffffffffffffffff161480620004055750600160009054906101000a900473ffffffffffffffffffffffffffffffffffffffff1673ffffffffffffffffffffffffffffffffffffffff163373ffffffffffffffffffffffffffffffffffffffff16145b62000447576040517f08c379a00000000000000000000000000000000000000000000000000000000081526004016200043e9062002aec565b60405180910390fd5b600280549050905090565b7f000000000000000000000000000000000000000000000000000000000000000073ffffffffffffffffffffffffffffffffffffffff163373ffffffffffffffffffffffffffffffffffffffff161480620004fa5750600160009054906101000a900473ffffffffffffffffffffffffffffffffffffffff1673ffffffffffffffffffffffffffffffffffffffff163373ffffffffffffffffffffffffffffffffffffffff16145b6200053c576040517f08c379a0000000000000000000000000000000000000000000000000000000008152600401620005339062002aec565b60405180910390fd5b60008161ffff1660028054905062000555919062002dc6565b9050600060028054905090505b81811015620006155760006040516200057b9062001df6565b604051809103906000f08015801562000598573d6000803e3d6000fd5b5090506002819080600181540180825580915050600190039060005260206000200160009091909190916101000a81548173ffffffffffffffffffffffffffffffffffffffff021916908373ffffffffffffffffffffffffffffffffffffffff1602179055505080806200060c9062002fc7565b91505062000562565b507f3ea8142895fe7d4af1f88d8b1d563937502baceb3254aa0e2bed1a348bd5228f6002805490506040516200064c919062002c2b565b60405180910390a15050565b7f000000000000000000000000000000000000000000000000000000000000000073ffffffffffffffffffffffffffffffffffffffff163373ffffffffffffffffffffffffffffffffffffffff1614620006e9576040517f08c379a0000000000000000000000000000000000000000000000000000000008152600401620006e09062002b74565b60405180910390fd5b80600160006101000a81548173ffffffffffffffffffffffffffffffffffffffff021916908373ffffffffffffffffffffffffffffffffffffffff1602179055507f5a272403b402d892977df56625f4164ccaf70ca3863991c43ecfe76a6905b0a1816040516200075b9190620029f4565b60405180910390a150565b7f000000000000000000000000000000000000000000000000000000000000000073ffffffffffffffffffffffffffffffffffffffff163373ffffffffffffffffffffffffffffffffffffffff1614806200080e5750600160009054906101000a900473ffffffffffffffffffffffffffffffffffffffff1673ffffffffffffffffffffffffffffffffffffffff163373ffffffffffffffffffffffffffffffffffffffff16145b62000850576040517f08c379a0000000000000000000000000000000000000000000000000000000008152600401620008479062002aec565b60405180910390fd5b60008173ffffffffffffffffffffffffffffffffffffffff166370a08231306040518263ffffffff1660e01b81526004016200088d9190620029f4565b60206040518083038186803b158015620008a657600080fd5b505afa158015620008bb573d6000803e3d6000fd5b505050506040513d601f19601f82011682018060405250810190620008e1919062002364565b9050620009307f0000000000000000000000000000000000000000000000000000000000000000828473ffffffffffffffffffffffffffffffffffffffff16620019be9092919063ffffffff16565b7fb91557f3050411a13a7e7631fe8461fcd94ec09d9a2b122e22e0b294998053c68160405162000961919062002c2b565b60405180910390a15050565b7f000000000000000000000000000000000000000000000000000000000000000081565b7f000000000000000000000000000000000000000000000000000000000000000073ffffffffffffffffffffffffffffffffffffffff163373ffffffffffffffffffffffffffffffffffffffff16148062000a395750600160009054906101000a900473ffffffffffffffffffffffffffffffffffffffff1673ffffffffffffffffffffffffffffffffffffffff163373ffffffffffffffffffffffffffffffffffffffff16145b62000a7b576040517f08c379a000000000000000000000000000000000000000000000000000000000815260040162000a729062002aec565b60405180910390fd5b6002805490508160e0015161ffff161115801562000aa857508060e0015161ffff168160c0015161ffff16105b62000aea576040517f08c379a000000000000000000000000000000000000000000000000000000000815260040162000ae19062002aa8565b60405180910390fd5b60008160c0015190505b8160e0015161ffff168161ffff16101562000bf75760028161ffff168154811062000b48577f4e487b7100000000000000000000000000000000000000000000000000000000600052603260045260246000fd5b9060005260206000200160009054906101000a900473ffffffffffffffffffffffffffffffffffffffff1673ffffffffffffffffffffffffffffffffffffffff1663a2fa1c97836040518263ffffffff1660e01b815260040162000bad919062002bda565b600060405180830381600087803b15801562000bc857600080fd5b505af115801562000bdd573d6000803e3d6000fd5b50505050808062000bee9062002f97565b91505062000af4565b50806080015173ffffffffffffffffffffffffffffffffffffffff16816060015173ffffffffffffffffffffffffffffffffffffffff167f9f3c88b323348c5ee87096b2747ad98604a8c1088ecc8a7c24df8f5347acbf268360c001518460e0015160405162000c6992919062002bfe565b60405180910390a350565b60607f000000000000000000000000000000000000000000000000000000000000000073ffffffffffffffffffffffffffffffffffffffff163373ffffffffffffffffffffffffffffffffffffffff16148062000d1e5750600160009054906101000a900473ffffffffffffffffffffffffffffffffffffffff1673ffffffffffffffffffffffffffffffffffffffff163373ffffffffffffffffffffffffffffffffffffffff16145b62000d60576040517f08c379a000000000000000000000000000000000000000000000000000000000815260040162000d579062002aec565b60405180910390fd5b6000838362000d70919062002e84565b61ffff1667ffffffffffffffff81111562000db4577f4e487b7100000000000000000000000000000000000000000000000000000000600052604160045260246000fd5b60405190808252806020026020018201604052801562000de35781602001602082028036833780820191505090505b50905060005b848462000df7919062002e84565b61ffff168161ffff16101562000f0c576002818662000e17919062002d87565b61ffff168154811062000e53577f4e487b7100000000000000000000000000000000000000000000000000000000600052603260045260246000fd5b9060005260206000200160009054906101000a900473ffffffffffffffffffffffffffffffffffffffff16828261ffff168151811062000ebc577f4e487b7100000000000000000000000000000000000000000000000000000000600052603260045260246000fd5b602002602001019073ffffffffffffffffffffffffffffffffffffffff16908173ffffffffffffffffffffffffffffffffffffffff1681525050808062000f039062002f97565b91505062000de9565b508091505092915050565b7f000000000000000000000000000000000000000000000000000000000000000073ffffffffffffffffffffffffffffffffffffffff163373ffffffffffffffffffffffffffffffffffffffff16148062000fbf5750600160009054906101000a900473ffffffffffffffffffffffffffffffffffffffff1673ffffffffffffffffffffffffffffffffffffffff163373ffffffffffffffffffffffffffffffffffffffff16145b62001001576040517f08c379a000000000000000000000000000000000000000000000000000000000815260040162000ff89062002aec565b60405180910390fd5b6000816040016020810190620010189190620022cb565b90505b816060016020810190620010309190620022cb565b61ffff168161ffff161015620011485760028161ffff16815481106200107f577f4e487b7100000000000000000000000000000000000000000000000000000000600052603260045260246000fd5b9060005260206000200160009054906101000a900473ffffffffffffffffffffffffffffffffffffffff1673ffffffffffffffffffffffffffffffffffffffff1663a5d343438360200135846000016020810190620010df91906200217c565b6040518363ffffffff1660e01b8152600401620010fe92919062002c48565b600060405180830381600087803b1580156200111957600080fd5b505af11580156200112e573d6000803e3d6000fd5b5050505080806200113f9062002f97565b9150506200101b565b508060000160208101906200115e91906200217c565b73ffffffffffffffffffffffffffffffffffffffff16816060016020810190620011899190620022cb565b61ffff16826040016020810190620011a29190620022cb565b61ffff167f2e52f7960fcea0183dbb2c49529001dfec948638381267363c47e2180cfc664360405160405180910390a450565b7f000000000000000000000000000000000000000000000000000000000000000073ffffffffffffffffffffffffffffffffffffffff163373ffffffffffffffffffffffffffffffffffffffff1614806200127d5750600160009054906101000a900473ffffffffffffffffffffffffffffffffffffffff1673ffffffffffffffffffffffffffffffffffffffff163373ffffffffffffffffffffffffffffffffffffffff16145b620012bf576040517f08c379a0000000000000000000000000000000000000000000000000000000008152600401620012b69062002aec565b60405180910390fd5b600080826000016020810190620012d791906200217c565b73ffffffffffffffffffffffffffffffffffffffff166370a08231306040518263ffffffff1660e01b8152600401620013119190620029f4565b60206040518083038186803b1580156200132a57600080fd5b505afa1580156200133f573d6000803e3d6000fd5b505050506040513d601f19601f8201168201806040525081019062001365919062002364565b90508260400160208101906200137c9190620022cb565b836060016020810190620013919190620022cb565b6200139d919062002e84565b61ffff166002805490501015620013eb576040517f08c379a0000000000000000000000000000000000000000000000000000000008152600401620013e29062002aca565b60405180910390fd5b80836040016020810190620014019190620022cb565b846060016020810190620014169190620022cb565b62001422919062002e84565b61ffff16846020013562001437919062002e23565b11156200147b576040517f08c379a0000000000000000000000000000000000000000000000000000000008152600401620014729062002b96565b60405180910390fd5b6000836040016020810190620014929190620022cb565b90505b836060016020810190620014aa9190620022cb565b61ffff168161ffff161015620017ed57836000016020810190620014cf91906200217c565b73ffffffffffffffffffffffffffffffffffffffff166370a0823160028361ffff168154811062001529577f4e487b7100000000000000000000000000000000000000000000000000000000600052603260045260246000fd5b9060005260206000200160009054906101000a900473ffffffffffffffffffffffffffffffffffffffff166040518263ffffffff1660e01b8152600401620015729190620029f4565b60206040518083038186803b1580156200158b57600080fd5b505afa158015620015a0573d6000803e3d6000fd5b505050506040513d601f19601f82011682018060405250810190620015c6919062002364565b8460200135116200160e576040517f08c379a0000000000000000000000000000000000000000000000000000000008152600401620016059062002bb8565b60405180910390fd5b8360000160208101906200162391906200217c565b73ffffffffffffffffffffffffffffffffffffffff166370a0823160028361ffff16815481106200167d577f4e487b7100000000000000000000000000000000000000000000000000000000600052603260045260246000fd5b9060005260206000200160009054906101000a900473ffffffffffffffffffffffffffffffffffffffff166040518263ffffffff1660e01b8152600401620016c69190620029f4565b60206040518083038186803b158015620016df57600080fd5b505afa158015620016f4573d6000803e3d6000fd5b505050506040513d601f19601f820116820180604052508101906200171a919062002364565b84602001356200172b919062002ebf565b9250620017d760028261ffff168154811062001770577f4e487b7100000000000000000000000000000000000000000000000000000000600052603260045260246000fd5b9060005260206000200160009054906101000a900473ffffffffffffffffffffffffffffffffffffffff1684866000016020810190620017b191906200217c565b73ffffffffffffffffffffffffffffffffffffffff16620019be9092919063ffffffff16565b8080620017e49062002f97565b91505062001495565b508260000160208101906200180391906200217c565b73ffffffffffffffffffffffffffffffffffffffff1683602001357f253d71e585f0bb6d674a7179fcbde0322cdb3e983a10839748f4b63e64f4ee84856040016020810190620018549190620022cb565b866060016020810190620018699190620022cb565b6040516200187992919062002bfe565b60405180910390a3505050565b7f000000000000000000000000000000000000000000000000000000000000000073ffffffffffffffffffffffffffffffffffffffff163373ffffffffffffffffffffffffffffffffffffffff161462001917576040517f08c379a00000000000000000000000000000000000000000000000000000000081526004016200190e9062002b74565b60405180910390fd5b62001923828262001a48565b505050565b600281815481106200193957600080fd5b906000526020600020016000915054906101000a900473ffffffffffffffffffffffffffffffffffffffff1681565b600160009054906101000a900473ffffffffffffffffffffffffffffffffffffffff1681565b6060620019b6838360405180606001604052806027815260200162004aa36027913962001a94565b905092915050565b62001a438363a9059cbb60e01b8484604051602401620019e092919062002a11565b604051602081830303815290604052907bffffffffffffffffffffffffffffffffffffffffffffffffffffffff19166020820180517bffffffffffffffffffffffffffffffffffffffffffffffffffffffff838183161783525050505062001b6c565b505050565b606062001a8c83836040518060400160405280601e81526020017f416464726573733a206c6f772d6c6576656c2063616c6c206661696c6564000081525062001c3b565b905092915050565b606062001aa18462001c55565b62001ae3576040517f08c379a000000000000000000000000000000000000000000000000000000000815260040162001ada9062002b0e565b60405180910390fd5b6000808573ffffffffffffffffffffffffffffffffffffffff168560405162001b0d9190620029db565b600060405180830381855af49150503d806000811462001b4a576040519150601f19603f3d011682016040523d82523d6000602084013e62001b4f565b606091505b509150915062001b6182828662001c68565b925050509392505050565b600062001bd0826040518060400160405280602081526020017f5361666545524332303a206c6f772d6c6576656c2063616c6c206661696c65648152508573ffffffffffffffffffffffffffffffffffffffff1662001c3b9092919063ffffffff16565b905060008151111562001c36578080602001905181019062001bf3919062002202565b62001c35576040517f08c379a000000000000000000000000000000000000000000000000000000000815260040162001c2c9062002b52565b60405180910390fd5b5b505050565b606062001c4c848460008562001cd4565b90509392505050565b600080823b905060008111915050919050565b6060831562001c7a5782905062001ccd565b60008351111562001c8e5782518084602001fd5b816040517f08c379a000000000000000000000000000000000000000000000000000000000815260040162001cc4919062002a62565b60405180910390fd5b9392505050565b60608247101562001d1c576040517f08c379a000000000000000000000000000000000000000000000000000000000815260040162001d139062002a86565b60405180910390fd5b62001d278562001c55565b62001d69576040517f08c379a000000000000000000000000000000000000000000000000000000000815260040162001d609062002b30565b60405180910390fd5b6000808673ffffffffffffffffffffffffffffffffffffffff16858760405162001d949190620029db565b60006040518083038185875af1925050503d806000811462001dd3576040519150601f19603f3d011682016040523d82523d6000602084013e62001dd8565b606091505b509150915062001dea82828662001c68565b92505050949350505050565b6119b680620030ed83390190565b600062001e1b62001e158462002ca9565b62002c75565b9050808382526020820190508285602086028201111562001e3b57600080fd5b60005b8581101562001e6f578162001e54888262001ebe565b84526020840193506020830192505060018101905062001e3e565b5050509392505050565b600062001e9062001e8a8462002cd8565b62002c75565b90508281526020810184848401111562001ea957600080fd5b62001eb684828562002f52565b509392505050565b60008135905062001ecf8162003084565b92915050565b600082601f83011262001ee757600080fd5b813562001ef984826020860162001e04565b91505092915050565b60008135905062001f13816200309e565b92915050565b60008151905062001f2a816200309e565b92915050565b600082601f83011262001f4257600080fd5b813562001f5484826020860162001e79565b91505092915050565b6000610120828403121562001f7157600080fd5b62001f7e61012062002c75565b9050600062001f908482850162001f02565b600083015250602062001fa68482850162001f02565b602083015250604062001fbc8482850162001f02565b604083015250606062001fd28482850162001ebe565b606083015250608062001fe88482850162001ebe565b60808301525060a062001ffe848285016200214e565b60a08301525060c0620020148482850162002137565b60c08301525060e06200202a8482850162002137565b60e08301525061010082013567ffffffffffffffff8111156200204c57600080fd5b6200205a8482850162002067565b6101008301525092915050565b6000608082840312156200207a57600080fd5b62002086608062002c75565b90506000620020988482850162001ebe565b6000830152506020620020ae848285016200214e565b602083015250604082013567ffffffffffffffff811115620020cf57600080fd5b620020dd8482850162001ed5565b6040830152506060620020f3848285016200214e565b60608301525092915050565b6000608082840312156200211257600080fd5b81905092915050565b6000608082840312156200212e57600080fd5b81905092915050565b6000813590506200214881620030b8565b92915050565b6000813590506200215f81620030d2565b92915050565b6000815190506200217681620030d2565b92915050565b6000602082840312156200218f57600080fd5b60006200219f8482850162001ebe565b91505092915050565b60008060408385031215620021bc57600080fd5b6000620021cc8582860162001ebe565b925050602083013567ffffffffffffffff811115620021ea57600080fd5b620021f88582860162001f30565b9150509250929050565b6000602082840312156200221557600080fd5b6000620022258482850162001f19565b91505092915050565b6000602082840312156200224157600080fd5b600082013567ffffffffffffffff8111156200225c57600080fd5b6200226a8482850162001f5d565b91505092915050565b6000608082840312156200228657600080fd5b60006200229684828501620020ff565b91505092915050565b600060808284031215620022b257600080fd5b6000620022c2848285016200211b565b91505092915050565b600060208284031215620022de57600080fd5b6000620022ee8482850162002137565b91505092915050565b600080604083850312156200230b57600080fd5b60006200231b8582860162002137565b92505060206200232e8582860162002137565b9150509250929050565b6000602082840312156200234b57600080fd5b60006200235b848285016200214e565b91505092915050565b6000602082840312156200237757600080fd5b6000620023878482850162002165565b91505092915050565b60006200239e8383620023aa565b60208301905092915050565b620023b58162002efa565b82525050565b620023c68162002efa565b82525050565b6000620023d98262002d1b565b620023e5818562002d49565b9350620023f28362002d0b565b8060005b83811015620024295781516200240d888262002390565b97506200241a8362002d3c565b925050600181019050620023f6565b5085935050505092915050565b6000620024438262002d1b565b6200244f818562002d5a565b93506200245c8362002d0b565b8060005b838110156200249357815162002477888262002390565b9750620024848362002d3c565b92505060018101905062002460565b5085935050505092915050565b620024ab8162002f0e565b82525050565b6000620024be8262002d26565b620024ca818562002d6b565b9350620024dc81856020860162002f61565b80840191505092915050565b6000620024f58262002d31565b62002501818562002d76565b93506200251381856020860162002f61565b6200251e8162003073565b840191505092915050565b60006200253860268362002d76565b91507f416464726573733a20696e73756666696369656e742062616c616e636520666f60008301527f722063616c6c00000000000000000000000000000000000000000000000000006020830152604082019050919050565b6000620025a0601a8362002d76565b91507f496e76616c6964207374617274206f7220656e6420696e6465780000000000006000830152602082019050919050565b6000620025e260178362002d76565b91507f696e76616c696420776f726b65727320696e64696365730000000000000000006000830152602082019050919050565b600062002624600a8362002d76565b91507f72657374726963746564000000000000000000000000000000000000000000006000830152602082019050919050565b60006200266660268362002d76565b91507f416464726573733a2064656c65676174652063616c6c20746f206e6f6e2d636f60008301527f6e747261637400000000000000000000000000000000000000000000000000006020830152604082019050919050565b6000620026ce601d8362002d76565b91507f416464726573733a2063616c6c20746f206e6f6e2d636f6e74726163740000006000830152602082019050919050565b600062002710602a8362002d76565b91507f5361666545524332303a204552433230206f7065726174696f6e20646964206e60008301527f6f742073756363656564000000000000000000000000000000000000000000006020830152604082019050919050565b60006200277860098362002d76565b91507f6f6e6c794f776e657200000000000000000000000000000000000000000000006000830152602082019050919050565b6000620027ba60228362002d76565b91507f496e73756666696369656e742066756e647320666f7220616c6c20776f726b6560008301527f72730000000000000000000000000000000000000000000000000000000000006020830152604082019050919050565b60006200282260188362002d76565b91507f756e657870656374656420776f726b657220616d6f756e7400000000000000006000830152602082019050919050565b600061012083016000830151620028706000860182620024a0565b506020830151620028856020860182620024a0565b5060408301516200289a6040860182620024a0565b506060830151620028af6060860182620023aa565b506080830151620028c46080860182620023aa565b5060a0830151620028d960a0860182620029b9565b5060c0830151620028ee60c086018262002997565b5060e08301516200290360e086018262002997565b506101008301518482036101008601526200291f82826200292c565b9150508091505092915050565b6000608083016000830151620029466000860182620023aa565b5060208301516200295b6020860182620029b9565b5060408301518482036040860152620029758282620023cc565b91505060608301516200298c6060860182620029b9565b508091505092915050565b620029a28162002f1a565b82525050565b620029b38162002f1a565b82525050565b620029c48162002f48565b82525050565b620029d58162002f48565b82525050565b6000620029e98284620024b1565b915081905092915050565b600060208201905062002a0b6000830184620023bb565b92915050565b600060408201905062002a286000830185620023bb565b62002a376020830184620029ca565b9392505050565b6000602082019050818103600083015262002a5a818462002436565b905092915050565b6000602082019050818103600083015262002a7e8184620024e8565b905092915050565b6000602082019050818103600083015262002aa18162002529565b9050919050565b6000602082019050818103600083015262002ac38162002591565b9050919050565b6000602082019050818103600083015262002ae581620025d3565b9050919050565b6000602082019050818103600083015262002b078162002615565b9050919050565b6000602082019050818103600083015262002b298162002657565b9050919050565b6000602082019050818103600083015262002b4b81620026bf565b9050919050565b6000602082019050818103600083015262002b6d8162002701565b9050919050565b6000602082019050818103600083015262002b8f8162002769565b9050919050565b6000602082019050818103600083015262002bb181620027ab565b9050919050565b6000602082019050818103600083015262002bd38162002813565b9050919050565b6000602082019050818103600083015262002bf6818462002855565b905092915050565b600060408201905062002c156000830185620029a8565b62002c246020830184620029a8565b9392505050565b600060208201905062002c426000830184620029ca565b92915050565b600060408201905062002c5f6000830185620029ca565b62002c6e6020830184620023bb565b9392505050565b6000604051905081810181811067ffffffffffffffff8211171562002c9f5762002c9e62003044565b5b8060405250919050565b600067ffffffffffffffff82111562002cc75762002cc662003044565b5b602082029050602081019050919050565b600067ffffffffffffffff82111562002cf65762002cf562003044565b5b601f19601f8301169050602081019050919050565b6000819050602082019050919050565b600081519050919050565b600081519050919050565b600081519050919050565b6000602082019050919050565b600082825260208201905092915050565b600082825260208201905092915050565b600081905092915050565b600082825260208201905092915050565b600062002d948262002f1a565b915062002da18362002f1a565b92508261ffff0382111562002dbb5762002dba62003015565b5b828201905092915050565b600062002dd38262002f48565b915062002de08362002f48565b9250827fffffffffffffffffffffffffffffffffffffffffffffffffffffffffffffffff0382111562002e185762002e1762003015565b5b828201905092915050565b600062002e308262002f48565b915062002e3d8362002f48565b9250817fffffffffffffffffffffffffffffffffffffffffffffffffffffffffffffffff048311821515161562002e795762002e7862003015565b5b828202905092915050565b600062002e918262002f1a565b915062002e9e8362002f1a565b92508282101562002eb45762002eb362003015565b5b828203905092915050565b600062002ecc8262002f48565b915062002ed98362002f48565b92508282101562002eef5762002eee62003015565b5b828203905092915050565b600062002f078262002f28565b9050919050565b60008115159050919050565b600061ffff82169050919050565b600073ffffffffffffffffffffffffffffffffffffffff82169050919050565b6000819050919050565b82818337600083830152505050565b60005b8381101562002f8157808201518184015260208101905062002f64565b8381111562002f91576000848401525b50505050565b600062002fa48262002f1a565b915061ffff82141562002fbc5762002fbb62003015565b5b600182019050919050565b600062002fd48262002f48565b91507fffffffffffffffffffffffffffffffffffffffffffffffffffffffffffffffff8214156200300a576200300962003015565b5b600182019050919050565b7f4e487b7100000000000000000000000000000000000000000000000000000000600052601160045260246000fd5b7f4e487b7100000000000000000000000000000000000000000000000000000000600052604160045260246000fd5b6000601f19601f8301169050919050565b6200308f8162002efa565b81146200309b57600080fd5b50565b620030a98162002f0e565b8114620030b557600080fd5b50565b620030c38162002f1a565b8114620030cf57600080fd5b50565b620030dd8162002f48565b8114620030e957600080fd5b5056fe60a0604052730e09fabb73bd3ade0a17ecc321fd13a19e81ce826000806101000a81548173ffffffffffffffffffffffffffffffffffffffff021916908373ffffffffffffffffffffffffffffffffffffffff1602179055507373feaa1ee314f8c655e354234017be2193c9e24e600160006101000a81548173ffffffffffffffffffffffffffffffffffffffff021916908373ffffffffffffffffffffffffffffffffffffffff1602179055503480156100b957600080fd5b503373ffffffffffffffffffffffffffffffffffffffff1660808173ffffffffffffffffffffffffffffffffffffffff1660601b8152505060805160601c61189461012260003960008181609e0152818160c201528181610253015261037901526118946000f3fe608060405234801561001057600080fd5b50600436106100415760003560e01c80638da5cb5b14610046578063a2fa1c9714610064578063a5d3434314610080575b600080fd5b61004e61009c565b60405161005b919061142f565b60405180910390f35b61007e6004803603810190610079919061111a565b6100c0565b005b61009a60048036038101906100959190611184565b610251565b005b7f000000000000000000000000000000000000000000000000000000000000000081565b7f000000000000000000000000000000000000000000000000000000000000000073ffffffffffffffffffffffffffffffffffffffff163373ffffffffffffffffffffffffffffffffffffffff161461014e576040517f08c379a0000000000000000000000000000000000000000000000000000000008152600401610145906114f5565b60405180910390fd5b80600001602081019061016191906110c8565b156101875761018681606001602081019061017c9190611035565b8260a001356103c3565b5b80602001602081019061019a91906110c8565b156101cc576101cb8160600160208101906101b59190611035565b828061010001906101c691906115e3565b6104f9565b5b8060400160208101906101df91906110c8565b15610205576102048160800160208101906101fa9190611035565b8260a0013561080d565b5b7f81188f5f74429a8d5dd69e402d2ec601e9510929aeb809d15acde392c83de4338160600160208101906102399190611035565b604051610246919061142f565b60405180910390a150565b7f000000000000000000000000000000000000000000000000000000000000000073ffffffffffffffffffffffffffffffffffffffff163373ffffffffffffffffffffffffffffffffffffffff16146102df576040517f08c379a00000000000000000000000000000000000000000000000000000000081526004016102d6906114f5565b60405180910390fd5b6000821415610374578073ffffffffffffffffffffffffffffffffffffffff166370a08231306040518263ffffffff1660e01b8152600401610321919061142f565b60206040518083038186803b15801561033957600080fd5b505afa15801561034d573d6000803e3d6000fd5b505050506040513d601f19601f82011682018060405250810190610371919061115b565b91505b6103bf7f0000000000000000000000000000000000000000000000000000000000000000838373ffffffffffffffffffffffffffffffffffffffff16610c129092919063ffffffff16565b5050565b600160009054906101000a900473ffffffffffffffffffffffffffffffffffffffff1673ffffffffffffffffffffffffffffffffffffffff168273ffffffffffffffffffffffffffffffffffffffff161415610489578173ffffffffffffffffffffffffffffffffffffffff16631058d281826040518263ffffffff1660e01b81526004016104529190611515565b600060405180830381600087803b15801561046c57600080fd5b505af1158015610480573d6000803e3d6000fd5b505050506104f5565b8173ffffffffffffffffffffffffffffffffffffffff16632e1a7d4d826040518263ffffffff1660e01b81526004016104c29190611515565b600060405180830381600087803b1580156104dc57600080fd5b505af11580156104f0573d6000803e3d6000fd5b505050505b5050565b60008273ffffffffffffffffffffffffffffffffffffffff1663f7c618c16040518163ffffffff1660e01b8152600401602060405180830381600087803b15801561054357600080fd5b505af1158015610557573d6000803e3d6000fd5b505050506040513d601f19601f8201168201806040525081019061057b919061105e565b73ffffffffffffffffffffffffffffffffffffffff166370a08231306040518263ffffffff1660e01b81526004016105b3919061142f565b60206040518083038186803b1580156105cb57600080fd5b505afa1580156105df573d6000803e3d6000fd5b505050506040513d601f19601f82011682018060405250810190610603919061115b565b905060008114156106145750610809565b600082602001358261062691906116d5565b90508373ffffffffffffffffffffffffffffffffffffffff1663f7c618c16040518163ffffffff1660e01b8152600401602060405180830381600087803b15801561067057600080fd5b505af1158015610684573d6000803e3d6000fd5b505050506040513d601f19601f820116820180604052508101906106a8919061105e565b73ffffffffffffffffffffffffffffffffffffffff1663095ea7b38460000160208101906106d69190611035565b846040518363ffffffff1660e01b81526004016106f492919061144a565b602060405180830381600087803b15801561070e57600080fd5b505af1158015610722573d6000803e3d6000fd5b505050506040513d601f19601f8201168201806040525081019061074691906110f1565b5082600001602081019061075a9190611035565b73ffffffffffffffffffffffffffffffffffffffff166338ed17398383868060400190610787919061158c565b3089606001356040518763ffffffff1660e01b81526004016107ae96959493929190611530565b600060405180830381600087803b1580156107c857600080fd5b505af11580156107dc573d6000803e3d6000fd5b505050506040513d6000823e3d601f19601f820116820180604052508101906108059190611087565b5050505b5050565b6000811415610921578173ffffffffffffffffffffffffffffffffffffffff1663cc7a262e6040518163ffffffff1660e01b8152600401602060405180830381600087803b15801561085e57600080fd5b505af1158015610872573d6000803e3d6000fd5b505050506040513d601f19601f82011682018060405250810190610896919061105e565b73ffffffffffffffffffffffffffffffffffffffff166370a08231306040518263ffffffff1660e01b81526004016108ce919061142f565b60206040518083038186803b1580156108e657600080fd5b505afa1580156108fa573d6000803e3d6000fd5b505050506040513d601f19601f8201168201806040525081019061091e919061115b565b90505b600160009054906101000a900473ffffffffffffffffffffffffffffffffffffffff1673ffffffffffffffffffffffffffffffffffffffff168273ffffffffffffffffffffffffffffffffffffffff161415610a955760008054906101000a900473ffffffffffffffffffffffffffffffffffffffff1673ffffffffffffffffffffffffffffffffffffffff1663095ea7b383836040518363ffffffff1660e01b81526004016109d292919061144a565b602060405180830381600087803b1580156109ec57600080fd5b505af1158015610a00573d6000803e3d6000fd5b505050506040513d601f19601f82011682018060405250810190610a2491906110f1565b508173ffffffffffffffffffffffffffffffffffffffff166341441d3b826040518263ffffffff1660e01b8152600401610a5e9190611515565b600060405180830381600087803b158015610a7857600080fd5b505af1158015610a8c573d6000803e3d6000fd5b50505050610c0e565b8173ffffffffffffffffffffffffffffffffffffffff1663cc7a262e6040518163ffffffff1660e01b8152600401602060405180830381600087803b158015610add57600080fd5b505af1158015610af1573d6000803e3d6000fd5b505050506040513d601f19601f82011682018060405250810190610b15919061105e565b73ffffffffffffffffffffffffffffffffffffffff1663095ea7b383836040518363ffffffff1660e01b8152600401610b4f92919061144a565b602060405180830381600087803b158015610b6957600080fd5b505af1158015610b7d573d6000803e3d6000fd5b505050506040513d601f19601f82011682018060405250810190610ba191906110f1565b508173ffffffffffffffffffffffffffffffffffffffff1663b6b55f25826040518263ffffffff1660e01b8152600401610bdb9190611515565b600060405180830381600087803b158015610bf557600080fd5b505af1158015610c09573d6000803e3d6000fd5b505050505b5050565b610c938363a9059cbb60e01b8484604051602401610c3192919061144a565b604051602081830303815290604052907bffffffffffffffffffffffffffffffffffffffffffffffffffffffff19166020820180517bffffffffffffffffffffffffffffffffffffffffffffffffffffffff8381831617835250505050610c98565b505050565b6000610cfa826040518060400160405280602081526020017f5361666545524332303a206c6f772d6c6576656c2063616c6c206661696c65648152508573ffffffffffffffffffffffffffffffffffffffff16610d5f9092919063ffffffff16565b9050600081511115610d5a5780806020019051810190610d1a91906110f1565b610d59576040517f08c379a0000000000000000000000000000000000000000000000000000000008152600401610d50906114d5565b60405180910390fd5b5b505050565b6060610d6e8484600085610d77565b90509392505050565b606082471015610dbc576040517f08c379a0000000000000000000000000000000000000000000000000000000008152600401610db390611495565b60405180910390fd5b610dc585610e8b565b610e04576040517f08c379a0000000000000000000000000000000000000000000000000000000008152600401610dfb906114b5565b60405180910390fd5b6000808673ffffffffffffffffffffffffffffffffffffffff168587604051610e2d9190611418565b60006040518083038185875af1925050503d8060008114610e6a576040519150601f19603f3d011682016040523d82523d6000602084013e610e6f565b606091505b5091509150610e7f828286610e9e565b92505050949350505050565b600080823b905060008111915050919050565b60608315610eae57829050610efe565b600083511115610ec15782518084602001fd5b816040517f08c379a0000000000000000000000000000000000000000000000000000000008152600401610ef59190611473565b60405180910390fd5b9392505050565b6000610f18610f1384611638565b611607565b90508083825260208201905082856020860282011115610f3757600080fd5b60005b85811015610f675781610f4d8882611020565b845260208401935060208301925050600181019050610f3a565b5050509392505050565b600081359050610f8081611819565b92915050565b600081519050610f9581611819565b92915050565b600082601f830112610fac57600080fd5b8151610fbc848260208601610f05565b91505092915050565b600081359050610fd481611830565b92915050565b600081519050610fe981611830565b92915050565b6000610120828403121561100257600080fd5b81905092915050565b60008135905061101a81611847565b92915050565b60008151905061102f81611847565b92915050565b60006020828403121561104757600080fd5b600061105584828501610f71565b91505092915050565b60006020828403121561107057600080fd5b600061107e84828501610f86565b91505092915050565b60006020828403121561109957600080fd5b600082015167ffffffffffffffff8111156110b357600080fd5b6110bf84828501610f9b565b91505092915050565b6000602082840312156110da57600080fd5b60006110e884828501610fc5565b91505092915050565b60006020828403121561110357600080fd5b600061111184828501610fda565b91505092915050565b60006020828403121561112c57600080fd5b600082013567ffffffffffffffff81111561114657600080fd5b61115284828501610fef565b91505092915050565b60006020828403121561116d57600080fd5b600061117b84828501611020565b91505092915050565b6000806040838503121561119757600080fd5b60006111a58582860161100b565b92505060206111b685828601610f71565b9150509250929050565b60006111cc83836111d8565b60208301905092915050565b6111e18161172f565b82525050565b6111f08161172f565b82525050565b60006112028385611691565b935061120d82611664565b8060005b858110156112465761122382846116be565b61122d88826111c0565b975061123883611684565b925050600181019050611211565b5085925050509392505050565b600061125e8261166e565b61126881856116a2565b9350611278818560208601611777565b80840191505092915050565b600061128f82611679565b61129981856116ad565b93506112a9818560208601611777565b6112b281611808565b840191505092915050565b60006112ca6026836116ad565b91507f416464726573733a20696e73756666696369656e742062616c616e636520666f60008301527f722063616c6c00000000000000000000000000000000000000000000000000006020830152604082019050919050565b6000611330601d836116ad565b91507f416464726573733a2063616c6c20746f206e6f6e2d636f6e74726163740000006000830152602082019050919050565b6000611370602a836116ad565b91507f5361666545524332303a204552433230206f7065726174696f6e20646964206e60008301527f6f742073756363656564000000000000000000000000000000000000000000006020830152604082019050919050565b60006113d66009836116ad565b91507f6f6e6c794f776e657200000000000000000000000000000000000000000000006000830152602082019050919050565b6114128161176d565b82525050565b60006114248284611253565b915081905092915050565b600060208201905061144460008301846111e7565b92915050565b600060408201905061145f60008301856111e7565b61146c6020830184611409565b9392505050565b6000602082019050818103600083015261148d8184611284565b905092915050565b600060208201905081810360008301526114ae816112bd565b9050919050565b600060208201905081810360008301526114ce81611323565b9050919050565b600060208201905081810360008301526114ee81611363565b9050919050565b6000602082019050818103600083015261150e816113c9565b9050919050565b600060208201905061152a6000830184611409565b92915050565b600060a0820190506115456000830189611409565b6115526020830188611409565b81810360408301526115658186886111f6565b905061157460608301856111e7565b6115816080830184611409565b979650505050505050565b600080833560016020038436030381126115a557600080fd5b80840192508235915067ffffffffffffffff8211156115c357600080fd5b6020830192506020820236038313156115db57600080fd5b509250929050565b6000823560016080038336030381126115fb57600080fd5b80830191505092915050565b6000604051905081810181811067ffffffffffffffff8211171561162e5761162d6117d9565b5b8060405250919050565b600067ffffffffffffffff821115611653576116526117d9565b5b602082029050602081019050919050565b6000819050919050565b600081519050919050565b600081519050919050565b6000602082019050919050565b600082825260208201905092915050565b600081905092915050565b600082825260208201905092915050565b60006116cd6020840184610f71565b905092915050565b60006116e08261176d565b91506116eb8361176d565b9250817fffffffffffffffffffffffffffffffffffffffffffffffffffffffffffffffff0483118215151615611724576117236117aa565b5b828202905092915050565b600061173a8261174d565b9050919050565b60008115159050919050565b600073ffffffffffffffffffffffffffffffffffffffff82169050919050565b6000819050919050565b60005b8381101561179557808201518184015260208101905061177a565b838111156117a4576000848401525b50505050565b7f4e487b7100000000000000000000000000000000000000000000000000000000600052601160045260246000fd5b7f4e487b7100000000000000000000000000000000000000000000000000000000600052604160045260246000fd5b6000601f19601f8301169050919050565b6118228161172f565b811461182d57600080fd5b50565b61183981611741565b811461184457600080fd5b50565b6118508161176d565b811461185b57600080fd5b5056fea2646970667358221220a4e0c5be394f3f842672f1450c4f306f56c89b3f3b9cb360aeba14924449031364736f6c63430008000033416464726573733a206c6f772d6c6576656c2064656c65676174652063616c6c206661696c6564a26469706673582212207ef3b88e252fc3fd85c58a61398b39c2f907f20163ff74307156ddf7b40997e364736f6c63430008000033",
  "linkReferences": {},
  "deployedLinkReferences": {}
}