{
  "_format": "hh-sol-artifact-1",
  "contractName": "Manager",
  "sourceName": "contracts/Manager.sol",
  "abi": [
    {
      "inputs": [
        {
          "internalType": "address",
          "name": "_owner",
          "type": "address"
        },
        {
          "internalType": "address",
          "name": "_admin",
          "type": "address"
        },
        {
          "internalType": "address[][]",
          "name": "_path",
          "type": "address[][]"
        }
      ],
      "stateMutability": "nonpayable",
      "type": "constructor"
    },
    {
      "anonymous": false,
      "inputs": [
        {
          "indexed": false,
          "internalType": "uint16",
          "name": "startIndex",
          "type": "uint16"
        },
        {
          "indexed": false,
          "internalType": "uint16",
          "name": "endIndex",
          "type": "uint16"
        },
        {
          "indexed": true,
          "internalType": "address",
          "name": "poolAddr",
          "type": "address"
        }
      ],
      "name": "DoHardWork",
      "type": "event"
    },
    {
      "anonymous": false,
      "inputs": [
        {
          "indexed": false,
          "internalType": "address",
          "name": "newAdmin",
          "type": "address"
        }
      ],
      "name": "SetAdmin",
      "type": "event"
    },
    {
      "anonymous": false,
      "inputs": [
        {
          "indexed": true,
          "internalType": "uint16",
          "name": "startIndex",
          "type": "uint16"
        },
        {
          "indexed": true,
          "internalType": "uint16",
          "name": "endIndex",
          "type": "uint16"
        }
      ],
      "name": "TransferToManager",
      "type": "event"
    },
    {
      "anonymous": false,
      "inputs": [
        {
          "indexed": false,
          "internalType": "uint256",
          "name": "amount",
          "type": "uint256"
        }
      ],
      "name": "TransferToOwner",
      "type": "event"
    },
    {
      "anonymous": false,
      "inputs": [
        {
          "indexed": false,
          "internalType": "uint16",
          "name": "startIndex",
          "type": "uint16"
        },
        {
          "indexed": false,
          "internalType": "uint16",
          "name": "endIndex",
          "type": "uint16"
        },
        {
          "indexed": true,
          "internalType": "uint256",
          "name": "amount",
          "type": "uint256"
        }
      ],
      "name": "TransferToWorkers",
      "type": "event"
    },
    {
      "anonymous": false,
      "inputs": [
        {
          "indexed": false,
          "internalType": "uint256",
          "name": "nWorkers",
          "type": "uint256"
        }
      ],
      "name": "WorkersAdded",
      "type": "event"
    },
    {
      "inputs": [
        {
          "internalType": "address[]",
          "name": "newPath",
          "type": "address[]"
        }
      ],
      "name": "addPath",
      "outputs": [],
      "stateMutability": "nonpayable",
      "type": "function"
    },
    {
      "inputs": [
        {
          "internalType": "uint16",
          "name": "numWorkersToAdd",
          "type": "uint16"
        }
      ],
      "name": "addWorkers",
      "outputs": [],
      "stateMutability": "nonpayable",
      "type": "function"
    },
    {
      "inputs": [],
      "name": "admin",
      "outputs": [
        {
          "internalType": "address",
          "name": "",
          "type": "address"
        }
      ],
      "stateMutability": "view",
      "type": "function"
    },
    {
      "inputs": [
        {
          "internalType": "address",
          "name": "poolAddr",
          "type": "address"
        },
        {
          "internalType": "uint16",
          "name": "startIndex",
          "type": "uint16"
        },
        {
          "internalType": "uint16",
          "name": "endIndex",
          "type": "uint16"
        }
      ],
      "name": "deposit",
      "outputs": [],
      "stateMutability": "nonpayable",
      "type": "function"
    },
    {
      "inputs": [
        {
          "internalType": "address",
          "name": "target",
          "type": "address"
        },
        {
          "internalType": "bytes",
          "name": "data",
          "type": "bytes"
        }
      ],
      "name": "emergencyFunctionCall",
      "outputs": [],
      "stateMutability": "nonpayable",
      "type": "function"
    },
    {
      "inputs": [
        {
          "internalType": "address",
          "name": "target",
          "type": "address"
        },
        {
          "internalType": "bytes",
          "name": "data",
          "type": "bytes"
        }
      ],
      "name": "emergencyFunctionDelegateCall",
      "outputs": [],
      "stateMutability": "nonpayable",
      "type": "function"
    },
    {
      "inputs": [],
      "name": "getNWorkers",
      "outputs": [
        {
          "internalType": "uint256",
          "name": "",
          "type": "uint256"
        }
      ],
      "stateMutability": "view",
      "type": "function"
    },
    {
      "inputs": [
        {
          "internalType": "address",
          "name": "poolAddr",
          "type": "address"
        },
        {
          "internalType": "uint16",
          "name": "pathId",
          "type": "uint16"
        },
        {
          "internalType": "uint16",
          "name": "startIndex",
          "type": "uint16"
        },
        {
          "internalType": "uint16",
          "name": "endIndex",
          "type": "uint16"
        }
      ],
      "name": "harvest",
      "outputs": [],
      "stateMutability": "nonpayable",
      "type": "function"
    },
    {
      "inputs": [],
      "name": "owner",
      "outputs": [
        {
          "internalType": "address",
          "name": "",
          "type": "address"
        }
      ],
      "stateMutability": "view",
      "type": "function"
    },
    {
      "inputs": [
        {
          "internalType": "uint256",
          "name": "",
          "type": "uint256"
        },
        {
          "internalType": "uint256",
          "name": "",
          "type": "uint256"
        }
      ],
      "name": "path",
      "outputs": [
        {
          "internalType": "address",
          "name": "",
          "type": "address"
        }
      ],
      "stateMutability": "view",
      "type": "function"
    },
    {
      "inputs": [
        {
          "internalType": "address",
          "name": "newAdmin",
          "type": "address"
        }
      ],
      "name": "setAdmin",
      "outputs": [],
      "stateMutability": "nonpayable",
      "type": "function"
    },
    {
      "inputs": [
        {
          "internalType": "uint16",
          "name": "startIndex",
          "type": "uint16"
        },
        {
          "internalType": "uint16",
          "name": "endIndex",
          "type": "uint16"
        }
      ],
      "name": "transferToManager",
      "outputs": [],
      "stateMutability": "nonpayable",
      "type": "function"
    },
    {
      "inputs": [],
      "name": "transferToOwner",
      "outputs": [],
      "stateMutability": "nonpayable",
      "type": "function"
    },
    {
      "inputs": [
        {
          "internalType": "uint256",
          "name": "amount",
          "type": "uint256"
        },
        {
          "internalType": "uint16",
          "name": "startIndex",
          "type": "uint16"
        },
        {
          "internalType": "uint16",
          "name": "endIndex",
          "type": "uint16"
        }
      ],
      "name": "transferToWorkers",
      "outputs": [],
      "stateMutability": "nonpayable",
      "type": "function"
    },
    {
      "inputs": [
        {
          "internalType": "address",
          "name": "poolAddr",
          "type": "address"
        },
        {
          "internalType": "uint16",
          "name": "pathId",
          "type": "uint16"
        },
        {
          "internalType": "uint16",
          "name": "startIndex",
          "type": "uint16"
        },
        {
          "internalType": "uint16",
          "name": "endIndex",
          "type": "uint16"
        }
      ],
      "name": "withdraw",
      "outputs": [],
      "stateMutability": "nonpayable",
      "type": "function"
    },
    {
      "inputs": [
        {
          "internalType": "uint256",
          "name": "",
          "type": "uint256"
        }
      ],
      "name": "workers",
      "outputs": [
        {
          "internalType": "address",
          "name": "",
          "type": "address"
        }
      ],
      "stateMutability": "view",
      "type": "function"
    }
  ],
  "bytecode": "0x60a0604052600080546001600160a01b0319908116730e09fabb73bd3ade0a17ecc321fd13a19e81ce82179091556001805482167373feaa1ee314f8c655e354234017be2193c9e24e17905560028054821673927158be21fe3d4da7e96931bb27fd5059a8cbc217905560038054821673bb4cdb9cbd36b01bd1cbaebf2de08d9173bc095c17905560048054821673e9e7cea3dedca5984780bafc599bd69add087d561790556005805482167355d398326f99059ff775485246999027b3197955179055600680548216738ac76a51cc950d9822d68b83fe1ad97b32cd580d17905560078054909116732170ed0880ac9a755fd29b2688956bd959f933f81790553480156200010d57600080fd5b506040516200542538038062005425833981016040819052620001309162000287565b606083901b6001600160601b031916608052600880546001600160a01b0319166001600160a01b03841617905560005b81518161ffff161015620001df57600a828261ffff16815181106200019557634e487b7160e01b600052603260045260246000fd5b60209081029190910181015182546001810184556000938452928290208151620001c99491909101929190910190620001e9565b5080620001d68162000406565b91505062000160565b505050506200044b565b82805482825590600052602060002090810192821562000241579160200282015b828111156200024157825182546001600160a01b0319166001600160a01b039091161782556020909201916001909101906200020a565b506200024f92915062000253565b5090565b5b808211156200024f576000815560010162000254565b80516001600160a01b03811681146200028257600080fd5b919050565b6000806000606084860312156200029c578283fd5b620002a7846200026a565b9250620002b7602085016200026a565b60408501519092506001600160401b03811115620002d3578182fd5b8401601f81018613620002e4578182fd5b8051620002fb620002f582620003e0565b620003b4565b818152602080820191908401855b84811015620003a457815186018b603f82011262000325578788fd5b602081015162000339620002f582620003e0565b80828252602082019150604084018f60406020860287010111156200035c578b8cfd5b8b94505b838510156200038a5762000374816200026a565b8352600194909401936020928301920162000360565b508752505060209485019492909201915060010162000309565b5050809450505050509250925092565b6040518181016001600160401b0381118282101715620003d857620003d862000435565b604052919050565b60006001600160401b03821115620003fc57620003fc62000435565b5060209081020190565b600061ffff808316818114156200042b57634e487b7160e01b83526011600452602483fd5b6001019392505050565b634e487b7160e01b600052604160045260246000fd5b60805160601c614f60620004c5600039600081816102d3015281816106010152818161065d01528181610750015281816107c301528181610916015281816109bb0152818161167b015281816116fc0152818161172901528181611f9101528181612ec70152818161310801526132390152614f606000f3fe60806040523480156200001157600080fd5b5060043610620001185760003560e01c80637b226c3b11620000a5578063e4f3c68a116200006f578063e4f3c68a1462000233578063e78d73ad146200024a578063f1a22dc21462000261578063f851a44014620002785762000118565b80637b226c3b14620001e45780638da5cb5b14620001fb5780639c294d531462000205578063a9aa8bc3146200021c5762000118565b80634257ecb211620000e75780634257ecb214620001865780635e3792f7146200019f578063704b6c0214620001b657806379c6d64114620001cd5762000118565b806322f0c429146200011d5780632952c2c9146200014c5780632ab0aabb14620001655780632d90ae94146200017c575b600080fd5b620001346200012e36600462003a98565b62000282565b60405162000143919062003ad8565b60405180910390f35b620001636200015d36600462003a71565b620002c8565b005b6200016362000176366004620037e1565b620005f6565b6200016362000652565b62000190620007b2565b60405162000143919062003f59565b62000163620001b0366004620039eb565b620007b8565b62000163620001c7366004620037a3565b6200090b565b62000163620001de366004620038d9565b620009b0565b62000163620001f536600462003937565b62001670565b62000134620016fa565b62000163620002163660046200388e565b6200171e565b620001636200022d366004620038d9565b62001f86565b620001636200024436600462003a08565b62002ebc565b620001636200025b366004620037e1565b620030fd565b620001346200027236600462003a3f565b62003154565b620001346200317f565b600a82815481106200029357600080fd5b906000526020600020018181548110620002ac57600080fd5b6000918252602090912001546001600160a01b03169150829050565b336001600160a01b037f00000000000000000000000000000000000000000000000000000000000000001614806200030a57506008546001600160a01b031633145b620003325760405162461bcd60e51b8152600401620003299062003d77565b60405180910390fd5b600080546040516370a0823160e01b81528592916001600160a01b0316906370a08231906200036690309060040162003ad8565b60206040518083038186803b1580156200037f57600080fd5b505afa15801562000394573d6000803e3d6000fd5b505050506040513d601f19601f82011682018060405250810190620003ba919062003a58565b90508361ffff168361ffff16118015620003e85750620003db848462003fcc565b61ffff1660098054905010155b620004075760405162461bcd60e51b8152600401620003299062003e0b565b8062000414858562003fcc565b620004249061ffff168762003faa565b1115620004455760405162461bcd60e51b8152600401620003299062003d09565b835b8361ffff168161ffff161015620005b257600054600980546001600160a01b03909216916370a08231919061ffff85169081106200049557634e487b7160e01b600052603260045260246000fd5b6000918252602090912001546040516001600160e01b031960e084901b168152620004cd916001600160a01b03169060040162003ad8565b60206040518083038186803b158015620004e657600080fd5b505afa158015620004fb573d6000803e3d6000fd5b505050506040513d601f19601f8201168201806040525081019062000521919062003a58565b6200052d908462003ff2565b925085831115620005525760405162461bcd60e51b8152600401620003299062003c3e565b6200059d60098261ffff16815481106200057c57634e487b7160e01b600052603260045260246000fd5b600091825260208220015490546001600160a01b039081169116886200318e565b80620005a9816200403b565b91505062000447565b50847f9e5db2f07ab51b72f8c6f3a83e934ea692eba844e8003b3259a1e8ee052998628585604051620005e792919062003f44565b60405180910390a25050505050565b336001600160a01b037f00000000000000000000000000000000000000000000000000000000000000001614620006415760405162461bcd60e51b8152600401620003299062003ed6565b6200064d8282620031fd565b505050565b336001600160a01b037f00000000000000000000000000000000000000000000000000000000000000001614806200069457506008546001600160a01b031633145b620006b35760405162461bcd60e51b8152600401620003299062003d77565b600080546040516370a0823160e01b81526001600160a01b03909116906370a0823190620006e690309060040162003ad8565b60206040518083038186803b158015620006ff57600080fd5b505afa15801562000714573d6000803e3d6000fd5b505050506040513d601f19601f820116820180604052508101906200073a919062003a58565b60005490915062000776906001600160a01b03167f0000000000000000000000000000000000000000000000000000000000000000836200318e565b7fb91557f3050411a13a7e7631fe8461fcd94ec09d9a2b122e22e0b294998053c681604051620007a7919062003f59565b60405180910390a150565b60095490565b336001600160a01b037f00000000000000000000000000000000000000000000000000000000000000001614620008035760405162461bcd60e51b8152600401620003299062003ed6565b6009546000906200081a9061ffff84169062003f8f565b6009549091505b81811015620008cb5760006040516200083a906200368a565b604051809103906000f08015801562000857573d6000803e3d6000fd5b50600980546001810182556000919091527f6e1540171b6c0c960b71a7020d9f60077f6af931a8bbf590da0223dacf75c7af01805473ffffffffffffffffffffffffffffffffffffffff19166001600160a01b03929092169190911790555080620008c28162004060565b91505062000821565b506009546040517f3ea8142895fe7d4af1f88d8b1d563937502baceb3254aa0e2bed1a348bd5228f91620008ff9162003f59565b60405180910390a15050565b336001600160a01b037f00000000000000000000000000000000000000000000000000000000000000001614620009565760405162461bcd60e51b8152600401620003299062003ed6565b6008805473ffffffffffffffffffffffffffffffffffffffff19166001600160a01b0383161790556040517f5a272403b402d892977df56625f4164ccaf70ca3863991c43ecfe76a6905b0a190620007a790839062003ad8565b336001600160a01b037f0000000000000000000000000000000000000000000000000000000000000000161480620009f257506008546001600160a01b031633145b62000a115760405162461bcd60e51b8152600401620003299062003d77565b60015484906001600160a01b038083169116141562000fc857600a5461ffff85161062000a525760405162461bcd60e51b8152600401620003299062003e0b565b60095461ffff83161180159062000a7057508161ffff168361ffff16105b62000a8f5760405162461bcd60e51b8152600401620003299062003d09565b6001546000906001600160a01b038781169116141562000c415762000ab362003698565b845b8461ffff168161ffff16101562000c3957876001600160a01b03166393f1a40b600060098461ffff168154811062000afd57634e487b7160e01b600052603260045260246000fd5b6000918252602090912001546040516001600160e01b031960e085901b16815262000b3692916001600160a01b03169060040162003bbb565b604080518083038186803b15801562000b4e57600080fd5b505afa15801562000b63573d6000803e3d6000fd5b505050506040513d601f19601f8201168201806040525081019062000b899190620039cd565b915060098161ffff168154811062000bb157634e487b7160e01b600052603260045260246000fd5b600091825260209091200154825160405163575a08a160e01b81526001600160a01b039092169163575a08a19162000bef918c919060040162003ba2565b600060405180830381600087803b15801562000c0a57600080fd5b505af115801562000c1f573d6000803e3d6000fd5b50505050808062000c30906200403b565b91505062000ab5565b505062000fc1565b6000866001600160a01b031663f7c618c16040518163ffffffff1660e01b8152600401602060405180830381600087803b15801562000c7f57600080fd5b505af115801562000c94573d6000803e3d6000fd5b505050506040513d601f19601f8201168201806040525081019062000cba9190620037c2565b905062000cc662003698565b600062000cd488846200322c565b9050865b8661ffff168161ffff16101562000fbc57896001600160a01b0316631959a00260098361ffff168154811062000d1e57634e487b7160e01b600052603260045260246000fd5b6000918252602090912001546040516001600160e01b031960e084901b16815262000d56916001600160a01b03169060040162003ad8565b604080518083038186803b15801562000d6e57600080fd5b505afa15801562000d83573d6000803e3d6000fd5b505050506040513d601f19601f8201168201806040525081019062000da99190620039cd565b925060098161ffff168154811062000dd157634e487b7160e01b600052603260045260246000fd5b6000918252602090912001548351604051630296fd3b60e01b81526001600160a01b0390921691630296fd3b9162000e0f918e919060040162003ba2565b600060405180830381600087803b15801562000e2a57600080fd5b505af115801562000e3f573d6000803e3d6000fd5b50505050836001600160a01b03166370a0823160098361ffff168154811062000e7857634e487b7160e01b600052603260045260246000fd5b6000918252602090912001546040516001600160e01b031960e084901b16815262000eb0916001600160a01b03169060040162003ad8565b60206040518083038186803b15801562000ec957600080fd5b505afa15801562000ede573d6000803e3d6000fd5b505050506040513d601f19601f8201168201806040525081019062000f04919062003a58565b9450841562000fa75760098161ffff168154811062000f3357634e487b7160e01b600052603260045260246000fd5b600091825260209091200154604051632e449e9b60e01b81526001600160a01b0390911690632e449e9b9062000f7290879086908a9060040162003aec565b600060405180830381600087803b15801562000f8d57600080fd5b505af115801562000fa2573d6000803e3d6000fd5b505050505b8062000fb3816200403b565b91505062000cd8565b505050505b5062001669565b6002546040805163bd61719160e01b815290516001600160a01b039283169284169163bd6171919160048083019260209291908290030181600087803b1580156200101257600080fd5b505af115801562001027573d6000803e3d6000fd5b505050506040513d601f19601f820116820180604052508101906200104d9190620037c2565b6001600160a01b031614620010765760405162461bcd60e51b8152600401620003299062003f0d565b7fdff6e8f6a4233f835d067b2c6fa427aa17c0fd39a43960a75e25e35af1445587813f808214620010bb5760405162461bcd60e51b8152600401620003299062003c07565b600a5461ffff871610620010e35760405162461bcd60e51b8152600401620003299062003e0b565b60095461ffff8516118015906200110157508361ffff168561ffff16105b620011205760405162461bcd60e51b8152600401620003299062003d09565b6001546000906001600160a01b0389811691161415620012d2576200114462003698565b865b8661ffff168161ffff161015620012ca57896001600160a01b03166393f1a40b600060098461ffff16815481106200118e57634e487b7160e01b600052603260045260246000fd5b6000918252602090912001546040516001600160e01b031960e085901b168152620011c792916001600160a01b03169060040162003bbb565b604080518083038186803b158015620011df57600080fd5b505afa158015620011f4573d6000803e3d6000fd5b505050506040513d601f19601f820116820180604052508101906200121a9190620039cd565b915060098161ffff16815481106200124257634e487b7160e01b600052603260045260246000fd5b600091825260209091200154825160405163575a08a160e01b81526001600160a01b039092169163575a08a19162001280918e919060040162003ba2565b600060405180830381600087803b1580156200129b57600080fd5b505af1158015620012b0573d6000803e3d6000fd5b505050508080620012c1906200403b565b91505062001146565b505062001665565b6000886001600160a01b031663f7c618c16040518163ffffffff1660e01b8152600401602060405180830381600087803b1580156200131057600080fd5b505af115801562001325573d6000803e3d6000fd5b505050506040513d601f19601f820116820180604052508101906200134b9190620037c2565b90506200135762003698565b6000620013658a846200322c565b9050885b8861ffff168161ffff16101562001660578b6001600160a01b0316631959a00260098361ffff1681548110620013af57634e487b7160e01b600052603260045260246000fd5b6000918252602090912001546040516001600160e01b031960e084901b168152620013e7916001600160a01b03169060040162003ad8565b604080518083038186803b158015620013ff57600080fd5b505afa15801562001414573d6000803e3d6000fd5b505050506040513d601f19601f820116820180604052508101906200143a9190620039cd565b925060098161ffff16815481106200146257634e487b7160e01b600052603260045260246000fd5b9060005260206000200160009054906101000a90046001600160a01b03166001600160a01b0316630296fd3b8d85600001516040518363ffffffff1660e01b8152600401620014b392919062003ba2565b600060405180830381600087803b158015620014ce57600080fd5b505af1158015620014e3573d6000803e3d6000fd5b50505050836001600160a01b03166370a0823160098361ffff16815481106200151c57634e487b7160e01b600052603260045260246000fd5b6000918252602090912001546040516001600160e01b031960e084901b16815262001554916001600160a01b03169060040162003ad8565b60206040518083038186803b1580156200156d57600080fd5b505afa15801562001582573d6000803e3d6000fd5b505050506040513d601f19601f82011682018060405250810190620015a8919062003a58565b945084156200164b5760098161ffff1681548110620015d757634e487b7160e01b600052603260045260246000fd5b600091825260209091200154604051632e449e9b60e01b81526001600160a01b0390911690632e449e9b906200161690879086908a9060040162003aec565b600060405180830381600087803b1580156200163157600080fd5b505af115801562001646573d6000803e3d6000fd5b505050505b8062001657816200403b565b91505062001369565b505050505b5050505b5050505050565b336001600160a01b037f00000000000000000000000000000000000000000000000000000000000000001614620016bb5760405162461bcd60e51b8152600401620003299062003ed6565b600a80546001810182556000919091526200064d907fc65a7bb8d6351c1cf70c95a316cc6a92839c986682d98bc35f958f4883f9d2a8018383620036b2565b7f000000000000000000000000000000000000000000000000000000000000000081565b336001600160a01b037f00000000000000000000000000000000000000000000000000000000000000001614806200176057506008546001600160a01b031633145b6200177f5760405162461bcd60e51b8152600401620003299062003d77565b60015483906001600160a01b038083169116141562001b155760095461ffff831611801590620017b657508161ffff168361ffff16105b620017d55760405162461bcd60e51b8152600401620003299062003d40565b6001546000906001600160a01b03868116911614156200198157835b8361ffff168161ffff1610156200197a57600054600980546001600160a01b03909216916370a08231919061ffff85169081106200183f57634e487b7160e01b600052603260045260246000fd5b6000918252602090912001546040516001600160e01b031960e084901b16815262001877916001600160a01b03169060040162003ad8565b60206040518083038186803b1580156200189057600080fd5b505afa158015620018a5573d6000803e3d6000fd5b505050506040513d601f19601f82011682018060405250810190620018cb919062003a58565b915060098161ffff1681548110620018f357634e487b7160e01b600052603260045260246000fd5b600091825260209091200154604051633cc14f5b60e11b81526001600160a01b03909116906379829eb69062001930908990869060040162003ba2565b600060405180830381600087803b1580156200194b57600080fd5b505af115801562001960573d6000803e3d6000fd5b50505050808062001971906200403b565b915050620017f1565b5062001b0e565b835b8361ffff168161ffff16101562001b0c57600054600980546001600160a01b03909216916370a08231919061ffff8516908110620019d157634e487b7160e01b600052603260045260246000fd5b6000918252602090912001546040516001600160e01b031960e084901b16815262001a09916001600160a01b03169060040162003ad8565b60206040518083038186803b15801562001a2257600080fd5b505afa15801562001a37573d6000803e3d6000fd5b505050506040513d601f19601f8201168201806040525081019062001a5d919062003a58565b915060098161ffff168154811062001a8557634e487b7160e01b600052603260045260246000fd5b600091825260209091200154604051636be6589b60e01b81526001600160a01b0390911690636be6589b9062001ac2908990869060040162003ba2565b600060405180830381600087803b15801562001add57600080fd5b505af115801562001af2573d6000803e3d6000fd5b50505050808062001b03906200403b565b91505062001983565b505b5062001f80565b6002546040805163bd61719160e01b815290516001600160a01b039283169284169163bd6171919160048083019260209291908290030181600087803b15801562001b5f57600080fd5b505af115801562001b74573d6000803e3d6000fd5b505050506040513d601f19601f8201168201806040525081019062001b9a9190620037c2565b6001600160a01b03161462001bc35760405162461bcd60e51b8152600401620003299062003f0d565b7fdff6e8f6a4233f835d067b2c6fa427aa17c0fd39a43960a75e25e35af1445587813f80821462001c085760405162461bcd60e51b8152600401620003299062003c07565b60095461ffff85161180159062001c2657508361ffff168561ffff16105b62001c455760405162461bcd60e51b8152600401620003299062003d40565b6001546000906001600160a01b038881169116141562001df157855b8561ffff168161ffff16101562001dea57600054600980546001600160a01b03909216916370a08231919061ffff851690811062001caf57634e487b7160e01b600052603260045260246000fd5b6000918252602090912001546040516001600160e01b031960e084901b16815262001ce7916001600160a01b03169060040162003ad8565b60206040518083038186803b15801562001d0057600080fd5b505afa15801562001d15573d6000803e3d6000fd5b505050506040513d601f19601f8201168201806040525081019062001d3b919062003a58565b915060098161ffff168154811062001d6357634e487b7160e01b600052603260045260246000fd5b600091825260209091200154604051633cc14f5b60e11b81526001600160a01b03909116906379829eb69062001da0908b90869060040162003ba2565b600060405180830381600087803b15801562001dbb57600080fd5b505af115801562001dd0573d6000803e3d6000fd5b50505050808062001de1906200403b565b91505062001c61565b5062001f7c565b855b8561ffff168161ffff1610156200166557600054600980546001600160a01b03909216916370a08231919061ffff851690811062001e4157634e487b7160e01b600052603260045260246000fd5b6000918252602090912001546040516001600160e01b031960e084901b16815262001e79916001600160a01b03169060040162003ad8565b60206040518083038186803b15801562001e9257600080fd5b505afa15801562001ea7573d6000803e3d6000fd5b505050506040513d601f19601f8201168201806040525081019062001ecd919062003a58565b915060098161ffff168154811062001ef557634e487b7160e01b600052603260045260246000fd5b600091825260209091200154604051636be6589b60e01b81526001600160a01b0390911690636be6589b9062001f32908b90869060040162003ba2565b600060405180830381600087803b15801562001f4d57600080fd5b505af115801562001f62573d6000803e3d6000fd5b50505050808062001f73906200403b565b91505062001df3565b5050505b50505050565b336001600160a01b037f000000000000000000000000000000000000000000000000000000000000000016148062001fc857506008546001600160a01b031633145b62001fe75760405162461bcd60e51b8152600401620003299062003d77565b60015484906001600160a01b0380831691161415620026e357600a5461ffff851610620020285760405162461bcd60e51b8152600401620003299062003c75565b60095461ffff8316118015906200204657508161ffff168361ffff16105b620020655760405162461bcd60e51b8152600401620003299062003d40565b60015460009081906001600160a01b0388811691161415620022a757845b8461ffff168161ffff161015620022a05760098161ffff1681548110620020ba57634e487b7160e01b600052603260045260246000fd5b600091825260208220015460405163575a08a160e01b81526001600160a01b039091169163575a08a191620020f4918c9160040162003ba2565b600060405180830381600087803b1580156200210f57600080fd5b505af115801562002124573d6000803e3d6000fd5b5050600054600980546001600160a01b0390921693506370a0823192509061ffff85169081106200216557634e487b7160e01b600052603260045260246000fd5b6000918252602090912001546040516001600160e01b031960e084901b1681526200219d916001600160a01b03169060040162003ad8565b60206040518083038186803b158015620021b657600080fd5b505afa158015620021cb573d6000803e3d6000fd5b505050506040513d601f19601f82011682018060405250810190620021f1919062003a58565b925060098161ffff16815481106200221957634e487b7160e01b600052603260045260246000fd5b600091825260209091200154604051633cc14f5b60e11b81526001600160a01b03909116906379829eb69062002256908b90879060040162003ba2565b600060405180830381600087803b1580156200227157600080fd5b505af115801562002286573d6000803e3d6000fd5b50505050808062002297906200403b565b91505062002083565b50620026db565b6000876001600160a01b031663f7c618c16040518163ffffffff1660e01b8152600401602060405180830381600087803b158015620022e557600080fd5b505af1158015620022fa573d6000803e3d6000fd5b505050506040513d601f19601f82011682018060405250810190620023209190620037c2565b9050855b8561ffff168161ffff161015620026d85760098161ffff16815481106200235b57634e487b7160e01b600052603260045260246000fd5b6000918252602082200154604051630296fd3b60e01b81526001600160a01b0390911691630296fd3b9162002395918d9160040162003ba2565b600060405180830381600087803b158015620023b057600080fd5b505af1158015620023c5573d6000803e3d6000fd5b50505050816001600160a01b03166370a0823160098361ffff1681548110620023fe57634e487b7160e01b600052603260045260246000fd5b6000918252602090912001546040516001600160e01b031960e084901b16815262002436916001600160a01b03169060040162003ad8565b60206040518083038186803b1580156200244f57600080fd5b505afa15801562002464573d6000803e3d6000fd5b505050506040513d601f19601f820116820180604052508101906200248a919062003a58565b92508215620025605760098161ffff1681548110620024b957634e487b7160e01b600052603260045260246000fd5b600091825260209091200154600a80546001600160a01b0390921691632e449e9b91859161ffff8d169081106200250057634e487b7160e01b600052603260045260246000fd5b90600052602060002001866040518463ffffffff1660e01b81526004016200252b9392919062003b51565b600060405180830381600087803b1580156200254657600080fd5b505af11580156200255b573d6000803e3d6000fd5b505050505b600054600980546001600160a01b03909216916370a08231919061ffff85169081106200259d57634e487b7160e01b600052603260045260246000fd5b6000918252602090912001546040516001600160e01b031960e084901b168152620025d5916001600160a01b03169060040162003ad8565b60206040518083038186803b158015620025ee57600080fd5b505afa15801562002603573d6000803e3d6000fd5b505050506040513d601f19601f8201168201806040525081019062002629919062003a58565b935060098161ffff16815481106200265157634e487b7160e01b600052603260045260246000fd5b600091825260209091200154604051636be6589b60e01b81526001600160a01b0390911690636be6589b906200268e908c90889060040162003ba2565b600060405180830381600087803b158015620026a957600080fd5b505af1158015620026be573d6000803e3d6000fd5b505050508080620026cf906200403b565b91505062002324565b50505b505062001669565b6002546040805163bd61719160e01b815290516001600160a01b039283169284169163bd6171919160048083019260209291908290030181600087803b1580156200272d57600080fd5b505af115801562002742573d6000803e3d6000fd5b505050506040513d601f19601f82011682018060405250810190620027689190620037c2565b6001600160a01b031614620027915760405162461bcd60e51b8152600401620003299062003f0d565b7fdff6e8f6a4233f835d067b2c6fa427aa17c0fd39a43960a75e25e35af1445587813f808214620027d65760405162461bcd60e51b8152600401620003299062003c07565b600a5461ffff871610620027fe5760405162461bcd60e51b8152600401620003299062003c75565b60095461ffff8516118015906200281c57508361ffff168561ffff16105b6200283b5760405162461bcd60e51b8152600401620003299062003d40565b60015460009081906001600160a01b038a81169116141562002a7d57865b8661ffff168161ffff16101562002a765760098161ffff16815481106200289057634e487b7160e01b600052603260045260246000fd5b600091825260208220015460405163575a08a160e01b81526001600160a01b039091169163575a08a191620028ca918e9160040162003ba2565b600060405180830381600087803b158015620028e557600080fd5b505af1158015620028fa573d6000803e3d6000fd5b5050600054600980546001600160a01b0390921693506370a0823192509061ffff85169081106200293b57634e487b7160e01b600052603260045260246000fd5b6000918252602090912001546040516001600160e01b031960e084901b16815262002973916001600160a01b03169060040162003ad8565b60206040518083038186803b1580156200298c57600080fd5b505afa158015620029a1573d6000803e3d6000fd5b505050506040513d601f19601f82011682018060405250810190620029c7919062003a58565b925060098161ffff1681548110620029ef57634e487b7160e01b600052603260045260246000fd5b600091825260209091200154604051633cc14f5b60e11b81526001600160a01b03909116906379829eb69062002a2c908d90879060040162003ba2565b600060405180830381600087803b15801562002a4757600080fd5b505af115801562002a5c573d6000803e3d6000fd5b50505050808062002a6d906200403b565b91505062002859565b5062002eb1565b6000896001600160a01b031663f7c618c16040518163ffffffff1660e01b8152600401602060405180830381600087803b15801562002abb57600080fd5b505af115801562002ad0573d6000803e3d6000fd5b505050506040513d601f19601f8201168201806040525081019062002af69190620037c2565b9050875b8761ffff168161ffff16101562002eae5760098161ffff168154811062002b3157634e487b7160e01b600052603260045260246000fd5b6000918252602082200154604051630296fd3b60e01b81526001600160a01b0390911691630296fd3b9162002b6b918f9160040162003ba2565b600060405180830381600087803b15801562002b8657600080fd5b505af115801562002b9b573d6000803e3d6000fd5b50505050816001600160a01b03166370a0823160098361ffff168154811062002bd457634e487b7160e01b600052603260045260246000fd5b6000918252602090912001546040516001600160e01b031960e084901b16815262002c0c916001600160a01b03169060040162003ad8565b60206040518083038186803b15801562002c2557600080fd5b505afa15801562002c3a573d6000803e3d6000fd5b505050506040513d601f19601f8201168201806040525081019062002c60919062003a58565b9250821562002d365760098161ffff168154811062002c8f57634e487b7160e01b600052603260045260246000fd5b600091825260209091200154600a80546001600160a01b0390921691632e449e9b91859161ffff8f1690811062002cd657634e487b7160e01b600052603260045260246000fd5b90600052602060002001866040518463ffffffff1660e01b815260040162002d019392919062003b51565b600060405180830381600087803b15801562002d1c57600080fd5b505af115801562002d31573d6000803e3d6000fd5b505050505b600054600980546001600160a01b03909216916370a08231919061ffff851690811062002d7357634e487b7160e01b600052603260045260246000fd5b6000918252602090912001546040516001600160e01b031960e084901b16815262002dab916001600160a01b03169060040162003ad8565b60206040518083038186803b15801562002dc457600080fd5b505afa15801562002dd9573d6000803e3d6000fd5b505050506040513d601f19601f8201168201806040525081019062002dff919062003a58565b935060098161ffff168154811062002e2757634e487b7160e01b600052603260045260246000fd5b600091825260209091200154604051636be6589b60e01b81526001600160a01b0390911690636be6589b9062002e64908e90889060040162003ba2565b600060405180830381600087803b15801562002e7f57600080fd5b505af115801562002e94573d6000803e3d6000fd5b50505050808062002ea5906200403b565b91505062002afa565b50505b505050505050505050565b336001600160a01b037f000000000000000000000000000000000000000000000000000000000000000016148062002efe57506008546001600160a01b031633145b62002f1d5760405162461bcd60e51b8152600401620003299062003d77565b6000825b8261ffff168161ffff161015620030c157600054600980546001600160a01b03909216916370a08231919061ffff851690811062002f6f57634e487b7160e01b600052603260045260246000fd5b6000918252602090912001546040516001600160e01b031960e084901b16815262002fa7916001600160a01b03169060040162003ad8565b60206040518083038186803b15801562002fc057600080fd5b505afa15801562002fd5573d6000803e3d6000fd5b505050506040513d601f19601f8201168201806040525081019062002ffb919062003a58565b915060098161ffff16815481106200302357634e487b7160e01b600052603260045260246000fd5b6000918252602090912001546040517fc5b6c5a40000000000000000000000000000000000000000000000000000000081526001600160a01b039091169063c5b6c5a4906200307790859060040162003f59565b600060405180830381600087803b1580156200309257600080fd5b505af1158015620030a7573d6000803e3d6000fd5b505050508080620030b8906200403b565b91505062002f21565b508161ffff168361ffff167f3eca778048babd6ce0638b5352aade1fca5e541e078ff2b331cb7245aa53e85f60405160405180910390a3505050565b336001600160a01b037f00000000000000000000000000000000000000000000000000000000000000001614620031485760405162461bcd60e51b8152600401620003299062003ed6565b6200064d8282620033d9565b600981815481106200316557600080fd5b6000918252602090912001546001600160a01b0316905081565b6008546001600160a01b031681565b6200064d8363a9059cbb60e01b8484604051602401620031b092919062003ba2565b60408051601f198184030181529190526020810180517bffffffffffffffffffffffffffffffffffffffffffffffffffffffff166001600160e01b0319909316929092179091526200341d565b606062003225838360405180606001604052806027815260200162004f0460279139620034b4565b9392505050565b6060336001600160a01b037f00000000000000000000000000000000000000000000000000000000000000001614806200327057506008546001600160a01b031633145b6200328f5760405162461bcd60e51b8152600401620003299062003d77565b60608281600081518110620032b457634e487b7160e01b600052603260045260246000fd5b6001600160a01b039092166020928302919091019091015260015b600a8561ffff1681548110620032f557634e487b7160e01b600052603260045260246000fd5b60009182526020909120015461ffff82161015620033d157600a8561ffff16815481106200333357634e487b7160e01b600052603260045260246000fd5b906000526020600020018161ffff16815481106200336157634e487b7160e01b600052603260045260246000fd5b9060005260206000200160009054906101000a90046001600160a01b0316828261ffff1681518110620033a457634e487b7160e01b600052603260045260246000fd5b6001600160a01b039092166020928302919091019091015280620033c8816200403b565b915050620032cf565b509392505050565b60606200322583836040518060400160405280601e81526020017f416464726573733a206c6f772d6c6576656c2063616c6c206661696c656400008152506200355b565b600062003474826040518060400160405280602081526020017f5361666545524332303a206c6f772d6c6576656c2063616c6c206661696c6564815250856001600160a01b03166200355b9092919063ffffffff16565b8051909150156200064d5780806020019051810190620034959190620039ab565b6200064d5760405162461bcd60e51b8152600401620003299062003e79565b6060620034c18462003574565b620034e05760405162461bcd60e51b8152600401620003299062003dae565b600080856001600160a01b031685604051620034fd919062003aba565b600060405180830381855af49150503d80600081146200353a576040519150601f19603f3d011682016040523d82523d6000602084013e6200353f565b606091505b5091509150620035518282866200357e565b9695505050505050565b60606200356c8484600085620035bc565b949350505050565b803b15155b919050565b606083156200358f57508162003225565b825115620035a05782518084602001fd5b8160405162461bcd60e51b815260040162000329919062003bd2565b606082471015620035e15760405162461bcd60e51b8152600401620003299062003cac565b620035ec8562003574565b6200360b5760405162461bcd60e51b8152600401620003299062003e42565b600080866001600160a01b0316858760405162003629919062003aba565b60006040518083038185875af1925050503d806000811462003668576040519150601f19603f3d011682016040523d82523d6000602084013e6200366d565b606091505b50915091506200367f8282866200357e565b979650505050505050565b610e4080620040c483390190565b604051806040016040528060008152602001600081525090565b82805482825590600052602060002090810192821562003715579160200282015b828111156200371557815473ffffffffffffffffffffffffffffffffffffffff19166001600160a01b03843516178255602090920191600190910190620036d3565b506200372392915062003727565b5090565b5b8082111562003723576000815560010162003728565b60006040828403121562003750578081fd5b6040516040810181811067ffffffffffffffff8211171562003776576200377662004094565b604052825181526020928301519281019290925250919050565b803561ffff811681146200357957600080fd5b600060208284031215620037b5578081fd5b81356200322581620040aa565b600060208284031215620037d4578081fd5b81516200322581620040aa565b60008060408385031215620037f4578081fd5b82356200380181620040aa565b915060208381013567ffffffffffffffff808211156200381f578384fd5b818601915086601f83011262003833578384fd5b81358181111562003848576200384862004094565b6200385c601f8201601f1916850162003f62565b9150808252878482850101111562003872578485fd5b8084840185840137810190920192909252919491935090915050565b600080600060608486031215620038a3578081fd5b8335620038b081620040aa565b9250620038c06020850162003790565b9150620038d06040850162003790565b90509250925092565b60008060008060808587031215620038ef578081fd5b8435620038fc81620040aa565b93506200390c6020860162003790565b92506200391c6040860162003790565b91506200392c6060860162003790565b905092959194509250565b600080602083850312156200394a578182fd5b823567ffffffffffffffff8082111562003962578384fd5b818501915085601f83011262003976578384fd5b81358181111562003985578485fd5b866020808302850101111562003999578485fd5b60209290920196919550909350505050565b600060208284031215620039bd578081fd5b8151801515811462003225578182fd5b600060408284031215620039df578081fd5b6200322583836200373e565b600060208284031215620039fd578081fd5b620032258262003790565b6000806040838503121562003a1b578182fd5b62003a268362003790565b915062003a366020840162003790565b90509250929050565b60006020828403121562003a51578081fd5b5035919050565b60006020828403121562003a6a578081fd5b5051919050565b60008060006060848603121562003a86578283fd5b83359250620038c06020850162003790565b6000806040838503121562003aab578182fd5b50508035926020909101359150565b6000825162003ace8184602087016200400c565b9190910192915050565b6001600160a01b0391909116815260200190565b6000606082016001600160a01b03808716845260206060818601528287518085526080870191508289019450855b8181101562003b3a57855185168352948301949183019160010162003b1a565b505080945050505050826040830152949350505050565b6000606082016001600160a01b03808716845260206060818601528287548085526080870191508886528286209450855b8181101562003b3a57855485168352600195860195928401920162003b82565b6001600160a01b03929092168252602082015260400190565b9182526001600160a01b0316602082015260400190565b600060208252825180602084015262003bf38160408501602087016200400c565b601f01601f19169190910160400192915050565b60208082526005908201527f504f4f4c31000000000000000000000000000000000000000000000000000000604082015260600190565b60208082526003908201527f57524b0000000000000000000000000000000000000000000000000000000000604082015260600190565b60208082526003908201527f5054480000000000000000000000000000000000000000000000000000000000604082015260600190565b60208082526026908201527f416464726573733a20696e73756666696369656e742062616c616e636520666f60408201527f722063616c6c0000000000000000000000000000000000000000000000000000606082015260800190565b60208082526004908201527f4944583100000000000000000000000000000000000000000000000000000000604082015260600190565b60208082526003908201527f4944580000000000000000000000000000000000000000000000000000000000604082015260600190565b6020808252600a908201527f7265737472696374656400000000000000000000000000000000000000000000604082015260600190565b60208082526026908201527f416464726573733a2064656c65676174652063616c6c20746f206e6f6e2d636f60408201527f6e74726163740000000000000000000000000000000000000000000000000000606082015260800190565b60208082526004908201527f4944583000000000000000000000000000000000000000000000000000000000604082015260600190565b6020808252601d908201527f416464726573733a2063616c6c20746f206e6f6e2d636f6e7472616374000000604082015260600190565b6020808252602a908201527f5361666545524332303a204552433230206f7065726174696f6e20646964206e60408201527f6f74207375636365656400000000000000000000000000000000000000000000606082015260800190565b60208082526009908201527f6f6e6c794f776e65720000000000000000000000000000000000000000000000604082015260600190565b60208082526005908201527f504f4f4c30000000000000000000000000000000000000000000000000000000604082015260600190565b61ffff92831681529116602082015260400190565b90815260200190565b60405181810167ffffffffffffffff8111828210171562003f875762003f8762004094565b604052919050565b6000821982111562003fa55762003fa56200407e565b500190565b600081600019048311821515161562003fc75762003fc76200407e565b500290565b600061ffff8381169083168181101562003fea5762003fea6200407e565b039392505050565b6000828210156200400757620040076200407e565b500390565b60005b83811015620040295781810151838201526020016200400f565b8381111562001f805750506000910152565b600061ffff808316818114156200405657620040566200407e565b6001019392505050565b60006000198214156200407757620040776200407e565b5060010190565b634e487b7160e01b600052601160045260246000fd5b634e487b7160e01b600052604160045260246000fd5b6001600160a01b0381168114620040c057600080fd5b5056fe60a0604052600080546001600160a01b0319908116730e09fabb73bd3ade0a17ecc321fd13a19e81ce82179091556001805482167373feaa1ee314f8c655e354234017be2193c9e24e17905560028054821673927158be21fe3d4da7e96931bb27fd5059a8cbc2179055600380549091167310ed43c718714eb63d5aa57b78b54704e256024e17905561038460045534801561009a57600080fd5b5033606081901b608052610d536100ed6000396000818161011f015281816101eb0152818161035e015281816103eb015281816104fd015281816106060152818161063301526106820152610d536000f3fe608060405234801561001057600080fd5b506004361061007d5760003560e01c80636be6589b1161005b5780636be6589b146100bd57806379829eb6146100d05780638da5cb5b146100e3578063c5b6c5a4146101015761007d565b80630296fd3b146100825780632e449e9b14610097578063575a08a1146100aa575b600080fd5b61009561009036600461097a565b610114565b005b6100956100a53660046108f4565b6101e0565b6100956100b836600461097a565b610353565b6100956100cb36600461097a565b6103e0565b6100956100de36600461097a565b6104f2565b6100eb610604565b6040516100f89190610ab1565b60405180910390f35b61009561010f366004610a7d565b610628565b336001600160a01b037f000000000000000000000000000000000000000000000000000000000000000016146101655760405162461bcd60e51b815260040161015c90610c02565b60405180910390fd5b6040517f2e1a7d4d0000000000000000000000000000000000000000000000000000000081526001600160a01b03831690632e1a7d4d906101aa908490600401610c39565b600060405180830381600087803b1580156101c457600080fd5b505af11580156101d8573d6000803e3d6000fd5b505050505050565b336001600160a01b037f000000000000000000000000000000000000000000000000000000000000000016146102285760405162461bcd60e51b815260040161015c90610c02565b60035460405163095ea7b360e01b81526000916001600160a01b038088169263095ea7b39261025d9216908690600401610ac5565b602060405180830381600087803b15801561027757600080fd5b505af115801561028b573d6000803e3d6000fd5b505050506040513d601f19601f820116820180604052508101906102af9190610a5d565b506003546004546001600160a01b03909116906338ed173990849084908890889030906102dc9042610cb3565b6040518763ffffffff1660e01b81526004016102fd96959493929190610c42565b600060405180830381600087803b15801561031757600080fd5b505af115801561032b573d6000803e3d6000fd5b505050506040513d6000823e601f3d908101601f191682016040526101d891908101906109a3565b336001600160a01b037f0000000000000000000000000000000000000000000000000000000000000000161461039b5760405162461bcd60e51b815260040161015c90610c02565b6040517f1058d2810000000000000000000000000000000000000000000000000000000081526001600160a01b03831690631058d281906101aa908490600401610c39565b336001600160a01b037f000000000000000000000000000000000000000000000000000000000000000016146104285760405162461bcd60e51b815260040161015c90610c02565b60005460405163095ea7b360e01b81526001600160a01b039091169063095ea7b39061045a9085908590600401610ac5565b602060405180830381600087803b15801561047457600080fd5b505af1158015610488573d6000803e3d6000fd5b505050506040513d601f19601f820116820180604052508101906104ac9190610a5d565b506040517fb6b55f250000000000000000000000000000000000000000000000000000000081526001600160a01b0383169063b6b55f25906101aa908490600401610c39565b336001600160a01b037f0000000000000000000000000000000000000000000000000000000000000000161461053a5760405162461bcd60e51b815260040161015c90610c02565b60005460405163095ea7b360e01b81526001600160a01b039091169063095ea7b39061056c9085908590600401610ac5565b602060405180830381600087803b15801561058657600080fd5b505af115801561059a573d6000803e3d6000fd5b505050506040513d601f19601f820116820180604052508101906105be9190610a5d565b506040517f41441d3b0000000000000000000000000000000000000000000000000000000081526001600160a01b038316906341441d3b906101aa908490600401610c39565b7f000000000000000000000000000000000000000000000000000000000000000081565b336001600160a01b037f000000000000000000000000000000000000000000000000000000000000000016146106705760405162461bcd60e51b815260040161015c90610c02565b6000546106a7906001600160a01b03167f0000000000000000000000000000000000000000000000000000000000000000836106aa565b50565b61072d8363a9059cbb60e01b84846040516024016106c9929190610ac5565b60408051601f198184030181529190526020810180517bffffffffffffffffffffffffffffffffffffffffffffffffffffffff167fffffffff0000000000000000000000000000000000000000000000000000000090931692909217909152610732565b505050565b6000610787826040518060400160405280602081526020017f5361666545524332303a206c6f772d6c6576656c2063616c6c206661696c6564815250856001600160a01b03166107c19092919063ffffffff16565b80519091501561072d57808060200190518101906107a59190610a5d565b61072d5760405162461bcd60e51b815260040161015c90610ba5565b60606107d084846000856107da565b90505b9392505050565b6060824710156107fc5760405162461bcd60e51b815260040161015c90610b11565b6108058561089a565b6108215760405162461bcd60e51b815260040161015c90610b6e565b600080866001600160a01b0316858760405161083d9190610a95565b60006040518083038185875af1925050503d806000811461087a576040519150601f19603f3d011682016040523d82523d6000602084013e61087f565b606091505b509150915061088f8282866108a4565b979650505050505050565b803b15155b919050565b606083156108b35750816107d3565b8251156108c35782518084602001fd5b8160405162461bcd60e51b815260040161015c9190610ade565b80356001600160a01b038116811461089f57600080fd5b60008060008060608587031215610909578384fd5b610912856108dd565b9350602085013567ffffffffffffffff8082111561092e578485fd5b818701915087601f830112610941578485fd5b81358181111561094f578586fd5b8860208083028501011115610962578586fd5b95986020929092019750949560400135945092505050565b6000806040838503121561098c578182fd5b610995836108dd565b946020939093013593505050565b600060208083850312156109b5578182fd5b825167ffffffffffffffff808211156109cc578384fd5b818501915085601f8301126109df578384fd5b8151818111156109f1576109f1610d07565b83810260405185828201018181108582111715610a1057610a10610d07565b604052828152858101935084860182860187018a1015610a2e578788fd5b8795505b83861015610a50578051855260019590950194938601938601610a32565b5098975050505050505050565b600060208284031215610a6e578081fd5b815180151581146107d3578182fd5b600060208284031215610a8e578081fd5b5035919050565b60008251610aa7818460208701610cd7565b9190910192915050565b6001600160a01b0391909116815260200190565b6001600160a01b03929092168252602082015260400190565b6000602082528251806020840152610afd816040850160208701610cd7565b601f01601f19169190910160400192915050565b60208082526026908201527f416464726573733a20696e73756666696369656e742062616c616e636520666f60408201527f722063616c6c0000000000000000000000000000000000000000000000000000606082015260800190565b6020808252601d908201527f416464726573733a2063616c6c20746f206e6f6e2d636f6e7472616374000000604082015260600190565b6020808252602a908201527f5361666545524332303a204552433230206f7065726174696f6e20646964206e60408201527f6f74207375636365656400000000000000000000000000000000000000000000606082015260800190565b60208082526009908201527f6f6e6c794f776e65720000000000000000000000000000000000000000000000604082015260600190565b90815260200190565b868152602080820187905260a0604083018190528201859052600090869060c08401835b88811015610c92576001600160a01b03610c7f856108dd565b1682529282019290820190600101610c66565b506001600160a01b0396909616606085015250505060800152949350505050565b60008219821115610cd257634e487b7160e01b81526011600452602481fd5b500190565b60005b83811015610cf2578181015183820152602001610cda565b83811115610d01576000848401525b50505050565b634e487b7160e01b600052604160045260246000fdfea2646970667358221220940c4aba5c8d433e9f3987b547767bdeeaba776fa397e67c740f8360b4ea590464736f6c63430008000033416464726573733a206c6f772d6c6576656c2064656c65676174652063616c6c206661696c6564a26469706673582212206547064ce8d3e1d6f13157718b02cc854b5f058336a1265b133a73d5ab4629a464736f6c63430008000033",
  "linkReferences": {},
  "deployedLinkReferences": {}
}