{
  "_format": "hh-sol-artifact-1",
  "contractName": "Manager",
  "sourceName": "contracts/Manager.sol",
  "abi": [
    {
      "inputs": [
        {
          "internalType": "address",
          "name": "_owner",
          "type": "address"
        },
        {
          "internalType": "address",
          "name": "_admin",
          "type": "address"
        }
      ],
      "stateMutability": "nonpayable",
      "type": "constructor"
    },
    {
      "anonymous": false,
      "inputs": [
        {
          "indexed": false,
          "internalType": "uint16",
          "name": "startIndex",
          "type": "uint16"
        },
        {
          "indexed": false,
          "internalType": "uint16",
          "name": "endIndex",
          "type": "uint16"
        },
        {
          "indexed": true,
          "internalType": "address",
          "name": "poolAddr",
          "type": "address"
        }
      ],
      "name": "DoHardWork",
      "type": "event"
    },
    {
      "anonymous": false,
      "inputs": [
        {
          "indexed": false,
          "internalType": "address",
          "name": "newAdmin",
          "type": "address"
        }
      ],
      "name": "SetAdmin",
      "type": "event"
    },
    {
      "anonymous": false,
      "inputs": [
        {
          "indexed": true,
          "internalType": "uint16",
          "name": "startIndex",
          "type": "uint16"
        },
        {
          "indexed": true,
          "internalType": "uint16",
          "name": "endIndex",
          "type": "uint16"
        }
      ],
      "name": "TransferToManager",
      "type": "event"
    },
    {
      "anonymous": false,
      "inputs": [
        {
          "indexed": false,
          "internalType": "uint256",
          "name": "amount",
          "type": "uint256"
        }
      ],
      "name": "TransferToOwner",
      "type": "event"
    },
    {
      "anonymous": false,
      "inputs": [
        {
          "indexed": false,
          "internalType": "uint16",
          "name": "startIndex",
          "type": "uint16"
        },
        {
          "indexed": false,
          "internalType": "uint16",
          "name": "endIndex",
          "type": "uint16"
        },
        {
          "indexed": true,
          "internalType": "uint256",
          "name": "amount",
          "type": "uint256"
        }
      ],
      "name": "TransferToWorkers",
      "type": "event"
    },
    {
      "anonymous": false,
      "inputs": [
        {
          "indexed": false,
          "internalType": "uint256",
          "name": "nWorkers",
          "type": "uint256"
        }
      ],
      "name": "WorkersAdded",
      "type": "event"
    },
    {
      "inputs": [
        {
          "internalType": "address[]",
          "name": "newPath",
          "type": "address[]"
        }
      ],
      "name": "addPath",
      "outputs": [],
      "stateMutability": "nonpayable",
      "type": "function"
    },
    {
      "inputs": [
        {
          "internalType": "uint16",
          "name": "numWorkersToAdd",
          "type": "uint16"
        }
      ],
      "name": "addWorkers",
      "outputs": [],
      "stateMutability": "nonpayable",
      "type": "function"
    },
    {
      "inputs": [],
      "name": "admin",
      "outputs": [
        {
          "internalType": "address",
          "name": "",
          "type": "address"
        }
      ],
      "stateMutability": "view",
      "type": "function"
    },
    {
      "inputs": [
        {
          "internalType": "address",
          "name": "poolAddr",
          "type": "address"
        },
        {
          "internalType": "uint16",
          "name": "startIndex",
          "type": "uint16"
        },
        {
          "internalType": "uint16",
          "name": "endIndex",
          "type": "uint16"
        }
      ],
      "name": "deposit",
      "outputs": [],
      "stateMutability": "nonpayable",
      "type": "function"
    },
    {
      "inputs": [
        {
          "internalType": "address",
          "name": "target",
          "type": "address"
        },
        {
          "internalType": "bytes",
          "name": "data",
          "type": "bytes"
        }
      ],
      "name": "emergencyFunctionCall",
      "outputs": [],
      "stateMutability": "nonpayable",
      "type": "function"
    },
    {
      "inputs": [
        {
          "internalType": "address",
          "name": "target",
          "type": "address"
        },
        {
          "internalType": "bytes",
          "name": "data",
          "type": "bytes"
        }
      ],
      "name": "emergencyFunctionDelegateCall",
      "outputs": [],
      "stateMutability": "nonpayable",
      "type": "function"
    },
    {
      "inputs": [],
      "name": "getNWorkers",
      "outputs": [
        {
          "internalType": "uint256",
          "name": "",
          "type": "uint256"
        }
      ],
      "stateMutability": "view",
      "type": "function"
    },
    {
      "inputs": [
        {
          "internalType": "uint16",
          "name": "startIndex",
          "type": "uint16"
        },
        {
          "internalType": "uint16",
          "name": "endIndex",
          "type": "uint16"
        }
      ],
      "name": "getWorkers",
      "outputs": [
        {
          "internalType": "address[]",
          "name": "",
          "type": "address[]"
        }
      ],
      "stateMutability": "view",
      "type": "function"
    },
    {
      "inputs": [
        {
          "internalType": "address",
          "name": "poolAddr",
          "type": "address"
        },
        {
          "internalType": "uint16",
          "name": "pathId",
          "type": "uint16"
        },
        {
          "internalType": "uint16",
          "name": "startIndex",
          "type": "uint16"
        },
        {
          "internalType": "uint16",
          "name": "endIndex",
          "type": "uint16"
        }
      ],
      "name": "harvest",
      "outputs": [],
      "stateMutability": "nonpayable",
      "type": "function"
    },
    {
      "inputs": [],
      "name": "owner",
      "outputs": [
        {
          "internalType": "address",
          "name": "",
          "type": "address"
        }
      ],
      "stateMutability": "view",
      "type": "function"
    },
    {
      "inputs": [
        {
          "internalType": "uint256",
          "name": "",
          "type": "uint256"
        },
        {
          "internalType": "uint256",
          "name": "",
          "type": "uint256"
        }
      ],
      "name": "path",
      "outputs": [
        {
          "internalType": "address",
          "name": "",
          "type": "address"
        }
      ],
      "stateMutability": "view",
      "type": "function"
    },
    {
      "inputs": [
        {
          "internalType": "address",
          "name": "newAdmin",
          "type": "address"
        }
      ],
      "name": "setAdmin",
      "outputs": [],
      "stateMutability": "nonpayable",
      "type": "function"
    },
    {
      "inputs": [
        {
          "internalType": "uint16",
          "name": "startIndex",
          "type": "uint16"
        },
        {
          "internalType": "uint16",
          "name": "endIndex",
          "type": "uint16"
        }
      ],
      "name": "transferToManager",
      "outputs": [],
      "stateMutability": "nonpayable",
      "type": "function"
    },
    {
      "inputs": [],
      "name": "transferToOwner",
      "outputs": [],
      "stateMutability": "nonpayable",
      "type": "function"
    },
    {
      "inputs": [
        {
          "internalType": "uint256",
          "name": "amount",
          "type": "uint256"
        },
        {
          "internalType": "uint16",
          "name": "startIndex",
          "type": "uint16"
        },
        {
          "internalType": "uint16",
          "name": "endIndex",
          "type": "uint16"
        }
      ],
      "name": "transferToWorkers",
      "outputs": [],
      "stateMutability": "nonpayable",
      "type": "function"
    },
    {
      "inputs": [
        {
          "internalType": "address",
          "name": "poolAddr",
          "type": "address"
        },
        {
          "internalType": "uint16",
          "name": "pathId",
          "type": "uint16"
        },
        {
          "internalType": "uint16",
          "name": "startIndex",
          "type": "uint16"
        },
        {
          "internalType": "uint16",
          "name": "endIndex",
          "type": "uint16"
        }
      ],
      "name": "withdraw",
      "outputs": [],
      "stateMutability": "nonpayable",
      "type": "function"
    },
    {
      "inputs": [
        {
          "internalType": "uint256",
          "name": "",
          "type": "uint256"
        }
      ],
      "name": "workers",
      "outputs": [
        {
          "internalType": "address",
          "name": "",
          "type": "address"
        }
      ],
      "stateMutability": "view",
      "type": "function"
    }
  ],
  "bytecode": "0x60008054730e09fabb73bd3ade0a17ecc321fd13a19e81ce826001600160a01b031991821617909155600180547373feaa1ee314f8c655e354234017be2193c9e24e9083161781556002805473927158be21fe3d4da7e96931bb27fd5059a8cbc293168317905560e060405260c091825260a09182526200008391600591620000ec565b503480156200009157600080fd5b506040516200524e3803806200524e833981016040819052620000b49162000228565b60609190911b6001600160601b031916608052600380546001600160a01b0319166001600160a01b039092169190911790556200025f565b82805482825590600052602060002090810192821562000138579160200282015b82811115620001385782516200012790839060016200014a565b50916020019190600101906200010d565b5062000146929150620001b0565b5090565b828054828255906000526020600020908101928215620001a2579160200282015b82811115620001a257825182546001600160a01b0319166001600160a01b039091161782556020909201916001909101906200016b565b5062000146929150620001d1565b8082111562000146576000620001c78282620001e8565b50600101620001b0565b5b80821115620001465760008155600101620001d2565b5080546000825590600052602060002090810190620002089190620001d1565b50565b80516001600160a01b03811681146200022357600080fd5b919050565b600080604083850312156200023b578182fd5b62000246836200020b565b915062000256602084016200020b565b90509250929050565b60805160601c614f7c620002d26000396000818161031701528181610645015281816106a101528181610794015281816108070152818161095a015281816109ff015281816116f0015281816117710152818161179e015281816120060152818161306601526132a70152614f7c6000f3fe60806040523480156200001157600080fd5b5060043610620001365760003560e01c80637b226c3b11620000c3578063b91f8b36116200008d578063e78d73ad116200006f578063e78d73ad146200028e578063f1a22dc214620002a5578063f851a44014620002bc5762000136565b8063b91f8b361462000251578063e4f3c68a14620002775762000136565b80637b226c3b14620002025780638da5cb5b14620002195780639c294d531462000223578063a9aa8bc3146200023a5762000136565b80634257ecb211620001055780634257ecb214620001a45780635e3792f714620001bd578063704b6c0214620001d457806379c6d64114620001eb5762000136565b806322f0c429146200013b5780632952c2c9146200016a5780632ab0aabb14620001835780632d90ae94146200019a575b600080fd5b620001526200014c36600462003a8a565b620002c6565b60405162000161919062003aca565b60405180910390f35b620001816200017b36600462003a63565b6200030c565b005b6200018162000194366004620037d3565b6200063a565b6200018162000696565b620001ae620007f6565b60405162000161919062003f4c565b62000181620001ce366004620039dd565b620007fc565b62000181620001e536600462003795565b6200094f565b62000181620001fc366004620038cb565b620009f4565b620001816200021336600462003929565b620016e5565b620001526200176f565b620001816200023436600462003880565b62001793565b620001816200024b366004620038cb565b62001ffb565b6200026862000262366004620039fa565b62002f2b565b60405162000161919062003b5f565b6200018162000288366004620039fa565b6200305b565b620001816200029f366004620037d3565b6200329c565b62000152620002b636600462003a31565b620032f3565b620001526200331e565b60058281548110620002d757600080fd5b906000526020600020018181548110620002f057600080fd5b6000918252602090912001546001600160a01b03169150829050565b336001600160a01b037f00000000000000000000000000000000000000000000000000000000000000001614806200034e57506003546001600160a01b031633145b620003765760405162461bcd60e51b81526004016200036d9062003d6a565b60405180910390fd5b600080546040516370a0823160e01b81528592916001600160a01b0316906370a0823190620003aa90309060040162003aca565b60206040518083038186803b158015620003c357600080fd5b505afa158015620003d8573d6000803e3d6000fd5b505050506040513d601f19601f82011682018060405250810190620003fe919062003a4a565b90508361ffff168361ffff161180156200042c57506200041f848462003fe8565b61ffff1660048054905010155b6200044b5760405162461bcd60e51b81526004016200036d9062003dfe565b8062000458858562003fe8565b620004689061ffff168762003fc6565b1115620004895760405162461bcd60e51b81526004016200036d9062003cfc565b835b8361ffff168161ffff161015620005f657600054600480546001600160a01b03909216916370a08231919061ffff8516908110620004d957634e487b7160e01b600052603260045260246000fd5b6000918252602090912001546040516001600160e01b031960e084901b16815262000511916001600160a01b03169060040162003aca565b60206040518083038186803b1580156200052a57600080fd5b505afa1580156200053f573d6000803e3d6000fd5b505050506040513d601f19601f8201168201806040525081019062000565919062003a4a565b6200057190846200400e565b925085831115620005965760405162461bcd60e51b81526004016200036d9062003c31565b620005e160048261ffff1681548110620005c057634e487b7160e01b600052603260045260246000fd5b600091825260208220015490546001600160a01b039081169116886200332d565b80620005ed8162004057565b9150506200048b565b50847f9e5db2f07ab51b72f8c6f3a83e934ea692eba844e8003b3259a1e8ee0529986285856040516200062b92919062003f37565b60405180910390a25050505050565b336001600160a01b037f00000000000000000000000000000000000000000000000000000000000000001614620006855760405162461bcd60e51b81526004016200036d9062003ec9565b6200069182826200339c565b505050565b336001600160a01b037f0000000000000000000000000000000000000000000000000000000000000000161480620006d857506003546001600160a01b031633145b620006f75760405162461bcd60e51b81526004016200036d9062003d6a565b600080546040516370a0823160e01b81526001600160a01b03909116906370a08231906200072a90309060040162003aca565b60206040518083038186803b1580156200074357600080fd5b505afa15801562000758573d6000803e3d6000fd5b505050506040513d601f19601f820116820180604052508101906200077e919062003a4a565b600054909150620007ba906001600160a01b03167f0000000000000000000000000000000000000000000000000000000000000000836200332d565b7fb91557f3050411a13a7e7631fe8461fcd94ec09d9a2b122e22e0b294998053c681604051620007eb919062003f4c565b60405180910390a150565b60045490565b336001600160a01b037f00000000000000000000000000000000000000000000000000000000000000001614620008475760405162461bcd60e51b81526004016200036d9062003ec9565b6004546000906200085e9061ffff84169062003fab565b6004549091505b818110156200090f5760006040516200087e906200367c565b604051809103906000f0801580156200089b573d6000803e3d6000fd5b50600480546001810182556000919091527f8a35acfbc15ff81a39ae7d344fd709f28e8600b4aa8c65c6b64bfe7fe36bd19b01805473ffffffffffffffffffffffffffffffffffffffff19166001600160a01b0392909216919091179055508062000906816200407c565b91505062000865565b506004546040517f3ea8142895fe7d4af1f88d8b1d563937502baceb3254aa0e2bed1a348bd5228f91620009439162003f4c565b60405180910390a15050565b336001600160a01b037f000000000000000000000000000000000000000000000000000000000000000016146200099a5760405162461bcd60e51b81526004016200036d9062003ec9565b6003805473ffffffffffffffffffffffffffffffffffffffff19166001600160a01b0383161790556040517f5a272403b402d892977df56625f4164ccaf70ca3863991c43ecfe76a6905b0a190620007eb90839062003aca565b336001600160a01b037f000000000000000000000000000000000000000000000000000000000000000016148062000a3657506003546001600160a01b031633145b62000a555760405162461bcd60e51b81526004016200036d9062003d6a565b60015484906001600160a01b03808316911614156200102e5760055461ffff85161062000a965760405162461bcd60e51b81526004016200036d9062003dfe565b60045461ffff83161180159062000ab457508161ffff168361ffff16105b62000ad35760405162461bcd60e51b81526004016200036d9062003cfc565b6001546000906001600160a01b038781169116141562000c855762000af76200368a565b845b8461ffff168161ffff16101562000c7d57876001600160a01b03166393f1a40b600060048461ffff168154811062000b4157634e487b7160e01b600052603260045260246000fd5b6000918252602090912001546040516001600160e01b031960e085901b16815262000b7a92916001600160a01b03169060040162003bae565b604080518083038186803b15801562000b9257600080fd5b505afa15801562000ba7573d6000803e3d6000fd5b505050506040513d601f19601f8201168201806040525081019062000bcd9190620039bf565b915060048161ffff168154811062000bf557634e487b7160e01b600052603260045260246000fd5b600091825260209091200154825160405163575a08a160e01b81526001600160a01b039092169163575a08a19162000c33918c919060040162003b46565b600060405180830381600087803b15801562000c4e57600080fd5b505af115801562000c63573d6000803e3d6000fd5b50505050808062000c749062004057565b91505062000af9565b505062001027565b6000866001600160a01b031663f7c618c16040518163ffffffff1660e01b8152600401602060405180830381600087803b15801562000cc357600080fd5b505af115801562000cd8573d6000803e3d6000fd5b505050506040513d601f19601f8201168201806040525081019062000cfe9190620037b4565b905062000d0a6200368a565b855b8561ffff168161ffff1610156200102357886001600160a01b0316631959a00260048361ffff168154811062000d5257634e487b7160e01b600052603260045260246000fd5b6000918252602090912001546040516001600160e01b031960e084901b16815262000d8a916001600160a01b03169060040162003aca565b604080518083038186803b15801562000da257600080fd5b505afa15801562000db7573d6000803e3d6000fd5b505050506040513d601f19601f8201168201806040525081019062000ddd9190620039bf565b915060048161ffff168154811062000e0557634e487b7160e01b600052603260045260246000fd5b6000918252602090912001548251604051630296fd3b60e01b81526001600160a01b0390921691630296fd3b9162000e43918d919060040162003b46565b600060405180830381600087803b15801562000e5e57600080fd5b505af115801562000e73573d6000803e3d6000fd5b50505050826001600160a01b03166370a0823160048361ffff168154811062000eac57634e487b7160e01b600052603260045260246000fd5b6000918252602090912001546040516001600160e01b031960e084901b16815262000ee4916001600160a01b03169060040162003aca565b60206040518083038186803b15801562000efd57600080fd5b505afa15801562000f12573d6000803e3d6000fd5b505050506040513d601f19601f8201168201806040525081019062000f38919062003a4a565b935083156200100e5760048161ffff168154811062000f6757634e487b7160e01b600052603260045260246000fd5b600091825260209091200154600580546001600160a01b0390921691632e449e9b91869161ffff8d1690811062000fae57634e487b7160e01b600052603260045260246000fd5b90600052602060002001876040518463ffffffff1660e01b815260040162000fd99392919062003ade565b600060405180830381600087803b15801562000ff457600080fd5b505af115801562001009573d6000803e3d6000fd5b505050505b806200101a8162004057565b91505062000d0c565b5050505b50620016de565b6002546040805163bd61719160e01b815290516001600160a01b039283169284169163bd6171919160048083019260209291908290030181600087803b1580156200107857600080fd5b505af11580156200108d573d6000803e3d6000fd5b505050506040513d601f19601f82011682018060405250810190620010b39190620037b4565b6001600160a01b031614620010dc5760405162461bcd60e51b81526004016200036d9062003f00565b7fdff6e8f6a4233f835d067b2c6fa427aa17c0fd39a43960a75e25e35af1445587813f808214620011215760405162461bcd60e51b81526004016200036d9062003bfa565b60055461ffff871610620011495760405162461bcd60e51b81526004016200036d9062003dfe565b60045461ffff8516118015906200116757508361ffff168561ffff16105b620011865760405162461bcd60e51b81526004016200036d9062003cfc565b6001546000906001600160a01b03898116911614156200133857620011aa6200368a565b865b8661ffff168161ffff1610156200133057896001600160a01b03166393f1a40b600060048461ffff1681548110620011f457634e487b7160e01b600052603260045260246000fd5b6000918252602090912001546040516001600160e01b031960e085901b1681526200122d92916001600160a01b03169060040162003bae565b604080518083038186803b1580156200124557600080fd5b505afa1580156200125a573d6000803e3d6000fd5b505050506040513d601f19601f82011682018060405250810190620012809190620039bf565b915060048161ffff1681548110620012a857634e487b7160e01b600052603260045260246000fd5b600091825260209091200154825160405163575a08a160e01b81526001600160a01b039092169163575a08a191620012e6918e919060040162003b46565b600060405180830381600087803b1580156200130157600080fd5b505af115801562001316573d6000803e3d6000fd5b505050508080620013279062004057565b915050620011ac565b5050620016da565b6000886001600160a01b031663f7c618c16040518163ffffffff1660e01b8152600401602060405180830381600087803b1580156200137657600080fd5b505af11580156200138b573d6000803e3d6000fd5b505050506040513d601f19601f82011682018060405250810190620013b19190620037b4565b9050620013bd6200368a565b875b8761ffff168161ffff161015620016d6578a6001600160a01b0316631959a00260048361ffff16815481106200140557634e487b7160e01b600052603260045260246000fd5b6000918252602090912001546040516001600160e01b031960e084901b1681526200143d916001600160a01b03169060040162003aca565b604080518083038186803b1580156200145557600080fd5b505afa1580156200146a573d6000803e3d6000fd5b505050506040513d601f19601f82011682018060405250810190620014909190620039bf565b915060048161ffff1681548110620014b857634e487b7160e01b600052603260045260246000fd5b6000918252602090912001548251604051630296fd3b60e01b81526001600160a01b0390921691630296fd3b91620014f6918f919060040162003b46565b600060405180830381600087803b1580156200151157600080fd5b505af115801562001526573d6000803e3d6000fd5b50505050826001600160a01b03166370a0823160048361ffff16815481106200155f57634e487b7160e01b600052603260045260246000fd5b6000918252602090912001546040516001600160e01b031960e084901b16815262001597916001600160a01b03169060040162003aca565b60206040518083038186803b158015620015b057600080fd5b505afa158015620015c5573d6000803e3d6000fd5b505050506040513d601f19601f82011682018060405250810190620015eb919062003a4a565b93508315620016c15760048161ffff16815481106200161a57634e487b7160e01b600052603260045260246000fd5b600091825260209091200154600580546001600160a01b0390921691632e449e9b91869161ffff8f169081106200166157634e487b7160e01b600052603260045260246000fd5b90600052602060002001876040518463ffffffff1660e01b81526004016200168c9392919062003ade565b600060405180830381600087803b158015620016a757600080fd5b505af1158015620016bc573d6000803e3d6000fd5b505050505b80620016cd8162004057565b915050620013bf565b5050505b5050505b5050505050565b336001600160a01b037f00000000000000000000000000000000000000000000000000000000000000001614620017305760405162461bcd60e51b81526004016200036d9062003ec9565b6005805460018101825560009190915262000691907f036b6384b5eca791c62761152d0c79bb0604c104a5fb6f4eb0703f3154bb3db0018383620036a4565b7f000000000000000000000000000000000000000000000000000000000000000081565b336001600160a01b037f0000000000000000000000000000000000000000000000000000000000000000161480620017d557506003546001600160a01b031633145b620017f45760405162461bcd60e51b81526004016200036d9062003d6a565b60015483906001600160a01b038083169116141562001b8a5760045461ffff8316118015906200182b57508161ffff168361ffff16105b6200184a5760405162461bcd60e51b81526004016200036d9062003d33565b6001546000906001600160a01b0386811691161415620019f657835b8361ffff168161ffff161015620019ef57600054600480546001600160a01b03909216916370a08231919061ffff8516908110620018b457634e487b7160e01b600052603260045260246000fd5b6000918252602090912001546040516001600160e01b031960e084901b168152620018ec916001600160a01b03169060040162003aca565b60206040518083038186803b1580156200190557600080fd5b505afa1580156200191a573d6000803e3d6000fd5b505050506040513d601f19601f8201168201806040525081019062001940919062003a4a565b915060048161ffff16815481106200196857634e487b7160e01b600052603260045260246000fd5b600091825260209091200154604051633cc14f5b60e11b81526001600160a01b03909116906379829eb690620019a5908990869060040162003b46565b600060405180830381600087803b158015620019c057600080fd5b505af1158015620019d5573d6000803e3d6000fd5b505050508080620019e69062004057565b91505062001866565b5062001b83565b835b8361ffff168161ffff16101562001b8157600054600480546001600160a01b03909216916370a08231919061ffff851690811062001a4657634e487b7160e01b600052603260045260246000fd5b6000918252602090912001546040516001600160e01b031960e084901b16815262001a7e916001600160a01b03169060040162003aca565b60206040518083038186803b15801562001a9757600080fd5b505afa15801562001aac573d6000803e3d6000fd5b505050506040513d601f19601f8201168201806040525081019062001ad2919062003a4a565b915060048161ffff168154811062001afa57634e487b7160e01b600052603260045260246000fd5b600091825260209091200154604051636be6589b60e01b81526001600160a01b0390911690636be6589b9062001b37908990869060040162003b46565b600060405180830381600087803b15801562001b5257600080fd5b505af115801562001b67573d6000803e3d6000fd5b50505050808062001b789062004057565b915050620019f8565b505b5062001ff5565b6002546040805163bd61719160e01b815290516001600160a01b039283169284169163bd6171919160048083019260209291908290030181600087803b15801562001bd457600080fd5b505af115801562001be9573d6000803e3d6000fd5b505050506040513d601f19601f8201168201806040525081019062001c0f9190620037b4565b6001600160a01b03161462001c385760405162461bcd60e51b81526004016200036d9062003f00565b7fdff6e8f6a4233f835d067b2c6fa427aa17c0fd39a43960a75e25e35af1445587813f80821462001c7d5760405162461bcd60e51b81526004016200036d9062003bfa565b60045461ffff85161180159062001c9b57508361ffff168561ffff16105b62001cba5760405162461bcd60e51b81526004016200036d9062003d33565b6001546000906001600160a01b038881169116141562001e6657855b8561ffff168161ffff16101562001e5f57600054600480546001600160a01b03909216916370a08231919061ffff851690811062001d2457634e487b7160e01b600052603260045260246000fd5b6000918252602090912001546040516001600160e01b031960e084901b16815262001d5c916001600160a01b03169060040162003aca565b60206040518083038186803b15801562001d7557600080fd5b505afa15801562001d8a573d6000803e3d6000fd5b505050506040513d601f19601f8201168201806040525081019062001db0919062003a4a565b915060048161ffff168154811062001dd857634e487b7160e01b600052603260045260246000fd5b600091825260209091200154604051633cc14f5b60e11b81526001600160a01b03909116906379829eb69062001e15908b90869060040162003b46565b600060405180830381600087803b15801562001e3057600080fd5b505af115801562001e45573d6000803e3d6000fd5b50505050808062001e569062004057565b91505062001cd6565b5062001ff1565b855b8561ffff168161ffff161015620016da57600054600480546001600160a01b03909216916370a08231919061ffff851690811062001eb657634e487b7160e01b600052603260045260246000fd5b6000918252602090912001546040516001600160e01b031960e084901b16815262001eee916001600160a01b03169060040162003aca565b60206040518083038186803b15801562001f0757600080fd5b505afa15801562001f1c573d6000803e3d6000fd5b505050506040513d601f19601f8201168201806040525081019062001f42919062003a4a565b915060048161ffff168154811062001f6a57634e487b7160e01b600052603260045260246000fd5b600091825260209091200154604051636be6589b60e01b81526001600160a01b0390911690636be6589b9062001fa7908b90869060040162003b46565b600060405180830381600087803b15801562001fc257600080fd5b505af115801562001fd7573d6000803e3d6000fd5b50505050808062001fe89062004057565b91505062001e68565b5050505b50505050565b336001600160a01b037f00000000000000000000000000000000000000000000000000000000000000001614806200203d57506003546001600160a01b031633145b6200205c5760405162461bcd60e51b81526004016200036d9062003d6a565b60015484906001600160a01b0380831691161415620027555760055461ffff8516106200209d5760405162461bcd60e51b81526004016200036d9062003c68565b60045461ffff831611801590620020bb57508161ffff168361ffff16105b620020da5760405162461bcd60e51b81526004016200036d9062003d33565b60015460009081906001600160a01b03888116911614156200231c57845b8461ffff168161ffff161015620023155760048161ffff16815481106200212f57634e487b7160e01b600052603260045260246000fd5b600091825260208220015460405163575a08a160e01b81526001600160a01b039091169163575a08a19162002169918c9160040162003b46565b600060405180830381600087803b1580156200218457600080fd5b505af115801562002199573d6000803e3d6000fd5b5050600054600480546001600160a01b0390921693506370a0823192509061ffff8516908110620021da57634e487b7160e01b600052603260045260246000fd5b6000918252602090912001546040516001600160e01b031960e084901b16815262002212916001600160a01b03169060040162003aca565b60206040518083038186803b1580156200222b57600080fd5b505afa15801562002240573d6000803e3d6000fd5b505050506040513d601f19601f8201168201806040525081019062002266919062003a4a565b925060048161ffff16815481106200228e57634e487b7160e01b600052603260045260246000fd5b600091825260209091200154604051633cc14f5b60e11b81526001600160a01b03909116906379829eb690620022cb908b90879060040162003b46565b600060405180830381600087803b158015620022e657600080fd5b505af1158015620022fb573d6000803e3d6000fd5b5050505080806200230c9062004057565b915050620020f8565b506200274d565b6000876001600160a01b031663f7c618c16040518163ffffffff1660e01b8152600401602060405180830381600087803b1580156200235a57600080fd5b505af11580156200236f573d6000803e3d6000fd5b505050506040513d601f19601f82011682018060405250810190620023959190620037b4565b9050855b8561ffff168161ffff161015620010235760048161ffff1681548110620023d057634e487b7160e01b600052603260045260246000fd5b6000918252602082200154604051630296fd3b60e01b81526001600160a01b0390911691630296fd3b916200240a918d9160040162003b46565b600060405180830381600087803b1580156200242557600080fd5b505af11580156200243a573d6000803e3d6000fd5b50505050816001600160a01b03166370a0823160048361ffff16815481106200247357634e487b7160e01b600052603260045260246000fd5b6000918252602090912001546040516001600160e01b031960e084901b168152620024ab916001600160a01b03169060040162003aca565b60206040518083038186803b158015620024c457600080fd5b505afa158015620024d9573d6000803e3d6000fd5b505050506040513d601f19601f82011682018060405250810190620024ff919062003a4a565b92508215620025d55760048161ffff16815481106200252e57634e487b7160e01b600052603260045260246000fd5b600091825260209091200154600580546001600160a01b0390921691632e449e9b91859161ffff8d169081106200257557634e487b7160e01b600052603260045260246000fd5b90600052602060002001866040518463ffffffff1660e01b8152600401620025a09392919062003ade565b600060405180830381600087803b158015620025bb57600080fd5b505af1158015620025d0573d6000803e3d6000fd5b505050505b600054600480546001600160a01b03909216916370a08231919061ffff85169081106200261257634e487b7160e01b600052603260045260246000fd5b6000918252602090912001546040516001600160e01b031960e084901b1681526200264a916001600160a01b03169060040162003aca565b60206040518083038186803b1580156200266357600080fd5b505afa15801562002678573d6000803e3d6000fd5b505050506040513d601f19601f820116820180604052508101906200269e919062003a4a565b935060048161ffff1681548110620026c657634e487b7160e01b600052603260045260246000fd5b600091825260209091200154604051636be6589b60e01b81526001600160a01b0390911690636be6589b9062002703908c90889060040162003b46565b600060405180830381600087803b1580156200271e57600080fd5b505af115801562002733573d6000803e3d6000fd5b505050508080620027449062004057565b91505062002399565b5050620016de565b6002546040805163bd61719160e01b815290516001600160a01b039283169284169163bd6171919160048083019260209291908290030181600087803b1580156200279f57600080fd5b505af1158015620027b4573d6000803e3d6000fd5b505050506040513d601f19601f82011682018060405250810190620027da9190620037b4565b6001600160a01b031614620028035760405162461bcd60e51b81526004016200036d9062003f00565b7fdff6e8f6a4233f835d067b2c6fa427aa17c0fd39a43960a75e25e35af1445587813f808214620028485760405162461bcd60e51b81526004016200036d9062003bfa565b60055461ffff871610620028705760405162461bcd60e51b81526004016200036d9062003c68565b60045461ffff8516118015906200288e57508361ffff168561ffff16105b620028ad5760405162461bcd60e51b81526004016200036d9062003d33565b60015460009081906001600160a01b038a81169116141562002aef57865b8661ffff168161ffff16101562002ae85760048161ffff16815481106200290257634e487b7160e01b600052603260045260246000fd5b600091825260208220015460405163575a08a160e01b81526001600160a01b039091169163575a08a1916200293c918e9160040162003b46565b600060405180830381600087803b1580156200295757600080fd5b505af11580156200296c573d6000803e3d6000fd5b5050600054600480546001600160a01b0390921693506370a0823192509061ffff8516908110620029ad57634e487b7160e01b600052603260045260246000fd5b6000918252602090912001546040516001600160e01b031960e084901b168152620029e5916001600160a01b03169060040162003aca565b60206040518083038186803b158015620029fe57600080fd5b505afa15801562002a13573d6000803e3d6000fd5b505050506040513d601f19601f8201168201806040525081019062002a39919062003a4a565b925060048161ffff168154811062002a6157634e487b7160e01b600052603260045260246000fd5b600091825260209091200154604051633cc14f5b60e11b81526001600160a01b03909116906379829eb69062002a9e908d90879060040162003b46565b600060405180830381600087803b15801562002ab957600080fd5b505af115801562002ace573d6000803e3d6000fd5b50505050808062002adf9062004057565b915050620028cb565b5062002f20565b6000896001600160a01b031663f7c618c16040518163ffffffff1660e01b8152600401602060405180830381600087803b15801562002b2d57600080fd5b505af115801562002b42573d6000803e3d6000fd5b505050506040513d601f19601f8201168201806040525081019062002b689190620037b4565b9050875b8761ffff168161ffff161015620016d65760048161ffff168154811062002ba357634e487b7160e01b600052603260045260246000fd5b6000918252602082200154604051630296fd3b60e01b81526001600160a01b0390911691630296fd3b9162002bdd918f9160040162003b46565b600060405180830381600087803b15801562002bf857600080fd5b505af115801562002c0d573d6000803e3d6000fd5b50505050816001600160a01b03166370a0823160048361ffff168154811062002c4657634e487b7160e01b600052603260045260246000fd5b6000918252602090912001546040516001600160e01b031960e084901b16815262002c7e916001600160a01b03169060040162003aca565b60206040518083038186803b15801562002c9757600080fd5b505afa15801562002cac573d6000803e3d6000fd5b505050506040513d601f19601f8201168201806040525081019062002cd2919062003a4a565b9250821562002da85760048161ffff168154811062002d0157634e487b7160e01b600052603260045260246000fd5b600091825260209091200154600580546001600160a01b0390921691632e449e9b91859161ffff8f1690811062002d4857634e487b7160e01b600052603260045260246000fd5b90600052602060002001866040518463ffffffff1660e01b815260040162002d739392919062003ade565b600060405180830381600087803b15801562002d8e57600080fd5b505af115801562002da3573d6000803e3d6000fd5b505050505b600054600480546001600160a01b03909216916370a08231919061ffff851690811062002de557634e487b7160e01b600052603260045260246000fd5b6000918252602090912001546040516001600160e01b031960e084901b16815262002e1d916001600160a01b03169060040162003aca565b60206040518083038186803b15801562002e3657600080fd5b505afa15801562002e4b573d6000803e3d6000fd5b505050506040513d601f19601f8201168201806040525081019062002e71919062003a4a565b935060048161ffff168154811062002e9957634e487b7160e01b600052603260045260246000fd5b600091825260209091200154604051636be6589b60e01b81526001600160a01b0390911690636be6589b9062002ed6908e90889060040162003b46565b600060405180830381600087803b15801562002ef157600080fd5b505af115801562002f06573d6000803e3d6000fd5b50505050808062002f179062004057565b91505062002b6c565b505050505050505050565b6060600062002f3b848462003fe8565b61ffff1667ffffffffffffffff81111562002f6657634e487b7160e01b600052604160045260246000fd5b60405190808252806020026020018201604052801562002f90578160200160208202803683370190505b50905060005b62002fa2858562003fe8565b61ffff168161ffff1610156200305357600462002fc0828762003f82565b61ffff168154811062002fe357634e487b7160e01b600052603260045260246000fd5b9060005260206000200160009054906101000a90046001600160a01b0316828261ffff16815181106200302657634e487b7160e01b600052603260045260246000fd5b6001600160a01b0390921660209283029190910190910152806200304a8162004057565b91505062002f96565b509392505050565b336001600160a01b037f00000000000000000000000000000000000000000000000000000000000000001614806200309d57506003546001600160a01b031633145b620030bc5760405162461bcd60e51b81526004016200036d9062003d6a565b6000825b8261ffff168161ffff1610156200326057600054600480546001600160a01b03909216916370a08231919061ffff85169081106200310e57634e487b7160e01b600052603260045260246000fd5b6000918252602090912001546040516001600160e01b031960e084901b16815262003146916001600160a01b03169060040162003aca565b60206040518083038186803b1580156200315f57600080fd5b505afa15801562003174573d6000803e3d6000fd5b505050506040513d601f19601f820116820180604052508101906200319a919062003a4a565b915060048161ffff1681548110620031c257634e487b7160e01b600052603260045260246000fd5b6000918252602090912001546040517fc5b6c5a40000000000000000000000000000000000000000000000000000000081526001600160a01b039091169063c5b6c5a4906200321690859060040162003f4c565b600060405180830381600087803b1580156200323157600080fd5b505af115801562003246573d6000803e3d6000fd5b505050508080620032579062004057565b915050620030c0565b508161ffff168361ffff167f3eca778048babd6ce0638b5352aade1fca5e541e078ff2b331cb7245aa53e85f60405160405180910390a3505050565b336001600160a01b037f00000000000000000000000000000000000000000000000000000000000000001614620032e75760405162461bcd60e51b81526004016200036d9062003ec9565b620006918282620033cb565b600481815481106200330457600080fd5b6000918252602090912001546001600160a01b0316905081565b6003546001600160a01b031681565b620006918363a9059cbb60e01b84846040516024016200334f92919062003b46565b60408051601f198184030181529190526020810180517bffffffffffffffffffffffffffffffffffffffffffffffffffffffff166001600160e01b0319909316929092179091526200340f565b6060620033c4838360405180606001604052806027815260200162004f2060279139620034a6565b9392505050565b6060620033c483836040518060400160405280601e81526020017f416464726573733a206c6f772d6c6576656c2063616c6c206661696c656400008152506200354d565b600062003466826040518060400160405280602081526020017f5361666545524332303a206c6f772d6c6576656c2063616c6c206661696c6564815250856001600160a01b03166200354d9092919063ffffffff16565b8051909150156200069157808060200190518101906200348791906200399d565b620006915760405162461bcd60e51b81526004016200036d9062003e6c565b6060620034b38462003566565b620034d25760405162461bcd60e51b81526004016200036d9062003da1565b600080856001600160a01b031685604051620034ef919062003aac565b600060405180830381855af49150503d80600081146200352c576040519150601f19603f3d011682016040523d82523d6000602084013e62003531565b606091505b50915091506200354382828662003570565b9695505050505050565b60606200355e8484600085620035ae565b949350505050565b803b15155b919050565b6060831562003581575081620033c4565b825115620035925782518084602001fd5b8160405162461bcd60e51b81526004016200036d919062003bc5565b606082471015620035d35760405162461bcd60e51b81526004016200036d9062003c9f565b620035de8562003566565b620035fd5760405162461bcd60e51b81526004016200036d9062003e35565b600080866001600160a01b031685876040516200361b919062003aac565b60006040518083038185875af1925050503d80600081146200365a576040519150601f19603f3d011682016040523d82523d6000602084013e6200365f565b606091505b50915091506200367182828662003570565b979650505050505050565b610e4080620040e083390190565b604051806040016040528060008152602001600081525090565b82805482825590600052602060002090810192821562003707579160200282015b828111156200370757815473ffffffffffffffffffffffffffffffffffffffff19166001600160a01b03843516178255602090920191600190910190620036c5565b506200371592915062003719565b5090565b5b808211156200371557600081556001016200371a565b60006040828403121562003742578081fd5b6040516040810181811067ffffffffffffffff82111715620037685762003768620040b0565b604052825181526020928301519281019290925250919050565b803561ffff811681146200356b57600080fd5b600060208284031215620037a7578081fd5b8135620033c481620040c6565b600060208284031215620037c6578081fd5b8151620033c481620040c6565b60008060408385031215620037e6578081fd5b8235620037f381620040c6565b915060208381013567ffffffffffffffff8082111562003811578384fd5b818601915086601f83011262003825578384fd5b8135818111156200383a576200383a620040b0565b6200384e601f8201601f1916850162003f55565b9150808252878482850101111562003864578485fd5b8084840185840137810190920192909252919491935090915050565b60008060006060848603121562003895578081fd5b8335620038a281620040c6565b9250620038b26020850162003782565b9150620038c26040850162003782565b90509250925092565b60008060008060808587031215620038e1578081fd5b8435620038ee81620040c6565b9350620038fe6020860162003782565b92506200390e6040860162003782565b91506200391e6060860162003782565b905092959194509250565b600080602083850312156200393c578182fd5b823567ffffffffffffffff8082111562003954578384fd5b818501915085601f83011262003968578384fd5b81358181111562003977578485fd5b86602080830285010111156200398b578485fd5b60209290920196919550909350505050565b600060208284031215620039af578081fd5b81518015158114620033c4578182fd5b600060408284031215620039d1578081fd5b620033c4838362003730565b600060208284031215620039ef578081fd5b620033c48262003782565b6000806040838503121562003a0d578182fd5b62003a188362003782565b915062003a286020840162003782565b90509250929050565b60006020828403121562003a43578081fd5b5035919050565b60006020828403121562003a5c578081fd5b5051919050565b60008060006060848603121562003a78578283fd5b83359250620038b26020850162003782565b6000806040838503121562003a9d578182fd5b50508035926020909101359150565b6000825162003ac081846020870162004028565b9190910192915050565b6001600160a01b0391909116815260200190565b6000606082016001600160a01b03808716845260206060818601528287548085526080870191508886528286209450855b8181101562003b2f57855485168352600195860195928401920162003b0f565b505080945050505050826040830152949350505050565b6001600160a01b03929092168252602082015260400190565b6020808252825182820181905260009190848201906040850190845b8181101562003ba25783516001600160a01b03168352928401929184019160010162003b7b565b50909695505050505050565b9182526001600160a01b0316602082015260400190565b600060208252825180602084015262003be681604085016020870162004028565b601f01601f19169190910160400192915050565b60208082526005908201527f504f4f4c31000000000000000000000000000000000000000000000000000000604082015260600190565b60208082526003908201527f57524b0000000000000000000000000000000000000000000000000000000000604082015260600190565b60208082526003908201527f5054480000000000000000000000000000000000000000000000000000000000604082015260600190565b60208082526026908201527f416464726573733a20696e73756666696369656e742062616c616e636520666f60408201527f722063616c6c0000000000000000000000000000000000000000000000000000606082015260800190565b60208082526004908201527f4944583100000000000000000000000000000000000000000000000000000000604082015260600190565b60208082526003908201527f4944580000000000000000000000000000000000000000000000000000000000604082015260600190565b6020808252600a908201527f7265737472696374656400000000000000000000000000000000000000000000604082015260600190565b60208082526026908201527f416464726573733a2064656c65676174652063616c6c20746f206e6f6e2d636f60408201527f6e74726163740000000000000000000000000000000000000000000000000000606082015260800190565b60208082526004908201527f4944583000000000000000000000000000000000000000000000000000000000604082015260600190565b6020808252601d908201527f416464726573733a2063616c6c20746f206e6f6e2d636f6e7472616374000000604082015260600190565b6020808252602a908201527f5361666545524332303a204552433230206f7065726174696f6e20646964206e60408201527f6f74207375636365656400000000000000000000000000000000000000000000606082015260800190565b60208082526009908201527f6f6e6c794f776e65720000000000000000000000000000000000000000000000604082015260600190565b60208082526005908201527f504f4f4c30000000000000000000000000000000000000000000000000000000604082015260600190565b61ffff92831681529116602082015260400190565b90815260200190565b60405181810167ffffffffffffffff8111828210171562003f7a5762003f7a620040b0565b604052919050565b600061ffff80831681851680830382111562003fa25762003fa26200409a565b01949350505050565b6000821982111562003fc15762003fc16200409a565b500190565b600081600019048311821515161562003fe35762003fe36200409a565b500290565b600061ffff838116908316818110156200400657620040066200409a565b039392505050565b6000828210156200402357620040236200409a565b500390565b60005b83811015620040455781810151838201526020016200402b565b8381111562001ff55750506000910152565b600061ffff808316818114156200407257620040726200409a565b6001019392505050565b60006000198214156200409357620040936200409a565b5060010190565b634e487b7160e01b600052601160045260246000fd5b634e487b7160e01b600052604160045260246000fd5b6001600160a01b0381168114620040dc57600080fd5b5056fe60a0604052600080546001600160a01b0319908116730e09fabb73bd3ade0a17ecc321fd13a19e81ce82179091556001805482167373feaa1ee314f8c655e354234017be2193c9e24e17905560028054821673927158be21fe3d4da7e96931bb27fd5059a8cbc2179055600380549091167310ed43c718714eb63d5aa57b78b54704e256024e17905561038460045534801561009a57600080fd5b5033606081901b608052610d536100ed6000396000818161011f015281816101eb0152818161035e015281816103eb015281816104fd015281816106060152818161063301526106820152610d536000f3fe608060405234801561001057600080fd5b506004361061007d5760003560e01c80636be6589b1161005b5780636be6589b146100bd57806379829eb6146100d05780638da5cb5b146100e3578063c5b6c5a4146101015761007d565b80630296fd3b146100825780632e449e9b14610097578063575a08a1146100aa575b600080fd5b61009561009036600461097a565b610114565b005b6100956100a53660046108f4565b6101e0565b6100956100b836600461097a565b610353565b6100956100cb36600461097a565b6103e0565b6100956100de36600461097a565b6104f2565b6100eb610604565b6040516100f89190610ab1565b60405180910390f35b61009561010f366004610a7d565b610628565b336001600160a01b037f000000000000000000000000000000000000000000000000000000000000000016146101655760405162461bcd60e51b815260040161015c90610c02565b60405180910390fd5b6040517f2e1a7d4d0000000000000000000000000000000000000000000000000000000081526001600160a01b03831690632e1a7d4d906101aa908490600401610c39565b600060405180830381600087803b1580156101c457600080fd5b505af11580156101d8573d6000803e3d6000fd5b505050505050565b336001600160a01b037f000000000000000000000000000000000000000000000000000000000000000016146102285760405162461bcd60e51b815260040161015c90610c02565b60035460405163095ea7b360e01b81526000916001600160a01b038088169263095ea7b39261025d9216908690600401610ac5565b602060405180830381600087803b15801561027757600080fd5b505af115801561028b573d6000803e3d6000fd5b505050506040513d601f19601f820116820180604052508101906102af9190610a5d565b506003546004546001600160a01b03909116906338ed173990849084908890889030906102dc9042610cb3565b6040518763ffffffff1660e01b81526004016102fd96959493929190610c42565b600060405180830381600087803b15801561031757600080fd5b505af115801561032b573d6000803e3d6000fd5b505050506040513d6000823e601f3d908101601f191682016040526101d891908101906109a3565b336001600160a01b037f0000000000000000000000000000000000000000000000000000000000000000161461039b5760405162461bcd60e51b815260040161015c90610c02565b6040517f1058d2810000000000000000000000000000000000000000000000000000000081526001600160a01b03831690631058d281906101aa908490600401610c39565b336001600160a01b037f000000000000000000000000000000000000000000000000000000000000000016146104285760405162461bcd60e51b815260040161015c90610c02565b60005460405163095ea7b360e01b81526001600160a01b039091169063095ea7b39061045a9085908590600401610ac5565b602060405180830381600087803b15801561047457600080fd5b505af1158015610488573d6000803e3d6000fd5b505050506040513d601f19601f820116820180604052508101906104ac9190610a5d565b506040517fb6b55f250000000000000000000000000000000000000000000000000000000081526001600160a01b0383169063b6b55f25906101aa908490600401610c39565b336001600160a01b037f0000000000000000000000000000000000000000000000000000000000000000161461053a5760405162461bcd60e51b815260040161015c90610c02565b60005460405163095ea7b360e01b81526001600160a01b039091169063095ea7b39061056c9085908590600401610ac5565b602060405180830381600087803b15801561058657600080fd5b505af115801561059a573d6000803e3d6000fd5b505050506040513d601f19601f820116820180604052508101906105be9190610a5d565b506040517f41441d3b0000000000000000000000000000000000000000000000000000000081526001600160a01b038316906341441d3b906101aa908490600401610c39565b7f000000000000000000000000000000000000000000000000000000000000000081565b336001600160a01b037f000000000000000000000000000000000000000000000000000000000000000016146106705760405162461bcd60e51b815260040161015c90610c02565b6000546106a7906001600160a01b03167f0000000000000000000000000000000000000000000000000000000000000000836106aa565b50565b61072d8363a9059cbb60e01b84846040516024016106c9929190610ac5565b60408051601f198184030181529190526020810180517bffffffffffffffffffffffffffffffffffffffffffffffffffffffff167fffffffff0000000000000000000000000000000000000000000000000000000090931692909217909152610732565b505050565b6000610787826040518060400160405280602081526020017f5361666545524332303a206c6f772d6c6576656c2063616c6c206661696c6564815250856001600160a01b03166107c19092919063ffffffff16565b80519091501561072d57808060200190518101906107a59190610a5d565b61072d5760405162461bcd60e51b815260040161015c90610ba5565b60606107d084846000856107da565b90505b9392505050565b6060824710156107fc5760405162461bcd60e51b815260040161015c90610b11565b6108058561089a565b6108215760405162461bcd60e51b815260040161015c90610b6e565b600080866001600160a01b0316858760405161083d9190610a95565b60006040518083038185875af1925050503d806000811461087a576040519150601f19603f3d011682016040523d82523d6000602084013e61087f565b606091505b509150915061088f8282866108a4565b979650505050505050565b803b15155b919050565b606083156108b35750816107d3565b8251156108c35782518084602001fd5b8160405162461bcd60e51b815260040161015c9190610ade565b80356001600160a01b038116811461089f57600080fd5b60008060008060608587031215610909578384fd5b610912856108dd565b9350602085013567ffffffffffffffff8082111561092e578485fd5b818701915087601f830112610941578485fd5b81358181111561094f578586fd5b8860208083028501011115610962578586fd5b95986020929092019750949560400135945092505050565b6000806040838503121561098c578182fd5b610995836108dd565b946020939093013593505050565b600060208083850312156109b5578182fd5b825167ffffffffffffffff808211156109cc578384fd5b818501915085601f8301126109df578384fd5b8151818111156109f1576109f1610d07565b83810260405185828201018181108582111715610a1057610a10610d07565b604052828152858101935084860182860187018a1015610a2e578788fd5b8795505b83861015610a50578051855260019590950194938601938601610a32565b5098975050505050505050565b600060208284031215610a6e578081fd5b815180151581146107d3578182fd5b600060208284031215610a8e578081fd5b5035919050565b60008251610aa7818460208701610cd7565b9190910192915050565b6001600160a01b0391909116815260200190565b6001600160a01b03929092168252602082015260400190565b6000602082528251806020840152610afd816040850160208701610cd7565b601f01601f19169190910160400192915050565b60208082526026908201527f416464726573733a20696e73756666696369656e742062616c616e636520666f60408201527f722063616c6c0000000000000000000000000000000000000000000000000000606082015260800190565b6020808252601d908201527f416464726573733a2063616c6c20746f206e6f6e2d636f6e7472616374000000604082015260600190565b6020808252602a908201527f5361666545524332303a204552433230206f7065726174696f6e20646964206e60408201527f6f74207375636365656400000000000000000000000000000000000000000000606082015260800190565b60208082526009908201527f6f6e6c794f776e65720000000000000000000000000000000000000000000000604082015260600190565b90815260200190565b868152602080820187905260a0604083018190528201859052600090869060c08401835b88811015610c92576001600160a01b03610c7f856108dd565b1682529282019290820190600101610c66565b506001600160a01b0396909616606085015250505060800152949350505050565b60008219821115610cd257634e487b7160e01b81526011600452602481fd5b500190565b60005b83811015610cf2578181015183820152602001610cda565b83811115610d01576000848401525b50505050565b634e487b7160e01b600052604160045260246000fdfea2646970667358221220940c4aba5c8d433e9f3987b547767bdeeaba776fa397e67c740f8360b4ea590464736f6c63430008000033416464726573733a206c6f772d6c6576656c2064656c65676174652063616c6c206661696c6564a264697066735822122036828dd3b8c8b6a642f0d476ac7ee1cd0e53737b6de94b069ca726f8594a1f2864736f6c63430008000033",
  "linkReferences": {},
  "deployedLinkReferences": {}
}