{
  "_format": "hh-sol-artifact-1",
  "contractName": "Manager",
  "sourceName": "contracts/Manager.sol",
  "abi": [
    {
      "inputs": [
        {
          "internalType": "address",
          "name": "_owner",
          "type": "address"
        },
        {
          "internalType": "address",
          "name": "_admin",
          "type": "address"
        }
      ],
      "stateMutability": "nonpayable",
      "type": "constructor"
    },
    {
      "anonymous": false,
      "inputs": [
        {
          "indexed": false,
          "internalType": "uint16",
          "name": "startIndex",
          "type": "uint16"
        },
        {
          "indexed": false,
          "internalType": "uint16",
          "name": "endIndex",
          "type": "uint16"
        },
        {
          "indexed": true,
          "internalType": "address",
          "name": "poolAddr",
          "type": "address"
        }
      ],
      "name": "DoHardWork",
      "type": "event"
    },
    {
      "anonymous": false,
      "inputs": [
        {
          "indexed": false,
          "internalType": "address",
          "name": "newAdmin",
          "type": "address"
        }
      ],
      "name": "SetAdmin",
      "type": "event"
    },
    {
      "anonymous": false,
      "inputs": [
        {
          "indexed": true,
          "internalType": "uint16",
          "name": "startIndex",
          "type": "uint16"
        },
        {
          "indexed": true,
          "internalType": "uint16",
          "name": "endIndex",
          "type": "uint16"
        }
      ],
      "name": "TransferToManager",
      "type": "event"
    },
    {
      "anonymous": false,
      "inputs": [
        {
          "indexed": false,
          "internalType": "uint256",
          "name": "amount",
          "type": "uint256"
        }
      ],
      "name": "TransferToOwner",
      "type": "event"
    },
    {
      "anonymous": false,
      "inputs": [
        {
          "indexed": false,
          "internalType": "uint16",
          "name": "startIndex",
          "type": "uint16"
        },
        {
          "indexed": false,
          "internalType": "uint16",
          "name": "endIndex",
          "type": "uint16"
        },
        {
          "indexed": true,
          "internalType": "uint256",
          "name": "amount",
          "type": "uint256"
        }
      ],
      "name": "TransferToWorkers",
      "type": "event"
    },
    {
      "anonymous": false,
      "inputs": [
        {
          "indexed": false,
          "internalType": "uint256",
          "name": "nWorkers",
          "type": "uint256"
        }
      ],
      "name": "WorkersAdded",
      "type": "event"
    },
    {
      "inputs": [
        {
          "internalType": "address[]",
          "name": "newPath",
          "type": "address[]"
        }
      ],
      "name": "addPath",
      "outputs": [],
      "stateMutability": "nonpayable",
      "type": "function"
    },
    {
      "inputs": [
        {
          "internalType": "uint16",
          "name": "numWorkersToAdd",
          "type": "uint16"
        }
      ],
      "name": "addWorkers",
      "outputs": [],
      "stateMutability": "nonpayable",
      "type": "function"
    },
    {
      "inputs": [],
      "name": "admin",
      "outputs": [
        {
          "internalType": "address",
          "name": "",
          "type": "address"
        }
      ],
      "stateMutability": "view",
      "type": "function"
    },
    {
      "inputs": [
        {
          "internalType": "address",
          "name": "poolAddr",
          "type": "address"
        },
        {
          "internalType": "uint16",
          "name": "startIndex",
          "type": "uint16"
        },
        {
          "internalType": "uint16",
          "name": "endIndex",
          "type": "uint16"
        }
      ],
      "name": "deposit",
      "outputs": [],
      "stateMutability": "nonpayable",
      "type": "function"
    },
    {
      "inputs": [
        {
          "internalType": "address",
          "name": "target",
          "type": "address"
        },
        {
          "internalType": "bytes",
          "name": "data",
          "type": "bytes"
        }
      ],
      "name": "emergencyFunctionCall",
      "outputs": [],
      "stateMutability": "nonpayable",
      "type": "function"
    },
    {
      "inputs": [
        {
          "internalType": "address",
          "name": "target",
          "type": "address"
        },
        {
          "internalType": "bytes",
          "name": "data",
          "type": "bytes"
        }
      ],
      "name": "emergencyFunctionDelegateCall",
      "outputs": [],
      "stateMutability": "nonpayable",
      "type": "function"
    },
    {
      "inputs": [],
      "name": "getNWorkers",
      "outputs": [
        {
          "internalType": "uint256",
          "name": "",
          "type": "uint256"
        }
      ],
      "stateMutability": "view",
      "type": "function"
    },
    {
      "inputs": [
        {
          "internalType": "uint16",
          "name": "startIndex",
          "type": "uint16"
        },
        {
          "internalType": "uint16",
          "name": "endIndex",
          "type": "uint16"
        }
      ],
      "name": "getWorkers",
      "outputs": [
        {
          "internalType": "address[]",
          "name": "",
          "type": "address[]"
        }
      ],
      "stateMutability": "view",
      "type": "function"
    },
    {
      "inputs": [
        {
          "internalType": "address",
          "name": "poolAddr",
          "type": "address"
        },
        {
          "internalType": "uint16",
          "name": "pathId",
          "type": "uint16"
        },
        {
          "internalType": "uint16",
          "name": "startIndex",
          "type": "uint16"
        },
        {
          "internalType": "uint16",
          "name": "endIndex",
          "type": "uint16"
        }
      ],
      "name": "harvest",
      "outputs": [],
      "stateMutability": "nonpayable",
      "type": "function"
    },
    {
      "inputs": [],
      "name": "owner",
      "outputs": [
        {
          "internalType": "address",
          "name": "",
          "type": "address"
        }
      ],
      "stateMutability": "view",
      "type": "function"
    },
    {
      "inputs": [
        {
          "internalType": "uint256",
          "name": "",
          "type": "uint256"
        },
        {
          "internalType": "uint256",
          "name": "",
          "type": "uint256"
        }
      ],
      "name": "path",
      "outputs": [
        {
          "internalType": "address",
          "name": "",
          "type": "address"
        }
      ],
      "stateMutability": "view",
      "type": "function"
    },
    {
      "inputs": [
        {
          "internalType": "address",
          "name": "newAdmin",
          "type": "address"
        }
      ],
      "name": "setAdmin",
      "outputs": [],
      "stateMutability": "nonpayable",
      "type": "function"
    },
    {
      "inputs": [
        {
          "internalType": "uint16",
          "name": "startIndex",
          "type": "uint16"
        },
        {
          "internalType": "uint16",
          "name": "endIndex",
          "type": "uint16"
        }
      ],
      "name": "transferToManager",
      "outputs": [],
      "stateMutability": "nonpayable",
      "type": "function"
    },
    {
      "inputs": [],
      "name": "transferToOwner",
      "outputs": [],
      "stateMutability": "nonpayable",
      "type": "function"
    },
    {
      "inputs": [
        {
          "internalType": "uint256",
          "name": "amount",
          "type": "uint256"
        },
        {
          "internalType": "uint16",
          "name": "startIndex",
          "type": "uint16"
        },
        {
          "internalType": "uint16",
          "name": "endIndex",
          "type": "uint16"
        }
      ],
      "name": "transferToWorkers",
      "outputs": [],
      "stateMutability": "nonpayable",
      "type": "function"
    },
    {
      "inputs": [
        {
          "internalType": "address",
          "name": "poolAddr",
          "type": "address"
        },
        {
          "internalType": "uint16",
          "name": "pathId",
          "type": "uint16"
        },
        {
          "internalType": "uint16",
          "name": "startIndex",
          "type": "uint16"
        },
        {
          "internalType": "uint16",
          "name": "endIndex",
          "type": "uint16"
        }
      ],
      "name": "withdraw",
      "outputs": [],
      "stateMutability": "nonpayable",
      "type": "function"
    },
    {
      "inputs": [
        {
          "internalType": "uint256",
          "name": "",
          "type": "uint256"
        }
      ],
      "name": "workers",
      "outputs": [
        {
          "internalType": "address",
          "name": "",
          "type": "address"
        }
      ],
      "stateMutability": "view",
      "type": "function"
    }
  ],
  "bytecode": "0x60a0604052730e09fabb73bd3ade0a17ecc321fd13a19e81ce826000806101000a81548173ffffffffffffffffffffffffffffffffffffffff021916908373ffffffffffffffffffffffffffffffffffffffff1602179055507373feaa1ee314f8c655e354234017be2193c9e24e600160006101000a81548173ffffffffffffffffffffffffffffffffffffffff021916908373ffffffffffffffffffffffffffffffffffffffff16021790555073927158be21fe3d4da7e96931bb27fd5059a8cbc2600260006101000a81548173ffffffffffffffffffffffffffffffffffffffff021916908373ffffffffffffffffffffffffffffffffffffffff1602179055506040518060200160405280604051806020016040528073927158be21fe3d4da7e96931bb27fd5059a8cbc273ffffffffffffffffffffffffffffffffffffffff1673ffffffffffffffffffffffffffffffffffffffff1681525081525060059060016200017192919062000225565b503480156200017f57600080fd5b50604051620080f0380380620080f08339818101604052810190620001a5919062000397565b8173ffffffffffffffffffffffffffffffffffffffff1660808173ffffffffffffffffffffffffffffffffffffffff1660601b8152505080600360006101000a81548173ffffffffffffffffffffffffffffffffffffffff021916908373ffffffffffffffffffffffffffffffffffffffff160217905550505062000426565b82805482825590600052602060002090810192821562000274579160200282015b8281111562000273578251829060016200026292919062000287565b509160200191906001019062000246565b5b50905062000283919062000316565b5090565b82805482825590600052602060002090810192821562000303579160200282015b82811115620003025782518260006101000a81548173ffffffffffffffffffffffffffffffffffffffff021916908373ffffffffffffffffffffffffffffffffffffffff16021790555091602001919060010190620002a8565b5b5090506200031291906200033e565b5090565b5b808211156200033a57600081816200033091906200035d565b5060010162000317565b5090565b5b80821115620003595760008160009055506001016200033f565b5090565b50805460008255906000526020600020908101906200037d91906200033e565b50565b60008151905062000391816200040c565b92915050565b60008060408385031215620003ab57600080fd5b6000620003bb8582860162000380565b9250506020620003ce8582860162000380565b9150509250929050565b6000620003e582620003ec565b9050919050565b600073ffffffffffffffffffffffffffffffffffffffff82169050919050565b6200041781620003d8565b81146200042357600080fd5b50565b60805160601c617c5762000499600039600081816103db0152818161091f015281816109c101528181610b6301528181610c1501528181610dc201528181610ed0015281816121770152818161224c0152818161227001528181612f5a0152818161476c01526149890152617c576000f3fe60806040523480156200001157600080fd5b5060043610620001245760003560e01c80637b226c3b11620000b1578063b91f8b36116200007b578063b91f8b3614620002af578063e4f3c68a14620002e5578063e78d73ad1462000305578063f1a22dc21462000325578063f851a440146200035b5762000124565b80637b226c3b146200022d5780638da5cb5b146200024d5780639c294d53146200026f578063a9aa8bc3146200028f5762000124565b80634257ecb211620000f35780634257ecb214620001ab5780635e3792f714620001cd578063704b6c0214620001ed57806379c6d641146200020d5762000124565b806322f0c42914620001295780632952c2c9146200015f5780632ab0aabb146200017f5780632d90ae94146200019f575b600080fd5b62000147600480360381019062000141919062005548565b6200037d565b60405162000156919062005bc0565b60405180910390f35b6200017d6004803603810190620001779190620054f2565b620003d9565b005b6200019d600480360381019062000197919062005244565b6200091d565b005b620001a9620009bf565b005b620001b562000c06565b604051620001c4919062005ef9565b60405180910390f35b620001eb6004803603810190620001e591906200542d565b62000c13565b005b6200020b6004803603810190620002059190620051ec565b62000dc0565b005b6200022b6004803603810190620002259190620052f4565b62000ece565b005b6200024b600480360381019062000245919062005360565b62002175565b005b620002576200224a565b60405162000266919062005bc0565b60405180910390f35b6200028d60048036038101906200028791906200529e565b6200226e565b005b620002ad6004803603810190620002a79190620052f4565b62002f58565b005b620002cd6004803603810190620002c7919062005459565b620045b1565b604051620002dc919062005c7b565b60405180910390f35b620003036004803603810190620002fd919062005459565b6200476a565b005b6200032360048036038101906200031d919062005244565b62004987565b005b6200034360048036038101906200033d91906200549a565b62004a29565b60405162000352919062005bc0565b60405180910390f35b6200036562004a69565b60405162000374919062005bc0565b60405180910390f35b600582815481106200038e57600080fd5b906000526020600020018181548110620003a757600080fd5b906000526020600020016000915091509054906101000a900473ffffffffffffffffffffffffffffffffffffffff1681565b7f000000000000000000000000000000000000000000000000000000000000000073ffffffffffffffffffffffffffffffffffffffff163373ffffffffffffffffffffffffffffffffffffffff161480620004815750600360009054906101000a900473ffffffffffffffffffffffffffffffffffffffff1673ffffffffffffffffffffffffffffffffffffffff163373ffffffffffffffffffffffffffffffffffffffff16145b620004c3576040517f08c379a0000000000000000000000000000000000000000000000000000000008152600401620004ba9062005d9a565b60405180910390fd5b600083905060008060009054906101000a900473ffffffffffffffffffffffffffffffffffffffff1673ffffffffffffffffffffffffffffffffffffffff166370a08231306040518263ffffffff1660e01b815260040162000526919062005bc0565b60206040518083038186803b1580156200053f57600080fd5b505afa15801562000554573d6000803e3d6000fd5b505050506040513d601f19601f820116820180604052508101906200057a9190620054c6565b90508361ffff168361ffff1611620005c9576040517f08c379a0000000000000000000000000000000000000000000000000000000008152600401620005c09062005dbc565b60405180910390fd5b8383620005d7919062006112565b61ffff16600480549050101562000625576040517f08c379a00000000000000000000000000000000000000000000000000000000081526004016200061c9062005d78565b60405180910390fd5b80848462000634919062006112565b61ffff1686620006459190620060b1565b111562000689576040517f08c379a0000000000000000000000000000000000000000000000000000000008152600401620006809062005e88565b60405180910390fd5b60008490505b8361ffff168161ffff161015620008d95760008054906101000a900473ffffffffffffffffffffffffffffffffffffffff1673ffffffffffffffffffffffffffffffffffffffff166370a0823160048361ffff16815481106200071b577f4e487b7100000000000000000000000000000000000000000000000000000000600052603260045260246000fd5b9060005260206000200160009054906101000a900473ffffffffffffffffffffffffffffffffffffffff166040518263ffffffff1660e01b815260040162000764919062005bc0565b60206040518083038186803b1580156200077d57600080fd5b505afa15801562000792573d6000803e3d6000fd5b505050506040513d601f19601f82011682018060405250810190620007b89190620054c6565b83620007c591906200614d565b9250858311156200080d576040517f08c379a0000000000000000000000000000000000000000000000000000000008152600401620008049062005eaa565b60405180910390fd5b620008c360048261ffff168154811062000850577f4e487b7100000000000000000000000000000000000000000000000000000000600052603260045260246000fd5b9060005260206000200160009054906101000a900473ffffffffffffffffffffffffffffffffffffffff168760008054906101000a900473ffffffffffffffffffffffffffffffffffffffff1673ffffffffffffffffffffffffffffffffffffffff1662004a8f9092919063ffffffff16565b8080620008d09062006277565b9150506200068f565b50847f9e5db2f07ab51b72f8c6f3a83e934ea692eba844e8003b3259a1e8ee0529986285856040516200090e92919062005ecc565b60405180910390a25050505050565b7f000000000000000000000000000000000000000000000000000000000000000073ffffffffffffffffffffffffffffffffffffffff163373ffffffffffffffffffffffffffffffffffffffff1614620009ae576040517f08c379a0000000000000000000000000000000000000000000000000000000008152600401620009a59062005e66565b60405180910390fd5b620009ba828262004b19565b505050565b7f000000000000000000000000000000000000000000000000000000000000000073ffffffffffffffffffffffffffffffffffffffff163373ffffffffffffffffffffffffffffffffffffffff16148062000a675750600360009054906101000a900473ffffffffffffffffffffffffffffffffffffffff1673ffffffffffffffffffffffffffffffffffffffff163373ffffffffffffffffffffffffffffffffffffffff16145b62000aa9576040517f08c379a000000000000000000000000000000000000000000000000000000000815260040162000aa09062005d9a565b60405180910390fd5b60008060009054906101000a900473ffffffffffffffffffffffffffffffffffffffff1673ffffffffffffffffffffffffffffffffffffffff166370a08231306040518263ffffffff1660e01b815260040162000b07919062005bc0565b60206040518083038186803b15801562000b2057600080fd5b505afa15801562000b35573d6000803e3d6000fd5b505050506040513d601f19601f8201168201806040525081019062000b5b9190620054c6565b905062000bca7f00000000000000000000000000000000000000000000000000000000000000008260008054906101000a900473ffffffffffffffffffffffffffffffffffffffff1673ffffffffffffffffffffffffffffffffffffffff1662004a8f9092919063ffffffff16565b7fb91557f3050411a13a7e7631fe8461fcd94ec09d9a2b122e22e0b294998053c68160405162000bfb919062005ef9565b60405180910390a150565b6000600480549050905090565b7f000000000000000000000000000000000000000000000000000000000000000073ffffffffffffffffffffffffffffffffffffffff163373ffffffffffffffffffffffffffffffffffffffff161462000ca4576040517f08c379a000000000000000000000000000000000000000000000000000000000815260040162000c9b9062005e66565b60405180910390fd5b60008161ffff1660048054905062000cbd919062006054565b9050600060048054905090505b8181101562000d7d57600060405162000ce39062004ef7565b604051809103906000f08015801562000d00573d6000803e3d6000fd5b5090506004819080600181540180825580915050600190039060005260206000200160009091909190916101000a81548173ffffffffffffffffffffffffffffffffffffffff021916908373ffffffffffffffffffffffffffffffffffffffff16021790555050808062000d7490620062a7565b91505062000cca565b507f3ea8142895fe7d4af1f88d8b1d563937502baceb3254aa0e2bed1a348bd5228f60048054905060405162000db4919062005ef9565b60405180910390a15050565b7f000000000000000000000000000000000000000000000000000000000000000073ffffffffffffffffffffffffffffffffffffffff163373ffffffffffffffffffffffffffffffffffffffff161462000e51576040517f08c379a000000000000000000000000000000000000000000000000000000000815260040162000e489062005e66565b60405180910390fd5b80600360006101000a81548173ffffffffffffffffffffffffffffffffffffffff021916908373ffffffffffffffffffffffffffffffffffffffff1602179055507f5a272403b402d892977df56625f4164ccaf70ca3863991c43ecfe76a6905b0a18160405162000ec3919062005bc0565b60405180910390a150565b7f000000000000000000000000000000000000000000000000000000000000000073ffffffffffffffffffffffffffffffffffffffff163373ffffffffffffffffffffffffffffffffffffffff16148062000f765750600360009054906101000a900473ffffffffffffffffffffffffffffffffffffffff1673ffffffffffffffffffffffffffffffffffffffff163373ffffffffffffffffffffffffffffffffffffffff16145b62000fb8576040517f08c379a000000000000000000000000000000000000000000000000000000000815260040162000faf9062005d9a565b60405180910390fd5b83600160009054906101000a900473ffffffffffffffffffffffffffffffffffffffff1673ffffffffffffffffffffffffffffffffffffffff168173ffffffffffffffffffffffffffffffffffffffff161415620017fc576005805490508461ffff16106200105e576040517f08c379a0000000000000000000000000000000000000000000000000000000008152600401620010559062005cf0565b60405180910390fd5b6004805490508261ffff16111580156200107f57508161ffff168361ffff16105b620010c1576040517f08c379a0000000000000000000000000000000000000000000000000000000008152600401620010b89062005d56565b60405180910390fd5b6000600160009054906101000a900473ffffffffffffffffffffffffffffffffffffffff1673ffffffffffffffffffffffffffffffffffffffff168673ffffffffffffffffffffffffffffffffffffffff16141562001333576200112462004f05565b60008590505b8461ffff168161ffff1610156200132b578773ffffffffffffffffffffffffffffffffffffffff166393f1a40b600060048461ffff168154811062001198577f4e487b7100000000000000000000000000000000000000000000000000000000600052603260045260246000fd5b9060005260206000200160009054906101000a900473ffffffffffffffffffffffffffffffffffffffff166040518363ffffffff1660e01b8152600401620011e292919062005c9f565b604080518083038186803b158015620011fa57600080fd5b505afa1580156200120f573d6000803e3d6000fd5b505050506040513d601f19601f8201168201806040525081019062001235919062005401565b915060048161ffff168154811062001276577f4e487b7100000000000000000000000000000000000000000000000000000000600052603260045260246000fd5b9060005260206000200160009054906101000a900473ffffffffffffffffffffffffffffffffffffffff1673ffffffffffffffffffffffffffffffffffffffff1663575a08a18984600001516040518363ffffffff1660e01b8152600401620012e192919062005c4e565b600060405180830381600087803b158015620012fc57600080fd5b505af115801562001311573d6000803e3d6000fd5b505050508080620013229062006277565b9150506200112a565b5050620017f5565b60008673ffffffffffffffffffffffffffffffffffffffff1663f7c618c16040518163ffffffff1660e01b8152600401602060405180830381600087803b1580156200137e57600080fd5b505af115801562001393573d6000803e3d6000fd5b505050506040513d601f19601f82011682018060405250810190620013b9919062005218565b9050620013c562004f1f565b60008690505b8561ffff168161ffff161015620017f1578873ffffffffffffffffffffffffffffffffffffffff16631959a00260048361ffff168154811062001437577f4e487b7100000000000000000000000000000000000000000000000000000000600052603260045260246000fd5b9060005260206000200160009054906101000a900473ffffffffffffffffffffffffffffffffffffffff166040518263ffffffff1660e01b815260040162001480919062005bc0565b604080518083038186803b1580156200149857600080fd5b505afa158015620014ad573d6000803e3d6000fd5b505050506040513d601f19601f82011682018060405250810190620014d39190620053d5565b915060048161ffff168154811062001514577f4e487b7100000000000000000000000000000000000000000000000000000000600052603260045260246000fd5b9060005260206000200160009054906101000a900473ffffffffffffffffffffffffffffffffffffffff1673ffffffffffffffffffffffffffffffffffffffff16630296fd3b8a84600001516040518363ffffffff1660e01b81526004016200157f92919062005c4e565b600060405180830381600087803b1580156200159a57600080fd5b505af1158015620015af573d6000803e3d6000fd5b505050508273ffffffffffffffffffffffffffffffffffffffff166370a0823160048361ffff16815481106200160e577f4e487b7100000000000000000000000000000000000000000000000000000000600052603260045260246000fd5b9060005260206000200160009054906101000a900473ffffffffffffffffffffffffffffffffffffffff166040518263ffffffff1660e01b815260040162001657919062005bc0565b60206040518083038186803b1580156200167057600080fd5b505afa15801562001685573d6000803e3d6000fd5b505050506040513d601f19601f82011682018060405250810190620016ab9190620054c6565b935060008414620017db5760048161ffff1681548110620016f5577f4e487b7100000000000000000000000000000000000000000000000000000000600052603260045260246000fd5b9060005260206000200160009054906101000a900473ffffffffffffffffffffffffffffffffffffffff1673ffffffffffffffffffffffffffffffffffffffff16632e449e9b8460058b61ffff16815481106200177b577f4e487b7100000000000000000000000000000000000000000000000000000000600052603260045260246000fd5b90600052602060002001876040518463ffffffff1660e01b8152600401620017a69392919062005bdd565b600060405180830381600087803b158015620017c157600080fd5b505af1158015620017d6573d6000803e3d6000fd5b505050505b8080620017e89062006277565b915050620013cb565b5050505b506200216e565b600260009054906101000a900473ffffffffffffffffffffffffffffffffffffffff1673ffffffffffffffffffffffffffffffffffffffff168173ffffffffffffffffffffffffffffffffffffffff1663bd6171916040518163ffffffff1660e01b8152600401602060405180830381600087803b1580156200187e57600080fd5b505af115801562001893573d6000803e3d6000fd5b505050506040513d601f19601f82011682018060405250810190620018b9919062005218565b73ffffffffffffffffffffffffffffffffffffffff161462001912576040517f08c379a0000000000000000000000000000000000000000000000000000000008152600401620019099062005d12565b60405180910390fd5b60007fdff6e8f6a4233f835d067b2c6fa427aa17c0fd39a43960a75e25e35af144558760001b90506000823f905081811462001985576040517f08c379a00000000000000000000000000000000000000000000000000000000081526004016200197c9062005e22565b60405180910390fd5b6005805490508661ffff1610620019d3576040517f08c379a0000000000000000000000000000000000000000000000000000000008152600401620019ca9062005cf0565b60405180910390fd5b6004805490508461ffff1611158015620019f457508361ffff168561ffff16105b62001a36576040517f08c379a000000000000000000000000000000000000000000000000000000000815260040162001a2d9062005d56565b60405180910390fd5b6000600160009054906101000a900473ffffffffffffffffffffffffffffffffffffffff1673ffffffffffffffffffffffffffffffffffffffff168873ffffffffffffffffffffffffffffffffffffffff16141562001ca85762001a9962004f05565b60008790505b8661ffff168161ffff16101562001ca0578973ffffffffffffffffffffffffffffffffffffffff166393f1a40b600060048461ffff168154811062001b0d577f4e487b7100000000000000000000000000000000000000000000000000000000600052603260045260246000fd5b9060005260206000200160009054906101000a900473ffffffffffffffffffffffffffffffffffffffff166040518363ffffffff1660e01b815260040162001b5792919062005c9f565b604080518083038186803b15801562001b6f57600080fd5b505afa15801562001b84573d6000803e3d6000fd5b505050506040513d601f19601f8201168201806040525081019062001baa919062005401565b915060048161ffff168154811062001beb577f4e487b7100000000000000000000000000000000000000000000000000000000600052603260045260246000fd5b9060005260206000200160009054906101000a900473ffffffffffffffffffffffffffffffffffffffff1673ffffffffffffffffffffffffffffffffffffffff1663575a08a18b84600001516040518363ffffffff1660e01b815260040162001c5692919062005c4e565b600060405180830381600087803b15801562001c7157600080fd5b505af115801562001c86573d6000803e3d6000fd5b50505050808062001c979062006277565b91505062001a9f565b50506200216a565b60008873ffffffffffffffffffffffffffffffffffffffff1663f7c618c16040518163ffffffff1660e01b8152600401602060405180830381600087803b15801562001cf357600080fd5b505af115801562001d08573d6000803e3d6000fd5b505050506040513d601f19601f8201168201806040525081019062001d2e919062005218565b905062001d3a62004f1f565b60008890505b8761ffff168161ffff16101562002166578a73ffffffffffffffffffffffffffffffffffffffff16631959a00260048361ffff168154811062001dac577f4e487b7100000000000000000000000000000000000000000000000000000000600052603260045260246000fd5b9060005260206000200160009054906101000a900473ffffffffffffffffffffffffffffffffffffffff166040518263ffffffff1660e01b815260040162001df5919062005bc0565b604080518083038186803b15801562001e0d57600080fd5b505afa15801562001e22573d6000803e3d6000fd5b505050506040513d601f19601f8201168201806040525081019062001e489190620053d5565b915060048161ffff168154811062001e89577f4e487b7100000000000000000000000000000000000000000000000000000000600052603260045260246000fd5b9060005260206000200160009054906101000a900473ffffffffffffffffffffffffffffffffffffffff1673ffffffffffffffffffffffffffffffffffffffff16630296fd3b8c84600001516040518363ffffffff1660e01b815260040162001ef492919062005c4e565b600060405180830381600087803b15801562001f0f57600080fd5b505af115801562001f24573d6000803e3d6000fd5b505050508273ffffffffffffffffffffffffffffffffffffffff166370a0823160048361ffff168154811062001f83577f4e487b7100000000000000000000000000000000000000000000000000000000600052603260045260246000fd5b9060005260206000200160009054906101000a900473ffffffffffffffffffffffffffffffffffffffff166040518263ffffffff1660e01b815260040162001fcc919062005bc0565b60206040518083038186803b15801562001fe557600080fd5b505afa15801562001ffa573d6000803e3d6000fd5b505050506040513d601f19601f82011682018060405250810190620020209190620054c6565b935060008414620021505760048161ffff16815481106200206a577f4e487b7100000000000000000000000000000000000000000000000000000000600052603260045260246000fd5b9060005260206000200160009054906101000a900473ffffffffffffffffffffffffffffffffffffffff1673ffffffffffffffffffffffffffffffffffffffff16632e449e9b8460058d61ffff1681548110620020f0577f4e487b7100000000000000000000000000000000000000000000000000000000600052603260045260246000fd5b90600052602060002001876040518463ffffffff1660e01b81526004016200211b9392919062005bdd565b600060405180830381600087803b1580156200213657600080fd5b505af11580156200214b573d6000803e3d6000fd5b505050505b80806200215d9062006277565b91505062001d40565b5050505b5050505b5050505050565b7f000000000000000000000000000000000000000000000000000000000000000073ffffffffffffffffffffffffffffffffffffffff163373ffffffffffffffffffffffffffffffffffffffff161462002206576040517f08c379a0000000000000000000000000000000000000000000000000000000008152600401620021fd9062005e66565b60405180910390fd5b60058282909180600181540180825580915050600190039060005260206000200160009091929091929091929091925091906200224592919062004f39565b505050565b7f000000000000000000000000000000000000000000000000000000000000000081565b7f000000000000000000000000000000000000000000000000000000000000000073ffffffffffffffffffffffffffffffffffffffff163373ffffffffffffffffffffffffffffffffffffffff161480620023165750600360009054906101000a900473ffffffffffffffffffffffffffffffffffffffff1673ffffffffffffffffffffffffffffffffffffffff163373ffffffffffffffffffffffffffffffffffffffff16145b62002358576040517f08c379a00000000000000000000000000000000000000000000000000000000081526004016200234f9062005d9a565b60405180910390fd5b82600160009054906101000a900473ffffffffffffffffffffffffffffffffffffffff1673ffffffffffffffffffffffffffffffffffffffff168173ffffffffffffffffffffffffffffffffffffffff161415620028be576004805490508261ffff1611158015620023d157508161ffff168361ffff16105b62002413576040517f08c379a00000000000000000000000000000000000000000000000000000000081526004016200240a9062005d56565b60405180910390fd5b6000600160009054906101000a900473ffffffffffffffffffffffffffffffffffffffff1673ffffffffffffffffffffffffffffffffffffffff168573ffffffffffffffffffffffffffffffffffffffff161415620026945760008490505b8361ffff168161ffff1610156200268d5760008054906101000a900473ffffffffffffffffffffffffffffffffffffffff1673ffffffffffffffffffffffffffffffffffffffff166370a0823160048361ffff1681548110620024fe577f4e487b7100000000000000000000000000000000000000000000000000000000600052603260045260246000fd5b9060005260206000200160009054906101000a900473ffffffffffffffffffffffffffffffffffffffff166040518263ffffffff1660e01b815260040162002547919062005bc0565b60206040518083038186803b1580156200256057600080fd5b505afa15801562002575573d6000803e3d6000fd5b505050506040513d601f19601f820116820180604052508101906200259b9190620054c6565b915060048161ffff1681548110620025dc577f4e487b7100000000000000000000000000000000000000000000000000000000600052603260045260246000fd5b9060005260206000200160009054906101000a900473ffffffffffffffffffffffffffffffffffffffff1673ffffffffffffffffffffffffffffffffffffffff166379829eb687846040518363ffffffff1660e01b81526004016200264392919062005c4e565b600060405180830381600087803b1580156200265e57600080fd5b505af115801562002673573d6000803e3d6000fd5b505050508080620026849062006277565b91505062002472565b50620028b7565b60008490505b8361ffff168161ffff161015620028b55760008054906101000a900473ffffffffffffffffffffffffffffffffffffffff1673ffffffffffffffffffffffffffffffffffffffff166370a0823160048361ffff168154811062002726577f4e487b7100000000000000000000000000000000000000000000000000000000600052603260045260246000fd5b9060005260206000200160009054906101000a900473ffffffffffffffffffffffffffffffffffffffff166040518263ffffffff1660e01b81526004016200276f919062005bc0565b60206040518083038186803b1580156200278857600080fd5b505afa1580156200279d573d6000803e3d6000fd5b505050506040513d601f19601f82011682018060405250810190620027c39190620054c6565b915060048161ffff168154811062002804577f4e487b7100000000000000000000000000000000000000000000000000000000600052603260045260246000fd5b9060005260206000200160009054906101000a900473ffffffffffffffffffffffffffffffffffffffff1673ffffffffffffffffffffffffffffffffffffffff16636be6589b87846040518363ffffffff1660e01b81526004016200286b92919062005c4e565b600060405180830381600087803b1580156200288657600080fd5b505af11580156200289b573d6000803e3d6000fd5b505050508080620028ac9062006277565b9150506200269a565b505b5062002f52565b600260009054906101000a900473ffffffffffffffffffffffffffffffffffffffff1673ffffffffffffffffffffffffffffffffffffffff168173ffffffffffffffffffffffffffffffffffffffff1663bd6171916040518163ffffffff1660e01b8152600401602060405180830381600087803b1580156200294057600080fd5b505af115801562002955573d6000803e3d6000fd5b505050506040513d601f19601f820116820180604052508101906200297b919062005218565b73ffffffffffffffffffffffffffffffffffffffff1614620029d4576040517f08c379a0000000000000000000000000000000000000000000000000000000008152600401620029cb9062005d12565b60405180910390fd5b60007fdff6e8f6a4233f835d067b2c6fa427aa17c0fd39a43960a75e25e35af144558760001b90506000823f905081811462002a47576040517f08c379a000000000000000000000000000000000000000000000000000000000815260040162002a3e9062005e22565b60405180910390fd5b6004805490508461ffff161115801562002a6857508361ffff168561ffff16105b62002aaa576040517f08c379a000000000000000000000000000000000000000000000000000000000815260040162002aa19062005d56565b60405180910390fd5b6000600160009054906101000a900473ffffffffffffffffffffffffffffffffffffffff1673ffffffffffffffffffffffffffffffffffffffff168773ffffffffffffffffffffffffffffffffffffffff16141562002d2b5760008690505b8561ffff168161ffff16101562002d245760008054906101000a900473ffffffffffffffffffffffffffffffffffffffff1673ffffffffffffffffffffffffffffffffffffffff166370a0823160048361ffff168154811062002b95577f4e487b7100000000000000000000000000000000000000000000000000000000600052603260045260246000fd5b9060005260206000200160009054906101000a900473ffffffffffffffffffffffffffffffffffffffff166040518263ffffffff1660e01b815260040162002bde919062005bc0565b60206040518083038186803b15801562002bf757600080fd5b505afa15801562002c0c573d6000803e3d6000fd5b505050506040513d601f19601f8201168201806040525081019062002c329190620054c6565b915060048161ffff168154811062002c73577f4e487b7100000000000000000000000000000000000000000000000000000000600052603260045260246000fd5b9060005260206000200160009054906101000a900473ffffffffffffffffffffffffffffffffffffffff1673ffffffffffffffffffffffffffffffffffffffff166379829eb689846040518363ffffffff1660e01b815260040162002cda92919062005c4e565b600060405180830381600087803b15801562002cf557600080fd5b505af115801562002d0a573d6000803e3d6000fd5b50505050808062002d1b9062006277565b91505062002b09565b5062002f4e565b60008690505b8561ffff168161ffff16101562002f4c5760008054906101000a900473ffffffffffffffffffffffffffffffffffffffff1673ffffffffffffffffffffffffffffffffffffffff166370a0823160048361ffff168154811062002dbd577f4e487b7100000000000000000000000000000000000000000000000000000000600052603260045260246000fd5b9060005260206000200160009054906101000a900473ffffffffffffffffffffffffffffffffffffffff166040518263ffffffff1660e01b815260040162002e06919062005bc0565b60206040518083038186803b15801562002e1f57600080fd5b505afa15801562002e34573d6000803e3d6000fd5b505050506040513d601f19601f8201168201806040525081019062002e5a9190620054c6565b915060048161ffff168154811062002e9b577f4e487b7100000000000000000000000000000000000000000000000000000000600052603260045260246000fd5b9060005260206000200160009054906101000a900473ffffffffffffffffffffffffffffffffffffffff1673ffffffffffffffffffffffffffffffffffffffff16636be6589b89846040518363ffffffff1660e01b815260040162002f0292919062005c4e565b600060405180830381600087803b15801562002f1d57600080fd5b505af115801562002f32573d6000803e3d6000fd5b50505050808062002f439062006277565b91505062002d31565b505b5050505b50505050565b7f000000000000000000000000000000000000000000000000000000000000000073ffffffffffffffffffffffffffffffffffffffff163373ffffffffffffffffffffffffffffffffffffffff161480620030005750600360009054906101000a900473ffffffffffffffffffffffffffffffffffffffff1673ffffffffffffffffffffffffffffffffffffffff163373ffffffffffffffffffffffffffffffffffffffff16145b62003042576040517f08c379a0000000000000000000000000000000000000000000000000000000008152600401620030399062005d9a565b60405180910390fd5b83600160009054906101000a900473ffffffffffffffffffffffffffffffffffffffff1673ffffffffffffffffffffffffffffffffffffffff168173ffffffffffffffffffffffffffffffffffffffff16141562003a5f576005805490508461ffff1610620030e8576040517f08c379a0000000000000000000000000000000000000000000000000000000008152600401620030df9062005cf0565b60405180910390fd5b6004805490508261ffff16111580156200310957508161ffff168361ffff16105b6200314b576040517f08c379a0000000000000000000000000000000000000000000000000000000008152600401620031429062005d56565b60405180910390fd5b600080600160009054906101000a900473ffffffffffffffffffffffffffffffffffffffff1673ffffffffffffffffffffffffffffffffffffffff168773ffffffffffffffffffffffffffffffffffffffff161415620034a85760008590505b8461ffff168161ffff161015620034a15760048161ffff1681548110620031fb577f4e487b7100000000000000000000000000000000000000000000000000000000600052603260045260246000fd5b9060005260206000200160009054906101000a900473ffffffffffffffffffffffffffffffffffffffff1673ffffffffffffffffffffffffffffffffffffffff1663575a08a18960006040518363ffffffff1660e01b81526004016200326392919062005c21565b600060405180830381600087803b1580156200327e57600080fd5b505af115801562003293573d6000803e3d6000fd5b5050505060008054906101000a900473ffffffffffffffffffffffffffffffffffffffff1673ffffffffffffffffffffffffffffffffffffffff166370a0823160048361ffff168154811062003312577f4e487b7100000000000000000000000000000000000000000000000000000000600052603260045260246000fd5b9060005260206000200160009054906101000a900473ffffffffffffffffffffffffffffffffffffffff166040518263ffffffff1660e01b81526004016200335b919062005bc0565b60206040518083038186803b1580156200337457600080fd5b505afa15801562003389573d6000803e3d6000fd5b505050506040513d601f19601f82011682018060405250810190620033af9190620054c6565b925060048161ffff1681548110620033f0577f4e487b7100000000000000000000000000000000000000000000000000000000600052603260045260246000fd5b9060005260206000200160009054906101000a900473ffffffffffffffffffffffffffffffffffffffff1673ffffffffffffffffffffffffffffffffffffffff166379829eb689856040518363ffffffff1660e01b81526004016200345792919062005c4e565b600060405180830381600087803b1580156200347257600080fd5b505af115801562003487573d6000803e3d6000fd5b505050508080620034989062006277565b915050620031ab565b5062003a57565b60008773ffffffffffffffffffffffffffffffffffffffff1663f7c618c16040518163ffffffff1660e01b8152600401602060405180830381600087803b158015620034f357600080fd5b505af115801562003508573d6000803e3d6000fd5b505050506040513d601f19601f820116820180604052508101906200352e919062005218565b905060008690505b8561ffff168161ffff16101562003a545760048161ffff168154811062003586577f4e487b7100000000000000000000000000000000000000000000000000000000600052603260045260246000fd5b9060005260206000200160009054906101000a900473ffffffffffffffffffffffffffffffffffffffff1673ffffffffffffffffffffffffffffffffffffffff16630296fd3b8a60006040518363ffffffff1660e01b8152600401620035ee92919062005c21565b600060405180830381600087803b1580156200360957600080fd5b505af11580156200361e573d6000803e3d6000fd5b505050508173ffffffffffffffffffffffffffffffffffffffff166370a0823160048361ffff16815481106200367d577f4e487b7100000000000000000000000000000000000000000000000000000000600052603260045260246000fd5b9060005260206000200160009054906101000a900473ffffffffffffffffffffffffffffffffffffffff166040518263ffffffff1660e01b8152600401620036c6919062005bc0565b60206040518083038186803b158015620036df57600080fd5b505afa158015620036f4573d6000803e3d6000fd5b505050506040513d601f19601f820116820180604052508101906200371a9190620054c6565b9250600083146200384a5760048161ffff168154811062003764577f4e487b7100000000000000000000000000000000000000000000000000000000600052603260045260246000fd5b9060005260206000200160009054906101000a900473ffffffffffffffffffffffffffffffffffffffff1673ffffffffffffffffffffffffffffffffffffffff16632e449e9b8360058b61ffff1681548110620037ea577f4e487b7100000000000000000000000000000000000000000000000000000000600052603260045260246000fd5b90600052602060002001866040518463ffffffff1660e01b8152600401620038159392919062005bdd565b600060405180830381600087803b1580156200383057600080fd5b505af115801562003845573d6000803e3d6000fd5b505050505b60008054906101000a900473ffffffffffffffffffffffffffffffffffffffff1673ffffffffffffffffffffffffffffffffffffffff166370a0823160048361ffff1681548110620038c5577f4e487b7100000000000000000000000000000000000000000000000000000000600052603260045260246000fd5b9060005260206000200160009054906101000a900473ffffffffffffffffffffffffffffffffffffffff166040518263ffffffff1660e01b81526004016200390e919062005bc0565b60206040518083038186803b1580156200392757600080fd5b505afa1580156200393c573d6000803e3d6000fd5b505050506040513d601f19601f82011682018060405250810190620039629190620054c6565b935060048161ffff1681548110620039a3577f4e487b7100000000000000000000000000000000000000000000000000000000600052603260045260246000fd5b9060005260206000200160009054906101000a900473ffffffffffffffffffffffffffffffffffffffff1673ffffffffffffffffffffffffffffffffffffffff16636be6589b8a866040518363ffffffff1660e01b815260040162003a0a92919062005c4e565b600060405180830381600087803b15801562003a2557600080fd5b505af115801562003a3a573d6000803e3d6000fd5b50505050808062003a4b9062006277565b91505062003536565b50505b5050620045aa565b600260009054906101000a900473ffffffffffffffffffffffffffffffffffffffff1673ffffffffffffffffffffffffffffffffffffffff168173ffffffffffffffffffffffffffffffffffffffff1663bd6171916040518163ffffffff1660e01b8152600401602060405180830381600087803b15801562003ae157600080fd5b505af115801562003af6573d6000803e3d6000fd5b505050506040513d601f19601f8201168201806040525081019062003b1c919062005218565b73ffffffffffffffffffffffffffffffffffffffff161462003b75576040517f08c379a000000000000000000000000000000000000000000000000000000000815260040162003b6c9062005d12565b60405180910390fd5b60007fdff6e8f6a4233f835d067b2c6fa427aa17c0fd39a43960a75e25e35af144558760001b90506000823f905081811462003be8576040517f08c379a000000000000000000000000000000000000000000000000000000000815260040162003bdf9062005e22565b60405180910390fd5b6005805490508661ffff161062003c36576040517f08c379a000000000000000000000000000000000000000000000000000000000815260040162003c2d9062005cf0565b60405180910390fd5b6004805490508461ffff161115801562003c5757508361ffff168561ffff16105b62003c99576040517f08c379a000000000000000000000000000000000000000000000000000000000815260040162003c909062005d56565b60405180910390fd5b600080600160009054906101000a900473ffffffffffffffffffffffffffffffffffffffff1673ffffffffffffffffffffffffffffffffffffffff168973ffffffffffffffffffffffffffffffffffffffff16141562003ff65760008790505b8661ffff168161ffff16101562003fef5760048161ffff168154811062003d49577f4e487b7100000000000000000000000000000000000000000000000000000000600052603260045260246000fd5b9060005260206000200160009054906101000a900473ffffffffffffffffffffffffffffffffffffffff1673ffffffffffffffffffffffffffffffffffffffff1663575a08a18b60006040518363ffffffff1660e01b815260040162003db192919062005c21565b600060405180830381600087803b15801562003dcc57600080fd5b505af115801562003de1573d6000803e3d6000fd5b5050505060008054906101000a900473ffffffffffffffffffffffffffffffffffffffff1673ffffffffffffffffffffffffffffffffffffffff166370a0823160048361ffff168154811062003e60577f4e487b7100000000000000000000000000000000000000000000000000000000600052603260045260246000fd5b9060005260206000200160009054906101000a900473ffffffffffffffffffffffffffffffffffffffff166040518263ffffffff1660e01b815260040162003ea9919062005bc0565b60206040518083038186803b15801562003ec257600080fd5b505afa15801562003ed7573d6000803e3d6000fd5b505050506040513d601f19601f8201168201806040525081019062003efd9190620054c6565b925060048161ffff168154811062003f3e577f4e487b7100000000000000000000000000000000000000000000000000000000600052603260045260246000fd5b9060005260206000200160009054906101000a900473ffffffffffffffffffffffffffffffffffffffff1673ffffffffffffffffffffffffffffffffffffffff166379829eb68b856040518363ffffffff1660e01b815260040162003fa592919062005c4e565b600060405180830381600087803b15801562003fc057600080fd5b505af115801562003fd5573d6000803e3d6000fd5b50505050808062003fe69062006277565b91505062003cf9565b50620045a5565b60008973ffffffffffffffffffffffffffffffffffffffff1663f7c618c16040518163ffffffff1660e01b8152600401602060405180830381600087803b1580156200404157600080fd5b505af115801562004056573d6000803e3d6000fd5b505050506040513d601f19601f820116820180604052508101906200407c919062005218565b905060008890505b8761ffff168161ffff161015620045a25760048161ffff1681548110620040d4577f4e487b7100000000000000000000000000000000000000000000000000000000600052603260045260246000fd5b9060005260206000200160009054906101000a900473ffffffffffffffffffffffffffffffffffffffff1673ffffffffffffffffffffffffffffffffffffffff16630296fd3b8c60006040518363ffffffff1660e01b81526004016200413c92919062005c21565b600060405180830381600087803b1580156200415757600080fd5b505af11580156200416c573d6000803e3d6000fd5b505050508173ffffffffffffffffffffffffffffffffffffffff166370a0823160048361ffff1681548110620041cb577f4e487b7100000000000000000000000000000000000000000000000000000000600052603260045260246000fd5b9060005260206000200160009054906101000a900473ffffffffffffffffffffffffffffffffffffffff166040518263ffffffff1660e01b815260040162004214919062005bc0565b60206040518083038186803b1580156200422d57600080fd5b505afa15801562004242573d6000803e3d6000fd5b505050506040513d601f19601f82011682018060405250810190620042689190620054c6565b925060008314620043985760048161ffff1681548110620042b2577f4e487b7100000000000000000000000000000000000000000000000000000000600052603260045260246000fd5b9060005260206000200160009054906101000a900473ffffffffffffffffffffffffffffffffffffffff1673ffffffffffffffffffffffffffffffffffffffff16632e449e9b8360058d61ffff168154811062004338577f4e487b7100000000000000000000000000000000000000000000000000000000600052603260045260246000fd5b90600052602060002001866040518463ffffffff1660e01b8152600401620043639392919062005bdd565b600060405180830381600087803b1580156200437e57600080fd5b505af115801562004393573d6000803e3d6000fd5b505050505b60008054906101000a900473ffffffffffffffffffffffffffffffffffffffff1673ffffffffffffffffffffffffffffffffffffffff166370a0823160048361ffff168154811062004413577f4e487b7100000000000000000000000000000000000000000000000000000000600052603260045260246000fd5b9060005260206000200160009054906101000a900473ffffffffffffffffffffffffffffffffffffffff166040518263ffffffff1660e01b81526004016200445c919062005bc0565b60206040518083038186803b1580156200447557600080fd5b505afa1580156200448a573d6000803e3d6000fd5b505050506040513d601f19601f82011682018060405250810190620044b09190620054c6565b935060048161ffff1681548110620044f1577f4e487b7100000000000000000000000000000000000000000000000000000000600052603260045260246000fd5b9060005260206000200160009054906101000a900473ffffffffffffffffffffffffffffffffffffffff1673ffffffffffffffffffffffffffffffffffffffff16636be6589b8c866040518363ffffffff1660e01b81526004016200455892919062005c4e565b600060405180830381600087803b1580156200457357600080fd5b505af115801562004588573d6000803e3d6000fd5b505050508080620045999062006277565b91505062004084565b50505b505050505b5050505050565b606060008383620045c3919062006112565b61ffff1667ffffffffffffffff81111562004607577f4e487b7100000000000000000000000000000000000000000000000000000000600052604160045260246000fd5b604051908082528060200260200182016040528015620046365781602001602082028036833780820191505090505b50905060005b84846200464a919062006112565b61ffff168161ffff1610156200475f57600481866200466a919062006015565b61ffff1681548110620046a6577f4e487b7100000000000000000000000000000000000000000000000000000000600052603260045260246000fd5b9060005260206000200160009054906101000a900473ffffffffffffffffffffffffffffffffffffffff16828261ffff16815181106200470f577f4e487b7100000000000000000000000000000000000000000000000000000000600052603260045260246000fd5b602002602001019073ffffffffffffffffffffffffffffffffffffffff16908173ffffffffffffffffffffffffffffffffffffffff16815250508080620047569062006277565b9150506200463c565b508091505092915050565b7f000000000000000000000000000000000000000000000000000000000000000073ffffffffffffffffffffffffffffffffffffffff163373ffffffffffffffffffffffffffffffffffffffff161480620048125750600360009054906101000a900473ffffffffffffffffffffffffffffffffffffffff1673ffffffffffffffffffffffffffffffffffffffff163373ffffffffffffffffffffffffffffffffffffffff16145b62004854576040517f08c379a00000000000000000000000000000000000000000000000000000000081526004016200484b9062005d9a565b60405180910390fd5b60008290505b8161ffff168161ffff1610156200494c5760048161ffff1681548110620048aa577f4e487b7100000000000000000000000000000000000000000000000000000000600052603260045260246000fd5b9060005260206000200160009054906101000a900473ffffffffffffffffffffffffffffffffffffffff1673ffffffffffffffffffffffffffffffffffffffff1663ea37910b6040518163ffffffff1660e01b8152600401600060405180830381600087803b1580156200491d57600080fd5b505af115801562004932573d6000803e3d6000fd5b505050508080620049439062006277565b9150506200485a565b508061ffff168261ffff167f3eca778048babd6ce0638b5352aade1fca5e541e078ff2b331cb7245aa53e85f60405160405180910390a35050565b7f000000000000000000000000000000000000000000000000000000000000000073ffffffffffffffffffffffffffffffffffffffff163373ffffffffffffffffffffffffffffffffffffffff161462004a18576040517f08c379a000000000000000000000000000000000000000000000000000000000815260040162004a0f9062005e66565b60405180910390fd5b62004a24828262004b49565b505050565b6004818154811062004a3a57600080fd5b906000526020600020016000915054906101000a900473ffffffffffffffffffffffffffffffffffffffff1681565b600360009054906101000a900473ffffffffffffffffffffffffffffffffffffffff1681565b62004b148363a9059cbb60e01b848460405160240162004ab192919062005c4e565b604051602081830303815290604052907bffffffffffffffffffffffffffffffffffffffffffffffffffffffff19166020820180517bffffffffffffffffffffffffffffffffffffffffffffffffffffffff838183161783525050505062004b95565b505050565b606062004b41838360405180606001604052806027815260200162007bfb6027913962004c64565b905092915050565b606062004b8d83836040518060400160405280601e81526020017f416464726573733a206c6f772d6c6576656c2063616c6c206661696c6564000081525062004d3c565b905092915050565b600062004bf9826040518060400160405280602081526020017f5361666545524332303a206c6f772d6c6576656c2063616c6c206661696c65648152508573ffffffffffffffffffffffffffffffffffffffff1662004d3c9092919063ffffffff16565b905060008151111562004c5f578080602001905181019062004c1c9190620053a9565b62004c5e576040517f08c379a000000000000000000000000000000000000000000000000000000000815260040162004c559062005e44565b60405180910390fd5b5b505050565b606062004c718462004d56565b62004cb3576040517f08c379a000000000000000000000000000000000000000000000000000000000815260040162004caa9062005dde565b60405180910390fd5b6000808573ffffffffffffffffffffffffffffffffffffffff168560405162004cdd919062005ba7565b600060405180830381855af49150503d806000811462004d1a576040519150601f19603f3d011682016040523d82523d6000602084013e62004d1f565b606091505b509150915062004d3182828662004d69565b925050509392505050565b606062004d4d848460008562004dd5565b90509392505050565b600080823b905060008111915050919050565b6060831562004d7b5782905062004dce565b60008351111562004d8f5782518084602001fd5b816040517f08c379a000000000000000000000000000000000000000000000000000000000815260040162004dc5919062005ccc565b60405180910390fd5b9392505050565b60608247101562004e1d576040517f08c379a000000000000000000000000000000000000000000000000000000000815260040162004e149062005d34565b60405180910390fd5b62004e288562004d56565b62004e6a576040517f08c379a000000000000000000000000000000000000000000000000000000000815260040162004e619062005e00565b60405180910390fd5b6000808673ffffffffffffffffffffffffffffffffffffffff16858760405162004e95919062005ba7565b60006040518083038185875af1925050503d806000811462004ed4576040519150601f19603f3d011682016040523d82523d6000602084013e62004ed9565b606091505b509150915062004eeb82828662004d69565b92505050949350505050565b61180c80620063ef83390190565b604051806040016040528060008152602001600081525090565b604051806040016040528060008152602001600081525090565b82805482825590600052602060002090810192821562004fcb579160200282015b8281111562004fca57823573ffffffffffffffffffffffffffffffffffffffff168260006101000a81548173ffffffffffffffffffffffffffffffffffffffff021916908373ffffffffffffffffffffffffffffffffffffffff1602179055509160200191906001019062004f5a565b5b50905062004fda919062004fde565b5090565b5b8082111562004ff957600081600090555060010162004fdf565b5090565b6000620050146200500e8462005f4a565b62005f16565b9050828152602081018484840111156200502d57600080fd5b6200503a84828562006214565b509392505050565b600081359050620050538162006386565b92915050565b6000815190506200506a8162006386565b92915050565b60008083601f8401126200508357600080fd5b8235905067ffffffffffffffff8111156200509d57600080fd5b602083019150836020820283011115620050b657600080fd5b9250929050565b600081519050620050ce81620063a0565b92915050565b600082601f830112620050e657600080fd5b8135620050f884826020860162004ffd565b91505092915050565b6000604082840312156200511457600080fd5b62005120604062005f16565b905060006200513284828501620051d5565b60008301525060206200514884828501620051d5565b60208301525092915050565b6000604082840312156200516757600080fd5b62005173604062005f16565b905060006200518584828501620051d5565b60008301525060206200519b84828501620051d5565b60208301525092915050565b600081359050620051b881620063ba565b92915050565b600081359050620051cf81620063d4565b92915050565b600081519050620051e681620063d4565b92915050565b600060208284031215620051ff57600080fd5b60006200520f8482850162005042565b91505092915050565b6000602082840312156200522b57600080fd5b60006200523b8482850162005059565b91505092915050565b600080604083850312156200525857600080fd5b6000620052688582860162005042565b925050602083013567ffffffffffffffff8111156200528657600080fd5b6200529485828601620050d4565b9150509250929050565b600080600060608486031215620052b457600080fd5b6000620052c48682870162005042565b9350506020620052d786828701620051a7565b9250506040620052ea86828701620051a7565b9150509250925092565b600080600080608085870312156200530b57600080fd5b60006200531b8782880162005042565b94505060206200532e87828801620051a7565b93505060406200534187828801620051a7565b92505060606200535487828801620051a7565b91505092959194509250565b600080602083850312156200537457600080fd5b600083013567ffffffffffffffff8111156200538f57600080fd5b6200539d8582860162005070565b92509250509250929050565b600060208284031215620053bc57600080fd5b6000620053cc84828501620050bd565b91505092915050565b600060408284031215620053e857600080fd5b6000620053f88482850162005101565b91505092915050565b6000604082840312156200541457600080fd5b6000620054248482850162005154565b91505092915050565b6000602082840312156200544057600080fd5b60006200545084828501620051a7565b91505092915050565b600080604083850312156200546d57600080fd5b60006200547d85828601620051a7565b92505060206200549085828601620051a7565b9150509250929050565b600060208284031215620054ad57600080fd5b6000620054bd84828501620051be565b91505092915050565b600060208284031215620054d957600080fd5b6000620054e984828501620051d5565b91505092915050565b6000806000606084860312156200550857600080fd5b60006200551886828701620051be565b93505060206200552b86828701620051a7565b92505060406200553e86828701620051a7565b9150509250925092565b600080604083850312156200555c57600080fd5b60006200556c85828601620051be565b92505060206200557f85828601620051be565b9150509250929050565b6000620055978383620055a3565b60208301905092915050565b620055ae81620061a8565b82525050565b620055bf81620061a8565b82525050565b6000620055d28262005fa2565b620055de818562005fe8565b9350620055eb8362005f7d565b8060005b838110156200562257815162005606888262005589565b9750620056138362005fce565b925050600181019050620055ef565b5085935050505092915050565b60006200563c8262005fad565b62005648818562005fe8565b9350620056558362005f8d565b8060005b8381101562005695576200566d8262006353565b62005679888262005589565b9750620056868362005fdb565b92505060018101905062005659565b5085935050505092915050565b6000620056af8262005fb8565b620056bb818562005ff9565b9350620056cd81856020860162006223565b80840191505092915050565b620056e48162006200565b82525050565b6000620056f78262005fc3565b62005703818562006004565b93506200571581856020860162006223565b620057208162006368565b840191505092915050565b60006200573a601e8362006004565b91507f706174684964206578636565647320706174682061727261792073697a6500006000830152602082019050919050565b60006200577c60198362006004565b91507f696e76616c696420736d6172746368656620666163746f7279000000000000006000830152602082019050919050565b6000620057be60268362006004565b91507f416464726573733a20696e73756666696369656e742062616c616e636520666f60008301527f722063616c6c00000000000000000000000000000000000000000000000000006020830152604082019050919050565b600062005826601a8362006004565b91507f496e76616c6964207374617274206f7220656e6420696e6465780000000000006000830152602082019050919050565b60006200586860148362006004565b91507f496e73756666696369656e7420776f726b6572730000000000000000000000006000830152602082019050919050565b6000620058aa600a8362006004565b91507f72657374726963746564000000000000000000000000000000000000000000006000830152602082019050919050565b6000620058ec60298362006004565b91507f656e64496e6465782073686f756c6420626520626967676572207468616e207360008301527f74617274496e64657800000000000000000000000000000000000000000000006020830152604082019050919050565b60006200595460268362006004565b91507f416464726573733a2064656c65676174652063616c6c20746f206e6f6e2d636f60008301527f6e747261637400000000000000000000000000000000000000000000000000006020830152604082019050919050565b6000620059bc601d8362006004565b91507f416464726573733a2063616c6c20746f206e6f6e2d636f6e74726163740000006000830152602082019050919050565b6000620059fe60168362006004565b91507f696e76616c696420706f6f6c20636f64652068617368000000000000000000006000830152602082019050919050565b600062005a40602a8362006004565b91507f5361666545524332303a204552433230206f7065726174696f6e20646964206e60008301527f6f742073756363656564000000000000000000000000000000000000000000006020830152604082019050919050565b600062005aa860098362006004565b91507f6f6e6c794f776e657200000000000000000000000000000000000000000000006000830152602082019050919050565b600062005aea60228362006004565b91507f496e73756666696369656e742066756e647320666f7220616c6c20776f726b6560008301527f72730000000000000000000000000000000000000000000000000000000000006020830152604082019050919050565b600062005b5260188362006004565b91507f756e657870656374656420776f726b657220616d6f756e7400000000000000006000830152602082019050919050565b62005b9081620061c8565b82525050565b62005ba181620061f6565b82525050565b600062005bb58284620056a2565b915081905092915050565b600060208201905062005bd76000830184620055b4565b92915050565b600060608201905062005bf46000830186620055b4565b818103602083015262005c0881856200562f565b905062005c19604083018462005b96565b949350505050565b600060408201905062005c386000830185620055b4565b62005c476020830184620056d9565b9392505050565b600060408201905062005c656000830185620055b4565b62005c74602083018462005b96565b9392505050565b6000602082019050818103600083015262005c978184620055c5565b905092915050565b600060408201905062005cb66000830185620056d9565b62005cc56020830184620055b4565b9392505050565b6000602082019050818103600083015262005ce88184620056ea565b905092915050565b6000602082019050818103600083015262005d0b816200572b565b9050919050565b6000602082019050818103600083015262005d2d816200576d565b9050919050565b6000602082019050818103600083015262005d4f81620057af565b9050919050565b6000602082019050818103600083015262005d718162005817565b9050919050565b6000602082019050818103600083015262005d938162005859565b9050919050565b6000602082019050818103600083015262005db5816200589b565b9050919050565b6000602082019050818103600083015262005dd781620058dd565b9050919050565b6000602082019050818103600083015262005df98162005945565b9050919050565b6000602082019050818103600083015262005e1b81620059ad565b9050919050565b6000602082019050818103600083015262005e3d81620059ef565b9050919050565b6000602082019050818103600083015262005e5f8162005a31565b9050919050565b6000602082019050818103600083015262005e818162005a99565b9050919050565b6000602082019050818103600083015262005ea38162005adb565b9050919050565b6000602082019050818103600083015262005ec58162005b43565b9050919050565b600060408201905062005ee3600083018562005b85565b62005ef2602083018462005b85565b9392505050565b600060208201905062005f10600083018462005b96565b92915050565b6000604051905081810181811067ffffffffffffffff8211171562005f405762005f3f62006324565b5b8060405250919050565b600067ffffffffffffffff82111562005f685762005f6762006324565b5b601f19601f8301169050602081019050919050565b6000819050602082019050919050565b60008190508160005260206000209050919050565b600081519050919050565b600081549050919050565b600081519050919050565b600081519050919050565b6000602082019050919050565b6000600182019050919050565b600082825260208201905092915050565b600081905092915050565b600082825260208201905092915050565b60006200602282620061c8565b91506200602f83620061c8565b92508261ffff03821115620060495762006048620062f5565b5b828201905092915050565b60006200606182620061f6565b91506200606e83620061f6565b9250827fffffffffffffffffffffffffffffffffffffffffffffffffffffffffffffffff03821115620060a657620060a5620062f5565b5b828201905092915050565b6000620060be82620061f6565b9150620060cb83620061f6565b9250817fffffffffffffffffffffffffffffffffffffffffffffffffffffffffffffffff0483118215151615620061075762006106620062f5565b5b828202905092915050565b60006200611f82620061c8565b91506200612c83620061c8565b925082821015620061425762006141620062f5565b5b828203905092915050565b60006200615a82620061f6565b91506200616783620061f6565b9250828210156200617d576200617c620062f5565b5b828203905092915050565b600073ffffffffffffffffffffffffffffffffffffffff82169050919050565b6000620061b582620061d6565b9050919050565b60008115159050919050565b600061ffff82169050919050565b600073ffffffffffffffffffffffffffffffffffffffff82169050919050565b6000819050919050565b60006200620d82620061f6565b9050919050565b82818337600083830152505050565b60005b838110156200624357808201518184015260208101905062006226565b8381111562006253576000848401525b50505050565b6000620062706200626a8362006379565b62006188565b9050919050565b60006200628482620061c8565b915061ffff8214156200629c576200629b620062f5565b5b600182019050919050565b6000620062b482620061f6565b91507fffffffffffffffffffffffffffffffffffffffffffffffffffffffffffffffff821415620062ea57620062e9620062f5565b5b600182019050919050565b7f4e487b7100000000000000000000000000000000000000000000000000000000600052601160045260246000fd5b7f4e487b7100000000000000000000000000000000000000000000000000000000600052604160045260246000fd5b600062006361825462006259565b9050919050565b6000601f19601f8301169050919050565b60008160001c9050919050565b6200639181620061a8565b81146200639d57600080fd5b50565b620063ab81620061bc565b8114620063b757600080fd5b50565b620063c581620061c8565b8114620063d157600080fd5b50565b620063df81620061f6565b8114620063eb57600080fd5b5056fe60a0604052730e09fabb73bd3ade0a17ecc321fd13a19e81ce826000806101000a81548173ffffffffffffffffffffffffffffffffffffffff021916908373ffffffffffffffffffffffffffffffffffffffff1602179055507373feaa1ee314f8c655e354234017be2193c9e24e600160006101000a81548173ffffffffffffffffffffffffffffffffffffffff021916908373ffffffffffffffffffffffffffffffffffffffff16021790555073927158be21fe3d4da7e96931bb27fd5059a8cbc2600260006101000a81548173ffffffffffffffffffffffffffffffffffffffff021916908373ffffffffffffffffffffffffffffffffffffffff1602179055507310ed43c718714eb63d5aa57b78b54704e256024e600360006101000a81548173ffffffffffffffffffffffffffffffffffffffff021916908373ffffffffffffffffffffffffffffffffffffffff16021790555061038460045534801561016957600080fd5b503373ffffffffffffffffffffffffffffffffffffffff1660808173ffffffffffffffffffffffffffffffffffffffff1660601b8152505060805160601c61161c6101f060003960008181610138015281816102350152818161044601528181610543015281816106ee01528181610899015281816108bd01526109fc015261161c6000f3fe608060405234801561001057600080fd5b506004361061007d5760003560e01c80636be6589b1161005b5780636be6589b146100d657806379829eb6146100f25780638da5cb5b1461010e578063ea37910b1461012c5761007d565b80630296fd3b146100825780632e449e9b1461009e578063575a08a1146100ba575b600080fd5b61009c60048036038101906100979190610ef8565b610136565b005b6100b860048036038101906100b39190610e8c565b610233565b005b6100d460048036038101906100cf9190610ef8565b610444565b005b6100f060048036038101906100eb9190610ef8565b610541565b005b61010c60048036038101906101079190610ef8565b6106ec565b005b610116610897565b6040516101239190611236565b60405180910390f35b6101346108bb565b005b7f000000000000000000000000000000000000000000000000000000000000000073ffffffffffffffffffffffffffffffffffffffff163373ffffffffffffffffffffffffffffffffffffffff16146101c4576040517f08c379a00000000000000000000000000000000000000000000000000000000081526004016101bb906112fc565b60405180910390fd5b8173ffffffffffffffffffffffffffffffffffffffff16632e1a7d4d826040518263ffffffff1660e01b81526004016101fd919061131c565b600060405180830381600087803b15801561021757600080fd5b505af115801561022b573d6000803e3d6000fd5b505050505050565b7f000000000000000000000000000000000000000000000000000000000000000073ffffffffffffffffffffffffffffffffffffffff163373ffffffffffffffffffffffffffffffffffffffff16146102c1576040517f08c379a00000000000000000000000000000000000000000000000000000000081526004016102b8906112fc565b60405180910390fd5b60008473ffffffffffffffffffffffffffffffffffffffff1663095ea7b3600360009054906101000a900473ffffffffffffffffffffffffffffffffffffffff16846040518363ffffffff1660e01b8152600401610320929190611251565b602060405180830381600087803b15801561033a57600080fd5b505af115801561034e573d6000803e3d6000fd5b505050506040513d601f19601f820116820180604052508101906103729190610f75565b50600360009054906101000a900473ffffffffffffffffffffffffffffffffffffffff1673ffffffffffffffffffffffffffffffffffffffff166338ed17398383878730600454426103c49190611461565b6040518763ffffffff1660e01b81526004016103e596959493929190611337565b600060405180830381600087803b1580156103ff57600080fd5b505af1158015610413573d6000803e3d6000fd5b505050506040513d6000823e3d601f19601f8201168201806040525081019061043c9190610f34565b505050505050565b7f000000000000000000000000000000000000000000000000000000000000000073ffffffffffffffffffffffffffffffffffffffff163373ffffffffffffffffffffffffffffffffffffffff16146104d2576040517f08c379a00000000000000000000000000000000000000000000000000000000081526004016104c9906112fc565b60405180910390fd5b8173ffffffffffffffffffffffffffffffffffffffff16631058d281826040518263ffffffff1660e01b815260040161050b919061131c565b600060405180830381600087803b15801561052557600080fd5b505af1158015610539573d6000803e3d6000fd5b505050505050565b7f000000000000000000000000000000000000000000000000000000000000000073ffffffffffffffffffffffffffffffffffffffff163373ffffffffffffffffffffffffffffffffffffffff16146105cf576040517f08c379a00000000000000000000000000000000000000000000000000000000081526004016105c6906112fc565b60405180910390fd5b60008054906101000a900473ffffffffffffffffffffffffffffffffffffffff1673ffffffffffffffffffffffffffffffffffffffff1663095ea7b383836040518363ffffffff1660e01b815260040161062a929190611251565b602060405180830381600087803b15801561064457600080fd5b505af1158015610658573d6000803e3d6000fd5b505050506040513d601f19601f8201168201806040525081019061067c9190610f75565b508173ffffffffffffffffffffffffffffffffffffffff1663b6b55f25826040518263ffffffff1660e01b81526004016106b6919061131c565b600060405180830381600087803b1580156106d057600080fd5b505af11580156106e4573d6000803e3d6000fd5b505050505050565b7f000000000000000000000000000000000000000000000000000000000000000073ffffffffffffffffffffffffffffffffffffffff163373ffffffffffffffffffffffffffffffffffffffff161461077a576040517f08c379a0000000000000000000000000000000000000000000000000000000008152600401610771906112fc565b60405180910390fd5b60008054906101000a900473ffffffffffffffffffffffffffffffffffffffff1673ffffffffffffffffffffffffffffffffffffffff1663095ea7b383836040518363ffffffff1660e01b81526004016107d5929190611251565b602060405180830381600087803b1580156107ef57600080fd5b505af1158015610803573d6000803e3d6000fd5b505050506040513d601f19601f820116820180604052508101906108279190610f75565b508173ffffffffffffffffffffffffffffffffffffffff166341441d3b826040518263ffffffff1660e01b8152600401610861919061131c565b600060405180830381600087803b15801561087b57600080fd5b505af115801561088f573d6000803e3d6000fd5b505050505050565b7f000000000000000000000000000000000000000000000000000000000000000081565b7f000000000000000000000000000000000000000000000000000000000000000073ffffffffffffffffffffffffffffffffffffffff163373ffffffffffffffffffffffffffffffffffffffff1614610949576040517f08c379a0000000000000000000000000000000000000000000000000000000008152600401610940906112fc565b60405180910390fd5b60008060009054906101000a900473ffffffffffffffffffffffffffffffffffffffff1673ffffffffffffffffffffffffffffffffffffffff166370a08231306040518263ffffffff1660e01b81526004016109a59190611236565b60206040518083038186803b1580156109bd57600080fd5b505afa1580156109d1573d6000803e3d6000fd5b505050506040513d601f19601f820116820180604052508101906109f59190610f9e565b9050610a627f00000000000000000000000000000000000000000000000000000000000000008260008054906101000a900473ffffffffffffffffffffffffffffffffffffffff1673ffffffffffffffffffffffffffffffffffffffff16610a659092919063ffffffff16565b50565b610ae68363a9059cbb60e01b8484604051602401610a84929190611251565b604051602081830303815290604052907bffffffffffffffffffffffffffffffffffffffffffffffffffffffff19166020820180517bffffffffffffffffffffffffffffffffffffffffffffffffffffffff8381831617835250505050610aeb565b505050565b6000610b4d826040518060400160405280602081526020017f5361666545524332303a206c6f772d6c6576656c2063616c6c206661696c65648152508573ffffffffffffffffffffffffffffffffffffffff16610bb29092919063ffffffff16565b9050600081511115610bad5780806020019051810190610b6d9190610f75565b610bac576040517f08c379a0000000000000000000000000000000000000000000000000000000008152600401610ba3906112dc565b60405180910390fd5b5b505050565b6060610bc18484600085610bca565b90509392505050565b606082471015610c0f576040517f08c379a0000000000000000000000000000000000000000000000000000000008152600401610c069061129c565b60405180910390fd5b610c1885610cde565b610c57576040517f08c379a0000000000000000000000000000000000000000000000000000000008152600401610c4e906112bc565b60405180910390fd5b6000808673ffffffffffffffffffffffffffffffffffffffff168587604051610c80919061121f565b60006040518083038185875af1925050503d8060008114610cbd576040519150601f19603f3d011682016040523d82523d6000602084013e610cc2565b606091505b5091509150610cd2828286610cf1565b92505050949350505050565b600080823b905060008111915050919050565b60608315610d0157829050610d51565b600083511115610d145782518084602001fd5b816040517f08c379a0000000000000000000000000000000000000000000000000000000008152600401610d48919061127a565b60405180910390fd5b9392505050565b6000610d6b610d66846113c4565b611393565b90508083825260208201905082856020860282011115610d8a57600080fd5b60005b85811015610dba5781610da08882610e77565b845260208401935060208301925050600181019050610d8d565b5050509392505050565b600081359050610dd3816115a1565b92915050565b60008083601f840112610deb57600080fd5b8235905067ffffffffffffffff811115610e0457600080fd5b602083019150836020820283011115610e1c57600080fd5b9250929050565b600082601f830112610e3457600080fd5b8151610e44848260208601610d58565b91505092915050565b600081519050610e5c816115b8565b92915050565b600081359050610e71816115cf565b92915050565b600081519050610e86816115cf565b92915050565b60008060008060608587031215610ea257600080fd5b6000610eb087828801610dc4565b945050602085013567ffffffffffffffff811115610ecd57600080fd5b610ed987828801610dd9565b93509350506040610eec87828801610e62565b91505092959194509250565b60008060408385031215610f0b57600080fd5b6000610f1985828601610dc4565b9250506020610f2a85828601610e62565b9150509250929050565b600060208284031215610f4657600080fd5b600082015167ffffffffffffffff811115610f6057600080fd5b610f6c84828501610e23565b91505092915050565b600060208284031215610f8757600080fd5b6000610f9584828501610e4d565b91505092915050565b600060208284031215610fb057600080fd5b6000610fbe84828501610e77565b91505092915050565b6000610fd38383610fdf565b60208301905092915050565b610fe8816114b7565b82525050565b610ff7816114b7565b82525050565b6000611009838561141d565b9350611014826113f0565b8060005b8581101561104d5761102a828461144a565b6110348882610fc7565b975061103f83611410565b925050600181019050611018565b5085925050509392505050565b6000611065826113fa565b61106f818561142e565b935061107f8185602086016114ff565b80840191505092915050565b600061109682611405565b6110a08185611439565b93506110b08185602086016114ff565b6110b981611590565b840191505092915050565b60006110d1602683611439565b91507f416464726573733a20696e73756666696369656e742062616c616e636520666f60008301527f722063616c6c00000000000000000000000000000000000000000000000000006020830152604082019050919050565b6000611137601d83611439565b91507f416464726573733a2063616c6c20746f206e6f6e2d636f6e74726163740000006000830152602082019050919050565b6000611177602a83611439565b91507f5361666545524332303a204552433230206f7065726174696f6e20646964206e60008301527f6f742073756363656564000000000000000000000000000000000000000000006020830152604082019050919050565b60006111dd600983611439565b91507f6f6e6c794f776e657200000000000000000000000000000000000000000000006000830152602082019050919050565b611219816114f5565b82525050565b600061122b828461105a565b915081905092915050565b600060208201905061124b6000830184610fee565b92915050565b60006040820190506112666000830185610fee565b6112736020830184611210565b9392505050565b60006020820190508181036000830152611294818461108b565b905092915050565b600060208201905081810360008301526112b5816110c4565b9050919050565b600060208201905081810360008301526112d58161112a565b9050919050565b600060208201905081810360008301526112f58161116a565b9050919050565b60006020820190508181036000830152611315816111d0565b9050919050565b60006020820190506113316000830184611210565b92915050565b600060a08201905061134c6000830189611210565b6113596020830188611210565b818103604083015261136c818688610ffd565b905061137b6060830185610fee565b6113886080830184611210565b979650505050505050565b6000604051905081810181811067ffffffffffffffff821117156113ba576113b9611561565b5b8060405250919050565b600067ffffffffffffffff8211156113df576113de611561565b5b602082029050602081019050919050565b6000819050919050565b600081519050919050565b600081519050919050565b6000602082019050919050565b600082825260208201905092915050565b600081905092915050565b600082825260208201905092915050565b60006114596020840184610dc4565b905092915050565b600061146c826114f5565b9150611477836114f5565b9250827fffffffffffffffffffffffffffffffffffffffffffffffffffffffffffffffff038211156114ac576114ab611532565b5b828201905092915050565b60006114c2826114d5565b9050919050565b60008115159050919050565b600073ffffffffffffffffffffffffffffffffffffffff82169050919050565b6000819050919050565b60005b8381101561151d578082015181840152602081019050611502565b8381111561152c576000848401525b50505050565b7f4e487b7100000000000000000000000000000000000000000000000000000000600052601160045260246000fd5b7f4e487b7100000000000000000000000000000000000000000000000000000000600052604160045260246000fd5b6000601f19601f8301169050919050565b6115aa816114b7565b81146115b557600080fd5b50565b6115c1816114c9565b81146115cc57600080fd5b50565b6115d8816114f5565b81146115e357600080fd5b5056fea2646970667358221220634509507de0e9f9b20f5b62a112c7bb48988b692ebccc7e6964c9dedfa1febb64736f6c63430008000033416464726573733a206c6f772d6c6576656c2064656c65676174652063616c6c206661696c6564a26469706673582212209c03b3d11366d95ca794e24d6e55b60927ccac8c3629b05194001838a853d50d64736f6c63430008000033",
  "linkReferences": {},
  "deployedLinkReferences": {}
}