{
  "_format": "hh-sol-artifact-1",
  "contractName": "Manager",
  "sourceName": "contracts/Manager.sol",
  "abi": [
    {
      "inputs": [
        {
          "internalType": "address",
          "name": "_owner",
          "type": "address"
        },
        {
          "internalType": "address",
          "name": "_admin",
          "type": "address"
        }
      ],
      "stateMutability": "nonpayable",
      "type": "constructor"
    },
    {
      "anonymous": false,
      "inputs": [
        {
          "indexed": false,
          "internalType": "uint16",
          "name": "startIndex",
          "type": "uint16"
        },
        {
          "indexed": false,
          "internalType": "uint16",
          "name": "endIndex",
          "type": "uint16"
        },
        {
          "indexed": true,
          "internalType": "address",
          "name": "stakedPoolAddr",
          "type": "address"
        },
        {
          "indexed": true,
          "internalType": "address",
          "name": "newPoolAddr",
          "type": "address"
        }
      ],
      "name": "DoHardWork",
      "type": "event"
    },
    {
      "anonymous": false,
      "inputs": [
        {
          "indexed": false,
          "internalType": "address",
          "name": "newAdmin",
          "type": "address"
        }
      ],
      "name": "SetAdmin",
      "type": "event"
    },
    {
      "anonymous": false,
      "inputs": [
        {
          "indexed": true,
          "internalType": "uint16",
          "name": "startIndex",
          "type": "uint16"
        },
        {
          "indexed": true,
          "internalType": "uint16",
          "name": "endIndex",
          "type": "uint16"
        },
        {
          "indexed": true,
          "internalType": "address",
          "name": "token",
          "type": "address"
        }
      ],
      "name": "TransferToManager",
      "type": "event"
    },
    {
      "anonymous": false,
      "inputs": [
        {
          "indexed": false,
          "internalType": "uint256",
          "name": "amount",
          "type": "uint256"
        }
      ],
      "name": "TransferToOwner",
      "type": "event"
    },
    {
      "anonymous": false,
      "inputs": [
        {
          "indexed": false,
          "internalType": "uint16",
          "name": "startIndex",
          "type": "uint16"
        },
        {
          "indexed": false,
          "internalType": "uint16",
          "name": "endIndex",
          "type": "uint16"
        },
        {
          "indexed": true,
          "internalType": "uint256",
          "name": "amount",
          "type": "uint256"
        },
        {
          "indexed": true,
          "internalType": "address",
          "name": "stakedToken",
          "type": "address"
        }
      ],
      "name": "TransferToWorkers",
      "type": "event"
    },
    {
      "anonymous": false,
      "inputs": [
        {
          "indexed": false,
          "internalType": "uint256",
          "name": "nWorkers",
          "type": "uint256"
        }
      ],
      "name": "WorkersAdded",
      "type": "event"
    },
    {
      "inputs": [
        {
          "internalType": "uint16",
          "name": "numWorkersToAdd",
          "type": "uint16"
        }
      ],
      "name": "addWorkers",
      "outputs": [],
      "stateMutability": "nonpayable",
      "type": "function"
    },
    {
      "inputs": [],
      "name": "admin",
      "outputs": [
        {
          "internalType": "address",
          "name": "",
          "type": "address"
        }
      ],
      "stateMutability": "view",
      "type": "function"
    },
    {
      "inputs": [
        {
          "components": [
            {
              "internalType": "bool",
              "name": "withdraw",
              "type": "bool"
            },
            {
              "internalType": "bool",
              "name": "swap",
              "type": "bool"
            },
            {
              "internalType": "bool",
              "name": "deposit",
              "type": "bool"
            },
            {
              "internalType": "address",
              "name": "stakedPoolAddr",
              "type": "address"
            },
            {
              "internalType": "address",
              "name": "newPoolAddr",
              "type": "address"
            },
            {
              "internalType": "uint256",
              "name": "amount",
              "type": "uint256"
            },
            {
              "internalType": "uint16",
              "name": "startIndex",
              "type": "uint16"
            },
            {
              "internalType": "uint16",
              "name": "endIndex",
              "type": "uint16"
            },
            {
              "components": [
                {
                  "internalType": "address",
                  "name": "swapRouter",
                  "type": "address"
                },
                {
                  "internalType": "uint256",
                  "name": "multiplier",
                  "type": "uint256"
                },
                {
                  "internalType": "address[]",
                  "name": "path",
                  "type": "address[]"
                },
                {
                  "internalType": "uint256",
                  "name": "deadline",
                  "type": "uint256"
                }
              ],
              "internalType": "struct IWorker.SwapParams",
              "name": "swapParams",
              "type": "tuple"
            }
          ],
          "internalType": "struct IWorker.DoHardWorkParams",
          "name": "params",
          "type": "tuple"
        }
      ],
      "name": "doHardWork",
      "outputs": [],
      "stateMutability": "nonpayable",
      "type": "function"
    },
    {
      "inputs": [
        {
          "internalType": "address",
          "name": "target",
          "type": "address"
        },
        {
          "internalType": "bytes",
          "name": "data",
          "type": "bytes"
        }
      ],
      "name": "emergencyFunctionCall",
      "outputs": [],
      "stateMutability": "nonpayable",
      "type": "function"
    },
    {
      "inputs": [
        {
          "internalType": "address",
          "name": "target",
          "type": "address"
        },
        {
          "internalType": "bytes",
          "name": "data",
          "type": "bytes"
        }
      ],
      "name": "emergencyFunctionDelegateCall",
      "outputs": [],
      "stateMutability": "nonpayable",
      "type": "function"
    },
    {
      "inputs": [],
      "name": "getNWorkers",
      "outputs": [
        {
          "internalType": "uint256",
          "name": "",
          "type": "uint256"
        }
      ],
      "stateMutability": "view",
      "type": "function"
    },
    {
      "inputs": [
        {
          "internalType": "uint16",
          "name": "startIndex",
          "type": "uint16"
        },
        {
          "internalType": "uint16",
          "name": "endIndex",
          "type": "uint16"
        }
      ],
      "name": "getWorkers",
      "outputs": [
        {
          "internalType": "address[]",
          "name": "",
          "type": "address[]"
        }
      ],
      "stateMutability": "view",
      "type": "function"
    },
    {
      "inputs": [],
      "name": "owner",
      "outputs": [
        {
          "internalType": "address",
          "name": "",
          "type": "address"
        }
      ],
      "stateMutability": "view",
      "type": "function"
    },
    {
      "inputs": [
        {
          "internalType": "address",
          "name": "newAdmin",
          "type": "address"
        }
      ],
      "name": "setAdmin",
      "outputs": [],
      "stateMutability": "nonpayable",
      "type": "function"
    },
    {
      "inputs": [
        {
          "components": [
            {
              "internalType": "address",
              "name": "token",
              "type": "address"
            },
            {
              "internalType": "uint256",
              "name": "amount",
              "type": "uint256"
            },
            {
              "internalType": "uint16",
              "name": "startIndex",
              "type": "uint16"
            },
            {
              "internalType": "uint16",
              "name": "endIndex",
              "type": "uint16"
            }
          ],
          "internalType": "struct IWorker.TransferMngParams",
          "name": "params",
          "type": "tuple"
        }
      ],
      "name": "transferToManager",
      "outputs": [],
      "stateMutability": "nonpayable",
      "type": "function"
    },
    {
      "inputs": [
        {
          "internalType": "address",
          "name": "stakedToken",
          "type": "address"
        }
      ],
      "name": "transferToOwner",
      "outputs": [],
      "stateMutability": "nonpayable",
      "type": "function"
    },
    {
      "inputs": [
        {
          "components": [
            {
              "internalType": "address",
              "name": "stakedToken",
              "type": "address"
            },
            {
              "internalType": "uint256",
              "name": "amount",
              "type": "uint256"
            },
            {
              "internalType": "uint16",
              "name": "startIndex",
              "type": "uint16"
            },
            {
              "internalType": "uint16",
              "name": "endIndex",
              "type": "uint16"
            }
          ],
          "internalType": "struct IWorker.TransferWorkersParams",
          "name": "params",
          "type": "tuple"
        }
      ],
      "name": "transferToWorkers",
      "outputs": [],
      "stateMutability": "nonpayable",
      "type": "function"
    },
    {
      "inputs": [
        {
          "internalType": "uint256",
          "name": "",
          "type": "uint256"
        }
      ],
      "name": "workers",
      "outputs": [
        {
          "internalType": "address",
          "name": "",
          "type": "address"
        }
      ],
      "stateMutability": "view",
      "type": "function"
    }
  ],
  "bytecode": "0x60a06040523480156200001157600080fd5b50604051620050ca380380620050ca8339818101604052810190620000379190620000d6565b60016000819055508173ffffffffffffffffffffffffffffffffffffffff1660808173ffffffffffffffffffffffffffffffffffffffff1660601b8152505080600160006101000a81548173ffffffffffffffffffffffffffffffffffffffff021916908373ffffffffffffffffffffffffffffffffffffffff160217905550505062000165565b600081519050620000d0816200014b565b92915050565b60008060408385031215620000ea57600080fd5b6000620000fa85828601620000bf565b92505060206200010d85828601620000bf565b9150509250929050565b600062000124826200012b565b9050919050565b600073ffffffffffffffffffffffffffffffffffffffff82169050919050565b620001568162000117565b81146200016257600080fd5b50565b60805160601c614f07620001c3600039600081816102bb0152818161036a015281816105700152818161067e015281816107ff01528181610885015281816108a901528181610dd50152818161109301526115f70152614f076000f3fe60806040523480156200001157600080fd5b5060043610620000e25760003560e01c8063a2fa1c971162000099578063d168c57e116200006f578063d168c57e1462000221578063e78d73ad1462000241578063f1a22dc21462000261578063f851a440146200029757620000e2565b8063a2fa1c9714620001ab578063b91f8b3614620001cb578063cfc3c2c3146200020157620000e2565b80632ab0aabb14620000e75780634257ecb214620001075780635e3792f71462000129578063704b6c021462000149578063812d504d14620001695780638da5cb5b1462000189575b600080fd5b620001056004803603810190620000ff919062001d08565b620002b9565b005b620001116200035b565b604051620001209190620027aa565b60405180910390f35b62000147600480360381019062000141919062001e2b565b62000368565b005b62000167600480360381019062000161919062001cdc565b6200056e565b005b62000187600480360381019062000181919062001cdc565b6200067c565b005b6200019362000883565b604051620001a2919062002595565b60405180910390f35b620001c96004803603810190620001c3919062001d8e565b620008a7565b005b620001e96004803603810190620001e3919062001e57565b62000c1a565b604051620001f89190620025df565b60405180910390f35b6200021f600480360381019062000219919062001dd3565b62000dd3565b005b6200023f600480360381019062000239919062001dff565b62001091565b005b6200025f600480360381019062000259919062001d08565b620015f5565b005b6200027f600480360381019062000279919062001e98565b62001697565b6040516200028e919062002595565b60405180910390f35b620002a1620016d7565b604051620002b0919062002595565b60405180910390f35b7f000000000000000000000000000000000000000000000000000000000000000073ffffffffffffffffffffffffffffffffffffffff163373ffffffffffffffffffffffffffffffffffffffff16146200034a576040517f08c379a0000000000000000000000000000000000000000000000000000000008152600401620003419062002715565b60405180910390fd5b620003568282620016fd565b505050565b6000600280549050905090565b7f000000000000000000000000000000000000000000000000000000000000000073ffffffffffffffffffffffffffffffffffffffff163373ffffffffffffffffffffffffffffffffffffffff161480620004105750600160009054906101000a900473ffffffffffffffffffffffffffffffffffffffff1673ffffffffffffffffffffffffffffffffffffffff163373ffffffffffffffffffffffffffffffffffffffff16145b62000452576040517f08c379a000000000000000000000000000000000000000000000000000000000815260040162000449906200268d565b60405180910390fd5b60008161ffff166002805490506200046b919062002a10565b9050600060028054905090505b818110156200052b576000604051620004919062001b7d565b604051809103906000f080158015620004ae573d6000803e3d6000fd5b5090506002819080600181540180825580915050600190039060005260206000200160009091909190916101000a81548173ffffffffffffffffffffffffffffffffffffffff021916908373ffffffffffffffffffffffffffffffffffffffff160217905550508080620005229062002c11565b91505062000478565b507f3ea8142895fe7d4af1f88d8b1d563937502baceb3254aa0e2bed1a348bd5228f600280549050604051620005629190620027aa565b60405180910390a15050565b7f000000000000000000000000000000000000000000000000000000000000000073ffffffffffffffffffffffffffffffffffffffff163373ffffffffffffffffffffffffffffffffffffffff1614620005ff576040517f08c379a0000000000000000000000000000000000000000000000000000000008152600401620005f69062002715565b60405180910390fd5b80600160006101000a81548173ffffffffffffffffffffffffffffffffffffffff021916908373ffffffffffffffffffffffffffffffffffffffff1602179055507f5a272403b402d892977df56625f4164ccaf70ca3863991c43ecfe76a6905b0a18160405162000671919062002595565b60405180910390a150565b7f000000000000000000000000000000000000000000000000000000000000000073ffffffffffffffffffffffffffffffffffffffff163373ffffffffffffffffffffffffffffffffffffffff161480620007245750600160009054906101000a900473ffffffffffffffffffffffffffffffffffffffff1673ffffffffffffffffffffffffffffffffffffffff163373ffffffffffffffffffffffffffffffffffffffff16145b62000766576040517f08c379a00000000000000000000000000000000000000000000000000000000081526004016200075d906200268d565b60405180910390fd5b60008173ffffffffffffffffffffffffffffffffffffffff166370a08231306040518263ffffffff1660e01b8152600401620007a3919062002595565b60206040518083038186803b158015620007bc57600080fd5b505afa158015620007d1573d6000803e3d6000fd5b505050506040513d601f19601f82011682018060405250810190620007f7919062001ec4565b9050620008467f0000000000000000000000000000000000000000000000000000000000000000828473ffffffffffffffffffffffffffffffffffffffff166200172d9092919063ffffffff16565b7fb91557f3050411a13a7e7631fe8461fcd94ec09d9a2b122e22e0b294998053c681604051620008779190620027aa565b60405180910390a15050565b7f000000000000000000000000000000000000000000000000000000000000000081565b7f000000000000000000000000000000000000000000000000000000000000000073ffffffffffffffffffffffffffffffffffffffff163373ffffffffffffffffffffffffffffffffffffffff1614806200094f5750600160009054906101000a900473ffffffffffffffffffffffffffffffffffffffff1673ffffffffffffffffffffffffffffffffffffffff163373ffffffffffffffffffffffffffffffffffffffff16145b62000991576040517f08c379a000000000000000000000000000000000000000000000000000000000815260040162000988906200268d565b60405180910390fd5b6002805490508160e0016020810190620009ac919062001e2b565b61ffff1611158015620009ee57508060e0016020810190620009cf919062001e2b565b61ffff168160c0016020810190620009e8919062001e2b565b61ffff16105b62000a30576040517f08c379a000000000000000000000000000000000000000000000000000000000815260040162000a279062002649565b60405180910390fd5b60008160c001602081019062000a47919062001e2b565b90505b8160e001602081019062000a5f919062001e2b565b61ffff168161ffff16101562000b5d5760028161ffff168154811062000aae577f4e487b7100000000000000000000000000000000000000000000000000000000600052603260045260246000fd5b9060005260206000200160009054906101000a900473ffffffffffffffffffffffffffffffffffffffff1673ffffffffffffffffffffffffffffffffffffffff1663a2fa1c97836040518263ffffffff1660e01b815260040162000b13919062002759565b600060405180830381600087803b15801562000b2e57600080fd5b505af115801562000b43573d6000803e3d6000fd5b50505050808062000b549062002be1565b91505062000a4a565b5080608001602081019062000b73919062001cdc565b73ffffffffffffffffffffffffffffffffffffffff1681606001602081019062000b9e919062001cdc565b73ffffffffffffffffffffffffffffffffffffffff167f9f3c88b323348c5ee87096b2747ad98604a8c1088ecc8a7c24df8f5347acbf268360c001602081019062000bea919062001e2b565b8460e001602081019062000bff919062001e2b565b60405162000c0f9291906200277d565b60405180910390a350565b60606000838362000c2c919062002ace565b61ffff1667ffffffffffffffff81111562000c70577f4e487b7100000000000000000000000000000000000000000000000000000000600052604160045260246000fd5b60405190808252806020026020018201604052801562000c9f5781602001602082028036833780820191505090505b50905060005b848462000cb3919062002ace565b61ffff168161ffff16101562000dc8576002818662000cd39190620029d1565b61ffff168154811062000d0f577f4e487b7100000000000000000000000000000000000000000000000000000000600052603260045260246000fd5b9060005260206000200160009054906101000a900473ffffffffffffffffffffffffffffffffffffffff16828261ffff168151811062000d78577f4e487b7100000000000000000000000000000000000000000000000000000000600052603260045260246000fd5b602002602001019073ffffffffffffffffffffffffffffffffffffffff16908173ffffffffffffffffffffffffffffffffffffffff1681525050808062000dbf9062002be1565b91505062000ca5565b508091505092915050565b7f000000000000000000000000000000000000000000000000000000000000000073ffffffffffffffffffffffffffffffffffffffff163373ffffffffffffffffffffffffffffffffffffffff16148062000e7b5750600160009054906101000a900473ffffffffffffffffffffffffffffffffffffffff1673ffffffffffffffffffffffffffffffffffffffff163373ffffffffffffffffffffffffffffffffffffffff16145b62000ebd576040517f08c379a000000000000000000000000000000000000000000000000000000000815260040162000eb4906200268d565b60405180910390fd5b600081604001602081019062000ed4919062001e2b565b90505b81606001602081019062000eec919062001e2b565b61ffff168161ffff161015620010045760028161ffff168154811062000f3b577f4e487b7100000000000000000000000000000000000000000000000000000000600052603260045260246000fd5b9060005260206000200160009054906101000a900473ffffffffffffffffffffffffffffffffffffffff1673ffffffffffffffffffffffffffffffffffffffff1663a5d34343836020013584600001602081019062000f9b919062001cdc565b6040518363ffffffff1660e01b815260040162000fba929190620027c7565b600060405180830381600087803b15801562000fd557600080fd5b505af115801562000fea573d6000803e3d6000fd5b50505050808062000ffb9062002be1565b91505062000ed7565b508060000160208101906200101a919062001cdc565b73ffffffffffffffffffffffffffffffffffffffff1681606001602081019062001045919062001e2b565b61ffff168260400160208101906200105e919062001e2b565b61ffff167f2e52f7960fcea0183dbb2c49529001dfec948638381267363c47e2180cfc664360405160405180910390a450565b7f000000000000000000000000000000000000000000000000000000000000000073ffffffffffffffffffffffffffffffffffffffff163373ffffffffffffffffffffffffffffffffffffffff161480620011395750600160009054906101000a900473ffffffffffffffffffffffffffffffffffffffff1673ffffffffffffffffffffffffffffffffffffffff163373ffffffffffffffffffffffffffffffffffffffff16145b6200117b576040517f08c379a000000000000000000000000000000000000000000000000000000000815260040162001172906200268d565b60405180910390fd5b60008082600001602081019062001193919062001cdc565b73ffffffffffffffffffffffffffffffffffffffff166370a08231306040518263ffffffff1660e01b8152600401620011cd919062002595565b60206040518083038186803b158015620011e657600080fd5b505afa158015620011fb573d6000803e3d6000fd5b505050506040513d601f19601f8201168201806040525081019062001221919062001ec4565b905082604001602081019062001238919062001e2b565b8360600160208101906200124d919062001e2b565b62001259919062002ace565b61ffff166002805490501015620012a7576040517f08c379a00000000000000000000000000000000000000000000000000000000081526004016200129e906200266b565b60405180910390fd5b80836040016020810190620012bd919062001e2b565b846060016020810190620012d2919062001e2b565b620012de919062002ace565b61ffff168460200135620012f3919062002a6d565b111562001337576040517f08c379a00000000000000000000000000000000000000000000000000000000081526004016200132e9062002737565b60405180910390fd5b60008360400160208101906200134e919062001e2b565b90505b83606001602081019062001366919062001e2b565b61ffff168161ffff1610156200155c576200149a8460000160208101906200138f919062001cdc565b73ffffffffffffffffffffffffffffffffffffffff166370a0823160028461ffff1681548110620013e9577f4e487b7100000000000000000000000000000000000000000000000000000000600052603260045260246000fd5b9060005260206000200160009054906101000a900473ffffffffffffffffffffffffffffffffffffffff166040518263ffffffff1660e01b815260040162001432919062002595565b60206040518083038186803b1580156200144b57600080fd5b505afa15801562001460573d6000803e3d6000fd5b505050506040513d601f19601f8201168201806040525081019062001486919062001ec4565b8560200135620017b790919063ffffffff16565b92506200154660028261ffff1681548110620014df577f4e487b7100000000000000000000000000000000000000000000000000000000600052603260045260246000fd5b9060005260206000200160009054906101000a900473ffffffffffffffffffffffffffffffffffffffff168486600001602081019062001520919062001cdc565b73ffffffffffffffffffffffffffffffffffffffff166200172d9092919063ffffffff16565b8080620015539062002be1565b91505062001351565b5082600001602081019062001572919062001cdc565b73ffffffffffffffffffffffffffffffffffffffff1683602001357f253d71e585f0bb6d674a7179fcbde0322cdb3e983a10839748f4b63e64f4ee84856040016020810190620015c3919062001e2b565b866060016020810190620015d8919062001e2b565b604051620015e89291906200277d565b60405180910390a3505050565b7f000000000000000000000000000000000000000000000000000000000000000073ffffffffffffffffffffffffffffffffffffffff163373ffffffffffffffffffffffffffffffffffffffff161462001686576040517f08c379a00000000000000000000000000000000000000000000000000000000081526004016200167d9062002715565b60405180910390fd5b620016928282620017cf565b505050565b60028181548110620016a857600080fd5b906000526020600020016000915054906101000a900473ffffffffffffffffffffffffffffffffffffffff1681565b600160009054906101000a900473ffffffffffffffffffffffffffffffffffffffff1681565b606062001725838360405180606001604052806027815260200162004eab602791396200181b565b905092915050565b620017b28363a9059cbb60e01b84846040516024016200174f929190620025b2565b604051602081830303815290604052907bffffffffffffffffffffffffffffffffffffffffffffffffffffffff19166020820180517bffffffffffffffffffffffffffffffffffffffffffffffffffffffff8381831617835250505050620018f3565b505050565b60008183620017c7919062002b09565b905092915050565b60606200181383836040518060400160405280601e81526020017f416464726573733a206c6f772d6c6576656c2063616c6c206661696c65640000815250620019c2565b905092915050565b60606200182884620019dc565b6200186a576040517f08c379a00000000000000000000000000000000000000000000000000000000081526004016200186190620026af565b60405180910390fd5b6000808573ffffffffffffffffffffffffffffffffffffffff16856040516200189491906200257c565b600060405180830381855af49150503d8060008114620018d1576040519150601f19603f3d011682016040523d82523d6000602084013e620018d6565b606091505b5091509150620018e8828286620019ef565b925050509392505050565b600062001957826040518060400160405280602081526020017f5361666545524332303a206c6f772d6c6576656c2063616c6c206661696c65648152508573ffffffffffffffffffffffffffffffffffffffff16620019c29092919063ffffffff16565b9050600081511115620019bd57808060200190518101906200197a919062001d62565b620019bc576040517f08c379a0000000000000000000000000000000000000000000000000000000008152600401620019b390620026f3565b60405180910390fd5b5b505050565b6060620019d3848460008562001a5b565b90509392505050565b600080823b905060008111915050919050565b6060831562001a015782905062001a54565b60008351111562001a155782518084602001fd5b816040517f08c379a000000000000000000000000000000000000000000000000000000000815260040162001a4b919062002603565b60405180910390fd5b9392505050565b60608247101562001aa3576040517f08c379a000000000000000000000000000000000000000000000000000000000815260040162001a9a9062002627565b60405180910390fd5b62001aae85620019dc565b62001af0576040517f08c379a000000000000000000000000000000000000000000000000000000000815260040162001ae790620026d1565b60405180910390fd5b6000808673ffffffffffffffffffffffffffffffffffffffff16858760405162001b1b91906200257c565b60006040518083038185875af1925050503d806000811462001b5a576040519150601f19603f3d011682016040523d82523d6000602084013e62001b5f565b606091505b509150915062001b71828286620019ef565b92505050949350505050565b6121748062002d3783390190565b600062001ba262001b9c8462002828565b620027f4565b90508281526020810184848401111562001bbb57600080fd5b62001bc884828562002b9c565b509392505050565b60008135905062001be18162002cce565b92915050565b60008135905062001bf88162002ce8565b92915050565b60008151905062001c0f8162002ce8565b92915050565b600082601f83011262001c2757600080fd5b813562001c3984826020860162001b8b565b91505092915050565b6000610120828403121562001c5657600080fd5b81905092915050565b60006080828403121562001c7257600080fd5b81905092915050565b60006080828403121562001c8e57600080fd5b81905092915050565b60008135905062001ca88162002d02565b92915050565b60008135905062001cbf8162002d1c565b92915050565b60008151905062001cd68162002d1c565b92915050565b60006020828403121562001cef57600080fd5b600062001cff8482850162001bd0565b91505092915050565b6000806040838503121562001d1c57600080fd5b600062001d2c8582860162001bd0565b925050602083013567ffffffffffffffff81111562001d4a57600080fd5b62001d588582860162001c15565b9150509250929050565b60006020828403121562001d7557600080fd5b600062001d858482850162001bfe565b91505092915050565b60006020828403121562001da157600080fd5b600082013567ffffffffffffffff81111562001dbc57600080fd5b62001dca8482850162001c42565b91505092915050565b60006080828403121562001de657600080fd5b600062001df68482850162001c5f565b91505092915050565b60006080828403121562001e1257600080fd5b600062001e228482850162001c7b565b91505092915050565b60006020828403121562001e3e57600080fd5b600062001e4e8482850162001c97565b91505092915050565b6000806040838503121562001e6b57600080fd5b600062001e7b8582860162001c97565b925050602062001e8e8582860162001c97565b9150509250929050565b60006020828403121562001eab57600080fd5b600062001ebb8482850162001cae565b91505092915050565b60006020828403121562001ed757600080fd5b600062001ee78482850162001cc5565b91505092915050565b600062001efe838362001f0a565b60208301905092915050565b62001f158162002b44565b82525050565b62001f268162002b44565b82525050565b600062001f3a8385620028b0565b935062001f47826200285b565b8060005b8581101562001f885762001f608284620028ee565b62001f6c888262001ef0565b975062001f798362002896565b92505060018101905062001f4b565b5085925050509392505050565b600062001fa28262002875565b62001fae8185620028c1565b935062001fbb8362002865565b8060005b8381101562001ff257815162001fd6888262001ef0565b975062001fe383620028a3565b92505060018101905062001fbf565b5085935050505092915050565b6200200a8162002b58565b82525050565b60006200201d8262002880565b620020298185620028d2565b93506200203b81856020860162002bab565b80840191505092915050565b600062002054826200288b565b620020608185620028dd565b93506200207281856020860162002bab565b6200207d8162002cbd565b840191505092915050565b600062002097602683620028dd565b91507f416464726573733a20696e73756666696369656e742062616c616e636520666f60008301527f722063616c6c00000000000000000000000000000000000000000000000000006020830152604082019050919050565b6000620020ff601a83620028dd565b91507f496e76616c6964207374617274206f7220656e6420696e6465780000000000006000830152602082019050919050565b600062002141601783620028dd565b91507f696e76616c696420776f726b65727320696e64696365730000000000000000006000830152602082019050919050565b600062002183600a83620028dd565b91507f72657374726963746564000000000000000000000000000000000000000000006000830152602082019050919050565b6000620021c5602683620028dd565b91507f416464726573733a2064656c65676174652063616c6c20746f206e6f6e2d636f60008301527f6e747261637400000000000000000000000000000000000000000000000000006020830152604082019050919050565b60006200222d601d83620028dd565b91507f416464726573733a2063616c6c20746f206e6f6e2d636f6e74726163740000006000830152602082019050919050565b60006200226f602a83620028dd565b91507f5361666545524332303a204552433230206f7065726174696f6e20646964206e60008301527f6f742073756363656564000000000000000000000000000000000000000000006020830152604082019050919050565b6000620022d7600983620028dd565b91507f6f6e6c794f776e657200000000000000000000000000000000000000000000006000830152602082019050919050565b600062002319602283620028dd565b91507f496e73756666696369656e742066756e647320666f7220616c6c20776f726b6560008301527f72730000000000000000000000000000000000000000000000000000000000006020830152604082019050919050565b6000610120830162002388600084018462002961565b62002397600086018262001fff565b50620023a7602084018462002961565b620023b6602086018262001fff565b50620023c6604084018462002961565b620023d5604086018262001fff565b50620023e56060840184620028ee565b620023f4606086018262001f0a565b50620024046080840184620028ee565b62002413608086018262001f0a565b506200242360a0840184620029b8565b6200243260a08601826200255a565b506200244260c08401846200299f565b6200245160c086018262002538565b506200246160e08401846200299f565b6200247060e086018262002538565b50620024816101008401846200297a565b848203610100860152620024968282620024a3565b9150508091505092915050565b600060808301620024b86000840184620028ee565b620024c7600086018262001f0a565b50620024d76020840184620029b8565b620024e660208601826200255a565b50620024f6604084018462002907565b85830360408701526200250b83828462001f2c565b925050506200251e6060840184620029b8565b6200252d60608601826200255a565b508091505092915050565b620025438162002b64565b82525050565b620025548162002b64565b82525050565b620025658162002b92565b82525050565b620025768162002b92565b82525050565b60006200258a828462002010565b915081905092915050565b6000602082019050620025ac600083018462001f1b565b92915050565b6000604082019050620025c9600083018562001f1b565b620025d860208301846200256b565b9392505050565b60006020820190508181036000830152620025fb818462001f95565b905092915050565b600060208201905081810360008301526200261f818462002047565b905092915050565b60006020820190508181036000830152620026428162002088565b9050919050565b600060208201905081810360008301526200266481620020f0565b9050919050565b60006020820190508181036000830152620026868162002132565b9050919050565b60006020820190508181036000830152620026a88162002174565b9050919050565b60006020820190508181036000830152620026ca81620021b6565b9050919050565b60006020820190508181036000830152620026ec816200221e565b9050919050565b600060208201905081810360008301526200270e8162002260565b9050919050565b600060208201905081810360008301526200273081620022c8565b9050919050565b6000602082019050818103600083015262002752816200230a565b9050919050565b6000602082019050818103600083015262002775818462002372565b905092915050565b600060408201905062002794600083018562002549565b620027a3602083018462002549565b9392505050565b6000602082019050620027c160008301846200256b565b92915050565b6000604082019050620027de60008301856200256b565b620027ed602083018462001f1b565b9392505050565b6000604051905081810181811067ffffffffffffffff821117156200281e576200281d62002c8e565b5b8060405250919050565b600067ffffffffffffffff82111562002846576200284562002c8e565b5b601f19601f8301169050602081019050919050565b6000819050919050565b6000819050602082019050919050565b600081519050919050565b600081519050919050565b600081519050919050565b6000602082019050919050565b6000602082019050919050565b600082825260208201905092915050565b600082825260208201905092915050565b600081905092915050565b600082825260208201905092915050565b6000620028ff602084018462001bd0565b905092915050565b600080833560016020038436030381126200292157600080fd5b83810192508235915060208301925067ffffffffffffffff8211156200294657600080fd5b6020820236038413156200295957600080fd5b509250929050565b600062002972602084018462001be7565b905092915050565b6000823560016080038336030381126200299357600080fd5b82810191505092915050565b6000620029b0602084018462001c97565b905092915050565b6000620029c9602084018462001cae565b905092915050565b6000620029de8262002b64565b9150620029eb8362002b64565b92508261ffff0382111562002a055762002a0462002c5f565b5b828201905092915050565b600062002a1d8262002b92565b915062002a2a8362002b92565b9250827fffffffffffffffffffffffffffffffffffffffffffffffffffffffffffffffff0382111562002a625762002a6162002c5f565b5b828201905092915050565b600062002a7a8262002b92565b915062002a878362002b92565b9250817fffffffffffffffffffffffffffffffffffffffffffffffffffffffffffffffff048311821515161562002ac35762002ac262002c5f565b5b828202905092915050565b600062002adb8262002b64565b915062002ae88362002b64565b92508282101562002afe5762002afd62002c5f565b5b828203905092915050565b600062002b168262002b92565b915062002b238362002b92565b92508282101562002b395762002b3862002c5f565b5b828203905092915050565b600062002b518262002b72565b9050919050565b60008115159050919050565b600061ffff82169050919050565b600073ffffffffffffffffffffffffffffffffffffffff82169050919050565b6000819050919050565b82818337600083830152505050565b60005b8381101562002bcb57808201518184015260208101905062002bae565b8381111562002bdb576000848401525b50505050565b600062002bee8262002b64565b915061ffff82141562002c065762002c0562002c5f565b5b600182019050919050565b600062002c1e8262002b92565b91507fffffffffffffffffffffffffffffffffffffffffffffffffffffffffffffffff82141562002c545762002c5362002c5f565b5b600182019050919050565b7f4e487b7100000000000000000000000000000000000000000000000000000000600052601160045260246000fd5b7f4e487b7100000000000000000000000000000000000000000000000000000000600052604160045260246000fd5b6000601f19601f8301169050919050565b62002cd98162002b44565b811462002ce557600080fd5b50565b62002cf38162002b58565b811462002cff57600080fd5b50565b62002d0d8162002b64565b811462002d1957600080fd5b50565b62002d278162002b92565b811462002d3357600080fd5b5056fe60a0604052730e09fabb73bd3ade0a17ecc321fd13a19e81ce826000806101000a81548173ffffffffffffffffffffffffffffffffffffffff021916908373ffffffffffffffffffffffffffffffffffffffff1602179055507373feaa1ee314f8c655e354234017be2193c9e24e600160006101000a81548173ffffffffffffffffffffffffffffffffffffffff021916908373ffffffffffffffffffffffffffffffffffffffff16021790555073927158be21fe3d4da7e96931bb27fd5059a8cbc2600260006101000a81548173ffffffffffffffffffffffffffffffffffffffff021916908373ffffffffffffffffffffffffffffffffffffffff16021790555073927158be21fe3d4da7e96931bb27fd5059a8cbc2600360006101000a81548173ffffffffffffffffffffffffffffffffffffffff021916908373ffffffffffffffffffffffffffffffffffffffff16021790555034801561016357600080fd5b503373ffffffffffffffffffffffffffffffffffffffff1660808173ffffffffffffffffffffffffffffffffffffffff1660601b8152505060805160601c611fa86101cc60003960008181609e0152818160c20152818161025301526103790152611fa86000f3fe608060405234801561001057600080fd5b50600436106100415760003560e01c80638da5cb5b14610046578063a2fa1c9714610064578063a5d3434314610080575b600080fd5b61004e61009c565b60405161005b9190611a02565b60405180910390f35b61007e60048036038101906100799190611635565b6100c0565b005b61009a600480360381019061009591906116c8565b610251565b005b7f000000000000000000000000000000000000000000000000000000000000000081565b7f000000000000000000000000000000000000000000000000000000000000000073ffffffffffffffffffffffffffffffffffffffff163373ffffffffffffffffffffffffffffffffffffffff161461014e576040517f08c379a000000000000000000000000000000000000000000000000000000000815260040161014590611b31565b60405180910390fd5b80600001602081019061016191906115e3565b156101875761018681606001602081019061017c9190611550565b8260a001356103c3565b5b80602001602081019061019a91906115e3565b156101cc576101cb8160600160208101906101b59190611550565b828061010001906101c69190611c51565b610639565b5b8060400160208101906101df91906115e3565b15610205576102048160800160208101906101fa9190611550565b8260a00135610a6b565b5b7f81188f5f74429a8d5dd69e402d2ec601e9510929aeb809d15acde392c83de4338160600160208101906102399190611550565b6040516102469190611a02565b60405180910390a150565b7f000000000000000000000000000000000000000000000000000000000000000073ffffffffffffffffffffffffffffffffffffffff163373ffffffffffffffffffffffffffffffffffffffff16146102df576040517f08c379a00000000000000000000000000000000000000000000000000000000081526004016102d690611b31565b60405180910390fd5b6000821415610374578073ffffffffffffffffffffffffffffffffffffffff166370a08231306040518263ffffffff1660e01b81526004016103219190611a02565b60206040518083038186803b15801561033957600080fd5b505afa15801561034d573d6000803e3d6000fd5b505050506040513d601f19601f82011682018060405250810190610371919061169f565b91505b6103bf7f0000000000000000000000000000000000000000000000000000000000000000838373ffffffffffffffffffffffffffffffffffffffff16610e799092919063ffffffff16565b5050565b6103cb6113ba565b600160009054906101000a900473ffffffffffffffffffffffffffffffffffffffff1673ffffffffffffffffffffffffffffffffffffffff168373ffffffffffffffffffffffffffffffffffffffff16141561052e57600082146104be578273ffffffffffffffffffffffffffffffffffffffff166393f1a40b6000306040518363ffffffff1660e01b8152600401610465929190611a46565b604080518083038186803b15801561047c57600080fd5b505afa158015610490573d6000803e3d6000fd5b505050506040513d601f19601f820116820180604052508101906104b49190611676565b9050806000015191505b8273ffffffffffffffffffffffffffffffffffffffff16631058d281836040518263ffffffff1660e01b81526004016104f79190611b51565b600060405180830381600087803b15801561051157600080fd5b505af1158015610525573d6000803e3d6000fd5b50505050610634565b600082146105c8578273ffffffffffffffffffffffffffffffffffffffff16631959a002306040518263ffffffff1660e01b815260040161056f9190611a02565b604080518083038186803b15801561058657600080fd5b505afa15801561059a573d6000803e3d6000fd5b505050506040513d601f19601f820116820180604052508101906105be9190611676565b9050806000015191505b8273ffffffffffffffffffffffffffffffffffffffff16632e1a7d4d836040518263ffffffff1660e01b81526004016106019190611b51565b600060405180830381600087803b15801561061b57600080fd5b505af115801561062f573d6000803e3d6000fd5b505050505b505050565b60008273ffffffffffffffffffffffffffffffffffffffff1663f7c618c16040518163ffffffff1660e01b8152600401602060405180830381600087803b15801561068357600080fd5b505af1158015610697573d6000803e3d6000fd5b505050506040513d601f19601f820116820180604052508101906106bb9190611579565b73ffffffffffffffffffffffffffffffffffffffff166370a08231306040518263ffffffff1660e01b81526004016106f39190611a02565b60206040518083038186803b15801561070b57600080fd5b505afa15801561071f573d6000803e3d6000fd5b505050506040513d601f19601f82011682018060405250810190610743919061169f565b905060008114156107545750610a67565b60008260000160208101906107699190611550565b73ffffffffffffffffffffffffffffffffffffffff1663d06ca61f838580604001906107959190611bfa565b6040518463ffffffff1660e01b81526004016107b393929190611b6c565b60006040518083038186803b1580156107cb57600080fd5b505afa1580156107df573d6000803e3d6000fd5b505050506040513d6000823e3d601f19601f8201168201806040525081019061080891906115a2565b905060006108836064610875866020013585600187516108289190611dce565b8151811061085f577f4e487b7100000000000000000000000000000000000000000000000000000000600052603260045260246000fd5b6020026020010151610eff90919063ffffffff16565b610f1590919063ffffffff16565b90508473ffffffffffffffffffffffffffffffffffffffff1663f7c618c16040518163ffffffff1660e01b8152600401602060405180830381600087803b1580156108cd57600080fd5b505af11580156108e1573d6000803e3d6000fd5b505050506040513d601f19601f820116820180604052508101906109059190611579565b73ffffffffffffffffffffffffffffffffffffffff1663095ea7b38560000160208101906109339190611550565b856040518363ffffffff1660e01b8152600401610951929190611a1d565b602060405180830381600087803b15801561096b57600080fd5b505af115801561097f573d6000803e3d6000fd5b505050506040513d601f19601f820116820180604052508101906109a3919061160c565b508360000160208101906109b79190611550565b73ffffffffffffffffffffffffffffffffffffffff166338ed173984838780604001906109e49190611bfa565b308a606001356040518763ffffffff1660e01b8152600401610a0b96959493929190611b9e565b600060405180830381600087803b158015610a2557600080fd5b505af1158015610a39573d6000803e3d6000fd5b505050506040513d6000823e3d601f19601f82011682018060405250810190610a6291906115a2565b505050505b5050565b610a7482610f2b565b6000811415610b88578173ffffffffffffffffffffffffffffffffffffffff1663cc7a262e6040518163ffffffff1660e01b8152600401602060405180830381600087803b158015610ac557600080fd5b505af1158015610ad9573d6000803e3d6000fd5b505050506040513d601f19601f82011682018060405250810190610afd9190611579565b73ffffffffffffffffffffffffffffffffffffffff166370a08231306040518263ffffffff1660e01b8152600401610b359190611a02565b60206040518083038186803b158015610b4d57600080fd5b505afa158015610b61573d6000803e3d6000fd5b505050506040513d601f19601f82011682018060405250810190610b85919061169f565b90505b600160009054906101000a900473ffffffffffffffffffffffffffffffffffffffff1673ffffffffffffffffffffffffffffffffffffffff168273ffffffffffffffffffffffffffffffffffffffff161415610cfc5760008054906101000a900473ffffffffffffffffffffffffffffffffffffffff1673ffffffffffffffffffffffffffffffffffffffff1663095ea7b383836040518363ffffffff1660e01b8152600401610c39929190611a1d565b602060405180830381600087803b158015610c5357600080fd5b505af1158015610c67573d6000803e3d6000fd5b505050506040513d601f19601f82011682018060405250810190610c8b919061160c565b508173ffffffffffffffffffffffffffffffffffffffff166341441d3b826040518263ffffffff1660e01b8152600401610cc59190611b51565b600060405180830381600087803b158015610cdf57600080fd5b505af1158015610cf3573d6000803e3d6000fd5b50505050610e75565b8173ffffffffffffffffffffffffffffffffffffffff1663cc7a262e6040518163ffffffff1660e01b8152600401602060405180830381600087803b158015610d4457600080fd5b505af1158015610d58573d6000803e3d6000fd5b505050506040513d601f19601f82011682018060405250810190610d7c9190611579565b73ffffffffffffffffffffffffffffffffffffffff1663095ea7b383836040518363ffffffff1660e01b8152600401610db6929190611a1d565b602060405180830381600087803b158015610dd057600080fd5b505af1158015610de4573d6000803e3d6000fd5b505050506040513d601f19601f82011682018060405250810190610e08919061160c565b508173ffffffffffffffffffffffffffffffffffffffff1663b6b55f25826040518263ffffffff1660e01b8152600401610e429190611b51565b600060405180830381600087803b158015610e5c57600080fd5b505af1158015610e70573d6000803e3d6000fd5b505050505b5050565b610efa8363a9059cbb60e01b8484604051602401610e98929190611a1d565b604051602081830303815290604052907bffffffffffffffffffffffffffffffffffffffffffffffffffffffff19166020820180517bffffffffffffffffffffffffffffffffffffffffffffffffffffffff838183161783525050505061114d565b505050565b60008183610f0d9190611d74565b905092915050565b60008183610f239190611d43565b905092915050565b600160009054906101000a900473ffffffffffffffffffffffffffffffffffffffff1673ffffffffffffffffffffffffffffffffffffffff168173ffffffffffffffffffffffffffffffffffffffff161415610f865761114a565b600360009054906101000a900473ffffffffffffffffffffffffffffffffffffffff1673ffffffffffffffffffffffffffffffffffffffff168173ffffffffffffffffffffffffffffffffffffffff1663bd6171916040518163ffffffff1660e01b8152600401602060405180830381600087803b15801561100757600080fd5b505af115801561101b573d6000803e3d6000fd5b505050506040513d601f19601f8201168201806040525081019061103f9190611579565b73ffffffffffffffffffffffffffffffffffffffff1614611095576040517f08c379a000000000000000000000000000000000000000000000000000000000815260040161108c90611a91565b60405180910390fd5b6000807f866f2224d2bcc0a716d292663e34396dd64d657e342d87867aa429b6377f1b2d60001b905060008373ffffffffffffffffffffffffffffffffffffffff16803b806020016040519081016040528181526000908060200190933c90506000602060ff1690508281832014935083611145576040517f08c379a000000000000000000000000000000000000000000000000000000000815260040161113c90611ab1565b60405180910390fd5b505050505b50565b60006111af826040518060400160405280602081526020017f5361666545524332303a206c6f772d6c6576656c2063616c6c206661696c65648152508573ffffffffffffffffffffffffffffffffffffffff166112149092919063ffffffff16565b905060008151111561120f57808060200190518101906111cf919061160c565b61120e576040517f08c379a000000000000000000000000000000000000000000000000000000000815260040161120590611b11565b60405180910390fd5b5b505050565b6060611223848460008561122c565b90509392505050565b606082471015611271576040517f08c379a000000000000000000000000000000000000000000000000000000000815260040161126890611ad1565b60405180910390fd5b61127a85611340565b6112b9576040517f08c379a00000000000000000000000000000000000000000000000000000000081526004016112b090611af1565b60405180910390fd5b6000808673ffffffffffffffffffffffffffffffffffffffff1685876040516112e291906119eb565b60006040518083038185875af1925050503d806000811461131f576040519150601f19603f3d011682016040523d82523d6000602084013e611324565b606091505b5091509150611334828286611353565b92505050949350505050565b600080823b905060008111915050919050565b60608315611363578290506113b3565b6000835111156113765782518084602001fd5b816040517f08c379a00000000000000000000000000000000000000000000000000000000081526004016113aa9190611a6f565b60405180910390fd5b9392505050565b604051806040016040528060008152602001600081525090565b60006113e76113e284611ca6565b611c75565b9050808382526020820190508285602086028201111561140657600080fd5b60005b85811015611436578161141c888261153b565b845260208401935060208301925050600181019050611409565b5050509392505050565b60008135905061144f81611f2d565b92915050565b60008151905061146481611f2d565b92915050565b600082601f83011261147b57600080fd5b815161148b8482602086016113d4565b91505092915050565b6000813590506114a381611f44565b92915050565b6000815190506114b881611f44565b92915050565b600061012082840312156114d157600080fd5b81905092915050565b6000604082840312156114ec57600080fd5b6114f66040611c75565b905060006115068482850161153b565b600083015250602061151a8482850161153b565b60208301525092915050565b60008135905061153581611f5b565b92915050565b60008151905061154a81611f5b565b92915050565b60006020828403121561156257600080fd5b600061157084828501611440565b91505092915050565b60006020828403121561158b57600080fd5b600061159984828501611455565b91505092915050565b6000602082840312156115b457600080fd5b600082015167ffffffffffffffff8111156115ce57600080fd5b6115da8482850161146a565b91505092915050565b6000602082840312156115f557600080fd5b600061160384828501611494565b91505092915050565b60006020828403121561161e57600080fd5b600061162c848285016114a9565b91505092915050565b60006020828403121561164757600080fd5b600082013567ffffffffffffffff81111561166157600080fd5b61166d848285016114be565b91505092915050565b60006040828403121561168857600080fd5b6000611696848285016114da565b91505092915050565b6000602082840312156116b157600080fd5b60006116bf8482850161153b565b91505092915050565b600080604083850312156116db57600080fd5b60006116e985828601611526565b92505060206116fa85828601611440565b9150509250929050565b6000611710838361171c565b60208301905092915050565b61172581611e02565b82525050565b61173481611e02565b82525050565b60006117468385611cff565b935061175182611cd2565b8060005b8581101561178a576117678284611d2c565b6117718882611704565b975061177c83611cf2565b925050600181019050611755565b5085925050509392505050565b60006117a282611cdc565b6117ac8185611d10565b93506117bc818560208601611e5c565b80840191505092915050565b6117d181611e4a565b82525050565b60006117e282611ce7565b6117ec8185611d1b565b93506117fc818560208601611e5c565b61180581611f1c565b840191505092915050565b600061181d601983611d1b565b91507f696e76616c696420736d6172746368656620666163746f7279000000000000006000830152602082019050919050565b600061185d601683611d1b565b91507f696e76616c696420736d6172746368656620636f6465000000000000000000006000830152602082019050919050565b600061189d602683611d1b565b91507f416464726573733a20696e73756666696369656e742062616c616e636520666f60008301527f722063616c6c00000000000000000000000000000000000000000000000000006020830152604082019050919050565b6000611903601d83611d1b565b91507f416464726573733a2063616c6c20746f206e6f6e2d636f6e74726163740000006000830152602082019050919050565b6000611943602a83611d1b565b91507f5361666545524332303a204552433230206f7065726174696f6e20646964206e60008301527f6f742073756363656564000000000000000000000000000000000000000000006020830152604082019050919050565b60006119a9600983611d1b565b91507f6f6e6c794f776e657200000000000000000000000000000000000000000000006000830152602082019050919050565b6119e581611e40565b82525050565b60006119f78284611797565b915081905092915050565b6000602082019050611a17600083018461172b565b92915050565b6000604082019050611a32600083018561172b565b611a3f60208301846119dc565b9392505050565b6000604082019050611a5b60008301856117c8565b611a68602083018461172b565b9392505050565b60006020820190508181036000830152611a8981846117d7565b905092915050565b60006020820190508181036000830152611aaa81611810565b9050919050565b60006020820190508181036000830152611aca81611850565b9050919050565b60006020820190508181036000830152611aea81611890565b9050919050565b60006020820190508181036000830152611b0a816118f6565b9050919050565b60006020820190508181036000830152611b2a81611936565b9050919050565b60006020820190508181036000830152611b4a8161199c565b9050919050565b6000602082019050611b6660008301846119dc565b92915050565b6000604082019050611b8160008301866119dc565b8181036020830152611b9481848661173a565b9050949350505050565b600060a082019050611bb360008301896119dc565b611bc060208301886119dc565b8181036040830152611bd381868861173a565b9050611be2606083018561172b565b611bef60808301846119dc565b979650505050505050565b60008083356001602003843603038112611c1357600080fd5b80840192508235915067ffffffffffffffff821115611c3157600080fd5b602083019250602082023603831315611c4957600080fd5b509250929050565b600082356001608003833603038112611c6957600080fd5b80830191505092915050565b6000604051905081810181811067ffffffffffffffff82111715611c9c57611c9b611eed565b5b8060405250919050565b600067ffffffffffffffff821115611cc157611cc0611eed565b5b602082029050602081019050919050565b6000819050919050565b600081519050919050565b600081519050919050565b6000602082019050919050565b600082825260208201905092915050565b600081905092915050565b600082825260208201905092915050565b6000611d3b6020840184611440565b905092915050565b6000611d4e82611e40565b9150611d5983611e40565b925082611d6957611d68611ebe565b5b828204905092915050565b6000611d7f82611e40565b9150611d8a83611e40565b9250817fffffffffffffffffffffffffffffffffffffffffffffffffffffffffffffffff0483118215151615611dc357611dc2611e8f565b5b828202905092915050565b6000611dd982611e40565b9150611de483611e40565b925082821015611df757611df6611e8f565b5b828203905092915050565b6000611e0d82611e20565b9050919050565b60008115159050919050565b600073ffffffffffffffffffffffffffffffffffffffff82169050919050565b6000819050919050565b6000611e5582611e40565b9050919050565b60005b83811015611e7a578082015181840152602081019050611e5f565b83811115611e89576000848401525b50505050565b7f4e487b7100000000000000000000000000000000000000000000000000000000600052601160045260246000fd5b7f4e487b7100000000000000000000000000000000000000000000000000000000600052601260045260246000fd5b7f4e487b7100000000000000000000000000000000000000000000000000000000600052604160045260246000fd5b6000601f19601f8301169050919050565b611f3681611e02565b8114611f4157600080fd5b50565b611f4d81611e14565b8114611f5857600080fd5b50565b611f6481611e40565b8114611f6f57600080fd5b5056fea264697066735822122095d0aab6457605d64cf6bacf1cbadbb3a2f5dee52e2b30d442ae85220aecf74a64736f6c63430008000033416464726573733a206c6f772d6c6576656c2064656c65676174652063616c6c206661696c6564a26469706673582212203cf16b130a5b08d20b13c491e487527ef8cadac00b2ec09a5c9810a13c3d182a64736f6c63430008000033",
  "linkReferences": {},
  "deployedLinkReferences": {}
}