{
  "_format": "hh-sol-artifact-1",
  "contractName": "StrategyManager",
  "sourceName": "contracts/StrategyManager.sol",
  "abi": [
    {
      "inputs": [],
      "stateMutability": "nonpayable",
      "type": "constructor"
    },
    {
      "anonymous": false,
      "inputs": [
        {
          "indexed": false,
          "internalType": "address[]",
          "name": "delegatorsAddr",
          "type": "address[]"
        }
      ],
      "name": "Delegators",
      "type": "event"
    },
    {
      "anonymous": false,
      "inputs": [
        {
          "indexed": false,
          "internalType": "uint256",
          "name": "nDelegators",
          "type": "uint256"
        }
      ],
      "name": "DelegatorsAdded",
      "type": "event"
    },
    {
      "anonymous": false,
      "inputs": [
        {
          "indexed": false,
          "internalType": "uint16",
          "name": "startIndex",
          "type": "uint16"
        },
        {
          "indexed": false,
          "internalType": "uint16",
          "name": "endIndex",
          "type": "uint16"
        },
        {
          "indexed": false,
          "internalType": "address",
          "name": "stakedPoolAddr",
          "type": "address"
        }
      ],
      "name": "DoHardWork",
      "type": "event"
    },
    {
      "anonymous": false,
      "inputs": [
        {
          "indexed": true,
          "internalType": "address",
          "name": "previousOwner",
          "type": "address"
        },
        {
          "indexed": true,
          "internalType": "address",
          "name": "newOwner",
          "type": "address"
        }
      ],
      "name": "OwnershipTransferred",
      "type": "event"
    },
    {
      "anonymous": false,
      "inputs": [
        {
          "indexed": false,
          "internalType": "address",
          "name": "stakedPoolAddr",
          "type": "address"
        }
      ],
      "name": "StakedPoolAddrUpdate",
      "type": "event"
    },
    {
      "anonymous": false,
      "inputs": [
        {
          "indexed": true,
          "internalType": "address",
          "name": "strategy",
          "type": "address"
        }
      ],
      "name": "StrategyUpdate",
      "type": "event"
    },
    {
      "anonymous": false,
      "inputs": [
        {
          "indexed": false,
          "internalType": "address",
          "name": "strategy",
          "type": "address"
        }
      ],
      "name": "TransferToDelegators",
      "type": "event"
    },
    {
      "inputs": [
        {
          "internalType": "uint32",
          "name": "numDelegators",
          "type": "uint32"
        }
      ],
      "name": "addDelegators",
      "outputs": [],
      "stateMutability": "nonpayable",
      "type": "function"
    },
    {
      "inputs": [
        {
          "internalType": "uint256",
          "name": "",
          "type": "uint256"
        }
      ],
      "name": "delegators",
      "outputs": [
        {
          "internalType": "contract StrategyDelegator",
          "name": "",
          "type": "address"
        }
      ],
      "stateMutability": "view",
      "type": "function"
    },
    {
      "inputs": [
        {
          "components": [
            {
              "internalType": "bool",
              "name": "withdraw",
              "type": "bool"
            },
            {
              "internalType": "bool",
              "name": "swap",
              "type": "bool"
            },
            {
              "internalType": "bool",
              "name": "deposit",
              "type": "bool"
            },
            {
              "internalType": "address",
              "name": "stakedPoolAddr",
              "type": "address"
            },
            {
              "internalType": "address",
              "name": "newPoolAddr",
              "type": "address"
            },
            {
              "internalType": "uint256",
              "name": "amount",
              "type": "uint256"
            },
            {
              "internalType": "uint16",
              "name": "startIndex",
              "type": "uint16"
            },
            {
              "internalType": "uint16",
              "name": "endIndex",
              "type": "uint16"
            }
          ],
          "internalType": "struct IStrategy.DoHardWorkParams",
          "name": "params",
          "type": "tuple"
        }
      ],
      "name": "doHardWork",
      "outputs": [],
      "stateMutability": "nonpayable",
      "type": "function"
    },
    {
      "inputs": [],
      "name": "owner",
      "outputs": [
        {
          "internalType": "address",
          "name": "",
          "type": "address"
        }
      ],
      "stateMutability": "view",
      "type": "function"
    },
    {
      "inputs": [],
      "name": "renounceOwnership",
      "outputs": [],
      "stateMutability": "nonpayable",
      "type": "function"
    },
    {
      "inputs": [],
      "name": "stakedPoolAddr",
      "outputs": [
        {
          "internalType": "address",
          "name": "",
          "type": "address"
        }
      ],
      "stateMutability": "view",
      "type": "function"
    },
    {
      "inputs": [],
      "name": "strategy",
      "outputs": [
        {
          "internalType": "address",
          "name": "",
          "type": "address"
        }
      ],
      "stateMutability": "view",
      "type": "function"
    },
    {
      "inputs": [
        {
          "components": [
            {
              "internalType": "address",
              "name": "stakedToken",
              "type": "address"
            },
            {
              "internalType": "uint256",
              "name": "amount",
              "type": "uint256"
            },
            {
              "internalType": "uint16",
              "name": "startIndex",
              "type": "uint16"
            },
            {
              "internalType": "uint16",
              "name": "endIndex",
              "type": "uint16"
            }
          ],
          "internalType": "struct IStrategy.TransferDelegatorsParams",
          "name": "params",
          "type": "tuple"
        }
      ],
      "name": "transferFromDelegators",
      "outputs": [],
      "stateMutability": "nonpayable",
      "type": "function"
    },
    {
      "inputs": [
        {
          "internalType": "address",
          "name": "newOwner",
          "type": "address"
        }
      ],
      "name": "transferOwnership",
      "outputs": [],
      "stateMutability": "nonpayable",
      "type": "function"
    },
    {
      "inputs": [
        {
          "components": [
            {
              "internalType": "address",
              "name": "stakedToken",
              "type": "address"
            },
            {
              "internalType": "uint256",
              "name": "amount",
              "type": "uint256"
            },
            {
              "internalType": "uint16",
              "name": "startIndex",
              "type": "uint16"
            },
            {
              "internalType": "uint16",
              "name": "endIndex",
              "type": "uint16"
            }
          ],
          "internalType": "struct IStrategy.TransferDelegatorsParams",
          "name": "params",
          "type": "tuple"
        }
      ],
      "name": "transferToDelegators",
      "outputs": [],
      "stateMutability": "nonpayable",
      "type": "function"
    },
    {
      "inputs": [
        {
          "internalType": "address",
          "name": "_stakedPoolAddr",
          "type": "address"
        }
      ],
      "name": "updateStakedPoolAddr",
      "outputs": [],
      "stateMutability": "nonpayable",
      "type": "function"
    },
    {
      "inputs": [
        {
          "internalType": "address",
          "name": "_strategy",
          "type": "address"
        }
      ],
      "name": "updateStrategy",
      "outputs": [],
      "stateMutability": "nonpayable",
      "type": "function"
    }
  ],
  "bytecode": "0x60806040526000600260006101000a81548173ffffffffffffffffffffffffffffffffffffffff021916908373ffffffffffffffffffffffffffffffffffffffff1602179055503480156200005357600080fd5b5062000074620000686200008160201b60201c565b6200008960201b60201c565b600180819055506200014d565b600033905090565b60008060009054906101000a900473ffffffffffffffffffffffffffffffffffffffff169050816000806101000a81548173ffffffffffffffffffffffffffffffffffffffff021916908373ffffffffffffffffffffffffffffffffffffffff1602179055508173ffffffffffffffffffffffffffffffffffffffff168173ffffffffffffffffffffffffffffffffffffffff167f8be0079c531659141344cd1fd0a4f28419497f9722a3daafe3b4186f6b6457e060405160405180910390a35050565b61401f806200015d6000396000f3fe60806040523480156200001157600080fd5b5060043610620000c45760003560e01c806377a5d91c116200007b57806377a5d91c146200018d5780638da5cb5b14620001ad578063a8c62e7614620001cf578063daccaf6314620001f1578063eb3de0e41462000211578063f2fde38b146200023157620000c4565b80630a1e658f14620000c9578063264594ec14620000eb578063290fe9cb146200010b5780632d12ae25146200012b5780635be612c7146200014b578063715018a61462000181575b600080fd5b620000d362000251565b604051620000e29190620020d4565b60405180910390f35b62000109600480360381019062000103919062001c4a565b62000277565b005b62000129600480360381019062000123919062001bc5565b6200069a565b005b62000149600480360381019062000143919062001cfa565b62000814565b005b62000169600480360381019062000163919062001ca2565b62000ae1565b6040516200017891906200219d565b60405180910390f35b6200018b62000b21565b005b620001ab6004803603810190620001a5919062001c1d565b62000bb2565b005b620001b762000eb4565b604051620001c69190620020d4565b60405180910390f35b620001d962000edd565b604051620001e89190620020d4565b60405180910390f35b6200020f600480360381019062000209919062001bc5565b62000f03565b005b6200022f600480360381019062000229919062001c4a565b62001087565b005b6200024f600480360381019062000249919062001bc5565b62001308565b005b600260009054906101000a900473ffffffffffffffffffffffffffffffffffffffff1681565b620002816200140c565b73ffffffffffffffffffffffffffffffffffffffff16620002a162000eb4565b73ffffffffffffffffffffffffffffffffffffffff1614620002fa576040517f08c379a0000000000000000000000000000000000000000000000000000000008152600401620002f19062002266565b60405180910390fd5b6002600154141562000343576040517f08c379a00000000000000000000000000000000000000000000000000000000081526004016200033a90620022cc565b60405180910390fd5b6002600181905550600081600001602081019062000362919062001bc5565b73ffffffffffffffffffffffffffffffffffffffff166370a08231306040518263ffffffff1660e01b81526004016200039c9190620020d4565b60206040518083038186803b158015620003b557600080fd5b505afa158015620003ca573d6000803e3d6000fd5b505050506040513d601f19601f82011682018060405250810190620003f0919062001cce565b90508082604001602081019062000408919062001c76565b8360600160208101906200041d919062001c76565b6200042991906200246f565b61ffff1683602001356200043e91906200240e565b111562000482576040517f08c379a00000000000000000000000000000000000000000000000000000000081526004016200047990620021de565b60405180910390fd5b600082604001602081019062000499919062001c76565b90505b826040016020810190620004b1919062001c76565b61ffff168161ffff16101562000633576200056f60048261ffff168154811062000504577f4e487b7100000000000000000000000000000000000000000000000000000000600052603260045260246000fd5b9060005260206000200160009054906101000a900473ffffffffffffffffffffffffffffffffffffffff16846020013585600001602081019062000549919062001bc5565b73ffffffffffffffffffffffffffffffffffffffff16620014149092919063ffffffff16565b6200061d60048261ffff1681548110620005b2577f4e487b7100000000000000000000000000000000000000000000000000000000600052603260045260246000fd5b9060005260206000200160009054906101000a900473ffffffffffffffffffffffffffffffffffffffff168460200135856000016020810190620005f7919062001bc5565b73ffffffffffffffffffffffffffffffffffffffff16620015809092919063ffffffff16565b80806200062a90620025a6565b9150506200049c565b507f4fd6b99917ca7d1e25bd6b70465e8f42d4a551fe258e02127ec5d5df0cb962ee600360009054906101000a900473ffffffffffffffffffffffffffffffffffffffff16604051620006879190620020d4565b60405180910390a1506001808190555050565b620006a46200140c565b73ffffffffffffffffffffffffffffffffffffffff16620006c462000eb4565b73ffffffffffffffffffffffffffffffffffffffff16146200071d576040517f08c379a0000000000000000000000000000000000000000000000000000000008152600401620007149062002266565b60405180910390fd5b6002600154141562000766576040517f08c379a00000000000000000000000000000000000000000000000000000000081526004016200075d90620022cc565b60405180910390fd5b600260018190555080600260006101000a81548173ffffffffffffffffffffffffffffffffffffffff021916908373ffffffffffffffffffffffffffffffffffffffff1602179055507f299b6394b5952c8e18fdaab3219e6affe44ddd2212184df830bedfbc40960f52600360009054906101000a900473ffffffffffffffffffffffffffffffffffffffff16604051620008029190620020d4565b60405180910390a16001808190555050565b6200081e6200140c565b73ffffffffffffffffffffffffffffffffffffffff166200083e62000eb4565b73ffffffffffffffffffffffffffffffffffffffff161462000897576040517f08c379a00000000000000000000000000000000000000000000000000000000081526004016200088e9062002266565b60405180910390fd5b60026001541415620008e0576040517f08c379a0000000000000000000000000000000000000000000000000000000008152600401620008d790620022cc565b60405180910390fd5b600260018190555060008163ffffffff1667ffffffffffffffff81111562000931577f4e487b7100000000000000000000000000000000000000000000000000000000600052604160045260246000fd5b604051908082528060200260200182016040528015620009605781602001602082028036833780820191505090505b509050600060048054905090505b8263ffffffff1681101562000a9c5760006040516200098d9062001a21565b604051809103906000f080158015620009aa573d6000803e3d6000fd5b5090506004819080600181540180825580915050600190039060005260206000200160009091909190916101000a81548173ffffffffffffffffffffffffffffffffffffffff021916908373ffffffffffffffffffffffffffffffffffffffff1602179055508083838151811062000a4b577f4e487b7100000000000000000000000000000000000000000000000000000000600052603260045260246000fd5b602002602001019073ffffffffffffffffffffffffffffffffffffffff16908173ffffffffffffffffffffffffffffffffffffffff168152505050808062000a9390620025d6565b9150506200096e565b507fad314b6eac65c574e2645efdf37d8830673ed78614970a8718268e1ffbd0d7958160405162000ace919062002179565b60405180910390a1506001808190555050565b6004818154811062000af257600080fd5b906000526020600020016000915054906101000a900473ffffffffffffffffffffffffffffffffffffffff1681565b62000b2b6200140c565b73ffffffffffffffffffffffffffffffffffffffff1662000b4b62000eb4565b73ffffffffffffffffffffffffffffffffffffffff161462000ba4576040517f08c379a000000000000000000000000000000000000000000000000000000000815260040162000b9b9062002266565b60405180910390fd5b62000bb060006200160a565b565b62000bbc6200140c565b73ffffffffffffffffffffffffffffffffffffffff1662000bdc62000eb4565b73ffffffffffffffffffffffffffffffffffffffff161462000c35576040517f08c379a000000000000000000000000000000000000000000000000000000000815260040162000c2c9062002266565b60405180910390fd5b6002600154141562000c7e576040517f08c379a000000000000000000000000000000000000000000000000000000000815260040162000c7590620022cc565b60405180910390fd5b600260018190555062000ca28160c0015161ffff168260e0015161ffff16620016ce565b6004805490508160e0015161ffff161115801562000ccf57508060e0015161ffff168160c0015161ffff16105b62000d11576040517f08c379a000000000000000000000000000000000000000000000000000000000815260040162000d089062002244565b60405180910390fd5b60008160c0015190505b8160e0015161ffff168161ffff16101562000e425760048161ffff168154811062000d6f577f4e487b7100000000000000000000000000000000000000000000000000000000600052603260045260246000fd5b9060005260206000200160009054906101000a900473ffffffffffffffffffffffffffffffffffffffff1673ffffffffffffffffffffffffffffffffffffffff1663fb6f7523600360009054906101000a900473ffffffffffffffffffffffffffffffffffffffff16846040518363ffffffff1660e01b815260040162000df89291906200211e565b600060405180830381600087803b15801562000e1357600080fd5b505af115801562000e28573d6000803e3d6000fd5b50505050808062000e3990620025a6565b91505062000d1b565b507f348d8ca9de7a7ab4a78818371f39b9a2773724126f22c1c07a2b234774afbe378160c001518260e00151600260009054906101000a900473ffffffffffffffffffffffffffffffffffffffff1660405162000ea29392919062002310565b60405180910390a16001808190555050565b60008060009054906101000a900473ffffffffffffffffffffffffffffffffffffffff16905090565b600360009054906101000a900473ffffffffffffffffffffffffffffffffffffffff1681565b62000f0d6200140c565b73ffffffffffffffffffffffffffffffffffffffff1662000f2d62000eb4565b73ffffffffffffffffffffffffffffffffffffffff161462000f86576040517f08c379a000000000000000000000000000000000000000000000000000000000815260040162000f7d9062002266565b60405180910390fd5b6002600154141562000fcf576040517f08c379a000000000000000000000000000000000000000000000000000000000815260040162000fc690620022cc565b60405180910390fd5b600260018190555080600360006101000a81548173ffffffffffffffffffffffffffffffffffffffff021916908373ffffffffffffffffffffffffffffffffffffffff160217905550600360009054906101000a900473ffffffffffffffffffffffffffffffffffffffff1673ffffffffffffffffffffffffffffffffffffffff167f4f03508dbfa73a33bf7e4bbb85608a7075afef1253bcecb6664fa43bbfd87a2360405160405180910390a26001808190555050565b620010916200140c565b73ffffffffffffffffffffffffffffffffffffffff16620010b162000eb4565b73ffffffffffffffffffffffffffffffffffffffff16146200110a576040517f08c379a0000000000000000000000000000000000000000000000000000000008152600401620011019062002266565b60405180910390fd5b6002600154141562001153576040517f08c379a00000000000000000000000000000000000000000000000000000000081526004016200114a90620022cc565b60405180910390fd5b6002600181905550600081604001602081019062001172919062001c76565b90505b8160400160208101906200118a919062001c76565b61ffff168161ffff161015620012a25760048161ffff1681548110620011d9577f4e487b7100000000000000000000000000000000000000000000000000000000600052603260045260246000fd5b9060005260206000200160009054906101000a900473ffffffffffffffffffffffffffffffffffffffff1673ffffffffffffffffffffffffffffffffffffffff1663dee81f2983600001602081019062001234919062001bc5565b84602001356040518363ffffffff1660e01b8152600401620012589291906200214c565b600060405180830381600087803b1580156200127357600080fd5b505af115801562001288573d6000803e3d6000fd5b5050505080806200129990620025a6565b91505062001175565b507f4fd6b99917ca7d1e25bd6b70465e8f42d4a551fe258e02127ec5d5df0cb962ee600360009054906101000a900473ffffffffffffffffffffffffffffffffffffffff16604051620012f69190620020d4565b60405180910390a16001808190555050565b620013126200140c565b73ffffffffffffffffffffffffffffffffffffffff166200133262000eb4565b73ffffffffffffffffffffffffffffffffffffffff16146200138b576040517f08c379a0000000000000000000000000000000000000000000000000000000008152600401620013829062002266565b60405180910390fd5b600073ffffffffffffffffffffffffffffffffffffffff168173ffffffffffffffffffffffffffffffffffffffff161415620013fe576040517f08c379a0000000000000000000000000000000000000000000000000000000008152600401620013f59062002200565b60405180910390fd5b62001409816200160a565b50565b600033905090565b6000811480620014b4575060008373ffffffffffffffffffffffffffffffffffffffff1663dd62ed3e30856040518363ffffffff1660e01b81526004016200145e929190620020f1565b60206040518083038186803b1580156200147757600080fd5b505afa1580156200148c573d6000803e3d6000fd5b505050506040513d601f19601f82011682018060405250810190620014b2919062001cce565b145b620014f6576040517f08c379a0000000000000000000000000000000000000000000000000000000008152600401620014ed90620022ee565b60405180910390fd5b6200157b8363095ea7b360e01b8484604051602401620015189291906200214c565b604051602081830303815290604052907bffffffffffffffffffffffffffffffffffffffffffffffffffffffff19166020820180517bffffffffffffffffffffffffffffffffffffffffffffffffffffffff83818316178352505050506200176e565b505050565b620016058363a9059cbb60e01b8484604051602401620015a29291906200214c565b604051602081830303815290604052907bffffffffffffffffffffffffffffffffffffffffffffffffffffffff19166020820180517bffffffffffffffffffffffffffffffffffffffffffffffffffffffff83818316178352505050506200176e565b505050565b60008060009054906101000a900473ffffffffffffffffffffffffffffffffffffffff169050816000806101000a81548173ffffffffffffffffffffffffffffffffffffffff021916908373ffffffffffffffffffffffffffffffffffffffff1602179055508173ffffffffffffffffffffffffffffffffffffffff168173ffffffffffffffffffffffffffffffffffffffff167f8be0079c531659141344cd1fd0a4f28419497f9722a3daafe3b4186f6b6457e060405160405180910390a35050565b6200176a8282604051602401620016e79291906200234d565b6040516020818303038152906040527f6c0f6980000000000000000000000000000000000000000000000000000000007bffffffffffffffffffffffffffffffffffffffffffffffffffffffff19166020820180517bffffffffffffffffffffffffffffffffffffffffffffffffffffffff83818316178352505050506200183d565b5050565b6000620017d2826040518060400160405280602081526020017f5361666545524332303a206c6f772d6c6576656c2063616c6c206661696c65648152508573ffffffffffffffffffffffffffffffffffffffff16620018669092919063ffffffff16565b9050600081511115620018385780806020019051810190620017f5919062001bf1565b62001837576040517f08c379a00000000000000000000000000000000000000000000000000000000081526004016200182e90620022aa565b60405180910390fd5b5b505050565b60008151905060006a636f6e736f6c652e6c6f679050602083016000808483855afa5050505050565b606062001877848460008562001880565b90509392505050565b606082471015620018c8576040517f08c379a0000000000000000000000000000000000000000000000000000000008152600401620018bf9062002222565b60405180910390fd5b620018d385620019a2565b62001915576040517f08c379a00000000000000000000000000000000000000000000000000000000081526004016200190c9062002288565b60405180910390fd5b6000808673ffffffffffffffffffffffffffffffffffffffff168587604051620019409190620020bb565b60006040518083038185875af1925050503d80600081146200197f576040519150601f19603f3d011682016040523d82523d6000602084013e62001984565b606091505b509150915062001996828286620019b5565b92505050949350505050565b600080823b905060008111915050919050565b60608315620019c75782905062001a1a565b600083511115620019db5782518084602001fd5b816040517f08c379a000000000000000000000000000000000000000000000000000000000815260040162001a119190620021ba565b60405180910390fd5b9392505050565b6116a5806200294583390190565b60008135905062001a4081620028c2565b92915050565b60008135905062001a5781620028dc565b92915050565b60008151905062001a6e81620028dc565b92915050565b6000610100828403121562001a8857600080fd5b62001a956101006200237a565b9050600062001aa78482850162001a46565b600083015250602062001abd8482850162001a46565b602083015250604062001ad38482850162001a46565b604083015250606062001ae98482850162001a2f565b606083015250608062001aff8482850162001a2f565b60808301525060a062001b158482850162001b80565b60a08301525060c062001b2b8482850162001b69565b60c08301525060e062001b418482850162001b69565b60e08301525092915050565b60006080828403121562001b6057600080fd5b81905092915050565b60008135905062001b7a81620028f6565b92915050565b60008135905062001b918162002910565b92915050565b60008151905062001ba88162002910565b92915050565b60008135905062001bbf816200292a565b92915050565b60006020828403121562001bd857600080fd5b600062001be88482850162001a2f565b91505092915050565b60006020828403121562001c0457600080fd5b600062001c148482850162001a5d565b91505092915050565b6000610100828403121562001c3157600080fd5b600062001c418482850162001a74565b91505092915050565b60006080828403121562001c5d57600080fd5b600062001c6d8482850162001b4d565b91505092915050565b60006020828403121562001c8957600080fd5b600062001c998482850162001b69565b91505092915050565b60006020828403121562001cb557600080fd5b600062001cc58482850162001b80565b91505092915050565b60006020828403121562001ce157600080fd5b600062001cf18482850162001b97565b91505092915050565b60006020828403121562001d0d57600080fd5b600062001d1d8482850162001bae565b91505092915050565b600062001d34838362001d40565b60208301905092915050565b62001d4b81620024aa565b82525050565b62001d5c81620024aa565b82525050565b600062001d6f82620023b3565b62001d7b8185620023e1565b935062001d8883620023a3565b8060005b8381101562001dbf57815162001da3888262001d26565b975062001db083620023d4565b92505060018101905062001d8c565b5085935050505092915050565b62001dd781620024be565b82525050565b600062001dea82620023be565b62001df68185620023f2565b935062001e088185602086016200253a565b80840191505092915050565b62001e1f8162002512565b82525050565b600062001e3282620023c9565b62001e3e8185620023fd565b935062001e508185602086016200253a565b62001e5b8162002682565b840191505092915050565b600062001e75602583620023fd565b915062001e828262002693565b604082019050919050565b600062001e9c602683620023fd565b915062001ea982620026e2565b604082019050919050565b600062001ec3602683620023fd565b915062001ed08262002731565b604082019050919050565b600062001eea601a83620023fd565b915062001ef78262002780565b602082019050919050565b600062001f11602083620023fd565b915062001f1e82620027a9565b602082019050919050565b600062001f38601d83620023fd565b915062001f4582620027d2565b602082019050919050565b600062001f5f602a83620023fd565b915062001f6c82620027fb565b604082019050919050565b600062001f86601f83620023fd565b915062001f93826200284a565b602082019050919050565b600062001fad603683620023fd565b915062001fba8262002873565b604082019050919050565b6101008201600082015162001fde600085018262001dcc565b50602082015162001ff3602085018262001dcc565b50604082015162002008604085018262001dcc565b5060608201516200201d606085018262001d40565b50608082015162002032608085018262001d40565b5060a08201516200204760a085018262002099565b5060c08201516200205c60c085018262002077565b5060e08201516200207160e085018262002077565b50505050565b6200208281620024ca565b82525050565b6200209381620024ca565b82525050565b620020a481620024f8565b82525050565b620020b581620024f8565b82525050565b6000620020c9828462001ddd565b915081905092915050565b6000602082019050620020eb600083018462001d51565b92915050565b600060408201905062002108600083018562001d51565b62002117602083018462001d51565b9392505050565b60006101208201905062002136600083018562001d51565b62002145602083018462001fc5565b9392505050565b600060408201905062002163600083018562001d51565b620021726020830184620020aa565b9392505050565b6000602082019050818103600083015262002195818462001d62565b905092915050565b6000602082019050620021b4600083018462001e14565b92915050565b60006020820190508181036000830152620021d6818462001e25565b905092915050565b60006020820190508181036000830152620021f98162001e66565b9050919050565b600060208201905081810360008301526200221b8162001e8d565b9050919050565b600060208201905081810360008301526200223d8162001eb4565b9050919050565b600060208201905081810360008301526200225f8162001edb565b9050919050565b60006020820190508181036000830152620022818162001f02565b9050919050565b60006020820190508181036000830152620022a38162001f29565b9050919050565b60006020820190508181036000830152620022c58162001f50565b9050919050565b60006020820190508181036000830152620022e78162001f77565b9050919050565b60006020820190508181036000830152620023098162001f9e565b9050919050565b600060608201905062002327600083018662002088565b62002336602083018562002088565b62002345604083018462001d51565b949350505050565b6000604082019050620023646000830185620020aa565b620023736020830184620020aa565b9392505050565b60006200238662002399565b905062002394828262002570565b919050565b6000604051905090565b6000819050602082019050919050565b600081519050919050565b600081519050919050565b600081519050919050565b6000602082019050919050565b600082825260208201905092915050565b600081905092915050565b600082825260208201905092915050565b60006200241b82620024f8565b91506200242883620024f8565b9250817fffffffffffffffffffffffffffffffffffffffffffffffffffffffffffffffff048311821515161562002464576200246362002624565b5b828202905092915050565b60006200247c82620024ca565b91506200248983620024ca565b9250828210156200249f576200249e62002624565b5b828203905092915050565b6000620024b782620024d8565b9050919050565b60008115159050919050565b600061ffff82169050919050565b600073ffffffffffffffffffffffffffffffffffffffff82169050919050565b6000819050919050565b600063ffffffff82169050919050565b60006200251f8262002526565b9050919050565b60006200253382620024d8565b9050919050565b60005b838110156200255a5780820151818401526020810190506200253d565b838111156200256a576000848401525b50505050565b6200257b8262002682565b810181811067ffffffffffffffff821117156200259d576200259c62002653565b5b80604052505050565b6000620025b382620024ca565b915061ffff821415620025cb57620025ca62002624565b5b600182019050919050565b6000620025e382620024f8565b91507fffffffffffffffffffffffffffffffffffffffffffffffffffffffffffffffff82141562002619576200261862002624565b5b600182019050919050565b7f4e487b7100000000000000000000000000000000000000000000000000000000600052601160045260246000fd5b7f4e487b7100000000000000000000000000000000000000000000000000000000600052604160045260246000fd5b6000601f19601f8301169050919050565b7f496e73756666696369656e742066756e647320666f7220616c6c2064656c656760008201527f61746f7273000000000000000000000000000000000000000000000000000000602082015250565b7f4f776e61626c653a206e6577206f776e657220697320746865207a65726f206160008201527f6464726573730000000000000000000000000000000000000000000000000000602082015250565b7f416464726573733a20696e73756666696369656e742062616c616e636520666f60008201527f722063616c6c0000000000000000000000000000000000000000000000000000602082015250565b7f496e76616c6964207374617274206f7220656e6420696e646578000000000000600082015250565b7f4f776e61626c653a2063616c6c6572206973206e6f7420746865206f776e6572600082015250565b7f416464726573733a2063616c6c20746f206e6f6e2d636f6e7472616374000000600082015250565b7f5361666545524332303a204552433230206f7065726174696f6e20646964206e60008201527f6f74207375636365656400000000000000000000000000000000000000000000602082015250565b7f5265656e7472616e637947756172643a207265656e7472616e742063616c6c00600082015250565b7f5361666545524332303a20617070726f76652066726f6d206e6f6e2d7a65726f60008201527f20746f206e6f6e2d7a65726f20616c6c6f77616e636500000000000000000000602082015250565b620028cd81620024aa565b8114620028d957600080fd5b50565b620028e781620024be565b8114620028f357600080fd5b50565b6200290181620024ca565b81146200290d57600080fd5b50565b6200291b81620024f8565b81146200292757600080fd5b50565b620029358162002502565b81146200294157600080fd5b5056fe608060405234801561001057600080fd5b5061002d61002261003960201b60201c565b61004160201b60201c565b60018081905550610105565b600033905090565b60008060009054906101000a900473ffffffffffffffffffffffffffffffffffffffff169050816000806101000a81548173ffffffffffffffffffffffffffffffffffffffff021916908373ffffffffffffffffffffffffffffffffffffffff1602179055508173ffffffffffffffffffffffffffffffffffffffff168173ffffffffffffffffffffffffffffffffffffffff167f8be0079c531659141344cd1fd0a4f28419497f9722a3daafe3b4186f6b6457e060405160405180910390a35050565b611591806101146000396000f3fe608060405234801561001057600080fd5b50600436106100575760003560e01c8063715018a61461005c5780638da5cb5b14610066578063dee81f2914610084578063f2fde38b146100a0578063fb6f7523146100bc575b600080fd5b6100646100d8565b005b61006e610160565b60405161007b9190610ffb565b60405180910390f35b61009e60048036038101906100999190610da7565b610189565b005b6100ba60048036038101906100b59190610d41565b610302565b005b6100d660048036038101906100d19190610d6a565b6103fa565b005b6100e061061e565b73ffffffffffffffffffffffffffffffffffffffff166100fe610160565b73ffffffffffffffffffffffffffffffffffffffff1614610154576040517f08c379a000000000000000000000000000000000000000000000000000000000815260040161014b9061110e565b60405180910390fd5b61015e6000610626565b565b60008060009054906101000a900473ffffffffffffffffffffffffffffffffffffffff16905090565b61019161061e565b73ffffffffffffffffffffffffffffffffffffffff166101af610160565b73ffffffffffffffffffffffffffffffffffffffff1614610205576040517f08c379a00000000000000000000000000000000000000000000000000000000081526004016101fc9061110e565b60405180910390fd5b600081141561029a578173ffffffffffffffffffffffffffffffffffffffff166370a08231306040518263ffffffff1660e01b81526004016102479190610ffb565b60206040518083038186803b15801561025f57600080fd5b505afa158015610273573d6000803e3d6000fd5b505050506040513d601f19601f820116820180604052508101906102979190610e0c565b90505b6102cc6102a5610160565b828473ffffffffffffffffffffffffffffffffffffffff166106ea9092919063ffffffff16565b6102fe6102d7610160565b828473ffffffffffffffffffffffffffffffffffffffff166108489092919063ffffffff16565b5050565b61030a61061e565b73ffffffffffffffffffffffffffffffffffffffff16610328610160565b73ffffffffffffffffffffffffffffffffffffffff161461037e576040517f08c379a00000000000000000000000000000000000000000000000000000000081526004016103759061110e565b60405180910390fd5b600073ffffffffffffffffffffffffffffffffffffffff168173ffffffffffffffffffffffffffffffffffffffff1614156103ee576040517f08c379a00000000000000000000000000000000000000000000000000000000081526004016103e5906110ce565b60405180910390fd5b6103f781610626565b50565b61040261061e565b73ffffffffffffffffffffffffffffffffffffffff16610420610160565b73ffffffffffffffffffffffffffffffffffffffff1614610476576040517f08c379a000000000000000000000000000000000000000000000000000000000815260040161046d9061110e565b60405180910390fd5b600260015414156104bc576040517f08c379a00000000000000000000000000000000000000000000000000000000081526004016104b39061118e565b60405180910390fd5b60026001819055506000808373ffffffffffffffffffffffffffffffffffffffff166001806040516024016104f2929190611083565b6040516020818303038152906040527f4a011ccb000000000000000000000000000000000000000000000000000000007bffffffffffffffffffffffffffffffffffffffffffffffffffffffff19166020820180517bffffffffffffffffffffffffffffffffffffffffffffffffffffffff838183161783525050505060405161057c9190610fe4565b600060405180830381855af49150503d80600081146105b7576040519150601f19603f3d011682016040523d82523d6000602084013e6105bc565b606091505b50915091506105ca826108ce565b6001151582151514610611576040517f08c379a00000000000000000000000000000000000000000000000000000000081526004016106089061112e565b60405180910390fd5b5050600180819055505050565b600033905090565b60008060009054906101000a900473ffffffffffffffffffffffffffffffffffffffff169050816000806101000a81548173ffffffffffffffffffffffffffffffffffffffff021916908373ffffffffffffffffffffffffffffffffffffffff1602179055508173ffffffffffffffffffffffffffffffffffffffff168173ffffffffffffffffffffffffffffffffffffffff167f8be0079c531659141344cd1fd0a4f28419497f9722a3daafe3b4186f6b6457e060405160405180910390a35050565b6000811480610783575060008373ffffffffffffffffffffffffffffffffffffffff1663dd62ed3e30856040518363ffffffff1660e01b8152600401610731929190611016565b60206040518083038186803b15801561074957600080fd5b505afa15801561075d573d6000803e3d6000fd5b505050506040513d601f19601f820116820180604052508101906107819190610e0c565b145b6107c2576040517f08c379a00000000000000000000000000000000000000000000000000000000081526004016107b9906111ae565b60405180910390fd5b6108438363095ea7b360e01b84846040516024016107e192919061103f565b604051602081830303815290604052907bffffffffffffffffffffffffffffffffffffffffffffffffffffffff19166020820180517bffffffffffffffffffffffffffffffffffffffffffffffffffffffff8381831617835250505050610967565b505050565b6108c98363a9059cbb60e01b848460405160240161086792919061103f565b604051602081830303815290604052907bffffffffffffffffffffffffffffffffffffffffffffffffffffffff19166020820180517bffffffffffffffffffffffffffffffffffffffffffffffffffffffff8381831617835250505050610967565b505050565b610964816040516024016108e29190611068565b6040516020818303038152906040527f32458eed000000000000000000000000000000000000000000000000000000007bffffffffffffffffffffffffffffffffffffffffffffffffffffffff19166020820180517bffffffffffffffffffffffffffffffffffffffffffffffffffffffff8381831617835250505050610a2e565b50565b60006109c9826040518060400160405280602081526020017f5361666545524332303a206c6f772d6c6576656c2063616c6c206661696c65648152508573ffffffffffffffffffffffffffffffffffffffff16610a579092919063ffffffff16565b9050600081511115610a2957808060200190518101906109e99190610de3565b610a28576040517f08c379a0000000000000000000000000000000000000000000000000000000008152600401610a1f9061116e565b60405180910390fd5b5b505050565b60008151905060006a636f6e736f6c652e6c6f679050602083016000808483855afa5050505050565b6060610a668484600085610a6f565b90509392505050565b606082471015610ab4576040517f08c379a0000000000000000000000000000000000000000000000000000000008152600401610aab906110ee565b60405180910390fd5b610abd85610b83565b610afc576040517f08c379a0000000000000000000000000000000000000000000000000000000008152600401610af39061114e565b60405180910390fd5b6000808673ffffffffffffffffffffffffffffffffffffffff168587604051610b259190610fe4565b60006040518083038185875af1925050503d8060008114610b62576040519150601f19603f3d011682016040523d82523d6000602084013e610b67565b606091505b5091509150610b77828286610b96565b92505050949350505050565b600080823b905060008111915050919050565b60608315610ba657829050610bf6565b600083511115610bb95782518084602001fd5b816040517f08c379a0000000000000000000000000000000000000000000000000000000008152600401610bed91906110ac565b60405180910390fd5b9392505050565b600081359050610c0c816114ff565b92915050565b600081359050610c2181611516565b92915050565b600081519050610c3681611516565b92915050565b60006101008284031215610c4f57600080fd5b610c5a6101006111ce565b90506000610c6a84828501610c12565b6000830152506020610c7e84828501610c12565b6020830152506040610c9284828501610c12565b6040830152506060610ca684828501610bfd565b6060830152506080610cba84828501610bfd565b60808301525060a0610cce84828501610d17565b60a08301525060c0610ce284828501610d02565b60c08301525060e0610cf684828501610d02565b60e08301525092915050565b600081359050610d118161152d565b92915050565b600081359050610d2681611544565b92915050565b600081519050610d3b81611544565b92915050565b600060208284031215610d5357600080fd5b6000610d6184828501610bfd565b91505092915050565b6000806101208385031215610d7e57600080fd5b6000610d8c85828601610bfd565b9250506020610d9d85828601610c3c565b9150509250929050565b60008060408385031215610dba57600080fd5b6000610dc885828601610bfd565b9250506020610dd985828601610d17565b9150509250929050565b600060208284031215610df557600080fd5b6000610e0384828501610c27565b91505092915050565b600060208284031215610e1e57600080fd5b6000610e2c84828501610d2c565b91505092915050565b610e3e81611225565b82525050565b610e4d81611237565b82525050565b6000610e5e826111f3565b610e688185611209565b9350610e7881856020860161127b565b80840191505092915050565b6000610e8f826111fe565b610e998185611214565b9350610ea981856020860161127b565b610eb28161130e565b840191505092915050565b6000610eca602683611214565b9150610ed58261131f565b604082019050919050565b6000610eed602683611214565b9150610ef88261136e565b604082019050919050565b6000610f10602083611214565b9150610f1b826113bd565b602082019050919050565b6000610f33601183611214565b9150610f3e826113e6565b602082019050919050565b6000610f56601d83611214565b9150610f618261140f565b602082019050919050565b6000610f79602a83611214565b9150610f8482611438565b604082019050919050565b6000610f9c601f83611214565b9150610fa782611487565b602082019050919050565b6000610fbf603683611214565b9150610fca826114b0565b604082019050919050565b610fde81611271565b82525050565b6000610ff08284610e53565b915081905092915050565b60006020820190506110106000830184610e35565b92915050565b600060408201905061102b6000830185610e35565b6110386020830184610e35565b9392505050565b60006040820190506110546000830185610e35565b6110616020830184610fd5565b9392505050565b600060208201905061107d6000830184610e44565b92915050565b60006040820190506110986000830185610e44565b6110a56020830184610e44565b9392505050565b600060208201905081810360008301526110c68184610e84565b905092915050565b600060208201905081810360008301526110e781610ebd565b9050919050565b6000602082019050818103600083015261110781610ee0565b9050919050565b6000602082019050818103600083015261112781610f03565b9050919050565b6000602082019050818103600083015261114781610f26565b9050919050565b6000602082019050818103600083015261116781610f49565b9050919050565b6000602082019050818103600083015261118781610f6c565b9050919050565b600060208201905081810360008301526111a781610f8f565b9050919050565b600060208201905081810360008301526111c781610fb2565b9050919050565b60006111d86111e9565b90506111e482826112ae565b919050565b6000604051905090565b600081519050919050565b600081519050919050565b600081905092915050565b600082825260208201905092915050565b600061123082611251565b9050919050565b60008115159050919050565b600061ffff82169050919050565b600073ffffffffffffffffffffffffffffffffffffffff82169050919050565b6000819050919050565b60005b8381101561129957808201518184015260208101905061127e565b838111156112a8576000848401525b50505050565b6112b78261130e565b810181811067ffffffffffffffff821117156112d6576112d56112df565b5b80604052505050565b7f4e487b7100000000000000000000000000000000000000000000000000000000600052604160045260246000fd5b6000601f19601f8301169050919050565b7f4f776e61626c653a206e6577206f776e657220697320746865207a65726f206160008201527f6464726573730000000000000000000000000000000000000000000000000000602082015250565b7f416464726573733a20696e73756666696369656e742062616c616e636520666f60008201527f722063616c6c0000000000000000000000000000000000000000000000000000602082015250565b7f4f776e61626c653a2063616c6c6572206973206e6f7420746865206f776e6572600082015250565b7f646f48617264576f726b206661696c6564000000000000000000000000000000600082015250565b7f416464726573733a2063616c6c20746f206e6f6e2d636f6e7472616374000000600082015250565b7f5361666545524332303a204552433230206f7065726174696f6e20646964206e60008201527f6f74207375636365656400000000000000000000000000000000000000000000602082015250565b7f5265656e7472616e637947756172643a207265656e7472616e742063616c6c00600082015250565b7f5361666545524332303a20617070726f76652066726f6d206e6f6e2d7a65726f60008201527f20746f206e6f6e2d7a65726f20616c6c6f77616e636500000000000000000000602082015250565b61150881611225565b811461151357600080fd5b50565b61151f81611237565b811461152a57600080fd5b50565b61153681611243565b811461154157600080fd5b50565b61154d81611271565b811461155857600080fd5b5056fea2646970667358221220fee7985acb0d9b0259a04b4d6172e9313173ac13a6d1306aa75729d7a116b46864736f6c63430008040033a26469706673582212201c67c0206b616528c77e58e89b2bf12d1c487768e1ff83a49e6272f4b8dfd83664736f6c63430008040033",
  "linkReferences": {},
  "deployedLinkReferences": {}
}