{
  "_format": "hh-sol-artifact-1",
  "contractName": "Worker",
  "sourceName": "contracts/Worker.sol",
  "abi": [
    {
      "inputs": [],
      "stateMutability": "nonpayable",
      "type": "constructor"
    },
    {
      "anonymous": false,
      "inputs": [
        {
          "indexed": false,
          "internalType": "address",
          "name": "poolAddr",
          "type": "address"
        }
      ],
      "name": "DoHardWork",
      "type": "event"
    },
    {
      "inputs": [
        {
          "internalType": "address",
          "name": "poolAddr",
          "type": "address"
        },
        {
          "internalType": "uint256",
          "name": "amount",
          "type": "uint256"
        }
      ],
      "name": "depositMasterChef",
      "outputs": [],
      "stateMutability": "nonpayable",
      "type": "function"
    },
    {
      "inputs": [
        {
          "internalType": "address",
          "name": "poolAddr",
          "type": "address"
        },
        {
          "internalType": "uint256",
          "name": "amount",
          "type": "uint256"
        }
      ],
      "name": "depositSmartChef",
      "outputs": [],
      "stateMutability": "nonpayable",
      "type": "function"
    },
    {
      "inputs": [],
      "name": "owner",
      "outputs": [
        {
          "internalType": "address",
          "name": "",
          "type": "address"
        }
      ],
      "stateMutability": "view",
      "type": "function"
    },
    {
      "inputs": [
        {
          "internalType": "address",
          "name": "rewardToken",
          "type": "address"
        },
        {
          "internalType": "address[]",
          "name": "path",
          "type": "address[]"
        },
        {
          "internalType": "uint256",
          "name": "amountIn",
          "type": "uint256"
        }
      ],
      "name": "swap",
      "outputs": [],
      "stateMutability": "nonpayable",
      "type": "function"
    },
    {
      "inputs": [
        {
          "internalType": "uint256",
          "name": "amount",
          "type": "uint256"
        }
      ],
      "name": "transferToManager",
      "outputs": [],
      "stateMutability": "nonpayable",
      "type": "function"
    },
    {
      "inputs": [
        {
          "internalType": "address",
          "name": "poolAddr",
          "type": "address"
        },
        {
          "internalType": "uint256",
          "name": "amount",
          "type": "uint256"
        }
      ],
      "name": "withdrawMasterChef",
      "outputs": [],
      "stateMutability": "nonpayable",
      "type": "function"
    },
    {
      "inputs": [
        {
          "internalType": "address",
          "name": "poolAddr",
          "type": "address"
        },
        {
          "internalType": "uint256",
          "name": "amount",
          "type": "uint256"
        }
      ],
      "name": "withdrawSmartChef",
      "outputs": [],
      "stateMutability": "nonpayable",
      "type": "function"
    }
  ],
  "bytecode": "0x60a0604052730e09fabb73bd3ade0a17ecc321fd13a19e81ce826000806101000a81548173ffffffffffffffffffffffffffffffffffffffff021916908373ffffffffffffffffffffffffffffffffffffffff1602179055507373feaa1ee314f8c655e354234017be2193c9e24e600160006101000a81548173ffffffffffffffffffffffffffffffffffffffff021916908373ffffffffffffffffffffffffffffffffffffffff16021790555073927158be21fe3d4da7e96931bb27fd5059a8cbc2600260006101000a81548173ffffffffffffffffffffffffffffffffffffffff021916908373ffffffffffffffffffffffffffffffffffffffff1602179055507310ed43c718714eb63d5aa57b78b54704e256024e600360006101000a81548173ffffffffffffffffffffffffffffffffffffffff021916908373ffffffffffffffffffffffffffffffffffffffff16021790555061038460045534801561016957600080fd5b503373ffffffffffffffffffffffffffffffffffffffff1660808173ffffffffffffffffffffffffffffffffffffffff1660601b8152505060805160601c6115806101f06000396000818161014a01528181610247015281816104580152818161055501528181610700015281816108ab015281816108cf015261096001526115806000f3fe608060405234801561001057600080fd5b506004361061007d5760003560e01c80636be6589b1161005b5780636be6589b146100d657806379829eb6146100f25780638da5cb5b1461010e578063c5b6c5a41461012c5761007d565b80630296fd3b146100825780632e449e9b1461009e578063575a08a1146100ba575b600080fd5b61009c60048036038101906100979190610e5c565b610148565b005b6100b860048036038101906100b39190610df0565b610245565b005b6100d460048036038101906100cf9190610e5c565b610456565b005b6100f060048036038101906100eb9190610e5c565b610553565b005b61010c60048036038101906101079190610e5c565b6106fe565b005b6101166108a9565b604051610123919061119a565b60405180910390f35b61014660048036038101906101419190610f02565b6108cd565b005b7f000000000000000000000000000000000000000000000000000000000000000073ffffffffffffffffffffffffffffffffffffffff163373ffffffffffffffffffffffffffffffffffffffff16146101d6576040517f08c379a00000000000000000000000000000000000000000000000000000000081526004016101cd90611260565b60405180910390fd5b8173ffffffffffffffffffffffffffffffffffffffff16632e1a7d4d826040518263ffffffff1660e01b815260040161020f9190611280565b600060405180830381600087803b15801561022957600080fd5b505af115801561023d573d6000803e3d6000fd5b505050505050565b7f000000000000000000000000000000000000000000000000000000000000000073ffffffffffffffffffffffffffffffffffffffff163373ffffffffffffffffffffffffffffffffffffffff16146102d3576040517f08c379a00000000000000000000000000000000000000000000000000000000081526004016102ca90611260565b60405180910390fd5b60008473ffffffffffffffffffffffffffffffffffffffff1663095ea7b3600360009054906101000a900473ffffffffffffffffffffffffffffffffffffffff16846040518363ffffffff1660e01b81526004016103329291906111b5565b602060405180830381600087803b15801561034c57600080fd5b505af1158015610360573d6000803e3d6000fd5b505050506040513d601f19601f820116820180604052508101906103849190610ed9565b50600360009054906101000a900473ffffffffffffffffffffffffffffffffffffffff1673ffffffffffffffffffffffffffffffffffffffff166338ed17398383878730600454426103d691906113c5565b6040518763ffffffff1660e01b81526004016103f79695949392919061129b565b600060405180830381600087803b15801561041157600080fd5b505af1158015610425573d6000803e3d6000fd5b505050506040513d6000823e3d601f19601f8201168201806040525081019061044e9190610e98565b505050505050565b7f000000000000000000000000000000000000000000000000000000000000000073ffffffffffffffffffffffffffffffffffffffff163373ffffffffffffffffffffffffffffffffffffffff16146104e4576040517f08c379a00000000000000000000000000000000000000000000000000000000081526004016104db90611260565b60405180910390fd5b8173ffffffffffffffffffffffffffffffffffffffff16631058d281826040518263ffffffff1660e01b815260040161051d9190611280565b600060405180830381600087803b15801561053757600080fd5b505af115801561054b573d6000803e3d6000fd5b505050505050565b7f000000000000000000000000000000000000000000000000000000000000000073ffffffffffffffffffffffffffffffffffffffff163373ffffffffffffffffffffffffffffffffffffffff16146105e1576040517f08c379a00000000000000000000000000000000000000000000000000000000081526004016105d890611260565b60405180910390fd5b60008054906101000a900473ffffffffffffffffffffffffffffffffffffffff1673ffffffffffffffffffffffffffffffffffffffff1663095ea7b383836040518363ffffffff1660e01b815260040161063c9291906111b5565b602060405180830381600087803b15801561065657600080fd5b505af115801561066a573d6000803e3d6000fd5b505050506040513d601f19601f8201168201806040525081019061068e9190610ed9565b508173ffffffffffffffffffffffffffffffffffffffff1663b6b55f25826040518263ffffffff1660e01b81526004016106c89190611280565b600060405180830381600087803b1580156106e257600080fd5b505af11580156106f6573d6000803e3d6000fd5b505050505050565b7f000000000000000000000000000000000000000000000000000000000000000073ffffffffffffffffffffffffffffffffffffffff163373ffffffffffffffffffffffffffffffffffffffff161461078c576040517f08c379a000000000000000000000000000000000000000000000000000000000815260040161078390611260565b60405180910390fd5b60008054906101000a900473ffffffffffffffffffffffffffffffffffffffff1673ffffffffffffffffffffffffffffffffffffffff1663095ea7b383836040518363ffffffff1660e01b81526004016107e79291906111b5565b602060405180830381600087803b15801561080157600080fd5b505af1158015610815573d6000803e3d6000fd5b505050506040513d601f19601f820116820180604052508101906108399190610ed9565b508173ffffffffffffffffffffffffffffffffffffffff166341441d3b826040518263ffffffff1660e01b81526004016108739190611280565b600060405180830381600087803b15801561088d57600080fd5b505af11580156108a1573d6000803e3d6000fd5b505050505050565b7f000000000000000000000000000000000000000000000000000000000000000081565b7f000000000000000000000000000000000000000000000000000000000000000073ffffffffffffffffffffffffffffffffffffffff163373ffffffffffffffffffffffffffffffffffffffff161461095b576040517f08c379a000000000000000000000000000000000000000000000000000000000815260040161095290611260565b60405180910390fd5b6109c67f00000000000000000000000000000000000000000000000000000000000000008260008054906101000a900473ffffffffffffffffffffffffffffffffffffffff1673ffffffffffffffffffffffffffffffffffffffff166109c99092919063ffffffff16565b50565b610a4a8363a9059cbb60e01b84846040516024016109e89291906111b5565b604051602081830303815290604052907bffffffffffffffffffffffffffffffffffffffffffffffffffffffff19166020820180517bffffffffffffffffffffffffffffffffffffffffffffffffffffffff8381831617835250505050610a4f565b505050565b6000610ab1826040518060400160405280602081526020017f5361666545524332303a206c6f772d6c6576656c2063616c6c206661696c65648152508573ffffffffffffffffffffffffffffffffffffffff16610b169092919063ffffffff16565b9050600081511115610b115780806020019051810190610ad19190610ed9565b610b10576040517f08c379a0000000000000000000000000000000000000000000000000000000008152600401610b0790611240565b60405180910390fd5b5b505050565b6060610b258484600085610b2e565b90509392505050565b606082471015610b73576040517f08c379a0000000000000000000000000000000000000000000000000000000008152600401610b6a90611200565b60405180910390fd5b610b7c85610c42565b610bbb576040517f08c379a0000000000000000000000000000000000000000000000000000000008152600401610bb290611220565b60405180910390fd5b6000808673ffffffffffffffffffffffffffffffffffffffff168587604051610be49190611183565b60006040518083038185875af1925050503d8060008114610c21576040519150601f19603f3d011682016040523d82523d6000602084013e610c26565b606091505b5091509150610c36828286610c55565b92505050949350505050565b600080823b905060008111915050919050565b60608315610c6557829050610cb5565b600083511115610c785782518084602001fd5b816040517f08c379a0000000000000000000000000000000000000000000000000000000008152600401610cac91906111de565b60405180910390fd5b9392505050565b6000610ccf610cca84611328565b6112f7565b90508083825260208201905082856020860282011115610cee57600080fd5b60005b85811015610d1e5781610d048882610ddb565b845260208401935060208301925050600181019050610cf1565b5050509392505050565b600081359050610d3781611505565b92915050565b60008083601f840112610d4f57600080fd5b8235905067ffffffffffffffff811115610d6857600080fd5b602083019150836020820283011115610d8057600080fd5b9250929050565b600082601f830112610d9857600080fd5b8151610da8848260208601610cbc565b91505092915050565b600081519050610dc08161151c565b92915050565b600081359050610dd581611533565b92915050565b600081519050610dea81611533565b92915050565b60008060008060608587031215610e0657600080fd5b6000610e1487828801610d28565b945050602085013567ffffffffffffffff811115610e3157600080fd5b610e3d87828801610d3d565b93509350506040610e5087828801610dc6565b91505092959194509250565b60008060408385031215610e6f57600080fd5b6000610e7d85828601610d28565b9250506020610e8e85828601610dc6565b9150509250929050565b600060208284031215610eaa57600080fd5b600082015167ffffffffffffffff811115610ec457600080fd5b610ed084828501610d87565b91505092915050565b600060208284031215610eeb57600080fd5b6000610ef984828501610db1565b91505092915050565b600060208284031215610f1457600080fd5b6000610f2284828501610dc6565b91505092915050565b6000610f378383610f43565b60208301905092915050565b610f4c8161141b565b82525050565b610f5b8161141b565b82525050565b6000610f6d8385611381565b9350610f7882611354565b8060005b85811015610fb157610f8e82846113ae565b610f988882610f2b565b9750610fa383611374565b925050600181019050610f7c565b5085925050509392505050565b6000610fc98261135e565b610fd38185611392565b9350610fe3818560208601611463565b80840191505092915050565b6000610ffa82611369565b611004818561139d565b9350611014818560208601611463565b61101d816114f4565b840191505092915050565b600061103560268361139d565b91507f416464726573733a20696e73756666696369656e742062616c616e636520666f60008301527f722063616c6c00000000000000000000000000000000000000000000000000006020830152604082019050919050565b600061109b601d8361139d565b91507f416464726573733a2063616c6c20746f206e6f6e2d636f6e74726163740000006000830152602082019050919050565b60006110db602a8361139d565b91507f5361666545524332303a204552433230206f7065726174696f6e20646964206e60008301527f6f742073756363656564000000000000000000000000000000000000000000006020830152604082019050919050565b600061114160098361139d565b91507f6f6e6c794f776e657200000000000000000000000000000000000000000000006000830152602082019050919050565b61117d81611459565b82525050565b600061118f8284610fbe565b915081905092915050565b60006020820190506111af6000830184610f52565b92915050565b60006040820190506111ca6000830185610f52565b6111d76020830184611174565b9392505050565b600060208201905081810360008301526111f88184610fef565b905092915050565b6000602082019050818103600083015261121981611028565b9050919050565b600060208201905081810360008301526112398161108e565b9050919050565b60006020820190508181036000830152611259816110ce565b9050919050565b6000602082019050818103600083015261127981611134565b9050919050565b60006020820190506112956000830184611174565b92915050565b600060a0820190506112b06000830189611174565b6112bd6020830188611174565b81810360408301526112d0818688610f61565b90506112df6060830185610f52565b6112ec6080830184611174565b979650505050505050565b6000604051905081810181811067ffffffffffffffff8211171561131e5761131d6114c5565b5b8060405250919050565b600067ffffffffffffffff821115611343576113426114c5565b5b602082029050602081019050919050565b6000819050919050565b600081519050919050565b600081519050919050565b6000602082019050919050565b600082825260208201905092915050565b600081905092915050565b600082825260208201905092915050565b60006113bd6020840184610d28565b905092915050565b60006113d082611459565b91506113db83611459565b9250827fffffffffffffffffffffffffffffffffffffffffffffffffffffffffffffffff038211156114105761140f611496565b5b828201905092915050565b600061142682611439565b9050919050565b60008115159050919050565b600073ffffffffffffffffffffffffffffffffffffffff82169050919050565b6000819050919050565b60005b83811015611481578082015181840152602081019050611466565b83811115611490576000848401525b50505050565b7f4e487b7100000000000000000000000000000000000000000000000000000000600052601160045260246000fd5b7f4e487b7100000000000000000000000000000000000000000000000000000000600052604160045260246000fd5b6000601f19601f8301169050919050565b61150e8161141b565b811461151957600080fd5b50565b6115258161142d565b811461153057600080fd5b50565b61153c81611459565b811461154757600080fd5b5056fea264697066735822122083355f75955a47524c5b032f95af6deb07e12891fd7ccaa767968cec8f0b6a1564736f6c63430008000033",
  "linkReferences": {},
  "deployedLinkReferences": {}
}