{
  "_format": "hh-sol-artifact-1",
  "contractName": "Worker",
  "sourceName": "contracts/Worker.sol",
  "abi": [
    {
      "inputs": [],
      "stateMutability": "nonpayable",
      "type": "constructor"
    },
    {
      "anonymous": false,
      "inputs": [
        {
          "indexed": false,
          "internalType": "address",
          "name": "stakedPoolAddr",
          "type": "address"
        }
      ],
      "name": "DoHardWork",
      "type": "event"
    },
    {
      "inputs": [
        {
          "components": [
            {
              "internalType": "bool",
              "name": "withdraw",
              "type": "bool"
            },
            {
              "internalType": "bool",
              "name": "swap",
              "type": "bool"
            },
            {
              "internalType": "bool",
              "name": "deposit",
              "type": "bool"
            },
            {
              "internalType": "address",
              "name": "stakedPoolAddr",
              "type": "address"
            },
            {
              "internalType": "address",
              "name": "newPoolAddr",
              "type": "address"
            },
            {
              "internalType": "uint256",
              "name": "amount",
              "type": "uint256"
            },
            {
              "internalType": "uint16",
              "name": "startIndex",
              "type": "uint16"
            },
            {
              "internalType": "uint16",
              "name": "endIndex",
              "type": "uint16"
            },
            {
              "components": [
                {
                  "internalType": "address",
                  "name": "swapRouter",
                  "type": "address"
                },
                {
                  "internalType": "uint256",
                  "name": "multiplier",
                  "type": "uint256"
                },
                {
                  "internalType": "address[]",
                  "name": "path",
                  "type": "address[]"
                },
                {
                  "internalType": "uint256",
                  "name": "deadline",
                  "type": "uint256"
                }
              ],
              "internalType": "struct IWorker.SwapParams",
              "name": "swapParams",
              "type": "tuple"
            }
          ],
          "internalType": "struct IWorker.DoHardWorkParams",
          "name": "params",
          "type": "tuple"
        }
      ],
      "name": "doHardWork",
      "outputs": [],
      "stateMutability": "nonpayable",
      "type": "function"
    },
    {
      "inputs": [],
      "name": "owner",
      "outputs": [
        {
          "internalType": "address",
          "name": "",
          "type": "address"
        }
      ],
      "stateMutability": "view",
      "type": "function"
    },
    {
      "inputs": [
        {
          "internalType": "uint256",
          "name": "amount",
          "type": "uint256"
        },
        {
          "internalType": "address",
          "name": "token",
          "type": "address"
        }
      ],
      "name": "transferToManager",
      "outputs": [],
      "stateMutability": "nonpayable",
      "type": "function"
    }
  ],
  "bytecode": "0x60a0604052730e09fabb73bd3ade0a17ecc321fd13a19e81ce826000806101000a81548173ffffffffffffffffffffffffffffffffffffffff021916908373ffffffffffffffffffffffffffffffffffffffff1602179055507373feaa1ee314f8c655e354234017be2193c9e24e600160006101000a81548173ffffffffffffffffffffffffffffffffffffffff021916908373ffffffffffffffffffffffffffffffffffffffff16021790555073927158be21fe3d4da7e96931bb27fd5059a8cbc2600260006101000a81548173ffffffffffffffffffffffffffffffffffffffff021916908373ffffffffffffffffffffffffffffffffffffffff16021790555073927158be21fe3d4da7e96931bb27fd5059a8cbc2600360006101000a81548173ffffffffffffffffffffffffffffffffffffffff021916908373ffffffffffffffffffffffffffffffffffffffff16021790555034801561016357600080fd5b503373ffffffffffffffffffffffffffffffffffffffff1660808173ffffffffffffffffffffffffffffffffffffffff1660601b8152505060805160601c611f4c6101cc60003960008181609e0152818160c20152818161025301526103790152611f4c6000f3fe608060405234801561001057600080fd5b50600436106100415760003560e01c80638da5cb5b14610046578063a2fa1c9714610064578063a5d3434314610080575b600080fd5b61004e61009c565b60405161005b91906119a6565b60405180910390f35b61007e600480360381019061007991906115d9565b6100c0565b005b61009a6004803603810190610095919061166c565b610251565b005b7f000000000000000000000000000000000000000000000000000000000000000081565b7f000000000000000000000000000000000000000000000000000000000000000073ffffffffffffffffffffffffffffffffffffffff163373ffffffffffffffffffffffffffffffffffffffff161461014e576040517f08c379a000000000000000000000000000000000000000000000000000000000815260040161014590611ad5565b60405180910390fd5b8060000160208101906101619190611587565b156101875761018681606001602081019061017c91906114f4565b8260a001356103c3565b5b80602001602081019061019a9190611587565b156101cc576101cb8160600160208101906101b591906114f4565b828061010001906101c69190611bf5565b610639565b5b8060400160208101906101df9190611587565b15610205576102048160800160208101906101fa91906114f4565b8260a00135610a6b565b5b7f81188f5f74429a8d5dd69e402d2ec601e9510929aeb809d15acde392c83de43381606001602081019061023991906114f4565b60405161024691906119a6565b60405180910390a150565b7f000000000000000000000000000000000000000000000000000000000000000073ffffffffffffffffffffffffffffffffffffffff163373ffffffffffffffffffffffffffffffffffffffff16146102df576040517f08c379a00000000000000000000000000000000000000000000000000000000081526004016102d690611ad5565b60405180910390fd5b6000821415610374578073ffffffffffffffffffffffffffffffffffffffff166370a08231306040518263ffffffff1660e01b815260040161032191906119a6565b60206040518083038186803b15801561033957600080fd5b505afa15801561034d573d6000803e3d6000fd5b505050506040513d601f19601f820116820180604052508101906103719190611643565b91505b6103bf7f0000000000000000000000000000000000000000000000000000000000000000838373ffffffffffffffffffffffffffffffffffffffff16610e799092919063ffffffff16565b5050565b6103cb61135e565b600160009054906101000a900473ffffffffffffffffffffffffffffffffffffffff1673ffffffffffffffffffffffffffffffffffffffff168373ffffffffffffffffffffffffffffffffffffffff16141561052e57600082146104be578273ffffffffffffffffffffffffffffffffffffffff166393f1a40b6000306040518363ffffffff1660e01b81526004016104659291906119ea565b604080518083038186803b15801561047c57600080fd5b505afa158015610490573d6000803e3d6000fd5b505050506040513d601f19601f820116820180604052508101906104b4919061161a565b9050806000015191505b8273ffffffffffffffffffffffffffffffffffffffff16631058d281836040518263ffffffff1660e01b81526004016104f79190611af5565b600060405180830381600087803b15801561051157600080fd5b505af1158015610525573d6000803e3d6000fd5b50505050610634565b600082146105c8578273ffffffffffffffffffffffffffffffffffffffff16631959a002306040518263ffffffff1660e01b815260040161056f91906119a6565b604080518083038186803b15801561058657600080fd5b505afa15801561059a573d6000803e3d6000fd5b505050506040513d601f19601f820116820180604052508101906105be919061161a565b9050806000015191505b8273ffffffffffffffffffffffffffffffffffffffff16632e1a7d4d836040518263ffffffff1660e01b81526004016106019190611af5565b600060405180830381600087803b15801561061b57600080fd5b505af115801561062f573d6000803e3d6000fd5b505050505b505050565b60008273ffffffffffffffffffffffffffffffffffffffff1663f7c618c16040518163ffffffff1660e01b8152600401602060405180830381600087803b15801561068357600080fd5b505af1158015610697573d6000803e3d6000fd5b505050506040513d601f19601f820116820180604052508101906106bb919061151d565b73ffffffffffffffffffffffffffffffffffffffff166370a08231306040518263ffffffff1660e01b81526004016106f391906119a6565b60206040518083038186803b15801561070b57600080fd5b505afa15801561071f573d6000803e3d6000fd5b505050506040513d601f19601f820116820180604052508101906107439190611643565b905060008114156107545750610a67565b600082600001602081019061076991906114f4565b73ffffffffffffffffffffffffffffffffffffffff1663d06ca61f838580604001906107959190611b9e565b6040518463ffffffff1660e01b81526004016107b393929190611b10565b60006040518083038186803b1580156107cb57600080fd5b505afa1580156107df573d6000803e3d6000fd5b505050506040513d6000823e3d601f19601f820116820180604052508101906108089190611546565b905060006108836064610875866020013585600187516108289190611d72565b8151811061085f577f4e487b7100000000000000000000000000000000000000000000000000000000600052603260045260246000fd5b6020026020010151610eff90919063ffffffff16565b610f1590919063ffffffff16565b90508473ffffffffffffffffffffffffffffffffffffffff1663f7c618c16040518163ffffffff1660e01b8152600401602060405180830381600087803b1580156108cd57600080fd5b505af11580156108e1573d6000803e3d6000fd5b505050506040513d601f19601f82011682018060405250810190610905919061151d565b73ffffffffffffffffffffffffffffffffffffffff1663095ea7b385600001602081019061093391906114f4565b856040518363ffffffff1660e01b81526004016109519291906119c1565b602060405180830381600087803b15801561096b57600080fd5b505af115801561097f573d6000803e3d6000fd5b505050506040513d601f19601f820116820180604052508101906109a391906115b0565b508360000160208101906109b791906114f4565b73ffffffffffffffffffffffffffffffffffffffff166338ed173984838780604001906109e49190611b9e565b308a606001356040518763ffffffff1660e01b8152600401610a0b96959493929190611b42565b600060405180830381600087803b158015610a2557600080fd5b505af1158015610a39573d6000803e3d6000fd5b505050506040513d6000823e3d601f19601f82011682018060405250810190610a629190611546565b505050505b5050565b610a7482610f2b565b6000811415610b88578173ffffffffffffffffffffffffffffffffffffffff1663cc7a262e6040518163ffffffff1660e01b8152600401602060405180830381600087803b158015610ac557600080fd5b505af1158015610ad9573d6000803e3d6000fd5b505050506040513d601f19601f82011682018060405250810190610afd919061151d565b73ffffffffffffffffffffffffffffffffffffffff166370a08231306040518263ffffffff1660e01b8152600401610b3591906119a6565b60206040518083038186803b158015610b4d57600080fd5b505afa158015610b61573d6000803e3d6000fd5b505050506040513d601f19601f82011682018060405250810190610b859190611643565b90505b600160009054906101000a900473ffffffffffffffffffffffffffffffffffffffff1673ffffffffffffffffffffffffffffffffffffffff168273ffffffffffffffffffffffffffffffffffffffff161415610cfc5760008054906101000a900473ffffffffffffffffffffffffffffffffffffffff1673ffffffffffffffffffffffffffffffffffffffff1663095ea7b383836040518363ffffffff1660e01b8152600401610c399291906119c1565b602060405180830381600087803b158015610c5357600080fd5b505af1158015610c67573d6000803e3d6000fd5b505050506040513d601f19601f82011682018060405250810190610c8b91906115b0565b508173ffffffffffffffffffffffffffffffffffffffff166341441d3b826040518263ffffffff1660e01b8152600401610cc59190611af5565b600060405180830381600087803b158015610cdf57600080fd5b505af1158015610cf3573d6000803e3d6000fd5b50505050610e75565b8173ffffffffffffffffffffffffffffffffffffffff1663cc7a262e6040518163ffffffff1660e01b8152600401602060405180830381600087803b158015610d4457600080fd5b505af1158015610d58573d6000803e3d6000fd5b505050506040513d601f19601f82011682018060405250810190610d7c919061151d565b73ffffffffffffffffffffffffffffffffffffffff1663095ea7b383836040518363ffffffff1660e01b8152600401610db69291906119c1565b602060405180830381600087803b158015610dd057600080fd5b505af1158015610de4573d6000803e3d6000fd5b505050506040513d601f19601f82011682018060405250810190610e0891906115b0565b508173ffffffffffffffffffffffffffffffffffffffff1663b6b55f25826040518263ffffffff1660e01b8152600401610e429190611af5565b600060405180830381600087803b158015610e5c57600080fd5b505af1158015610e70573d6000803e3d6000fd5b505050505b5050565b610efa8363a9059cbb60e01b8484604051602401610e989291906119c1565b604051602081830303815290604052907bffffffffffffffffffffffffffffffffffffffffffffffffffffffff19166020820180517bffffffffffffffffffffffffffffffffffffffffffffffffffffffff83818316178352505050506110f1565b505050565b60008183610f0d9190611d18565b905092915050565b60008183610f239190611ce7565b905092915050565b600360009054906101000a900473ffffffffffffffffffffffffffffffffffffffff1673ffffffffffffffffffffffffffffffffffffffff168173ffffffffffffffffffffffffffffffffffffffff1663bd6171916040518163ffffffff1660e01b8152600401602060405180830381600087803b158015610fac57600080fd5b505af1158015610fc0573d6000803e3d6000fd5b505050506040513d601f19601f82011682018060405250810190610fe4919061151d565b73ffffffffffffffffffffffffffffffffffffffff161461103a576040517f08c379a000000000000000000000000000000000000000000000000000000000815260040161103190611a35565b60405180910390fd5b6000807f866f2224d2bcc0a716d292663e34396dd64d657e342d87867aa429b6377f1b2d60001b905060008373ffffffffffffffffffffffffffffffffffffffff16803b806020016040519081016040528181526000908060200190933c90506000602060ff16905082818320149350836110ea576040517f08c379a00000000000000000000000000000000000000000000000000000000081526004016110e190611a55565b60405180910390fd5b5050505050565b6000611153826040518060400160405280602081526020017f5361666545524332303a206c6f772d6c6576656c2063616c6c206661696c65648152508573ffffffffffffffffffffffffffffffffffffffff166111b89092919063ffffffff16565b90506000815111156111b3578080602001905181019061117391906115b0565b6111b2576040517f08c379a00000000000000000000000000000000000000000000000000000000081526004016111a990611ab5565b60405180910390fd5b5b505050565b60606111c784846000856111d0565b90509392505050565b606082471015611215576040517f08c379a000000000000000000000000000000000000000000000000000000000815260040161120c90611a75565b60405180910390fd5b61121e856112e4565b61125d576040517f08c379a000000000000000000000000000000000000000000000000000000000815260040161125490611a95565b60405180910390fd5b6000808673ffffffffffffffffffffffffffffffffffffffff168587604051611286919061198f565b60006040518083038185875af1925050503d80600081146112c3576040519150601f19603f3d011682016040523d82523d6000602084013e6112c8565b606091505b50915091506112d88282866112f7565b92505050949350505050565b600080823b905060008111915050919050565b6060831561130757829050611357565b60008351111561131a5782518084602001fd5b816040517f08c379a000000000000000000000000000000000000000000000000000000000815260040161134e9190611a13565b60405180910390fd5b9392505050565b604051806040016040528060008152602001600081525090565b600061138b61138684611c4a565b611c19565b905080838252602082019050828560208602820111156113aa57600080fd5b60005b858110156113da57816113c088826114df565b8452602084019350602083019250506001810190506113ad565b5050509392505050565b6000813590506113f381611ed1565b92915050565b60008151905061140881611ed1565b92915050565b600082601f83011261141f57600080fd5b815161142f848260208601611378565b91505092915050565b60008135905061144781611ee8565b92915050565b60008151905061145c81611ee8565b92915050565b6000610120828403121561147557600080fd5b81905092915050565b60006040828403121561149057600080fd5b61149a6040611c19565b905060006114aa848285016114df565b60008301525060206114be848285016114df565b60208301525092915050565b6000813590506114d981611eff565b92915050565b6000815190506114ee81611eff565b92915050565b60006020828403121561150657600080fd5b6000611514848285016113e4565b91505092915050565b60006020828403121561152f57600080fd5b600061153d848285016113f9565b91505092915050565b60006020828403121561155857600080fd5b600082015167ffffffffffffffff81111561157257600080fd5b61157e8482850161140e565b91505092915050565b60006020828403121561159957600080fd5b60006115a784828501611438565b91505092915050565b6000602082840312156115c257600080fd5b60006115d08482850161144d565b91505092915050565b6000602082840312156115eb57600080fd5b600082013567ffffffffffffffff81111561160557600080fd5b61161184828501611462565b91505092915050565b60006040828403121561162c57600080fd5b600061163a8482850161147e565b91505092915050565b60006020828403121561165557600080fd5b6000611663848285016114df565b91505092915050565b6000806040838503121561167f57600080fd5b600061168d858286016114ca565b925050602061169e858286016113e4565b9150509250929050565b60006116b483836116c0565b60208301905092915050565b6116c981611da6565b82525050565b6116d881611da6565b82525050565b60006116ea8385611ca3565b93506116f582611c76565b8060005b8581101561172e5761170b8284611cd0565b61171588826116a8565b975061172083611c96565b9250506001810190506116f9565b5085925050509392505050565b600061174682611c80565b6117508185611cb4565b9350611760818560208601611e00565b80840191505092915050565b61177581611dee565b82525050565b600061178682611c8b565b6117908185611cbf565b93506117a0818560208601611e00565b6117a981611ec0565b840191505092915050565b60006117c1601983611cbf565b91507f696e76616c696420736d6172746368656620666163746f7279000000000000006000830152602082019050919050565b6000611801601683611cbf565b91507f696e76616c696420736d6172746368656620636f6465000000000000000000006000830152602082019050919050565b6000611841602683611cbf565b91507f416464726573733a20696e73756666696369656e742062616c616e636520666f60008301527f722063616c6c00000000000000000000000000000000000000000000000000006020830152604082019050919050565b60006118a7601d83611cbf565b91507f416464726573733a2063616c6c20746f206e6f6e2d636f6e74726163740000006000830152602082019050919050565b60006118e7602a83611cbf565b91507f5361666545524332303a204552433230206f7065726174696f6e20646964206e60008301527f6f742073756363656564000000000000000000000000000000000000000000006020830152604082019050919050565b600061194d600983611cbf565b91507f6f6e6c794f776e657200000000000000000000000000000000000000000000006000830152602082019050919050565b61198981611de4565b82525050565b600061199b828461173b565b915081905092915050565b60006020820190506119bb60008301846116cf565b92915050565b60006040820190506119d660008301856116cf565b6119e36020830184611980565b9392505050565b60006040820190506119ff600083018561176c565b611a0c60208301846116cf565b9392505050565b60006020820190508181036000830152611a2d818461177b565b905092915050565b60006020820190508181036000830152611a4e816117b4565b9050919050565b60006020820190508181036000830152611a6e816117f4565b9050919050565b60006020820190508181036000830152611a8e81611834565b9050919050565b60006020820190508181036000830152611aae8161189a565b9050919050565b60006020820190508181036000830152611ace816118da565b9050919050565b60006020820190508181036000830152611aee81611940565b9050919050565b6000602082019050611b0a6000830184611980565b92915050565b6000604082019050611b256000830186611980565b8181036020830152611b388184866116de565b9050949350505050565b600060a082019050611b576000830189611980565b611b646020830188611980565b8181036040830152611b778186886116de565b9050611b8660608301856116cf565b611b936080830184611980565b979650505050505050565b60008083356001602003843603038112611bb757600080fd5b80840192508235915067ffffffffffffffff821115611bd557600080fd5b602083019250602082023603831315611bed57600080fd5b509250929050565b600082356001608003833603038112611c0d57600080fd5b80830191505092915050565b6000604051905081810181811067ffffffffffffffff82111715611c4057611c3f611e91565b5b8060405250919050565b600067ffffffffffffffff821115611c6557611c64611e91565b5b602082029050602081019050919050565b6000819050919050565b600081519050919050565b600081519050919050565b6000602082019050919050565b600082825260208201905092915050565b600081905092915050565b600082825260208201905092915050565b6000611cdf60208401846113e4565b905092915050565b6000611cf282611de4565b9150611cfd83611de4565b925082611d0d57611d0c611e62565b5b828204905092915050565b6000611d2382611de4565b9150611d2e83611de4565b9250817fffffffffffffffffffffffffffffffffffffffffffffffffffffffffffffffff0483118215151615611d6757611d66611e33565b5b828202905092915050565b6000611d7d82611de4565b9150611d8883611de4565b925082821015611d9b57611d9a611e33565b5b828203905092915050565b6000611db182611dc4565b9050919050565b60008115159050919050565b600073ffffffffffffffffffffffffffffffffffffffff82169050919050565b6000819050919050565b6000611df982611de4565b9050919050565b60005b83811015611e1e578082015181840152602081019050611e03565b83811115611e2d576000848401525b50505050565b7f4e487b7100000000000000000000000000000000000000000000000000000000600052601160045260246000fd5b7f4e487b7100000000000000000000000000000000000000000000000000000000600052601260045260246000fd5b7f4e487b7100000000000000000000000000000000000000000000000000000000600052604160045260246000fd5b6000601f19601f8301169050919050565b611eda81611da6565b8114611ee557600080fd5b50565b611ef181611db8565b8114611efc57600080fd5b50565b611f0881611de4565b8114611f1357600080fd5b5056fea2646970667358221220c9b7c4e0182c0e586e6a556e84f9abd48791db6c047fc02ed85ea7a3bafc70a764736f6c63430008000033",
  "linkReferences": {},
  "deployedLinkReferences": {}
}