{
  "_format": "hh-sol-artifact-1",
  "contractName": "Worker",
  "sourceName": "contracts/Worker.sol",
  "abi": [
    {
      "inputs": [],
      "stateMutability": "nonpayable",
      "type": "constructor"
    },
    {
      "anonymous": false,
      "inputs": [
        {
          "indexed": false,
          "internalType": "address",
          "name": "stakedPoolAddr",
          "type": "address"
        }
      ],
      "name": "DoHardWork",
      "type": "event"
    },
    {
      "inputs": [
        {
          "components": [
            {
              "internalType": "bool",
              "name": "withdraw",
              "type": "bool"
            },
            {
              "internalType": "bool",
              "name": "swap",
              "type": "bool"
            },
            {
              "internalType": "bool",
              "name": "deposit",
              "type": "bool"
            },
            {
              "internalType": "address",
              "name": "stakedPoolAddr",
              "type": "address"
            },
            {
              "internalType": "address",
              "name": "newPoolAddr",
              "type": "address"
            },
            {
              "internalType": "uint256",
              "name": "amount",
              "type": "uint256"
            },
            {
              "internalType": "uint16",
              "name": "startIndex",
              "type": "uint16"
            },
            {
              "internalType": "uint16",
              "name": "endIndex",
              "type": "uint16"
            },
            {
              "components": [
                {
                  "internalType": "address",
                  "name": "swapRouter",
                  "type": "address"
                },
                {
                  "internalType": "uint256",
                  "name": "multiplier",
                  "type": "uint256"
                },
                {
                  "internalType": "address[]",
                  "name": "path",
                  "type": "address[]"
                },
                {
                  "internalType": "uint256",
                  "name": "deadline",
                  "type": "uint256"
                }
              ],
              "internalType": "struct IWorker.SwapParams",
              "name": "swapParams",
              "type": "tuple"
            }
          ],
          "internalType": "struct IWorker.DoHardWorkParams",
          "name": "params",
          "type": "tuple"
        }
      ],
      "name": "doHardWork",
      "outputs": [],
      "stateMutability": "nonpayable",
      "type": "function"
    },
    {
      "inputs": [],
      "name": "getSmartChefCode",
      "outputs": [
        {
          "internalType": "bytes32",
          "name": "",
          "type": "bytes32"
        }
      ],
      "stateMutability": "view",
      "type": "function"
    },
    {
      "inputs": [],
      "name": "owner",
      "outputs": [
        {
          "internalType": "address",
          "name": "",
          "type": "address"
        }
      ],
      "stateMutability": "view",
      "type": "function"
    },
    {
      "inputs": [
        {
          "internalType": "uint256",
          "name": "amount",
          "type": "uint256"
        },
        {
          "internalType": "address",
          "name": "token",
          "type": "address"
        }
      ],
      "name": "transferToManager",
      "outputs": [],
      "stateMutability": "nonpayable",
      "type": "function"
    }
  ],
  "bytecode": "0x60a0604052730e09fabb73bd3ade0a17ecc321fd13a19e81ce826000806101000a81548173ffffffffffffffffffffffffffffffffffffffff021916908373ffffffffffffffffffffffffffffffffffffffff1602179055507373feaa1ee314f8c655e354234017be2193c9e24e600160006101000a81548173ffffffffffffffffffffffffffffffffffffffff021916908373ffffffffffffffffffffffffffffffffffffffff16021790555073927158be21fe3d4da7e96931bb27fd5059a8cbc2600260006101000a81548173ffffffffffffffffffffffffffffffffffffffff021916908373ffffffffffffffffffffffffffffffffffffffff16021790555073927158be21fe3d4da7e96931bb27fd5059a8cbc2600360006101000a81548173ffffffffffffffffffffffffffffffffffffffff021916908373ffffffffffffffffffffffffffffffffffffffff16021790555034801561016357600080fd5b503373ffffffffffffffffffffffffffffffffffffffff1660808173ffffffffffffffffffffffffffffffffffffffff1660601b8152505060805160601c611fc26101cc6000396000818160d10152818160f50152818161028601526103ac0152611fc26000f3fe608060405234801561001057600080fd5b506004361061004c5760003560e01c80635b5af25f146100515780638da5cb5b1461006f578063a2fa1c971461008d578063a5d34343146100a9575b600080fd5b6100596100c5565b6040516100669190611a3b565b60405180910390f35b6100776100cf565b60405161008491906119f7565b60405180910390f35b6100a760048036038101906100a2919061161b565b6100f3565b005b6100c360048036038101906100be91906116ae565b610284565b005b6000600454905090565b7f000000000000000000000000000000000000000000000000000000000000000081565b7f000000000000000000000000000000000000000000000000000000000000000073ffffffffffffffffffffffffffffffffffffffff163373ffffffffffffffffffffffffffffffffffffffff1614610181576040517f08c379a000000000000000000000000000000000000000000000000000000000815260040161017890611b41565b60405180910390fd5b80600001602081019061019491906115c9565b156101ba576101b98160600160208101906101af9190611536565b8260a001356103f6565b5b8060200160208101906101cd91906115c9565b156101ff576101fe8160600160208101906101e89190611536565b828061010001906101f99190611c61565b61066c565b5b80604001602081019061021291906115c9565b156102385761023781608001602081019061022d9190611536565b8260a00135610a9e565b5b7f81188f5f74429a8d5dd69e402d2ec601e9510929aeb809d15acde392c83de43381606001602081019061026c9190611536565b60405161027991906119f7565b60405180910390a150565b7f000000000000000000000000000000000000000000000000000000000000000073ffffffffffffffffffffffffffffffffffffffff163373ffffffffffffffffffffffffffffffffffffffff1614610312576040517f08c379a000000000000000000000000000000000000000000000000000000000815260040161030990611b41565b60405180910390fd5b60008214156103a7578073ffffffffffffffffffffffffffffffffffffffff166370a08231306040518263ffffffff1660e01b815260040161035491906119f7565b60206040518083038186803b15801561036c57600080fd5b505afa158015610380573d6000803e3d6000fd5b505050506040513d601f19601f820116820180604052508101906103a49190611685565b91505b6103f27f0000000000000000000000000000000000000000000000000000000000000000838373ffffffffffffffffffffffffffffffffffffffff16610eac9092919063ffffffff16565b5050565b6103fe6113a0565b600160009054906101000a900473ffffffffffffffffffffffffffffffffffffffff1673ffffffffffffffffffffffffffffffffffffffff168373ffffffffffffffffffffffffffffffffffffffff16141561056157600082146104f1578273ffffffffffffffffffffffffffffffffffffffff166393f1a40b6000306040518363ffffffff1660e01b8152600401610498929190611a56565b604080518083038186803b1580156104af57600080fd5b505afa1580156104c3573d6000803e3d6000fd5b505050506040513d601f19601f820116820180604052508101906104e7919061165c565b9050806000015191505b8273ffffffffffffffffffffffffffffffffffffffff16631058d281836040518263ffffffff1660e01b815260040161052a9190611b61565b600060405180830381600087803b15801561054457600080fd5b505af1158015610558573d6000803e3d6000fd5b50505050610667565b600082146105fb578273ffffffffffffffffffffffffffffffffffffffff16631959a002306040518263ffffffff1660e01b81526004016105a291906119f7565b604080518083038186803b1580156105b957600080fd5b505afa1580156105cd573d6000803e3d6000fd5b505050506040513d601f19601f820116820180604052508101906105f1919061165c565b9050806000015191505b8273ffffffffffffffffffffffffffffffffffffffff16632e1a7d4d836040518263ffffffff1660e01b81526004016106349190611b61565b600060405180830381600087803b15801561064e57600080fd5b505af1158015610662573d6000803e3d6000fd5b505050505b505050565b60008273ffffffffffffffffffffffffffffffffffffffff1663f7c618c16040518163ffffffff1660e01b8152600401602060405180830381600087803b1580156106b657600080fd5b505af11580156106ca573d6000803e3d6000fd5b505050506040513d601f19601f820116820180604052508101906106ee919061155f565b73ffffffffffffffffffffffffffffffffffffffff166370a08231306040518263ffffffff1660e01b815260040161072691906119f7565b60206040518083038186803b15801561073e57600080fd5b505afa158015610752573d6000803e3d6000fd5b505050506040513d601f19601f820116820180604052508101906107769190611685565b905060008114156107875750610a9a565b600082600001602081019061079c9190611536565b73ffffffffffffffffffffffffffffffffffffffff1663d06ca61f838580604001906107c89190611c0a565b6040518463ffffffff1660e01b81526004016107e693929190611b7c565b60006040518083038186803b1580156107fe57600080fd5b505afa158015610812573d6000803e3d6000fd5b505050506040513d6000823e3d601f19601f8201168201806040525081019061083b9190611588565b905060006108b660646108a88660200135856001875161085b9190611dde565b81518110610892577f4e487b7100000000000000000000000000000000000000000000000000000000600052603260045260246000fd5b6020026020010151610f3290919063ffffffff16565b610f4890919063ffffffff16565b90508473ffffffffffffffffffffffffffffffffffffffff1663f7c618c16040518163ffffffff1660e01b8152600401602060405180830381600087803b15801561090057600080fd5b505af1158015610914573d6000803e3d6000fd5b505050506040513d601f19601f82011682018060405250810190610938919061155f565b73ffffffffffffffffffffffffffffffffffffffff1663095ea7b38560000160208101906109669190611536565b856040518363ffffffff1660e01b8152600401610984929190611a12565b602060405180830381600087803b15801561099e57600080fd5b505af11580156109b2573d6000803e3d6000fd5b505050506040513d601f19601f820116820180604052508101906109d691906115f2565b508360000160208101906109ea9190611536565b73ffffffffffffffffffffffffffffffffffffffff166338ed17398483878060400190610a179190611c0a565b308a606001356040518763ffffffff1660e01b8152600401610a3e96959493929190611bae565b600060405180830381600087803b158015610a5857600080fd5b505af1158015610a6c573d6000803e3d6000fd5b505050506040513d6000823e3d601f19601f82011682018060405250810190610a959190611588565b505050505b5050565b610aa782610f5e565b6000811415610bbb578173ffffffffffffffffffffffffffffffffffffffff1663cc7a262e6040518163ffffffff1660e01b8152600401602060405180830381600087803b158015610af857600080fd5b505af1158015610b0c573d6000803e3d6000fd5b505050506040513d601f19601f82011682018060405250810190610b30919061155f565b73ffffffffffffffffffffffffffffffffffffffff166370a08231306040518263ffffffff1660e01b8152600401610b6891906119f7565b60206040518083038186803b158015610b8057600080fd5b505afa158015610b94573d6000803e3d6000fd5b505050506040513d601f19601f82011682018060405250810190610bb89190611685565b90505b600160009054906101000a900473ffffffffffffffffffffffffffffffffffffffff1673ffffffffffffffffffffffffffffffffffffffff168273ffffffffffffffffffffffffffffffffffffffff161415610d2f5760008054906101000a900473ffffffffffffffffffffffffffffffffffffffff1673ffffffffffffffffffffffffffffffffffffffff1663095ea7b383836040518363ffffffff1660e01b8152600401610c6c929190611a12565b602060405180830381600087803b158015610c8657600080fd5b505af1158015610c9a573d6000803e3d6000fd5b505050506040513d601f19601f82011682018060405250810190610cbe91906115f2565b508173ffffffffffffffffffffffffffffffffffffffff166341441d3b826040518263ffffffff1660e01b8152600401610cf89190611b61565b600060405180830381600087803b158015610d1257600080fd5b505af1158015610d26573d6000803e3d6000fd5b50505050610ea8565b8173ffffffffffffffffffffffffffffffffffffffff1663cc7a262e6040518163ffffffff1660e01b8152600401602060405180830381600087803b158015610d7757600080fd5b505af1158015610d8b573d6000803e3d6000fd5b505050506040513d601f19601f82011682018060405250810190610daf919061155f565b73ffffffffffffffffffffffffffffffffffffffff1663095ea7b383836040518363ffffffff1660e01b8152600401610de9929190611a12565b602060405180830381600087803b158015610e0357600080fd5b505af1158015610e17573d6000803e3d6000fd5b505050506040513d601f19601f82011682018060405250810190610e3b91906115f2565b508173ffffffffffffffffffffffffffffffffffffffff1663b6b55f25826040518263ffffffff1660e01b8152600401610e759190611b61565b600060405180830381600087803b158015610e8f57600080fd5b505af1158015610ea3573d6000803e3d6000fd5b505050505b5050565b610f2d8363a9059cbb60e01b8484604051602401610ecb929190611a12565b604051602081830303815290604052907bffffffffffffffffffffffffffffffffffffffffffffffffffffffff19166020820180517bffffffffffffffffffffffffffffffffffffffffffffffffffffffff8381831617835250505050611133565b505050565b60008183610f409190611d84565b905092915050565b60008183610f569190611d53565b905092915050565b600360009054906101000a900473ffffffffffffffffffffffffffffffffffffffff1673ffffffffffffffffffffffffffffffffffffffff168173ffffffffffffffffffffffffffffffffffffffff1663bd6171916040518163ffffffff1660e01b8152600401602060405180830381600087803b158015610fdf57600080fd5b505af1158015610ff3573d6000803e3d6000fd5b505050506040513d601f19601f82011682018060405250810190611017919061155f565b73ffffffffffffffffffffffffffffffffffffffff161461106d576040517f08c379a000000000000000000000000000000000000000000000000000000000815260040161106490611aa1565b60405180910390fd5b6000807f866f2224d2bcc0a716d292663e34396dd64d657e342d87867aa429b6377f1b2d60001b905060008373ffffffffffffffffffffffffffffffffffffffff16803b806020016040519081016040528181526000908060200190933c90506000602060ff1690506000838284201494508183209050806004819055508461112b576040517f08c379a000000000000000000000000000000000000000000000000000000000815260040161112290611ac1565b60405180910390fd5b505050505050565b6000611195826040518060400160405280602081526020017f5361666545524332303a206c6f772d6c6576656c2063616c6c206661696c65648152508573ffffffffffffffffffffffffffffffffffffffff166111fa9092919063ffffffff16565b90506000815111156111f557808060200190518101906111b591906115f2565b6111f4576040517f08c379a00000000000000000000000000000000000000000000000000000000081526004016111eb90611b21565b60405180910390fd5b5b505050565b60606112098484600085611212565b90509392505050565b606082471015611257576040517f08c379a000000000000000000000000000000000000000000000000000000000815260040161124e90611ae1565b60405180910390fd5b61126085611326565b61129f576040517f08c379a000000000000000000000000000000000000000000000000000000000815260040161129690611b01565b60405180910390fd5b6000808673ffffffffffffffffffffffffffffffffffffffff1685876040516112c891906119e0565b60006040518083038185875af1925050503d8060008114611305576040519150601f19603f3d011682016040523d82523d6000602084013e61130a565b606091505b509150915061131a828286611339565b92505050949350505050565b600080823b905060008111915050919050565b6060831561134957829050611399565b60008351111561135c5782518084602001fd5b816040517f08c379a00000000000000000000000000000000000000000000000000000000081526004016113909190611a7f565b60405180910390fd5b9392505050565b604051806040016040528060008152602001600081525090565b60006113cd6113c884611cb6565b611c85565b905080838252602082019050828560208602820111156113ec57600080fd5b60005b8581101561141c57816114028882611521565b8452602084019350602083019250506001810190506113ef565b5050509392505050565b60008135905061143581611f47565b92915050565b60008151905061144a81611f47565b92915050565b600082601f83011261146157600080fd5b81516114718482602086016113ba565b91505092915050565b60008135905061148981611f5e565b92915050565b60008151905061149e81611f5e565b92915050565b600061012082840312156114b757600080fd5b81905092915050565b6000604082840312156114d257600080fd5b6114dc6040611c85565b905060006114ec84828501611521565b600083015250602061150084828501611521565b60208301525092915050565b60008135905061151b81611f75565b92915050565b60008151905061153081611f75565b92915050565b60006020828403121561154857600080fd5b600061155684828501611426565b91505092915050565b60006020828403121561157157600080fd5b600061157f8482850161143b565b91505092915050565b60006020828403121561159a57600080fd5b600082015167ffffffffffffffff8111156115b457600080fd5b6115c084828501611450565b91505092915050565b6000602082840312156115db57600080fd5b60006115e98482850161147a565b91505092915050565b60006020828403121561160457600080fd5b60006116128482850161148f565b91505092915050565b60006020828403121561162d57600080fd5b600082013567ffffffffffffffff81111561164757600080fd5b611653848285016114a4565b91505092915050565b60006040828403121561166e57600080fd5b600061167c848285016114c0565b91505092915050565b60006020828403121561169757600080fd5b60006116a584828501611521565b91505092915050565b600080604083850312156116c157600080fd5b60006116cf8582860161150c565b92505060206116e085828601611426565b9150509250929050565b60006116f68383611702565b60208301905092915050565b61170b81611e12565b82525050565b61171a81611e12565b82525050565b600061172c8385611d0f565b935061173782611ce2565b8060005b858110156117705761174d8284611d3c565b61175788826116ea565b975061176283611d02565b92505060018101905061173b565b5085925050509392505050565b61178681611e30565b82525050565b600061179782611cec565b6117a18185611d20565b93506117b1818560208601611e76565b80840191505092915050565b6117c681611e64565b82525050565b60006117d782611cf7565b6117e18185611d2b565b93506117f1818560208601611e76565b6117fa81611f36565b840191505092915050565b6000611812601983611d2b565b91507f696e76616c696420736d6172746368656620666163746f7279000000000000006000830152602082019050919050565b6000611852601683611d2b565b91507f696e76616c696420736d6172746368656620636f6465000000000000000000006000830152602082019050919050565b6000611892602683611d2b565b91507f416464726573733a20696e73756666696369656e742062616c616e636520666f60008301527f722063616c6c00000000000000000000000000000000000000000000000000006020830152604082019050919050565b60006118f8601d83611d2b565b91507f416464726573733a2063616c6c20746f206e6f6e2d636f6e74726163740000006000830152602082019050919050565b6000611938602a83611d2b565b91507f5361666545524332303a204552433230206f7065726174696f6e20646964206e60008301527f6f742073756363656564000000000000000000000000000000000000000000006020830152604082019050919050565b600061199e600983611d2b565b91507f6f6e6c794f776e657200000000000000000000000000000000000000000000006000830152602082019050919050565b6119da81611e5a565b82525050565b60006119ec828461178c565b915081905092915050565b6000602082019050611a0c6000830184611711565b92915050565b6000604082019050611a276000830185611711565b611a3460208301846119d1565b9392505050565b6000602082019050611a50600083018461177d565b92915050565b6000604082019050611a6b60008301856117bd565b611a786020830184611711565b9392505050565b60006020820190508181036000830152611a9981846117cc565b905092915050565b60006020820190508181036000830152611aba81611805565b9050919050565b60006020820190508181036000830152611ada81611845565b9050919050565b60006020820190508181036000830152611afa81611885565b9050919050565b60006020820190508181036000830152611b1a816118eb565b9050919050565b60006020820190508181036000830152611b3a8161192b565b9050919050565b60006020820190508181036000830152611b5a81611991565b9050919050565b6000602082019050611b7660008301846119d1565b92915050565b6000604082019050611b9160008301866119d1565b8181036020830152611ba4818486611720565b9050949350505050565b600060a082019050611bc360008301896119d1565b611bd060208301886119d1565b8181036040830152611be3818688611720565b9050611bf26060830185611711565b611bff60808301846119d1565b979650505050505050565b60008083356001602003843603038112611c2357600080fd5b80840192508235915067ffffffffffffffff821115611c4157600080fd5b602083019250602082023603831315611c5957600080fd5b509250929050565b600082356001608003833603038112611c7957600080fd5b80830191505092915050565b6000604051905081810181811067ffffffffffffffff82111715611cac57611cab611f07565b5b8060405250919050565b600067ffffffffffffffff821115611cd157611cd0611f07565b5b602082029050602081019050919050565b6000819050919050565b600081519050919050565b600081519050919050565b6000602082019050919050565b600082825260208201905092915050565b600081905092915050565b600082825260208201905092915050565b6000611d4b6020840184611426565b905092915050565b6000611d5e82611e5a565b9150611d6983611e5a565b925082611d7957611d78611ed8565b5b828204905092915050565b6000611d8f82611e5a565b9150611d9a83611e5a565b9250817fffffffffffffffffffffffffffffffffffffffffffffffffffffffffffffffff0483118215151615611dd357611dd2611ea9565b5b828202905092915050565b6000611de982611e5a565b9150611df483611e5a565b925082821015611e0757611e06611ea9565b5b828203905092915050565b6000611e1d82611e3a565b9050919050565b60008115159050919050565b6000819050919050565b600073ffffffffffffffffffffffffffffffffffffffff82169050919050565b6000819050919050565b6000611e6f82611e5a565b9050919050565b60005b83811015611e94578082015181840152602081019050611e79565b83811115611ea3576000848401525b50505050565b7f4e487b7100000000000000000000000000000000000000000000000000000000600052601160045260246000fd5b7f4e487b7100000000000000000000000000000000000000000000000000000000600052601260045260246000fd5b7f4e487b7100000000000000000000000000000000000000000000000000000000600052604160045260246000fd5b6000601f19601f8301169050919050565b611f5081611e12565b8114611f5b57600080fd5b50565b611f6781611e24565b8114611f7257600080fd5b50565b611f7e81611e5a565b8114611f8957600080fd5b5056fea264697066735822122057a3ed9f6ec952f0db7d4d0afa397a9bc0ba4ebd8425f2fb60a561a3484b877964736f6c63430008000033",
  "linkReferences": {},
  "deployedLinkReferences": {}
}