{
  "_format": "hh-sol-artifact-1",
  "contractName": "Worker",
  "sourceName": "contracts/Worker.sol",
  "abi": [
    {
      "inputs": [],
      "stateMutability": "nonpayable",
      "type": "constructor"
    },
    {
      "anonymous": false,
      "inputs": [
        {
          "indexed": false,
          "internalType": "address",
          "name": "poolAddr",
          "type": "address"
        }
      ],
      "name": "DoHardWork",
      "type": "event"
    },
    {
      "inputs": [
        {
          "internalType": "address",
          "name": "poolAddr",
          "type": "address"
        },
        {
          "internalType": "uint256",
          "name": "amount",
          "type": "uint256"
        }
      ],
      "name": "depositMasterChef",
      "outputs": [],
      "stateMutability": "nonpayable",
      "type": "function"
    },
    {
      "inputs": [
        {
          "internalType": "address",
          "name": "poolAddr",
          "type": "address"
        },
        {
          "internalType": "uint256",
          "name": "amount",
          "type": "uint256"
        }
      ],
      "name": "depositSmartChef",
      "outputs": [],
      "stateMutability": "nonpayable",
      "type": "function"
    },
    {
      "inputs": [],
      "name": "owner",
      "outputs": [
        {
          "internalType": "address",
          "name": "",
          "type": "address"
        }
      ],
      "stateMutability": "view",
      "type": "function"
    },
    {
      "inputs": [
        {
          "internalType": "address",
          "name": "rewardToken",
          "type": "address"
        },
        {
          "internalType": "address[]",
          "name": "path",
          "type": "address[]"
        },
        {
          "internalType": "uint256",
          "name": "amountIn",
          "type": "uint256"
        }
      ],
      "name": "swap",
      "outputs": [],
      "stateMutability": "nonpayable",
      "type": "function"
    },
    {
      "inputs": [
        {
          "internalType": "uint256",
          "name": "amount",
          "type": "uint256"
        }
      ],
      "name": "transferToManager",
      "outputs": [],
      "stateMutability": "nonpayable",
      "type": "function"
    },
    {
      "inputs": [
        {
          "internalType": "address",
          "name": "poolAddr",
          "type": "address"
        },
        {
          "internalType": "uint256",
          "name": "amount",
          "type": "uint256"
        }
      ],
      "name": "withdrawMasterChef",
      "outputs": [],
      "stateMutability": "nonpayable",
      "type": "function"
    },
    {
      "inputs": [
        {
          "internalType": "address",
          "name": "poolAddr",
          "type": "address"
        },
        {
          "internalType": "uint256",
          "name": "amount",
          "type": "uint256"
        }
      ],
      "name": "withdrawSmartChef",
      "outputs": [],
      "stateMutability": "nonpayable",
      "type": "function"
    }
  ],
  "bytecode": "0x60a0604052600080546001600160a01b0319908116730e09fabb73bd3ade0a17ecc321fd13a19e81ce82179091556001805482167373feaa1ee314f8c655e354234017be2193c9e24e17905560028054821673927158be21fe3d4da7e96931bb27fd5059a8cbc2179055600380549091167310ed43c718714eb63d5aa57b78b54704e256024e17905561038460045534801561009a57600080fd5b5033606081901b608052610d536100ed6000396000818161011f015281816101eb0152818161035e015281816103eb015281816104fd015281816106060152818161063301526106820152610d536000f3fe608060405234801561001057600080fd5b506004361061007d5760003560e01c80636be6589b1161005b5780636be6589b146100bd57806379829eb6146100d05780638da5cb5b146100e3578063c5b6c5a4146101015761007d565b80630296fd3b146100825780632e449e9b14610097578063575a08a1146100aa575b600080fd5b61009561009036600461097a565b610114565b005b6100956100a53660046108f4565b6101e0565b6100956100b836600461097a565b610353565b6100956100cb36600461097a565b6103e0565b6100956100de36600461097a565b6104f2565b6100eb610604565b6040516100f89190610ab1565b60405180910390f35b61009561010f366004610a7d565b610628565b336001600160a01b037f000000000000000000000000000000000000000000000000000000000000000016146101655760405162461bcd60e51b815260040161015c90610c02565b60405180910390fd5b6040517f2e1a7d4d0000000000000000000000000000000000000000000000000000000081526001600160a01b03831690632e1a7d4d906101aa908490600401610c39565b600060405180830381600087803b1580156101c457600080fd5b505af11580156101d8573d6000803e3d6000fd5b505050505050565b336001600160a01b037f000000000000000000000000000000000000000000000000000000000000000016146102285760405162461bcd60e51b815260040161015c90610c02565b60035460405163095ea7b360e01b81526000916001600160a01b038088169263095ea7b39261025d9216908690600401610ac5565b602060405180830381600087803b15801561027757600080fd5b505af115801561028b573d6000803e3d6000fd5b505050506040513d601f19601f820116820180604052508101906102af9190610a5d565b506003546004546001600160a01b03909116906338ed173990849084908890889030906102dc9042610cb3565b6040518763ffffffff1660e01b81526004016102fd96959493929190610c42565b600060405180830381600087803b15801561031757600080fd5b505af115801561032b573d6000803e3d6000fd5b505050506040513d6000823e601f3d908101601f191682016040526101d891908101906109a3565b336001600160a01b037f0000000000000000000000000000000000000000000000000000000000000000161461039b5760405162461bcd60e51b815260040161015c90610c02565b6040517f1058d2810000000000000000000000000000000000000000000000000000000081526001600160a01b03831690631058d281906101aa908490600401610c39565b336001600160a01b037f000000000000000000000000000000000000000000000000000000000000000016146104285760405162461bcd60e51b815260040161015c90610c02565b60005460405163095ea7b360e01b81526001600160a01b039091169063095ea7b39061045a9085908590600401610ac5565b602060405180830381600087803b15801561047457600080fd5b505af1158015610488573d6000803e3d6000fd5b505050506040513d601f19601f820116820180604052508101906104ac9190610a5d565b506040517fb6b55f250000000000000000000000000000000000000000000000000000000081526001600160a01b0383169063b6b55f25906101aa908490600401610c39565b336001600160a01b037f0000000000000000000000000000000000000000000000000000000000000000161461053a5760405162461bcd60e51b815260040161015c90610c02565b60005460405163095ea7b360e01b81526001600160a01b039091169063095ea7b39061056c9085908590600401610ac5565b602060405180830381600087803b15801561058657600080fd5b505af115801561059a573d6000803e3d6000fd5b505050506040513d601f19601f820116820180604052508101906105be9190610a5d565b506040517f41441d3b0000000000000000000000000000000000000000000000000000000081526001600160a01b038316906341441d3b906101aa908490600401610c39565b7f000000000000000000000000000000000000000000000000000000000000000081565b336001600160a01b037f000000000000000000000000000000000000000000000000000000000000000016146106705760405162461bcd60e51b815260040161015c90610c02565b6000546106a7906001600160a01b03167f0000000000000000000000000000000000000000000000000000000000000000836106aa565b50565b61072d8363a9059cbb60e01b84846040516024016106c9929190610ac5565b60408051601f198184030181529190526020810180517bffffffffffffffffffffffffffffffffffffffffffffffffffffffff167fffffffff0000000000000000000000000000000000000000000000000000000090931692909217909152610732565b505050565b6000610787826040518060400160405280602081526020017f5361666545524332303a206c6f772d6c6576656c2063616c6c206661696c6564815250856001600160a01b03166107c19092919063ffffffff16565b80519091501561072d57808060200190518101906107a59190610a5d565b61072d5760405162461bcd60e51b815260040161015c90610ba5565b60606107d084846000856107da565b90505b9392505050565b6060824710156107fc5760405162461bcd60e51b815260040161015c90610b11565b6108058561089a565b6108215760405162461bcd60e51b815260040161015c90610b6e565b600080866001600160a01b0316858760405161083d9190610a95565b60006040518083038185875af1925050503d806000811461087a576040519150601f19603f3d011682016040523d82523d6000602084013e61087f565b606091505b509150915061088f8282866108a4565b979650505050505050565b803b15155b919050565b606083156108b35750816107d3565b8251156108c35782518084602001fd5b8160405162461bcd60e51b815260040161015c9190610ade565b80356001600160a01b038116811461089f57600080fd5b60008060008060608587031215610909578384fd5b610912856108dd565b9350602085013567ffffffffffffffff8082111561092e578485fd5b818701915087601f830112610941578485fd5b81358181111561094f578586fd5b8860208083028501011115610962578586fd5b95986020929092019750949560400135945092505050565b6000806040838503121561098c578182fd5b610995836108dd565b946020939093013593505050565b600060208083850312156109b5578182fd5b825167ffffffffffffffff808211156109cc578384fd5b818501915085601f8301126109df578384fd5b8151818111156109f1576109f1610d07565b83810260405185828201018181108582111715610a1057610a10610d07565b604052828152858101935084860182860187018a1015610a2e578788fd5b8795505b83861015610a50578051855260019590950194938601938601610a32565b5098975050505050505050565b600060208284031215610a6e578081fd5b815180151581146107d3578182fd5b600060208284031215610a8e578081fd5b5035919050565b60008251610aa7818460208701610cd7565b9190910192915050565b6001600160a01b0391909116815260200190565b6001600160a01b03929092168252602082015260400190565b6000602082528251806020840152610afd816040850160208701610cd7565b601f01601f19169190910160400192915050565b60208082526026908201527f416464726573733a20696e73756666696369656e742062616c616e636520666f60408201527f722063616c6c0000000000000000000000000000000000000000000000000000606082015260800190565b6020808252601d908201527f416464726573733a2063616c6c20746f206e6f6e2d636f6e7472616374000000604082015260600190565b6020808252602a908201527f5361666545524332303a204552433230206f7065726174696f6e20646964206e60408201527f6f74207375636365656400000000000000000000000000000000000000000000606082015260800190565b60208082526009908201527f6f6e6c794f776e65720000000000000000000000000000000000000000000000604082015260600190565b90815260200190565b868152602080820187905260a0604083018190528201859052600090869060c08401835b88811015610c92576001600160a01b03610c7f856108dd565b1682529282019290820190600101610c66565b506001600160a01b0396909616606085015250505060800152949350505050565b60008219821115610cd257634e487b7160e01b81526011600452602481fd5b500190565b60005b83811015610cf2578181015183820152602001610cda565b83811115610d01576000848401525b50505050565b634e487b7160e01b600052604160045260246000fdfea2646970667358221220940c4aba5c8d433e9f3987b547767bdeeaba776fa397e67c740f8360b4ea590464736f6c63430008000033",
  "linkReferences": {},
  "deployedLinkReferences": {}
}