{
  "_format": "hh-sol-artifact-1",
  "contractName": "Worker",
  "sourceName": "contracts/Worker.sol",
  "abi": [
    {
      "inputs": [],
      "stateMutability": "nonpayable",
      "type": "constructor"
    },
    {
      "anonymous": false,
      "inputs": [
        {
          "indexed": false,
          "internalType": "address",
          "name": "stakedPoolAddr",
          "type": "address"
        }
      ],
      "name": "DoHardWork",
      "type": "event"
    },
    {
      "inputs": [
        {
          "components": [
            {
              "internalType": "bool",
              "name": "withdraw",
              "type": "bool"
            },
            {
              "internalType": "bool",
              "name": "swap",
              "type": "bool"
            },
            {
              "internalType": "bool",
              "name": "deposit",
              "type": "bool"
            },
            {
              "internalType": "bool",
              "name": "transfer",
              "type": "bool"
            },
            {
              "internalType": "address",
              "name": "stakedPoolAddr",
              "type": "address"
            },
            {
              "internalType": "address",
              "name": "newPoolAddr",
              "type": "address"
            },
            {
              "internalType": "uint256",
              "name": "amount",
              "type": "uint256"
            },
            {
              "internalType": "uint256",
              "name": "pid",
              "type": "uint256"
            },
            {
              "internalType": "uint16",
              "name": "startIndex",
              "type": "uint16"
            },
            {
              "internalType": "uint16",
              "name": "endIndex",
              "type": "uint16"
            },
            {
              "internalType": "uint256",
              "name": "blockNum",
              "type": "uint256"
            },
            {
              "components": [
                {
                  "internalType": "address",
                  "name": "swapRouter",
                  "type": "address"
                },
                {
                  "internalType": "uint256",
                  "name": "multiplier",
                  "type": "uint256"
                },
                {
                  "internalType": "address[]",
                  "name": "path",
                  "type": "address[]"
                },
                {
                  "internalType": "uint256",
                  "name": "deadline",
                  "type": "uint256"
                }
              ],
              "internalType": "struct IWorker.SwapParams",
              "name": "swapParams",
              "type": "tuple"
            }
          ],
          "internalType": "struct IWorker.DoHardWorkParams",
          "name": "params",
          "type": "tuple"
        }
      ],
      "name": "doHardWork",
      "outputs": [],
      "stateMutability": "nonpayable",
      "type": "function"
    },
    {
      "inputs": [],
      "name": "owner",
      "outputs": [
        {
          "internalType": "address",
          "name": "",
          "type": "address"
        }
      ],
      "stateMutability": "view",
      "type": "function"
    },
    {
      "inputs": [
        {
          "internalType": "address",
          "name": "token",
          "type": "address"
        }
      ],
      "name": "transferToManager",
      "outputs": [],
      "stateMutability": "nonpayable",
      "type": "function"
    }
  ],
  "bytecode": "0x60a0604052730e09fabb73bd3ade0a17ecc321fd13a19e81ce826000806101000a81548173ffffffffffffffffffffffffffffffffffffffff021916908373ffffffffffffffffffffffffffffffffffffffff16021790555034801561006457600080fd5b503373ffffffffffffffffffffffffffffffffffffffff1660808173ffffffffffffffffffffffffffffffffffffffff1660601b8152505060805160601c6118d26100ce60003960008181609e0152818161034e01528181610372015261049f01526118d26000f3fe608060405234801561001057600080fd5b50600436106100415760003560e01c80635f879db0146100465780638da5cb5b14610062578063c90d048e14610080575b600080fd5b610060600480360381019061005b9190611194565b61009c565b005b61006a61034c565b604051610077919061146d565b60405180910390f35b61009a600480360381019061009591906110af565b610370565b005b7f000000000000000000000000000000000000000000000000000000000000000073ffffffffffffffffffffffffffffffffffffffff163373ffffffffffffffffffffffffffffffffffffffff161461012a576040517f08c379a000000000000000000000000000000000000000000000000000000000815260040161012190611533565b60405180910390fd5b80600001602081019061013d9190611142565b156101685761016781608001602081019061015891906110af565b8260c001358360e001356104ea565b5b80602001602081019061017b9190611142565b156101ad576101ac81608001602081019061019691906110af565b828061016001906101a79190611621565b6105d4565b5b8060400160208101906101c09190611142565b156101eb576101ea8160a00160208101906101db91906110af565b8260c001358360e001356108e8565b5b8060600160208101906101fe9190611142565b15610300573073ffffffffffffffffffffffffffffffffffffffff1663c90d048e82608001602081019061023291906110af565b73ffffffffffffffffffffffffffffffffffffffff1663cc7a262e6040518163ffffffff1660e01b8152600401602060405180830381600087803b15801561027957600080fd5b505af115801561028d573d6000803e3d6000fd5b505050506040513d601f19601f820116820180604052508101906102b191906110d8565b6040518263ffffffff1660e01b81526004016102cd919061146d565b600060405180830381600087803b1580156102e757600080fd5b505af11580156102fb573d6000803e3d6000fd5b505050505b7f81188f5f74429a8d5dd69e402d2ec601e9510929aeb809d15acde392c83de43381608001602081019061033491906110af565b604051610341919061146d565b60405180910390a150565b7f000000000000000000000000000000000000000000000000000000000000000081565b7f000000000000000000000000000000000000000000000000000000000000000073ffffffffffffffffffffffffffffffffffffffff163373ffffffffffffffffffffffffffffffffffffffff16146103fe576040517f08c379a00000000000000000000000000000000000000000000000000000000081526004016103f590611533565b60405180910390fd5b60008173ffffffffffffffffffffffffffffffffffffffff166370a08231306040518263ffffffff1660e01b8152600401610439919061146d565b60206040518083038186803b15801561045157600080fd5b505afa158015610465573d6000803e3d6000fd5b505050506040513d601f19601f8201168201806040525081019061048991906111d5565b9050600081141561049a57506104e7565b6104e57f0000000000000000000000000000000000000000000000000000000000000000828473ffffffffffffffffffffffffffffffffffffffff16610ca19092919063ffffffff16565b505b50565b6000811415610563578273ffffffffffffffffffffffffffffffffffffffff16631058d281836040518263ffffffff1660e01b815260040161052c9190611553565b600060405180830381600087803b15801561054657600080fd5b505af115801561055a573d6000803e3d6000fd5b505050506105cf565b8273ffffffffffffffffffffffffffffffffffffffff16632e1a7d4d836040518263ffffffff1660e01b815260040161059c9190611553565b600060405180830381600087803b1580156105b657600080fd5b505af11580156105ca573d6000803e3d6000fd5b505050505b505050565b60008273ffffffffffffffffffffffffffffffffffffffff1663f7c618c16040518163ffffffff1660e01b8152600401602060405180830381600087803b15801561061e57600080fd5b505af1158015610632573d6000803e3d6000fd5b505050506040513d601f19601f8201168201806040525081019061065691906110d8565b73ffffffffffffffffffffffffffffffffffffffff166370a08231306040518263ffffffff1660e01b815260040161068e919061146d565b60206040518083038186803b1580156106a657600080fd5b505afa1580156106ba573d6000803e3d6000fd5b505050506040513d601f19601f820116820180604052508101906106de91906111d5565b905060008114156106ef57506108e4565b60008260200135826107019190611713565b90508373ffffffffffffffffffffffffffffffffffffffff1663f7c618c16040518163ffffffff1660e01b8152600401602060405180830381600087803b15801561074b57600080fd5b505af115801561075f573d6000803e3d6000fd5b505050506040513d601f19601f8201168201806040525081019061078391906110d8565b73ffffffffffffffffffffffffffffffffffffffff1663095ea7b38460000160208101906107b191906110af565b846040518363ffffffff1660e01b81526004016107cf929190611488565b602060405180830381600087803b1580156107e957600080fd5b505af11580156107fd573d6000803e3d6000fd5b505050506040513d601f19601f82011682018060405250810190610821919061116b565b5082600001602081019061083591906110af565b73ffffffffffffffffffffffffffffffffffffffff166338ed1739838386806040019061086291906115ca565b3089606001356040518763ffffffff1660e01b81526004016108899695949392919061156e565b600060405180830381600087803b1580156108a357600080fd5b505af11580156108b7573d6000803e3d6000fd5b505050506040513d6000823e3d601f19601f820116820180604052508101906108e09190611101565b5050505b5050565b60008214156109fc578273ffffffffffffffffffffffffffffffffffffffff1663cc7a262e6040518163ffffffff1660e01b8152600401602060405180830381600087803b15801561093957600080fd5b505af115801561094d573d6000803e3d6000fd5b505050506040513d601f19601f8201168201806040525081019061097191906110d8565b73ffffffffffffffffffffffffffffffffffffffff166370a08231306040518263ffffffff1660e01b81526004016109a9919061146d565b60206040518083038186803b1580156109c157600080fd5b505afa1580156109d5573d6000803e3d6000fd5b505050506040513d601f19601f820116820180604052508101906109f991906111d5565b91505b6000811415610b235760008054906101000a900473ffffffffffffffffffffffffffffffffffffffff1673ffffffffffffffffffffffffffffffffffffffff1663095ea7b384846040518363ffffffff1660e01b8152600401610a60929190611488565b602060405180830381600087803b158015610a7a57600080fd5b505af1158015610a8e573d6000803e3d6000fd5b505050506040513d601f19601f82011682018060405250810190610ab2919061116b565b508273ffffffffffffffffffffffffffffffffffffffff166341441d3b836040518263ffffffff1660e01b8152600401610aec9190611553565b600060405180830381600087803b158015610b0657600080fd5b505af1158015610b1a573d6000803e3d6000fd5b50505050610c9c565b8273ffffffffffffffffffffffffffffffffffffffff1663cc7a262e6040518163ffffffff1660e01b8152600401602060405180830381600087803b158015610b6b57600080fd5b505af1158015610b7f573d6000803e3d6000fd5b505050506040513d601f19601f82011682018060405250810190610ba391906110d8565b73ffffffffffffffffffffffffffffffffffffffff1663095ea7b384846040518363ffffffff1660e01b8152600401610bdd929190611488565b602060405180830381600087803b158015610bf757600080fd5b505af1158015610c0b573d6000803e3d6000fd5b505050506040513d601f19601f82011682018060405250810190610c2f919061116b565b508273ffffffffffffffffffffffffffffffffffffffff1663b6b55f25836040518263ffffffff1660e01b8152600401610c699190611553565b600060405180830381600087803b158015610c8357600080fd5b505af1158015610c97573d6000803e3d6000fd5b505050505b505050565b610d228363a9059cbb60e01b8484604051602401610cc0929190611488565b604051602081830303815290604052907bffffffffffffffffffffffffffffffffffffffffffffffffffffffff19166020820180517bffffffffffffffffffffffffffffffffffffffffffffffffffffffff8381831617835250505050610d27565b505050565b6000610d89826040518060400160405280602081526020017f5361666545524332303a206c6f772d6c6576656c2063616c6c206661696c65648152508573ffffffffffffffffffffffffffffffffffffffff16610dee9092919063ffffffff16565b9050600081511115610de95780806020019051810190610da9919061116b565b610de8576040517f08c379a0000000000000000000000000000000000000000000000000000000008152600401610ddf90611513565b60405180910390fd5b5b505050565b6060610dfd8484600085610e06565b90509392505050565b606082471015610e4b576040517f08c379a0000000000000000000000000000000000000000000000000000000008152600401610e42906114d3565b60405180910390fd5b610e5485610f1a565b610e93576040517f08c379a0000000000000000000000000000000000000000000000000000000008152600401610e8a906114f3565b60405180910390fd5b6000808673ffffffffffffffffffffffffffffffffffffffff168587604051610ebc9190611456565b60006040518083038185875af1925050503d8060008114610ef9576040519150601f19603f3d011682016040523d82523d6000602084013e610efe565b606091505b5091509150610f0e828286610f2d565b92505050949350505050565b600080823b905060008111915050919050565b60608315610f3d57829050610f8d565b600083511115610f505782518084602001fd5b816040517f08c379a0000000000000000000000000000000000000000000000000000000008152600401610f8491906114b1565b60405180910390fd5b9392505050565b6000610fa7610fa284611676565b611645565b90508083825260208201905082856020860282011115610fc657600080fd5b60005b85811015610ff65781610fdc888261109a565b845260208401935060208301925050600181019050610fc9565b5050509392505050565b60008135905061100f81611857565b92915050565b60008151905061102481611857565b92915050565b600082601f83011261103b57600080fd5b815161104b848260208601610f94565b91505092915050565b6000813590506110638161186e565b92915050565b6000815190506110788161186e565b92915050565b6000610180828403121561109157600080fd5b81905092915050565b6000815190506110a981611885565b92915050565b6000602082840312156110c157600080fd5b60006110cf84828501611000565b91505092915050565b6000602082840312156110ea57600080fd5b60006110f884828501611015565b91505092915050565b60006020828403121561111357600080fd5b600082015167ffffffffffffffff81111561112d57600080fd5b6111398482850161102a565b91505092915050565b60006020828403121561115457600080fd5b600061116284828501611054565b91505092915050565b60006020828403121561117d57600080fd5b600061118b84828501611069565b91505092915050565b6000602082840312156111a657600080fd5b600082013567ffffffffffffffff8111156111c057600080fd5b6111cc8482850161107e565b91505092915050565b6000602082840312156111e757600080fd5b60006111f58482850161109a565b91505092915050565b600061120a8383611216565b60208301905092915050565b61121f8161176d565b82525050565b61122e8161176d565b82525050565b600061124083856116cf565b935061124b826116a2565b8060005b858110156112845761126182846116fc565b61126b88826111fe565b9750611276836116c2565b92505060018101905061124f565b5085925050509392505050565b600061129c826116ac565b6112a681856116e0565b93506112b68185602086016117b5565b80840191505092915050565b60006112cd826116b7565b6112d781856116eb565b93506112e78185602086016117b5565b6112f081611846565b840191505092915050565b60006113086026836116eb565b91507f416464726573733a20696e73756666696369656e742062616c616e636520666f60008301527f722063616c6c00000000000000000000000000000000000000000000000000006020830152604082019050919050565b600061136e601d836116eb565b91507f416464726573733a2063616c6c20746f206e6f6e2d636f6e74726163740000006000830152602082019050919050565b60006113ae602a836116eb565b91507f5361666545524332303a204552433230206f7065726174696f6e20646964206e60008301527f6f742073756363656564000000000000000000000000000000000000000000006020830152604082019050919050565b60006114146009836116eb565b91507f6f6e6c794f776e657200000000000000000000000000000000000000000000006000830152602082019050919050565b611450816117ab565b82525050565b60006114628284611291565b915081905092915050565b60006020820190506114826000830184611225565b92915050565b600060408201905061149d6000830185611225565b6114aa6020830184611447565b9392505050565b600060208201905081810360008301526114cb81846112c2565b905092915050565b600060208201905081810360008301526114ec816112fb565b9050919050565b6000602082019050818103600083015261150c81611361565b9050919050565b6000602082019050818103600083015261152c816113a1565b9050919050565b6000602082019050818103600083015261154c81611407565b9050919050565b60006020820190506115686000830184611447565b92915050565b600060a0820190506115836000830189611447565b6115906020830188611447565b81810360408301526115a3818688611234565b90506115b26060830185611225565b6115bf6080830184611447565b979650505050505050565b600080833560016020038436030381126115e357600080fd5b80840192508235915067ffffffffffffffff82111561160157600080fd5b60208301925060208202360383131561161957600080fd5b509250929050565b60008235600160800383360303811261163957600080fd5b80830191505092915050565b6000604051905081810181811067ffffffffffffffff8211171561166c5761166b611817565b5b8060405250919050565b600067ffffffffffffffff82111561169157611690611817565b5b602082029050602081019050919050565b6000819050919050565b600081519050919050565b600081519050919050565b6000602082019050919050565b600082825260208201905092915050565b600081905092915050565b600082825260208201905092915050565b600061170b6020840184611000565b905092915050565b600061171e826117ab565b9150611729836117ab565b9250817fffffffffffffffffffffffffffffffffffffffffffffffffffffffffffffffff0483118215151615611762576117616117e8565b5b828202905092915050565b60006117788261178b565b9050919050565b60008115159050919050565b600073ffffffffffffffffffffffffffffffffffffffff82169050919050565b6000819050919050565b60005b838110156117d35780820151818401526020810190506117b8565b838111156117e2576000848401525b50505050565b7f4e487b7100000000000000000000000000000000000000000000000000000000600052601160045260246000fd5b7f4e487b7100000000000000000000000000000000000000000000000000000000600052604160045260246000fd5b6000601f19601f8301169050919050565b6118608161176d565b811461186b57600080fd5b50565b6118778161177f565b811461188257600080fd5b50565b61188e816117ab565b811461189957600080fd5b5056fea2646970667358221220b4fd4a6c3149ca5462a6f91f19aa63f472e537ffd9b84cc035ea79c2375aa73764736f6c63430008000033",
  "linkReferences": {},
  "deployedLinkReferences": {}
}