{
  "_format": "hh-sol-artifact-1",
  "contractName": "Worker",
  "sourceName": "contracts/Worker.sol",
  "abi": [
    {
      "inputs": [],
      "stateMutability": "nonpayable",
      "type": "constructor"
    },
    {
      "anonymous": false,
      "inputs": [
        {
          "indexed": false,
          "internalType": "address",
          "name": "poolAddr",
          "type": "address"
        }
      ],
      "name": "DoHardWork",
      "type": "event"
    },
    {
      "inputs": [
        {
          "internalType": "address",
          "name": "poolAddr",
          "type": "address"
        },
        {
          "internalType": "uint256",
          "name": "amount",
          "type": "uint256"
        }
      ],
      "name": "depositMasterChef",
      "outputs": [],
      "stateMutability": "nonpayable",
      "type": "function"
    },
    {
      "inputs": [
        {
          "internalType": "address",
          "name": "poolAddr",
          "type": "address"
        },
        {
          "internalType": "uint256",
          "name": "amount",
          "type": "uint256"
        }
      ],
      "name": "depositSmartChef",
      "outputs": [],
      "stateMutability": "nonpayable",
      "type": "function"
    },
    {
      "inputs": [],
      "name": "owner",
      "outputs": [
        {
          "internalType": "address",
          "name": "",
          "type": "address"
        }
      ],
      "stateMutability": "view",
      "type": "function"
    },
    {
      "inputs": [
        {
          "internalType": "address",
          "name": "rewardToken",
          "type": "address"
        },
        {
          "internalType": "address[]",
          "name": "path",
          "type": "address[]"
        },
        {
          "internalType": "uint256",
          "name": "amountIn",
          "type": "uint256"
        }
      ],
      "name": "swap",
      "outputs": [],
      "stateMutability": "nonpayable",
      "type": "function"
    },
    {
      "inputs": [],
      "name": "transferToManager",
      "outputs": [],
      "stateMutability": "nonpayable",
      "type": "function"
    },
    {
      "inputs": [
        {
          "internalType": "address",
          "name": "poolAddr",
          "type": "address"
        },
        {
          "internalType": "uint256",
          "name": "amount",
          "type": "uint256"
        }
      ],
      "name": "withdrawMasterChef",
      "outputs": [],
      "stateMutability": "nonpayable",
      "type": "function"
    },
    {
      "inputs": [
        {
          "internalType": "address",
          "name": "poolAddr",
          "type": "address"
        },
        {
          "internalType": "uint256",
          "name": "amount",
          "type": "uint256"
        }
      ],
      "name": "withdrawSmartChef",
      "outputs": [],
      "stateMutability": "nonpayable",
      "type": "function"
    }
  ],
  "bytecode": "0x60a0604052730e09fabb73bd3ade0a17ecc321fd13a19e81ce826000806101000a81548173ffffffffffffffffffffffffffffffffffffffff021916908373ffffffffffffffffffffffffffffffffffffffff1602179055507373feaa1ee314f8c655e354234017be2193c9e24e600160006101000a81548173ffffffffffffffffffffffffffffffffffffffff021916908373ffffffffffffffffffffffffffffffffffffffff16021790555073927158be21fe3d4da7e96931bb27fd5059a8cbc2600260006101000a81548173ffffffffffffffffffffffffffffffffffffffff021916908373ffffffffffffffffffffffffffffffffffffffff1602179055507310ed43c718714eb63d5aa57b78b54704e256024e600360006101000a81548173ffffffffffffffffffffffffffffffffffffffff021916908373ffffffffffffffffffffffffffffffffffffffff16021790555061038460045534801561016957600080fd5b503373ffffffffffffffffffffffffffffffffffffffff1660808173ffffffffffffffffffffffffffffffffffffffff1660601b8152505060805160601c61161c6101f060003960008181610138015281816102350152818161044601528181610543015281816106ee01528181610899015281816108bd01526109fc015261161c6000f3fe608060405234801561001057600080fd5b506004361061007d5760003560e01c80636be6589b1161005b5780636be6589b146100d657806379829eb6146100f25780638da5cb5b1461010e578063ea37910b1461012c5761007d565b80630296fd3b146100825780632e449e9b1461009e578063575a08a1146100ba575b600080fd5b61009c60048036038101906100979190610ef8565b610136565b005b6100b860048036038101906100b39190610e8c565b610233565b005b6100d460048036038101906100cf9190610ef8565b610444565b005b6100f060048036038101906100eb9190610ef8565b610541565b005b61010c60048036038101906101079190610ef8565b6106ec565b005b610116610897565b6040516101239190611236565b60405180910390f35b6101346108bb565b005b7f000000000000000000000000000000000000000000000000000000000000000073ffffffffffffffffffffffffffffffffffffffff163373ffffffffffffffffffffffffffffffffffffffff16146101c4576040517f08c379a00000000000000000000000000000000000000000000000000000000081526004016101bb906112fc565b60405180910390fd5b8173ffffffffffffffffffffffffffffffffffffffff16632e1a7d4d826040518263ffffffff1660e01b81526004016101fd919061131c565b600060405180830381600087803b15801561021757600080fd5b505af115801561022b573d6000803e3d6000fd5b505050505050565b7f000000000000000000000000000000000000000000000000000000000000000073ffffffffffffffffffffffffffffffffffffffff163373ffffffffffffffffffffffffffffffffffffffff16146102c1576040517f08c379a00000000000000000000000000000000000000000000000000000000081526004016102b8906112fc565b60405180910390fd5b60008473ffffffffffffffffffffffffffffffffffffffff1663095ea7b3600360009054906101000a900473ffffffffffffffffffffffffffffffffffffffff16846040518363ffffffff1660e01b8152600401610320929190611251565b602060405180830381600087803b15801561033a57600080fd5b505af115801561034e573d6000803e3d6000fd5b505050506040513d601f19601f820116820180604052508101906103729190610f75565b50600360009054906101000a900473ffffffffffffffffffffffffffffffffffffffff1673ffffffffffffffffffffffffffffffffffffffff166338ed17398383878730600454426103c49190611461565b6040518763ffffffff1660e01b81526004016103e596959493929190611337565b600060405180830381600087803b1580156103ff57600080fd5b505af1158015610413573d6000803e3d6000fd5b505050506040513d6000823e3d601f19601f8201168201806040525081019061043c9190610f34565b505050505050565b7f000000000000000000000000000000000000000000000000000000000000000073ffffffffffffffffffffffffffffffffffffffff163373ffffffffffffffffffffffffffffffffffffffff16146104d2576040517f08c379a00000000000000000000000000000000000000000000000000000000081526004016104c9906112fc565b60405180910390fd5b8173ffffffffffffffffffffffffffffffffffffffff16631058d281826040518263ffffffff1660e01b815260040161050b919061131c565b600060405180830381600087803b15801561052557600080fd5b505af1158015610539573d6000803e3d6000fd5b505050505050565b7f000000000000000000000000000000000000000000000000000000000000000073ffffffffffffffffffffffffffffffffffffffff163373ffffffffffffffffffffffffffffffffffffffff16146105cf576040517f08c379a00000000000000000000000000000000000000000000000000000000081526004016105c6906112fc565b60405180910390fd5b60008054906101000a900473ffffffffffffffffffffffffffffffffffffffff1673ffffffffffffffffffffffffffffffffffffffff1663095ea7b383836040518363ffffffff1660e01b815260040161062a929190611251565b602060405180830381600087803b15801561064457600080fd5b505af1158015610658573d6000803e3d6000fd5b505050506040513d601f19601f8201168201806040525081019061067c9190610f75565b508173ffffffffffffffffffffffffffffffffffffffff1663b6b55f25826040518263ffffffff1660e01b81526004016106b6919061131c565b600060405180830381600087803b1580156106d057600080fd5b505af11580156106e4573d6000803e3d6000fd5b505050505050565b7f000000000000000000000000000000000000000000000000000000000000000073ffffffffffffffffffffffffffffffffffffffff163373ffffffffffffffffffffffffffffffffffffffff161461077a576040517f08c379a0000000000000000000000000000000000000000000000000000000008152600401610771906112fc565b60405180910390fd5b60008054906101000a900473ffffffffffffffffffffffffffffffffffffffff1673ffffffffffffffffffffffffffffffffffffffff1663095ea7b383836040518363ffffffff1660e01b81526004016107d5929190611251565b602060405180830381600087803b1580156107ef57600080fd5b505af1158015610803573d6000803e3d6000fd5b505050506040513d601f19601f820116820180604052508101906108279190610f75565b508173ffffffffffffffffffffffffffffffffffffffff166341441d3b826040518263ffffffff1660e01b8152600401610861919061131c565b600060405180830381600087803b15801561087b57600080fd5b505af115801561088f573d6000803e3d6000fd5b505050505050565b7f000000000000000000000000000000000000000000000000000000000000000081565b7f000000000000000000000000000000000000000000000000000000000000000073ffffffffffffffffffffffffffffffffffffffff163373ffffffffffffffffffffffffffffffffffffffff1614610949576040517f08c379a0000000000000000000000000000000000000000000000000000000008152600401610940906112fc565b60405180910390fd5b60008060009054906101000a900473ffffffffffffffffffffffffffffffffffffffff1673ffffffffffffffffffffffffffffffffffffffff166370a08231306040518263ffffffff1660e01b81526004016109a59190611236565b60206040518083038186803b1580156109bd57600080fd5b505afa1580156109d1573d6000803e3d6000fd5b505050506040513d601f19601f820116820180604052508101906109f59190610f9e565b9050610a627f00000000000000000000000000000000000000000000000000000000000000008260008054906101000a900473ffffffffffffffffffffffffffffffffffffffff1673ffffffffffffffffffffffffffffffffffffffff16610a659092919063ffffffff16565b50565b610ae68363a9059cbb60e01b8484604051602401610a84929190611251565b604051602081830303815290604052907bffffffffffffffffffffffffffffffffffffffffffffffffffffffff19166020820180517bffffffffffffffffffffffffffffffffffffffffffffffffffffffff8381831617835250505050610aeb565b505050565b6000610b4d826040518060400160405280602081526020017f5361666545524332303a206c6f772d6c6576656c2063616c6c206661696c65648152508573ffffffffffffffffffffffffffffffffffffffff16610bb29092919063ffffffff16565b9050600081511115610bad5780806020019051810190610b6d9190610f75565b610bac576040517f08c379a0000000000000000000000000000000000000000000000000000000008152600401610ba3906112dc565b60405180910390fd5b5b505050565b6060610bc18484600085610bca565b90509392505050565b606082471015610c0f576040517f08c379a0000000000000000000000000000000000000000000000000000000008152600401610c069061129c565b60405180910390fd5b610c1885610cde565b610c57576040517f08c379a0000000000000000000000000000000000000000000000000000000008152600401610c4e906112bc565b60405180910390fd5b6000808673ffffffffffffffffffffffffffffffffffffffff168587604051610c80919061121f565b60006040518083038185875af1925050503d8060008114610cbd576040519150601f19603f3d011682016040523d82523d6000602084013e610cc2565b606091505b5091509150610cd2828286610cf1565b92505050949350505050565b600080823b905060008111915050919050565b60608315610d0157829050610d51565b600083511115610d145782518084602001fd5b816040517f08c379a0000000000000000000000000000000000000000000000000000000008152600401610d48919061127a565b60405180910390fd5b9392505050565b6000610d6b610d66846113c4565b611393565b90508083825260208201905082856020860282011115610d8a57600080fd5b60005b85811015610dba5781610da08882610e77565b845260208401935060208301925050600181019050610d8d565b5050509392505050565b600081359050610dd3816115a1565b92915050565b60008083601f840112610deb57600080fd5b8235905067ffffffffffffffff811115610e0457600080fd5b602083019150836020820283011115610e1c57600080fd5b9250929050565b600082601f830112610e3457600080fd5b8151610e44848260208601610d58565b91505092915050565b600081519050610e5c816115b8565b92915050565b600081359050610e71816115cf565b92915050565b600081519050610e86816115cf565b92915050565b60008060008060608587031215610ea257600080fd5b6000610eb087828801610dc4565b945050602085013567ffffffffffffffff811115610ecd57600080fd5b610ed987828801610dd9565b93509350506040610eec87828801610e62565b91505092959194509250565b60008060408385031215610f0b57600080fd5b6000610f1985828601610dc4565b9250506020610f2a85828601610e62565b9150509250929050565b600060208284031215610f4657600080fd5b600082015167ffffffffffffffff811115610f6057600080fd5b610f6c84828501610e23565b91505092915050565b600060208284031215610f8757600080fd5b6000610f9584828501610e4d565b91505092915050565b600060208284031215610fb057600080fd5b6000610fbe84828501610e77565b91505092915050565b6000610fd38383610fdf565b60208301905092915050565b610fe8816114b7565b82525050565b610ff7816114b7565b82525050565b6000611009838561141d565b9350611014826113f0565b8060005b8581101561104d5761102a828461144a565b6110348882610fc7565b975061103f83611410565b925050600181019050611018565b5085925050509392505050565b6000611065826113fa565b61106f818561142e565b935061107f8185602086016114ff565b80840191505092915050565b600061109682611405565b6110a08185611439565b93506110b08185602086016114ff565b6110b981611590565b840191505092915050565b60006110d1602683611439565b91507f416464726573733a20696e73756666696369656e742062616c616e636520666f60008301527f722063616c6c00000000000000000000000000000000000000000000000000006020830152604082019050919050565b6000611137601d83611439565b91507f416464726573733a2063616c6c20746f206e6f6e2d636f6e74726163740000006000830152602082019050919050565b6000611177602a83611439565b91507f5361666545524332303a204552433230206f7065726174696f6e20646964206e60008301527f6f742073756363656564000000000000000000000000000000000000000000006020830152604082019050919050565b60006111dd600983611439565b91507f6f6e6c794f776e657200000000000000000000000000000000000000000000006000830152602082019050919050565b611219816114f5565b82525050565b600061122b828461105a565b915081905092915050565b600060208201905061124b6000830184610fee565b92915050565b60006040820190506112666000830185610fee565b6112736020830184611210565b9392505050565b60006020820190508181036000830152611294818461108b565b905092915050565b600060208201905081810360008301526112b5816110c4565b9050919050565b600060208201905081810360008301526112d58161112a565b9050919050565b600060208201905081810360008301526112f58161116a565b9050919050565b60006020820190508181036000830152611315816111d0565b9050919050565b60006020820190506113316000830184611210565b92915050565b600060a08201905061134c6000830189611210565b6113596020830188611210565b818103604083015261136c818688610ffd565b905061137b6060830185610fee565b6113886080830184611210565b979650505050505050565b6000604051905081810181811067ffffffffffffffff821117156113ba576113b9611561565b5b8060405250919050565b600067ffffffffffffffff8211156113df576113de611561565b5b602082029050602081019050919050565b6000819050919050565b600081519050919050565b600081519050919050565b6000602082019050919050565b600082825260208201905092915050565b600081905092915050565b600082825260208201905092915050565b60006114596020840184610dc4565b905092915050565b600061146c826114f5565b9150611477836114f5565b9250827fffffffffffffffffffffffffffffffffffffffffffffffffffffffffffffffff038211156114ac576114ab611532565b5b828201905092915050565b60006114c2826114d5565b9050919050565b60008115159050919050565b600073ffffffffffffffffffffffffffffffffffffffff82169050919050565b6000819050919050565b60005b8381101561151d578082015181840152602081019050611502565b8381111561152c576000848401525b50505050565b7f4e487b7100000000000000000000000000000000000000000000000000000000600052601160045260246000fd5b7f4e487b7100000000000000000000000000000000000000000000000000000000600052604160045260246000fd5b6000601f19601f8301169050919050565b6115aa816114b7565b81146115b557600080fd5b50565b6115c1816114c9565b81146115cc57600080fd5b50565b6115d8816114f5565b81146115e357600080fd5b5056fea2646970667358221220634509507de0e9f9b20f5b62a112c7bb48988b692ebccc7e6964c9dedfa1febb64736f6c63430008000033",
  "linkReferences": {},
  "deployedLinkReferences": {}
}