{
  "_format": "hh-sol-artifact-1",
  "contractName": "Worker",
  "sourceName": "contracts/Worker.sol",
  "abi": [
    {
      "inputs": [],
      "stateMutability": "nonpayable",
      "type": "constructor"
    },
    {
      "anonymous": false,
      "inputs": [
        {
          "indexed": false,
          "internalType": "address",
          "name": "stakedPoolAddr",
          "type": "address"
        }
      ],
      "name": "DoHardWork",
      "type": "event"
    },
    {
      "inputs": [
        {
          "components": [
            {
              "internalType": "bool",
              "name": "withdraw",
              "type": "bool"
            },
            {
              "internalType": "bool",
              "name": "swap",
              "type": "bool"
            },
            {
              "internalType": "bool",
              "name": "deposit",
              "type": "bool"
            },
            {
              "internalType": "address",
              "name": "stakedPoolAddr",
              "type": "address"
            },
            {
              "internalType": "address",
              "name": "newPoolAddr",
              "type": "address"
            },
            {
              "internalType": "uint256",
              "name": "amount",
              "type": "uint256"
            },
            {
              "internalType": "uint16",
              "name": "startIndex",
              "type": "uint16"
            },
            {
              "internalType": "uint16",
              "name": "endIndex",
              "type": "uint16"
            },
            {
              "components": [
                {
                  "internalType": "address",
                  "name": "swapRouter",
                  "type": "address"
                },
                {
                  "internalType": "uint256",
                  "name": "multiplier",
                  "type": "uint256"
                },
                {
                  "internalType": "address[]",
                  "name": "path",
                  "type": "address[]"
                },
                {
                  "internalType": "uint256",
                  "name": "deadline",
                  "type": "uint256"
                }
              ],
              "internalType": "struct IWorker.SwapParams",
              "name": "swapParams",
              "type": "tuple"
            }
          ],
          "internalType": "struct IWorker.DoHardWorkParams",
          "name": "params",
          "type": "tuple"
        }
      ],
      "name": "doHardWork",
      "outputs": [],
      "stateMutability": "nonpayable",
      "type": "function"
    },
    {
      "inputs": [],
      "name": "owner",
      "outputs": [
        {
          "internalType": "address",
          "name": "",
          "type": "address"
        }
      ],
      "stateMutability": "view",
      "type": "function"
    },
    {
      "inputs": [
        {
          "internalType": "uint256",
          "name": "amount",
          "type": "uint256"
        },
        {
          "internalType": "address",
          "name": "token",
          "type": "address"
        }
      ],
      "name": "transferToManager",
      "outputs": [],
      "stateMutability": "nonpayable",
      "type": "function"
    }
  ],
  "bytecode": "0x60a0604052730e09fabb73bd3ade0a17ecc321fd13a19e81ce826000806101000a81548173ffffffffffffffffffffffffffffffffffffffff021916908373ffffffffffffffffffffffffffffffffffffffff1602179055507373feaa1ee314f8c655e354234017be2193c9e24e600160006101000a81548173ffffffffffffffffffffffffffffffffffffffff021916908373ffffffffffffffffffffffffffffffffffffffff16021790555073927158be21fe3d4da7e96931bb27fd5059a8cbc2600260006101000a81548173ffffffffffffffffffffffffffffffffffffffff021916908373ffffffffffffffffffffffffffffffffffffffff16021790555034801561010e57600080fd5b503373ffffffffffffffffffffffffffffffffffffffff1660808173ffffffffffffffffffffffffffffffffffffffff1660601b8152505060805160601c611f6661017760003960008181609e0152818160c20152818161025301526103790152611f666000f3fe608060405234801561001057600080fd5b50600436106100415760003560e01c80638da5cb5b14610046578063a2fa1c9714610064578063a5d3434314610080575b600080fd5b61004e61009c565b60405161005b91906119c0565b60405180910390f35b61007e600480360381019061007991906115f3565b6100c0565b005b61009a60048036038101906100959190611686565b610251565b005b7f000000000000000000000000000000000000000000000000000000000000000081565b7f000000000000000000000000000000000000000000000000000000000000000073ffffffffffffffffffffffffffffffffffffffff163373ffffffffffffffffffffffffffffffffffffffff161461014e576040517f08c379a000000000000000000000000000000000000000000000000000000000815260040161014590611aef565b60405180910390fd5b80600001602081019061016191906115a1565b156101875761018681606001602081019061017c919061150e565b8260a001356103c3565b5b80602001602081019061019a91906115a1565b156101cc576101cb8160600160208101906101b5919061150e565b828061010001906101c69190611c0f565b610639565b5b8060400160208101906101df91906115a1565b15610205576102048160800160208101906101fa919061150e565b8260a00135610a6b565b5b7f81188f5f74429a8d5dd69e402d2ec601e9510929aeb809d15acde392c83de433816060016020810190610239919061150e565b60405161024691906119c0565b60405180910390a150565b7f000000000000000000000000000000000000000000000000000000000000000073ffffffffffffffffffffffffffffffffffffffff163373ffffffffffffffffffffffffffffffffffffffff16146102df576040517f08c379a00000000000000000000000000000000000000000000000000000000081526004016102d690611aef565b60405180910390fd5b6000821415610374578073ffffffffffffffffffffffffffffffffffffffff166370a08231306040518263ffffffff1660e01b815260040161032191906119c0565b60206040518083038186803b15801561033957600080fd5b505afa15801561034d573d6000803e3d6000fd5b505050506040513d601f19601f82011682018060405250810190610371919061165d565b91505b6103bf7f0000000000000000000000000000000000000000000000000000000000000000838373ffffffffffffffffffffffffffffffffffffffff16610e799092919063ffffffff16565b5050565b6103cb611378565b600160009054906101000a900473ffffffffffffffffffffffffffffffffffffffff1673ffffffffffffffffffffffffffffffffffffffff168373ffffffffffffffffffffffffffffffffffffffff16141561052e57600082146104be578273ffffffffffffffffffffffffffffffffffffffff166393f1a40b6000306040518363ffffffff1660e01b8152600401610465929190611a04565b604080518083038186803b15801561047c57600080fd5b505afa158015610490573d6000803e3d6000fd5b505050506040513d601f19601f820116820180604052508101906104b49190611634565b9050806000015191505b8273ffffffffffffffffffffffffffffffffffffffff16631058d281836040518263ffffffff1660e01b81526004016104f79190611b0f565b600060405180830381600087803b15801561051157600080fd5b505af1158015610525573d6000803e3d6000fd5b50505050610634565b600082146105c8578273ffffffffffffffffffffffffffffffffffffffff16631959a002306040518263ffffffff1660e01b815260040161056f91906119c0565b604080518083038186803b15801561058657600080fd5b505afa15801561059a573d6000803e3d6000fd5b505050506040513d601f19601f820116820180604052508101906105be9190611634565b9050806000015191505b8273ffffffffffffffffffffffffffffffffffffffff16632e1a7d4d836040518263ffffffff1660e01b81526004016106019190611b0f565b600060405180830381600087803b15801561061b57600080fd5b505af115801561062f573d6000803e3d6000fd5b505050505b505050565b60008273ffffffffffffffffffffffffffffffffffffffff1663f7c618c16040518163ffffffff1660e01b8152600401602060405180830381600087803b15801561068357600080fd5b505af1158015610697573d6000803e3d6000fd5b505050506040513d601f19601f820116820180604052508101906106bb9190611537565b73ffffffffffffffffffffffffffffffffffffffff166370a08231306040518263ffffffff1660e01b81526004016106f391906119c0565b60206040518083038186803b15801561070b57600080fd5b505afa15801561071f573d6000803e3d6000fd5b505050506040513d601f19601f82011682018060405250810190610743919061165d565b905060008114156107545750610a67565b6000826000016020810190610769919061150e565b73ffffffffffffffffffffffffffffffffffffffff1663d06ca61f838580604001906107959190611bb8565b6040518463ffffffff1660e01b81526004016107b393929190611b2a565b60006040518083038186803b1580156107cb57600080fd5b505afa1580156107df573d6000803e3d6000fd5b505050506040513d6000823e3d601f19601f820116820180604052508101906108089190611560565b905060006108836064610875866020013585600187516108289190611d8c565b8151811061085f577f4e487b7100000000000000000000000000000000000000000000000000000000600052603260045260246000fd5b6020026020010151610eff90919063ffffffff16565b610f1590919063ffffffff16565b90508473ffffffffffffffffffffffffffffffffffffffff1663f7c618c16040518163ffffffff1660e01b8152600401602060405180830381600087803b1580156108cd57600080fd5b505af11580156108e1573d6000803e3d6000fd5b505050506040513d601f19601f820116820180604052508101906109059190611537565b73ffffffffffffffffffffffffffffffffffffffff1663095ea7b3856000016020810190610933919061150e565b856040518363ffffffff1660e01b81526004016109519291906119db565b602060405180830381600087803b15801561096b57600080fd5b505af115801561097f573d6000803e3d6000fd5b505050506040513d601f19601f820116820180604052508101906109a391906115ca565b508360000160208101906109b7919061150e565b73ffffffffffffffffffffffffffffffffffffffff166338ed173984838780604001906109e49190611bb8565b308a606001356040518763ffffffff1660e01b8152600401610a0b96959493929190611b5c565b600060405180830381600087803b158015610a2557600080fd5b505af1158015610a39573d6000803e3d6000fd5b505050506040513d6000823e3d601f19601f82011682018060405250810190610a629190611560565b505050505b5050565b610a7482610f2b565b6000811415610b88578173ffffffffffffffffffffffffffffffffffffffff1663cc7a262e6040518163ffffffff1660e01b8152600401602060405180830381600087803b158015610ac557600080fd5b505af1158015610ad9573d6000803e3d6000fd5b505050506040513d601f19601f82011682018060405250810190610afd9190611537565b73ffffffffffffffffffffffffffffffffffffffff166370a08231306040518263ffffffff1660e01b8152600401610b3591906119c0565b60206040518083038186803b158015610b4d57600080fd5b505afa158015610b61573d6000803e3d6000fd5b505050506040513d601f19601f82011682018060405250810190610b85919061165d565b90505b600160009054906101000a900473ffffffffffffffffffffffffffffffffffffffff1673ffffffffffffffffffffffffffffffffffffffff168273ffffffffffffffffffffffffffffffffffffffff161415610cfc5760008054906101000a900473ffffffffffffffffffffffffffffffffffffffff1673ffffffffffffffffffffffffffffffffffffffff1663095ea7b383836040518363ffffffff1660e01b8152600401610c399291906119db565b602060405180830381600087803b158015610c5357600080fd5b505af1158015610c67573d6000803e3d6000fd5b505050506040513d601f19601f82011682018060405250810190610c8b91906115ca565b508173ffffffffffffffffffffffffffffffffffffffff166341441d3b826040518263ffffffff1660e01b8152600401610cc59190611b0f565b600060405180830381600087803b158015610cdf57600080fd5b505af1158015610cf3573d6000803e3d6000fd5b50505050610e75565b8173ffffffffffffffffffffffffffffffffffffffff1663cc7a262e6040518163ffffffff1660e01b8152600401602060405180830381600087803b158015610d4457600080fd5b505af1158015610d58573d6000803e3d6000fd5b505050506040513d601f19601f82011682018060405250810190610d7c9190611537565b73ffffffffffffffffffffffffffffffffffffffff1663095ea7b383836040518363ffffffff1660e01b8152600401610db69291906119db565b602060405180830381600087803b158015610dd057600080fd5b505af1158015610de4573d6000803e3d6000fd5b505050506040513d601f19601f82011682018060405250810190610e0891906115ca565b508173ffffffffffffffffffffffffffffffffffffffff1663b6b55f25826040518263ffffffff1660e01b8152600401610e429190611b0f565b600060405180830381600087803b158015610e5c57600080fd5b505af1158015610e70573d6000803e3d6000fd5b505050505b5050565b610efa8363a9059cbb60e01b8484604051602401610e989291906119db565b604051602081830303815290604052907bffffffffffffffffffffffffffffffffffffffffffffffffffffffff19166020820180517bffffffffffffffffffffffffffffffffffffffffffffffffffffffff838183161783525050505061110b565b505050565b60008183610f0d9190611d32565b905092915050565b60008183610f239190611d01565b905092915050565b600160009054906101000a900473ffffffffffffffffffffffffffffffffffffffff1673ffffffffffffffffffffffffffffffffffffffff168173ffffffffffffffffffffffffffffffffffffffff161415610f8657611108565b600260009054906101000a900473ffffffffffffffffffffffffffffffffffffffff1673ffffffffffffffffffffffffffffffffffffffff168173ffffffffffffffffffffffffffffffffffffffff1663bd6171916040518163ffffffff1660e01b8152600401602060405180830381600087803b15801561100757600080fd5b505af115801561101b573d6000803e3d6000fd5b505050506040513d601f19601f8201168201806040525081019061103f9190611537565b73ffffffffffffffffffffffffffffffffffffffff1614611095576040517f08c379a000000000000000000000000000000000000000000000000000000000815260040161108c90611a4f565b60405180910390fd5b60007fdff6e8f6a4233f835d067b2c6fa427aa17c0fd39a43960a75e25e35af144558760001b90506000823f9050818114611105576040517f08c379a00000000000000000000000000000000000000000000000000000000081526004016110fc90611aaf565b60405180910390fd5b50505b50565b600061116d826040518060400160405280602081526020017f5361666545524332303a206c6f772d6c6576656c2063616c6c206661696c65648152508573ffffffffffffffffffffffffffffffffffffffff166111d29092919063ffffffff16565b90506000815111156111cd578080602001905181019061118d91906115ca565b6111cc576040517f08c379a00000000000000000000000000000000000000000000000000000000081526004016111c390611acf565b60405180910390fd5b5b505050565b60606111e184846000856111ea565b90509392505050565b60608247101561122f576040517f08c379a000000000000000000000000000000000000000000000000000000000815260040161122690611a6f565b60405180910390fd5b611238856112fe565b611277576040517f08c379a000000000000000000000000000000000000000000000000000000000815260040161126e90611a8f565b60405180910390fd5b6000808673ffffffffffffffffffffffffffffffffffffffff1685876040516112a091906119a9565b60006040518083038185875af1925050503d80600081146112dd576040519150601f19603f3d011682016040523d82523d6000602084013e6112e2565b606091505b50915091506112f2828286611311565b92505050949350505050565b600080823b905060008111915050919050565b6060831561132157829050611371565b6000835111156113345782518084602001fd5b816040517f08c379a00000000000000000000000000000000000000000000000000000000081526004016113689190611a2d565b60405180910390fd5b9392505050565b604051806040016040528060008152602001600081525090565b60006113a56113a084611c64565b611c33565b905080838252602082019050828560208602820111156113c457600080fd5b60005b858110156113f457816113da88826114f9565b8452602084019350602083019250506001810190506113c7565b5050509392505050565b60008135905061140d81611eeb565b92915050565b60008151905061142281611eeb565b92915050565b600082601f83011261143957600080fd5b8151611449848260208601611392565b91505092915050565b60008135905061146181611f02565b92915050565b60008151905061147681611f02565b92915050565b6000610120828403121561148f57600080fd5b81905092915050565b6000604082840312156114aa57600080fd5b6114b46040611c33565b905060006114c4848285016114f9565b60008301525060206114d8848285016114f9565b60208301525092915050565b6000813590506114f381611f19565b92915050565b60008151905061150881611f19565b92915050565b60006020828403121561152057600080fd5b600061152e848285016113fe565b91505092915050565b60006020828403121561154957600080fd5b600061155784828501611413565b91505092915050565b60006020828403121561157257600080fd5b600082015167ffffffffffffffff81111561158c57600080fd5b61159884828501611428565b91505092915050565b6000602082840312156115b357600080fd5b60006115c184828501611452565b91505092915050565b6000602082840312156115dc57600080fd5b60006115ea84828501611467565b91505092915050565b60006020828403121561160557600080fd5b600082013567ffffffffffffffff81111561161f57600080fd5b61162b8482850161147c565b91505092915050565b60006040828403121561164657600080fd5b600061165484828501611498565b91505092915050565b60006020828403121561166f57600080fd5b600061167d848285016114f9565b91505092915050565b6000806040838503121561169957600080fd5b60006116a7858286016114e4565b92505060206116b8858286016113fe565b9150509250929050565b60006116ce83836116da565b60208301905092915050565b6116e381611dc0565b82525050565b6116f281611dc0565b82525050565b60006117048385611cbd565b935061170f82611c90565b8060005b85811015611748576117258284611cea565b61172f88826116c2565b975061173a83611cb0565b925050600181019050611713565b5085925050509392505050565b600061176082611c9a565b61176a8185611cce565b935061177a818560208601611e1a565b80840191505092915050565b61178f81611e08565b82525050565b60006117a082611ca5565b6117aa8185611cd9565b93506117ba818560208601611e1a565b6117c381611eda565b840191505092915050565b60006117db601983611cd9565b91507f696e76616c696420736d6172746368656620666163746f7279000000000000006000830152602082019050919050565b600061181b602683611cd9565b91507f416464726573733a20696e73756666696369656e742062616c616e636520666f60008301527f722063616c6c00000000000000000000000000000000000000000000000000006020830152604082019050919050565b6000611881601d83611cd9565b91507f416464726573733a2063616c6c20746f206e6f6e2d636f6e74726163740000006000830152602082019050919050565b60006118c1601683611cd9565b91507f696e76616c696420706f6f6c20636f64652068617368000000000000000000006000830152602082019050919050565b6000611901602a83611cd9565b91507f5361666545524332303a204552433230206f7065726174696f6e20646964206e60008301527f6f742073756363656564000000000000000000000000000000000000000000006020830152604082019050919050565b6000611967600983611cd9565b91507f6f6e6c794f776e657200000000000000000000000000000000000000000000006000830152602082019050919050565b6119a381611dfe565b82525050565b60006119b58284611755565b915081905092915050565b60006020820190506119d560008301846116e9565b92915050565b60006040820190506119f060008301856116e9565b6119fd602083018461199a565b9392505050565b6000604082019050611a196000830185611786565b611a2660208301846116e9565b9392505050565b60006020820190508181036000830152611a478184611795565b905092915050565b60006020820190508181036000830152611a68816117ce565b9050919050565b60006020820190508181036000830152611a888161180e565b9050919050565b60006020820190508181036000830152611aa881611874565b9050919050565b60006020820190508181036000830152611ac8816118b4565b9050919050565b60006020820190508181036000830152611ae8816118f4565b9050919050565b60006020820190508181036000830152611b088161195a565b9050919050565b6000602082019050611b24600083018461199a565b92915050565b6000604082019050611b3f600083018661199a565b8181036020830152611b528184866116f8565b9050949350505050565b600060a082019050611b71600083018961199a565b611b7e602083018861199a565b8181036040830152611b918186886116f8565b9050611ba060608301856116e9565b611bad608083018461199a565b979650505050505050565b60008083356001602003843603038112611bd157600080fd5b80840192508235915067ffffffffffffffff821115611bef57600080fd5b602083019250602082023603831315611c0757600080fd5b509250929050565b600082356001608003833603038112611c2757600080fd5b80830191505092915050565b6000604051905081810181811067ffffffffffffffff82111715611c5a57611c59611eab565b5b8060405250919050565b600067ffffffffffffffff821115611c7f57611c7e611eab565b5b602082029050602081019050919050565b6000819050919050565b600081519050919050565b600081519050919050565b6000602082019050919050565b600082825260208201905092915050565b600081905092915050565b600082825260208201905092915050565b6000611cf960208401846113fe565b905092915050565b6000611d0c82611dfe565b9150611d1783611dfe565b925082611d2757611d26611e7c565b5b828204905092915050565b6000611d3d82611dfe565b9150611d4883611dfe565b9250817fffffffffffffffffffffffffffffffffffffffffffffffffffffffffffffffff0483118215151615611d8157611d80611e4d565b5b828202905092915050565b6000611d9782611dfe565b9150611da283611dfe565b925082821015611db557611db4611e4d565b5b828203905092915050565b6000611dcb82611dde565b9050919050565b60008115159050919050565b600073ffffffffffffffffffffffffffffffffffffffff82169050919050565b6000819050919050565b6000611e1382611dfe565b9050919050565b60005b83811015611e38578082015181840152602081019050611e1d565b83811115611e47576000848401525b50505050565b7f4e487b7100000000000000000000000000000000000000000000000000000000600052601160045260246000fd5b7f4e487b7100000000000000000000000000000000000000000000000000000000600052601260045260246000fd5b7f4e487b7100000000000000000000000000000000000000000000000000000000600052604160045260246000fd5b6000601f19601f8301169050919050565b611ef481611dc0565b8114611eff57600080fd5b50565b611f0b81611dd2565b8114611f1657600080fd5b50565b611f2281611dfe565b8114611f2d57600080fd5b5056fea26469706673582212205daf8e3d34b900a8fb56b39aafa71fb51366d36433070894e66047113d6a8fd864736f6c63430008000033",
  "linkReferences": {},
  "deployedLinkReferences": {}
}