{
  "_format": "hh-sol-artifact-1",
  "contractName": "Worker",
  "sourceName": "contracts/Worker.sol",
  "abi": [
    {
      "inputs": [],
      "stateMutability": "nonpayable",
      "type": "constructor"
    },
    {
      "anonymous": false,
      "inputs": [
        {
          "indexed": false,
          "internalType": "address",
          "name": "stakedPoolAddr",
          "type": "address"
        }
      ],
      "name": "DoHardWork",
      "type": "event"
    },
    {
      "inputs": [
        {
          "components": [
            {
              "internalType": "bool",
              "name": "withdraw",
              "type": "bool"
            },
            {
              "internalType": "bool",
              "name": "swap",
              "type": "bool"
            },
            {
              "internalType": "bool",
              "name": "deposit",
              "type": "bool"
            },
            {
              "internalType": "bool",
              "name": "transfer",
              "type": "bool"
            },
            {
              "internalType": "address",
              "name": "stakedPoolAddr",
              "type": "address"
            },
            {
              "internalType": "address",
              "name": "newPoolAddr",
              "type": "address"
            },
            {
              "internalType": "uint256",
              "name": "amount",
              "type": "uint256"
            },
            {
              "internalType": "uint256",
              "name": "pid",
              "type": "uint256"
            },
            {
              "internalType": "uint16",
              "name": "startIndex",
              "type": "uint16"
            },
            {
              "internalType": "uint16",
              "name": "endIndex",
              "type": "uint16"
            },
            {
              "internalType": "uint256",
              "name": "blockNum",
              "type": "uint256"
            },
            {
              "components": [
                {
                  "internalType": "address",
                  "name": "swapRouter",
                  "type": "address"
                },
                {
                  "internalType": "uint256",
                  "name": "multiplier",
                  "type": "uint256"
                },
                {
                  "internalType": "address[]",
                  "name": "path",
                  "type": "address[]"
                },
                {
                  "internalType": "uint256",
                  "name": "deadline",
                  "type": "uint256"
                }
              ],
              "internalType": "struct IWorker.SwapParams",
              "name": "swapParams",
              "type": "tuple"
            }
          ],
          "internalType": "struct IWorker.DoHardWorkParams",
          "name": "params",
          "type": "tuple"
        }
      ],
      "name": "doHardWork",
      "outputs": [],
      "stateMutability": "nonpayable",
      "type": "function"
    },
    {
      "inputs": [],
      "name": "owner",
      "outputs": [
        {
          "internalType": "address",
          "name": "",
          "type": "address"
        }
      ],
      "stateMutability": "view",
      "type": "function"
    },
    {
      "inputs": [
        {
          "internalType": "address",
          "name": "stakedToken",
          "type": "address"
        }
      ],
      "name": "transferToManager",
      "outputs": [],
      "stateMutability": "nonpayable",
      "type": "function"
    }
  ],
  "bytecode": "0x60a0604052730e09fabb73bd3ade0a17ecc321fd13a19e81ce826000806101000a81548173ffffffffffffffffffffffffffffffffffffffff021916908373ffffffffffffffffffffffffffffffffffffffff16021790555034801561006457600080fd5b503373ffffffffffffffffffffffffffffffffffffffff1660808173ffffffffffffffffffffffffffffffffffffffff1660601b8152505060805160601c6118c26100ce60003960008181609e0152818161034e01528181610372015261049f01526118c26000f3fe608060405234801561001057600080fd5b50600436106100415760003560e01c80635f879db0146100465780638da5cb5b14610062578063c90d048e14610080575b600080fd5b610060600480360381019061005b9190611184565b61009c565b005b61006a61034c565b604051610077919061145d565b60405180910390f35b61009a6004803603810190610095919061109f565b610370565b005b7f000000000000000000000000000000000000000000000000000000000000000073ffffffffffffffffffffffffffffffffffffffff163373ffffffffffffffffffffffffffffffffffffffff161461012a576040517f08c379a000000000000000000000000000000000000000000000000000000000815260040161012190611523565b60405180910390fd5b80600001602081019061013d9190611132565b1561016857610167816080016020810190610158919061109f565b8260c001358360e001356104ea565b5b80602001602081019061017b9190611132565b156101ad576101ac816080016020810190610196919061109f565b828061016001906101a79190611611565b6105d4565b5b8060400160208101906101c09190611132565b156101eb576101ea8160a00160208101906101db919061109f565b8260c001358360e001356108d8565b5b8060600160208101906101fe9190611132565b15610300573073ffffffffffffffffffffffffffffffffffffffff1663c90d048e826080016020810190610232919061109f565b73ffffffffffffffffffffffffffffffffffffffff1663cc7a262e6040518163ffffffff1660e01b8152600401602060405180830381600087803b15801561027957600080fd5b505af115801561028d573d6000803e3d6000fd5b505050506040513d601f19601f820116820180604052508101906102b191906110c8565b6040518263ffffffff1660e01b81526004016102cd919061145d565b600060405180830381600087803b1580156102e757600080fd5b505af11580156102fb573d6000803e3d6000fd5b505050505b7f81188f5f74429a8d5dd69e402d2ec601e9510929aeb809d15acde392c83de433816080016020810190610334919061109f565b604051610341919061145d565b60405180910390a150565b7f000000000000000000000000000000000000000000000000000000000000000081565b7f000000000000000000000000000000000000000000000000000000000000000073ffffffffffffffffffffffffffffffffffffffff163373ffffffffffffffffffffffffffffffffffffffff16146103fe576040517f08c379a00000000000000000000000000000000000000000000000000000000081526004016103f590611523565b60405180910390fd5b60008173ffffffffffffffffffffffffffffffffffffffff166370a08231306040518263ffffffff1660e01b8152600401610439919061145d565b60206040518083038186803b15801561045157600080fd5b505afa158015610465573d6000803e3d6000fd5b505050506040513d601f19601f8201168201806040525081019061048991906111c5565b9050600081141561049a57506104e7565b6104e57f0000000000000000000000000000000000000000000000000000000000000000828473ffffffffffffffffffffffffffffffffffffffff16610c919092919063ffffffff16565b505b50565b6000811415610563578273ffffffffffffffffffffffffffffffffffffffff16631058d281836040518263ffffffff1660e01b815260040161052c9190611543565b600060405180830381600087803b15801561054657600080fd5b505af115801561055a573d6000803e3d6000fd5b505050506105cf565b8273ffffffffffffffffffffffffffffffffffffffff16632e1a7d4d836040518263ffffffff1660e01b815260040161059c9190611543565b600060405180830381600087803b1580156105b657600080fd5b505af11580156105ca573d6000803e3d6000fd5b505050505b505050565b60008273ffffffffffffffffffffffffffffffffffffffff1663f7c618c16040518163ffffffff1660e01b8152600401602060405180830381600087803b15801561061e57600080fd5b505af1158015610632573d6000803e3d6000fd5b505050506040513d601f19601f8201168201806040525081019061065691906110c8565b73ffffffffffffffffffffffffffffffffffffffff166370a08231306040518263ffffffff1660e01b815260040161068e919061145d565b60206040518083038186803b1580156106a657600080fd5b505afa1580156106ba573d6000803e3d6000fd5b505050506040513d601f19601f820116820180604052508101906106de91906111c5565b905060008260200135826106f29190611703565b90508373ffffffffffffffffffffffffffffffffffffffff1663f7c618c16040518163ffffffff1660e01b8152600401602060405180830381600087803b15801561073c57600080fd5b505af1158015610750573d6000803e3d6000fd5b505050506040513d601f19601f8201168201806040525081019061077491906110c8565b73ffffffffffffffffffffffffffffffffffffffff1663095ea7b38460000160208101906107a2919061109f565b846040518363ffffffff1660e01b81526004016107c0929190611478565b602060405180830381600087803b1580156107da57600080fd5b505af11580156107ee573d6000803e3d6000fd5b505050506040513d601f19601f82011682018060405250810190610812919061115b565b50826000016020810190610826919061109f565b73ffffffffffffffffffffffffffffffffffffffff166338ed1739838386806040019061085391906115ba565b3089606001356040518763ffffffff1660e01b815260040161087a9695949392919061155e565b600060405180830381600087803b15801561089457600080fd5b505af11580156108a8573d6000803e3d6000fd5b505050506040513d6000823e3d601f19601f820116820180604052508101906108d191906110f1565b5050505050565b60008214156109ec578273ffffffffffffffffffffffffffffffffffffffff1663cc7a262e6040518163ffffffff1660e01b8152600401602060405180830381600087803b15801561092957600080fd5b505af115801561093d573d6000803e3d6000fd5b505050506040513d601f19601f8201168201806040525081019061096191906110c8565b73ffffffffffffffffffffffffffffffffffffffff166370a08231306040518263ffffffff1660e01b8152600401610999919061145d565b60206040518083038186803b1580156109b157600080fd5b505afa1580156109c5573d6000803e3d6000fd5b505050506040513d601f19601f820116820180604052508101906109e991906111c5565b91505b6000811415610b135760008054906101000a900473ffffffffffffffffffffffffffffffffffffffff1673ffffffffffffffffffffffffffffffffffffffff1663095ea7b384846040518363ffffffff1660e01b8152600401610a50929190611478565b602060405180830381600087803b158015610a6a57600080fd5b505af1158015610a7e573d6000803e3d6000fd5b505050506040513d601f19601f82011682018060405250810190610aa2919061115b565b508273ffffffffffffffffffffffffffffffffffffffff166341441d3b836040518263ffffffff1660e01b8152600401610adc9190611543565b600060405180830381600087803b158015610af657600080fd5b505af1158015610b0a573d6000803e3d6000fd5b50505050610c8c565b8273ffffffffffffffffffffffffffffffffffffffff1663cc7a262e6040518163ffffffff1660e01b8152600401602060405180830381600087803b158015610b5b57600080fd5b505af1158015610b6f573d6000803e3d6000fd5b505050506040513d601f19601f82011682018060405250810190610b9391906110c8565b73ffffffffffffffffffffffffffffffffffffffff1663095ea7b384846040518363ffffffff1660e01b8152600401610bcd929190611478565b602060405180830381600087803b158015610be757600080fd5b505af1158015610bfb573d6000803e3d6000fd5b505050506040513d601f19601f82011682018060405250810190610c1f919061115b565b508273ffffffffffffffffffffffffffffffffffffffff1663b6b55f25836040518263ffffffff1660e01b8152600401610c599190611543565b600060405180830381600087803b158015610c7357600080fd5b505af1158015610c87573d6000803e3d6000fd5b505050505b505050565b610d128363a9059cbb60e01b8484604051602401610cb0929190611478565b604051602081830303815290604052907bffffffffffffffffffffffffffffffffffffffffffffffffffffffff19166020820180517bffffffffffffffffffffffffffffffffffffffffffffffffffffffff8381831617835250505050610d17565b505050565b6000610d79826040518060400160405280602081526020017f5361666545524332303a206c6f772d6c6576656c2063616c6c206661696c65648152508573ffffffffffffffffffffffffffffffffffffffff16610dde9092919063ffffffff16565b9050600081511115610dd95780806020019051810190610d99919061115b565b610dd8576040517f08c379a0000000000000000000000000000000000000000000000000000000008152600401610dcf90611503565b60405180910390fd5b5b505050565b6060610ded8484600085610df6565b90509392505050565b606082471015610e3b576040517f08c379a0000000000000000000000000000000000000000000000000000000008152600401610e32906114c3565b60405180910390fd5b610e4485610f0a565b610e83576040517f08c379a0000000000000000000000000000000000000000000000000000000008152600401610e7a906114e3565b60405180910390fd5b6000808673ffffffffffffffffffffffffffffffffffffffff168587604051610eac9190611446565b60006040518083038185875af1925050503d8060008114610ee9576040519150601f19603f3d011682016040523d82523d6000602084013e610eee565b606091505b5091509150610efe828286610f1d565b92505050949350505050565b600080823b905060008111915050919050565b60608315610f2d57829050610f7d565b600083511115610f405782518084602001fd5b816040517f08c379a0000000000000000000000000000000000000000000000000000000008152600401610f7491906114a1565b60405180910390fd5b9392505050565b6000610f97610f9284611666565b611635565b90508083825260208201905082856020860282011115610fb657600080fd5b60005b85811015610fe65781610fcc888261108a565b845260208401935060208301925050600181019050610fb9565b5050509392505050565b600081359050610fff81611847565b92915050565b60008151905061101481611847565b92915050565b600082601f83011261102b57600080fd5b815161103b848260208601610f84565b91505092915050565b6000813590506110538161185e565b92915050565b6000815190506110688161185e565b92915050565b6000610180828403121561108157600080fd5b81905092915050565b60008151905061109981611875565b92915050565b6000602082840312156110b157600080fd5b60006110bf84828501610ff0565b91505092915050565b6000602082840312156110da57600080fd5b60006110e884828501611005565b91505092915050565b60006020828403121561110357600080fd5b600082015167ffffffffffffffff81111561111d57600080fd5b6111298482850161101a565b91505092915050565b60006020828403121561114457600080fd5b600061115284828501611044565b91505092915050565b60006020828403121561116d57600080fd5b600061117b84828501611059565b91505092915050565b60006020828403121561119657600080fd5b600082013567ffffffffffffffff8111156111b057600080fd5b6111bc8482850161106e565b91505092915050565b6000602082840312156111d757600080fd5b60006111e58482850161108a565b91505092915050565b60006111fa8383611206565b60208301905092915050565b61120f8161175d565b82525050565b61121e8161175d565b82525050565b600061123083856116bf565b935061123b82611692565b8060005b858110156112745761125182846116ec565b61125b88826111ee565b9750611266836116b2565b92505060018101905061123f565b5085925050509392505050565b600061128c8261169c565b61129681856116d0565b93506112a68185602086016117a5565b80840191505092915050565b60006112bd826116a7565b6112c781856116db565b93506112d78185602086016117a5565b6112e081611836565b840191505092915050565b60006112f86026836116db565b91507f416464726573733a20696e73756666696369656e742062616c616e636520666f60008301527f722063616c6c00000000000000000000000000000000000000000000000000006020830152604082019050919050565b600061135e601d836116db565b91507f416464726573733a2063616c6c20746f206e6f6e2d636f6e74726163740000006000830152602082019050919050565b600061139e602a836116db565b91507f5361666545524332303a204552433230206f7065726174696f6e20646964206e60008301527f6f742073756363656564000000000000000000000000000000000000000000006020830152604082019050919050565b60006114046009836116db565b91507f6f6e6c794f776e657200000000000000000000000000000000000000000000006000830152602082019050919050565b6114408161179b565b82525050565b60006114528284611281565b915081905092915050565b60006020820190506114726000830184611215565b92915050565b600060408201905061148d6000830185611215565b61149a6020830184611437565b9392505050565b600060208201905081810360008301526114bb81846112b2565b905092915050565b600060208201905081810360008301526114dc816112eb565b9050919050565b600060208201905081810360008301526114fc81611351565b9050919050565b6000602082019050818103600083015261151c81611391565b9050919050565b6000602082019050818103600083015261153c816113f7565b9050919050565b60006020820190506115586000830184611437565b92915050565b600060a0820190506115736000830189611437565b6115806020830188611437565b8181036040830152611593818688611224565b90506115a26060830185611215565b6115af6080830184611437565b979650505050505050565b600080833560016020038436030381126115d357600080fd5b80840192508235915067ffffffffffffffff8211156115f157600080fd5b60208301925060208202360383131561160957600080fd5b509250929050565b60008235600160800383360303811261162957600080fd5b80830191505092915050565b6000604051905081810181811067ffffffffffffffff8211171561165c5761165b611807565b5b8060405250919050565b600067ffffffffffffffff82111561168157611680611807565b5b602082029050602081019050919050565b6000819050919050565b600081519050919050565b600081519050919050565b6000602082019050919050565b600082825260208201905092915050565b600081905092915050565b600082825260208201905092915050565b60006116fb6020840184610ff0565b905092915050565b600061170e8261179b565b91506117198361179b565b9250817fffffffffffffffffffffffffffffffffffffffffffffffffffffffffffffffff0483118215151615611752576117516117d8565b5b828202905092915050565b60006117688261177b565b9050919050565b60008115159050919050565b600073ffffffffffffffffffffffffffffffffffffffff82169050919050565b6000819050919050565b60005b838110156117c35780820151818401526020810190506117a8565b838111156117d2576000848401525b50505050565b7f4e487b7100000000000000000000000000000000000000000000000000000000600052601160045260246000fd5b7f4e487b7100000000000000000000000000000000000000000000000000000000600052604160045260246000fd5b6000601f19601f8301169050919050565b6118508161175d565b811461185b57600080fd5b50565b6118678161176f565b811461187257600080fd5b50565b61187e8161179b565b811461188957600080fd5b5056fea26469706673582212209928a9731b0f704e0416b44b39f928dab3e64d693c91dff34b41e1ffba58c9c264736f6c63430008000033",
  "linkReferences": {},
  "deployedLinkReferences": {}
}