{
  "_format": "hh-sol-artifact-1",
  "contractName": "StrategyDelegator",
  "sourceName": "contracts/StrategyDelegator.sol",
  "abi": [
    {
      "inputs": [],
      "stateMutability": "nonpayable",
      "type": "constructor"
    },
    {
      "anonymous": false,
      "inputs": [
        {
          "indexed": true,
          "internalType": "address",
          "name": "previousOwner",
          "type": "address"
        },
        {
          "indexed": true,
          "internalType": "address",
          "name": "newOwner",
          "type": "address"
        }
      ],
      "name": "OwnershipTransferred",
      "type": "event"
    },
    {
      "inputs": [
        {
          "internalType": "address",
          "name": "stakedToken",
          "type": "address"
        },
        {
          "internalType": "uint256",
          "name": "amount",
          "type": "uint256"
        }
      ],
      "name": "TransferToOwner",
      "outputs": [],
      "stateMutability": "nonpayable",
      "type": "function"
    },
    {
      "inputs": [
        {
          "internalType": "address",
          "name": "strategyAddr",
          "type": "address"
        },
        {
          "components": [
            {
              "internalType": "bool",
              "name": "withdraw",
              "type": "bool"
            },
            {
              "internalType": "bool",
              "name": "swap",
              "type": "bool"
            },
            {
              "internalType": "bool",
              "name": "deposit",
              "type": "bool"
            },
            {
              "internalType": "address",
              "name": "stakedPoolAddr",
              "type": "address"
            },
            {
              "internalType": "address",
              "name": "newPoolAddr",
              "type": "address"
            },
            {
              "internalType": "uint256",
              "name": "amount",
              "type": "uint256"
            },
            {
              "internalType": "uint16",
              "name": "startIndex",
              "type": "uint16"
            },
            {
              "internalType": "uint16",
              "name": "endIndex",
              "type": "uint16"
            }
          ],
          "internalType": "struct IStrategy.DoHardWorkParams",
          "name": "params",
          "type": "tuple"
        }
      ],
      "name": "doHardWork",
      "outputs": [],
      "stateMutability": "nonpayable",
      "type": "function"
    },
    {
      "inputs": [],
      "name": "owner",
      "outputs": [
        {
          "internalType": "address",
          "name": "",
          "type": "address"
        }
      ],
      "stateMutability": "view",
      "type": "function"
    },
    {
      "inputs": [],
      "name": "renounceOwnership",
      "outputs": [],
      "stateMutability": "nonpayable",
      "type": "function"
    },
    {
      "inputs": [
        {
          "internalType": "address",
          "name": "newOwner",
          "type": "address"
        }
      ],
      "name": "transferOwnership",
      "outputs": [],
      "stateMutability": "nonpayable",
      "type": "function"
    }
  ],
  "bytecode": "0x608060405234801561001057600080fd5b5061002d61002261003960201b60201c565b61004160201b60201c565b60018081905550610105565b600033905090565b60008060009054906101000a900473ffffffffffffffffffffffffffffffffffffffff169050816000806101000a81548173ffffffffffffffffffffffffffffffffffffffff021916908373ffffffffffffffffffffffffffffffffffffffff1602179055508173ffffffffffffffffffffffffffffffffffffffff168173ffffffffffffffffffffffffffffffffffffffff167f8be0079c531659141344cd1fd0a4f28419497f9722a3daafe3b4186f6b6457e060405160405180910390a35050565b611591806101146000396000f3fe608060405234801561001057600080fd5b50600436106100575760003560e01c8063715018a61461005c5780638da5cb5b14610066578063dee81f2914610084578063f2fde38b146100a0578063fb6f7523146100bc575b600080fd5b6100646100d8565b005b61006e610160565b60405161007b9190610ffb565b60405180910390f35b61009e60048036038101906100999190610da7565b610189565b005b6100ba60048036038101906100b59190610d41565b610302565b005b6100d660048036038101906100d19190610d6a565b6103fa565b005b6100e061061e565b73ffffffffffffffffffffffffffffffffffffffff166100fe610160565b73ffffffffffffffffffffffffffffffffffffffff1614610154576040517f08c379a000000000000000000000000000000000000000000000000000000000815260040161014b9061110e565b60405180910390fd5b61015e6000610626565b565b60008060009054906101000a900473ffffffffffffffffffffffffffffffffffffffff16905090565b61019161061e565b73ffffffffffffffffffffffffffffffffffffffff166101af610160565b73ffffffffffffffffffffffffffffffffffffffff1614610205576040517f08c379a00000000000000000000000000000000000000000000000000000000081526004016101fc9061110e565b60405180910390fd5b600081141561029a578173ffffffffffffffffffffffffffffffffffffffff166370a08231306040518263ffffffff1660e01b81526004016102479190610ffb565b60206040518083038186803b15801561025f57600080fd5b505afa158015610273573d6000803e3d6000fd5b505050506040513d601f19601f820116820180604052508101906102979190610e0c565b90505b6102cc6102a5610160565b828473ffffffffffffffffffffffffffffffffffffffff166106ea9092919063ffffffff16565b6102fe6102d7610160565b828473ffffffffffffffffffffffffffffffffffffffff166108489092919063ffffffff16565b5050565b61030a61061e565b73ffffffffffffffffffffffffffffffffffffffff16610328610160565b73ffffffffffffffffffffffffffffffffffffffff161461037e576040517f08c379a00000000000000000000000000000000000000000000000000000000081526004016103759061110e565b60405180910390fd5b600073ffffffffffffffffffffffffffffffffffffffff168173ffffffffffffffffffffffffffffffffffffffff1614156103ee576040517f08c379a00000000000000000000000000000000000000000000000000000000081526004016103e5906110ce565b60405180910390fd5b6103f781610626565b50565b61040261061e565b73ffffffffffffffffffffffffffffffffffffffff16610420610160565b73ffffffffffffffffffffffffffffffffffffffff1614610476576040517f08c379a000000000000000000000000000000000000000000000000000000000815260040161046d9061110e565b60405180910390fd5b600260015414156104bc576040517f08c379a00000000000000000000000000000000000000000000000000000000081526004016104b39061118e565b60405180910390fd5b60026001819055506000808373ffffffffffffffffffffffffffffffffffffffff166001806040516024016104f2929190611083565b6040516020818303038152906040527f4a011ccb000000000000000000000000000000000000000000000000000000007bffffffffffffffffffffffffffffffffffffffffffffffffffffffff19166020820180517bffffffffffffffffffffffffffffffffffffffffffffffffffffffff838183161783525050505060405161057c9190610fe4565b600060405180830381855af49150503d80600081146105b7576040519150601f19603f3d011682016040523d82523d6000602084013e6105bc565b606091505b50915091506105ca826108ce565b6001151582151514610611576040517f08c379a00000000000000000000000000000000000000000000000000000000081526004016106089061112e565b60405180910390fd5b5050600180819055505050565b600033905090565b60008060009054906101000a900473ffffffffffffffffffffffffffffffffffffffff169050816000806101000a81548173ffffffffffffffffffffffffffffffffffffffff021916908373ffffffffffffffffffffffffffffffffffffffff1602179055508173ffffffffffffffffffffffffffffffffffffffff168173ffffffffffffffffffffffffffffffffffffffff167f8be0079c531659141344cd1fd0a4f28419497f9722a3daafe3b4186f6b6457e060405160405180910390a35050565b6000811480610783575060008373ffffffffffffffffffffffffffffffffffffffff1663dd62ed3e30856040518363ffffffff1660e01b8152600401610731929190611016565b60206040518083038186803b15801561074957600080fd5b505afa15801561075d573d6000803e3d6000fd5b505050506040513d601f19601f820116820180604052508101906107819190610e0c565b145b6107c2576040517f08c379a00000000000000000000000000000000000000000000000000000000081526004016107b9906111ae565b60405180910390fd5b6108438363095ea7b360e01b84846040516024016107e192919061103f565b604051602081830303815290604052907bffffffffffffffffffffffffffffffffffffffffffffffffffffffff19166020820180517bffffffffffffffffffffffffffffffffffffffffffffffffffffffff8381831617835250505050610967565b505050565b6108c98363a9059cbb60e01b848460405160240161086792919061103f565b604051602081830303815290604052907bffffffffffffffffffffffffffffffffffffffffffffffffffffffff19166020820180517bffffffffffffffffffffffffffffffffffffffffffffffffffffffff8381831617835250505050610967565b505050565b610964816040516024016108e29190611068565b6040516020818303038152906040527f32458eed000000000000000000000000000000000000000000000000000000007bffffffffffffffffffffffffffffffffffffffffffffffffffffffff19166020820180517bffffffffffffffffffffffffffffffffffffffffffffffffffffffff8381831617835250505050610a2e565b50565b60006109c9826040518060400160405280602081526020017f5361666545524332303a206c6f772d6c6576656c2063616c6c206661696c65648152508573ffffffffffffffffffffffffffffffffffffffff16610a579092919063ffffffff16565b9050600081511115610a2957808060200190518101906109e99190610de3565b610a28576040517f08c379a0000000000000000000000000000000000000000000000000000000008152600401610a1f9061116e565b60405180910390fd5b5b505050565b60008151905060006a636f6e736f6c652e6c6f679050602083016000808483855afa5050505050565b6060610a668484600085610a6f565b90509392505050565b606082471015610ab4576040517f08c379a0000000000000000000000000000000000000000000000000000000008152600401610aab906110ee565b60405180910390fd5b610abd85610b83565b610afc576040517f08c379a0000000000000000000000000000000000000000000000000000000008152600401610af39061114e565b60405180910390fd5b6000808673ffffffffffffffffffffffffffffffffffffffff168587604051610b259190610fe4565b60006040518083038185875af1925050503d8060008114610b62576040519150601f19603f3d011682016040523d82523d6000602084013e610b67565b606091505b5091509150610b77828286610b96565b92505050949350505050565b600080823b905060008111915050919050565b60608315610ba657829050610bf6565b600083511115610bb95782518084602001fd5b816040517f08c379a0000000000000000000000000000000000000000000000000000000008152600401610bed91906110ac565b60405180910390fd5b9392505050565b600081359050610c0c816114ff565b92915050565b600081359050610c2181611516565b92915050565b600081519050610c3681611516565b92915050565b60006101008284031215610c4f57600080fd5b610c5a6101006111ce565b90506000610c6a84828501610c12565b6000830152506020610c7e84828501610c12565b6020830152506040610c9284828501610c12565b6040830152506060610ca684828501610bfd565b6060830152506080610cba84828501610bfd565b60808301525060a0610cce84828501610d17565b60a08301525060c0610ce284828501610d02565b60c08301525060e0610cf684828501610d02565b60e08301525092915050565b600081359050610d118161152d565b92915050565b600081359050610d2681611544565b92915050565b600081519050610d3b81611544565b92915050565b600060208284031215610d5357600080fd5b6000610d6184828501610bfd565b91505092915050565b6000806101208385031215610d7e57600080fd5b6000610d8c85828601610bfd565b9250506020610d9d85828601610c3c565b9150509250929050565b60008060408385031215610dba57600080fd5b6000610dc885828601610bfd565b9250506020610dd985828601610d17565b9150509250929050565b600060208284031215610df557600080fd5b6000610e0384828501610c27565b91505092915050565b600060208284031215610e1e57600080fd5b6000610e2c84828501610d2c565b91505092915050565b610e3e81611225565b82525050565b610e4d81611237565b82525050565b6000610e5e826111f3565b610e688185611209565b9350610e7881856020860161127b565b80840191505092915050565b6000610e8f826111fe565b610e998185611214565b9350610ea981856020860161127b565b610eb28161130e565b840191505092915050565b6000610eca602683611214565b9150610ed58261131f565b604082019050919050565b6000610eed602683611214565b9150610ef88261136e565b604082019050919050565b6000610f10602083611214565b9150610f1b826113bd565b602082019050919050565b6000610f33601183611214565b9150610f3e826113e6565b602082019050919050565b6000610f56601d83611214565b9150610f618261140f565b602082019050919050565b6000610f79602a83611214565b9150610f8482611438565b604082019050919050565b6000610f9c601f83611214565b9150610fa782611487565b602082019050919050565b6000610fbf603683611214565b9150610fca826114b0565b604082019050919050565b610fde81611271565b82525050565b6000610ff08284610e53565b915081905092915050565b60006020820190506110106000830184610e35565b92915050565b600060408201905061102b6000830185610e35565b6110386020830184610e35565b9392505050565b60006040820190506110546000830185610e35565b6110616020830184610fd5565b9392505050565b600060208201905061107d6000830184610e44565b92915050565b60006040820190506110986000830185610e44565b6110a56020830184610e44565b9392505050565b600060208201905081810360008301526110c68184610e84565b905092915050565b600060208201905081810360008301526110e781610ebd565b9050919050565b6000602082019050818103600083015261110781610ee0565b9050919050565b6000602082019050818103600083015261112781610f03565b9050919050565b6000602082019050818103600083015261114781610f26565b9050919050565b6000602082019050818103600083015261116781610f49565b9050919050565b6000602082019050818103600083015261118781610f6c565b9050919050565b600060208201905081810360008301526111a781610f8f565b9050919050565b600060208201905081810360008301526111c781610fb2565b9050919050565b60006111d86111e9565b90506111e482826112ae565b919050565b6000604051905090565b600081519050919050565b600081519050919050565b600081905092915050565b600082825260208201905092915050565b600061123082611251565b9050919050565b60008115159050919050565b600061ffff82169050919050565b600073ffffffffffffffffffffffffffffffffffffffff82169050919050565b6000819050919050565b60005b8381101561129957808201518184015260208101905061127e565b838111156112a8576000848401525b50505050565b6112b78261130e565b810181811067ffffffffffffffff821117156112d6576112d56112df565b5b80604052505050565b7f4e487b7100000000000000000000000000000000000000000000000000000000600052604160045260246000fd5b6000601f19601f8301169050919050565b7f4f776e61626c653a206e6577206f776e657220697320746865207a65726f206160008201527f6464726573730000000000000000000000000000000000000000000000000000602082015250565b7f416464726573733a20696e73756666696369656e742062616c616e636520666f60008201527f722063616c6c0000000000000000000000000000000000000000000000000000602082015250565b7f4f776e61626c653a2063616c6c6572206973206e6f7420746865206f776e6572600082015250565b7f646f48617264576f726b206661696c6564000000000000000000000000000000600082015250565b7f416464726573733a2063616c6c20746f206e6f6e2d636f6e7472616374000000600082015250565b7f5361666545524332303a204552433230206f7065726174696f6e20646964206e60008201527f6f74207375636365656400000000000000000000000000000000000000000000602082015250565b7f5265656e7472616e637947756172643a207265656e7472616e742063616c6c00600082015250565b7f5361666545524332303a20617070726f76652066726f6d206e6f6e2d7a65726f60008201527f20746f206e6f6e2d7a65726f20616c6c6f77616e636500000000000000000000602082015250565b61150881611225565b811461151357600080fd5b50565b61151f81611237565b811461152a57600080fd5b50565b61153681611243565b811461154157600080fd5b50565b61154d81611271565b811461155857600080fd5b5056fea2646970667358221220fee7985acb0d9b0259a04b4d6172e9313173ac13a6d1306aa75729d7a116b46864736f6c63430008040033",
  "linkReferences": {},
  "deployedLinkReferences": {}
}